{
	"contracts/FavorsV2.sol": {
		"FavorsContractV2": {
			"abi": [
				{
					"inputs": [
						{
							"internalType": "uint64",
							"name": "subscriptionId",
							"type": "uint64"
						},
						{
							"internalType": "address",
							"name": "token",
							"type": "address"
						}
					],
					"stateMutability": "nonpayable",
					"type": "constructor"
				},
				{
					"inputs": [
						{
							"internalType": "address",
							"name": "have",
							"type": "address"
						},
						{
							"internalType": "address",
							"name": "want",
							"type": "address"
						}
					],
					"name": "OnlyCoordinatorCanFulfill",
					"type": "error"
				},
				{
					"anonymous": false,
					"inputs": [
						{
							"indexed": false,
							"internalType": "uint256",
							"name": "favorId",
							"type": "uint256"
						},
						{
							"indexed": false,
							"internalType": "address",
							"name": "acceptedBy",
							"type": "address"
						}
					],
					"name": "AceeptFavor",
					"type": "event"
				},
				{
					"anonymous": false,
					"inputs": [
						{
							"indexed": false,
							"internalType": "address",
							"name": "recipient",
							"type": "address"
						},
						{
							"indexed": false,
							"internalType": "uint256",
							"name": "favorId",
							"type": "uint256"
						}
					],
					"name": "AddFavor",
					"type": "event"
				},
				{
					"anonymous": false,
					"inputs": [
						{
							"indexed": false,
							"internalType": "uint256",
							"name": "favorId",
							"type": "uint256"
						},
						{
							"indexed": false,
							"internalType": "bool",
							"name": "isCompleted",
							"type": "bool"
						}
					],
					"name": "CompleteFavor",
					"type": "event"
				},
				{
					"anonymous": false,
					"inputs": [
						{
							"indexed": true,
							"internalType": "uint256",
							"name": "requestId",
							"type": "uint256"
						},
						{
							"indexed": true,
							"internalType": "uint256",
							"name": "result",
							"type": "uint256"
						}
					],
					"name": "DiceLanded",
					"type": "event"
				},
				{
					"anonymous": false,
					"inputs": [
						{
							"indexed": true,
							"internalType": "uint256",
							"name": "requestId",
							"type": "uint256"
						},
						{
							"indexed": true,
							"internalType": "address",
							"name": "roller",
							"type": "address"
						}
					],
					"name": "DiceRolled",
					"type": "event"
				},
				{
					"inputs": [
						{
							"internalType": "uint256",
							"name": "favorId",
							"type": "uint256"
						}
					],
					"name": "acceptFavor",
					"outputs": [],
					"stateMutability": "nonpayable",
					"type": "function"
				},
				{
					"inputs": [
						{
							"internalType": "string",
							"name": "favorText",
							"type": "string"
						},
						{
							"internalType": "bool",
							"name": "isCompleted",
							"type": "bool"
						}
					],
					"name": "addFavor",
					"outputs": [],
					"stateMutability": "payable",
					"type": "function"
				},
				{
					"inputs": [],
					"name": "collectBonus",
					"outputs": [
						{
							"internalType": "bool",
							"name": "bonusCollected",
							"type": "bool"
						}
					],
					"stateMutability": "nonpayable",
					"type": "function"
				},
				{
					"inputs": [
						{
							"internalType": "uint256",
							"name": "favorId",
							"type": "uint256"
						},
						{
							"internalType": "bool",
							"name": "isCompleted",
							"type": "bool"
						}
					],
					"name": "completeFavor",
					"outputs": [],
					"stateMutability": "nonpayable",
					"type": "function"
				},
				{
					"inputs": [],
					"name": "getAllIncompleteFavors",
					"outputs": [
						{
							"components": [
								{
									"internalType": "uint256",
									"name": "id",
									"type": "uint256"
								},
								{
									"internalType": "string",
									"name": "favorText",
									"type": "string"
								},
								{
									"internalType": "bool",
									"name": "isCompleted",
									"type": "bool"
								},
								{
									"internalType": "address",
									"name": "createdBy",
									"type": "address"
								},
								{
									"internalType": "address",
									"name": "acceptedBy",
									"type": "address"
								}
							],
							"internalType": "struct FavorsContractV2.Favor[]",
							"name": "",
							"type": "tuple[]"
						}
					],
					"stateMutability": "view",
					"type": "function"
				},
				{
					"inputs": [],
					"name": "getMyFavors",
					"outputs": [
						{
							"components": [
								{
									"internalType": "uint256",
									"name": "id",
									"type": "uint256"
								},
								{
									"internalType": "string",
									"name": "favorText",
									"type": "string"
								},
								{
									"internalType": "bool",
									"name": "isCompleted",
									"type": "bool"
								},
								{
									"internalType": "address",
									"name": "createdBy",
									"type": "address"
								},
								{
									"internalType": "address",
									"name": "acceptedBy",
									"type": "address"
								}
							],
							"internalType": "struct FavorsContractV2.Favor[]",
							"name": "",
							"type": "tuple[]"
						}
					],
					"stateMutability": "view",
					"type": "function"
				},
				{
					"inputs": [
						{
							"internalType": "uint256",
							"name": "requestId",
							"type": "uint256"
						},
						{
							"internalType": "uint256[]",
							"name": "randomWords",
							"type": "uint256[]"
						}
					],
					"name": "rawFulfillRandomWords",
					"outputs": [],
					"stateMutability": "nonpayable",
					"type": "function"
				}
			],
			"devdoc": {
				"kind": "dev",
				"methods": {},
				"version": 1
			},
			"evm": {
				"assembly": "    /* \"contracts/FavorsV2.sol\":604:6613  contract FavorsContractV2 is VRFConsumerBaseV2 {\r... */\n  mstore(0x40, 0xa0)\n    /* \"contracts/FavorsV2.sol\":963:1005  0x2Ca8E0C643bDe4C2E08ab1fA0da3401AdAD7734D */\n  0x2ca8e0c643bde4c2e08ab1fa0da3401adad7734d\n    /* \"contracts/FavorsV2.sol\":938:1005  address vrfCoordinator = 0x2Ca8E0C643bDe4C2E08ab1fA0da3401AdAD7734D */\n  0x01\n  exp(0x0100, 0x00)\n  dup2\n  sload\n  dup2\n  0xffffffffffffffffffffffffffffffffffffffff\n  mul\n  not\n  and\n  swap1\n  dup4\n  0xffffffffffffffffffffffffffffffffffffffff\n  and\n  mul\n  or\n  swap1\n  sstore\n  pop\n    /* \"contracts/FavorsV2.sol\":1242:1308  0x79d3d8832d904592c0bf9818b621522c988bb8b0c05cdc3b15aea1b6e8db0c15 */\n  0x79d3d8832d904592c0bf9818b621522c988bb8b0c05cdc3b15aea1b6e8db0c15\n    /* \"contracts/FavorsV2.sol\":1213:1308  bytes32 s_keyHash =\r... */\n  0x00\n  shl\n  0x02\n  sstore\n    /* \"contracts/FavorsV2.sol\":1600:1605  40000 */\n  0x9c40\n    /* \"contracts/FavorsV2.sol\":1574:1605  uint32 callbackGasLimit = 40000 */\n  0x03\n  exp(0x0100, 0x00)\n  dup2\n  sload\n  dup2\n  0xffffffff\n  mul\n  not\n  and\n  swap1\n  dup4\n  0xffffffff\n  and\n  mul\n  or\n  swap1\n  sstore\n  pop\n    /* \"contracts/FavorsV2.sol\":1697:1698  3 */\n  0x03\n    /* \"contracts/FavorsV2.sol\":1667:1698  uint16 requestConfirmations = 3 */\n  dup1\n  exp(0x0100, 0x04)\n  dup2\n  sload\n  dup2\n  0xffff\n  mul\n  not\n  and\n  swap1\n  dup4\n  0xffff\n  and\n  mul\n  or\n  swap1\n  sstore\n  pop\n    /* \"contracts/FavorsV2.sol\":1843:1844  1 */\n  0x01\n    /* \"contracts/FavorsV2.sol\":1825:1844  uint32 numWords = 1 */\n  0x03\n  exp(0x0100, 0x06)\n  dup2\n  sload\n  dup2\n  0xffffffff\n  mul\n  not\n  and\n  swap1\n  dup4\n  0xffffffff\n  and\n  mul\n  or\n  swap1\n  sstore\n  pop\n    /* \"contracts/FavorsV2.sol\":2669:2949  constructor(uint64 subscriptionId, address token)\r... */\n  callvalue\n  dup1\n  iszero\n  tag_1\n  jumpi\n  0x00\n  dup1\n  revert\ntag_1:\n  pop\n  mload(0x40)\n  sub(codesize, bytecodeSize)\n  dup1\n  bytecodeSize\n  dup4\n  codecopy\n  dup2\n  dup2\n  add\n  0x40\n  mstore\n  dup2\n  add\n  swap1\n  tag_2\n  swap2\n  swap1\n  tag_3\n  jump\t// in\ntag_2:\n    /* \"contracts/FavorsV2.sol\":2746:2760  vrfCoordinator */\n  0x01\n  0x00\n  swap1\n  sload\n  swap1\n  0x0100\n  exp\n  swap1\n  div\n  0xffffffffffffffffffffffffffffffffffffffff\n  and\n    /* \"@chainlink/contracts/src/v0.8/VRFConsumerBaseV2.sol\":5616:5631  _vrfCoordinator */\n  dup1\n    /* \"@chainlink/contracts/src/v0.8/VRFConsumerBaseV2.sol\":5599:5631  vrfCoordinator = _vrfCoordinator */\n  0xffffffffffffffffffffffffffffffffffffffff\n  and\n  0x80\n  dup2\n  0xffffffffffffffffffffffffffffffffffffffff\n  and\n  0x60\n  shl\n  dup2\n  mstore\n  pop\n  pop\n    /* \"@chainlink/contracts/src/v0.8/VRFConsumerBaseV2.sol\":5556:5636  constructor(address _vrfCoordinator) {... */\n  pop\n    /* \"contracts/FavorsV2.sol\":2818:2832  vrfCoordinator */\n  0x01\n  0x00\n  swap1\n  sload\n  swap1\n  0x0100\n  exp\n  swap1\n  div\n  0xffffffffffffffffffffffffffffffffffffffff\n  and\n    /* \"contracts/FavorsV2.sol\":2778:2789  COORDINATOR */\n  0x00\n  dup1\n    /* \"contracts/FavorsV2.sol\":2778:2833  COORDINATOR = VRFCoordinatorV2Interface(vrfCoordinator) */\n  0x0100\n  exp\n  dup2\n  sload\n  dup2\n  0xffffffffffffffffffffffffffffffffffffffff\n  mul\n  not\n  and\n  swap1\n  dup4\n  0xffffffffffffffffffffffffffffffffffffffff\n  and\n  mul\n  or\n  swap1\n  sstore\n  pop\n    /* \"contracts/FavorsV2.sol\":2854:2864  msg.sender */\n  caller\n    /* \"contracts/FavorsV2.sol\":2844:2851  s_owner */\n  0x03\n  0x0a\n    /* \"contracts/FavorsV2.sol\":2844:2864  s_owner = msg.sender */\n  0x0100\n  exp\n  dup2\n  sload\n  dup2\n  0xffffffffffffffffffffffffffffffffffffffff\n  mul\n  not\n  and\n  swap1\n  dup4\n  0xffffffffffffffffffffffffffffffffffffffff\n  and\n  mul\n  or\n  swap1\n  sstore\n  pop\n    /* \"contracts/FavorsV2.sol\":2894:2908  subscriptionId */\n  dup2\n    /* \"contracts/FavorsV2.sol\":2875:2891  s_subscriptionId */\n  0x00\n  0x14\n    /* \"contracts/FavorsV2.sol\":2875:2908  s_subscriptionId = subscriptionId */\n  0x0100\n  exp\n  dup2\n  sload\n  dup2\n  0xffffffffffffffff\n  mul\n  not\n  and\n  swap1\n  dup4\n  0xffffffffffffffff\n  and\n  mul\n  or\n  swap1\n  sstore\n  pop\n    /* \"contracts/FavorsV2.sol\":2935:2940  token */\n  dup1\n    /* \"contracts/FavorsV2.sol\":2919:2925  _token */\n  0x04\n  0x00\n    /* \"contracts/FavorsV2.sol\":2919:2941  _token = IERC20(token) */\n  0x0100\n  exp\n  dup2\n  sload\n  dup2\n  0xffffffffffffffffffffffffffffffffffffffff\n  mul\n  not\n  and\n  swap1\n  dup4\n  0xffffffffffffffffffffffffffffffffffffffff\n  and\n  mul\n  or\n  swap1\n  sstore\n  pop\n    /* \"contracts/FavorsV2.sol\":2669:2949  constructor(uint64 subscriptionId, address token)\r... */\n  pop\n  pop\n    /* \"contracts/FavorsV2.sol\":604:6613  contract FavorsContractV2 is VRFConsumerBaseV2 {\r... */\n  jump(tag_8)\n    /* \"#utility.yul\":7:150   */\ntag_10:\n    /* \"#utility.yul\":64:69   */\n  0x00\n    /* \"#utility.yul\":95:101   */\n  dup2\n    /* \"#utility.yul\":89:102   */\n  mload\n    /* \"#utility.yul\":80:102   */\n  swap1\n  pop\n    /* \"#utility.yul\":111:144   */\n  tag_12\n    /* \"#utility.yul\":138:143   */\n  dup2\n    /* \"#utility.yul\":111:144   */\n  tag_13\n  jump\t// in\ntag_12:\n    /* \"#utility.yul\":7:150   */\n  swap3\n  swap2\n  pop\n  pop\n  jump\t// out\n    /* \"#utility.yul\":156:297   */\ntag_14:\n    /* \"#utility.yul\":212:217   */\n  0x00\n    /* \"#utility.yul\":243:249   */\n  dup2\n    /* \"#utility.yul\":237:250   */\n  mload\n    /* \"#utility.yul\":228:250   */\n  swap1\n  pop\n    /* \"#utility.yul\":259:291   */\n  tag_16\n    /* \"#utility.yul\":285:290   */\n  dup2\n    /* \"#utility.yul\":259:291   */\n  tag_17\n  jump\t// in\ntag_16:\n    /* \"#utility.yul\":156:297   */\n  swap3\n  swap2\n  pop\n  pop\n  jump\t// out\n    /* \"#utility.yul\":303:808   */\ntag_3:\n    /* \"#utility.yul\":381:387   */\n  0x00\n    /* \"#utility.yul\":389:395   */\n  dup1\n    /* \"#utility.yul\":438:440   */\n  0x40\n    /* \"#utility.yul\":426:435   */\n  dup4\n    /* \"#utility.yul\":417:424   */\n  dup6\n    /* \"#utility.yul\":413:436   */\n  sub\n    /* \"#utility.yul\":409:441   */\n  slt\n    /* \"#utility.yul\":406:525   */\n  iszero\n  tag_19\n  jumpi\n    /* \"#utility.yul\":444:523   */\n  tag_20\n  tag_21\n  jump\t// in\ntag_20:\n    /* \"#utility.yul\":406:525   */\ntag_19:\n    /* \"#utility.yul\":564:565   */\n  0x00\n    /* \"#utility.yul\":589:652   */\n  tag_22\n    /* \"#utility.yul\":644:651   */\n  dup6\n    /* \"#utility.yul\":635:641   */\n  dup3\n    /* \"#utility.yul\":624:633   */\n  dup7\n    /* \"#utility.yul\":620:642   */\n  add\n    /* \"#utility.yul\":589:652   */\n  tag_14\n  jump\t// in\ntag_22:\n    /* \"#utility.yul\":579:652   */\n  swap3\n  pop\n    /* \"#utility.yul\":535:662   */\n  pop\n    /* \"#utility.yul\":701:703   */\n  0x20\n    /* \"#utility.yul\":727:791   */\n  tag_23\n    /* \"#utility.yul\":783:790   */\n  dup6\n    /* \"#utility.yul\":774:780   */\n  dup3\n    /* \"#utility.yul\":763:772   */\n  dup7\n    /* \"#utility.yul\":759:781   */\n  add\n    /* \"#utility.yul\":727:791   */\n  tag_10\n  jump\t// in\ntag_23:\n    /* \"#utility.yul\":717:791   */\n  swap2\n  pop\n    /* \"#utility.yul\":672:801   */\n  pop\n    /* \"#utility.yul\":303:808   */\n  swap3\n  pop\n  swap3\n  swap1\n  pop\n  jump\t// out\n    /* \"#utility.yul\":895:991   */\ntag_26:\n    /* \"#utility.yul\":932:939   */\n  0x00\n    /* \"#utility.yul\":961:985   */\n  tag_28\n    /* \"#utility.yul\":979:984   */\n  dup3\n    /* \"#utility.yul\":961:985   */\n  tag_29\n  jump\t// in\ntag_28:\n    /* \"#utility.yul\":950:985   */\n  swap1\n  pop\n    /* \"#utility.yul\":895:991   */\n  swap2\n  swap1\n  pop\n  jump\t// out\n    /* \"#utility.yul\":997:1123   */\ntag_29:\n    /* \"#utility.yul\":1034:1041   */\n  0x00\n    /* \"#utility.yul\":1074:1116   */\n  0xffffffffffffffffffffffffffffffffffffffff\n    /* \"#utility.yul\":1067:1072   */\n  dup3\n    /* \"#utility.yul\":1063:1117   */\n  and\n    /* \"#utility.yul\":1052:1117   */\n  swap1\n  pop\n    /* \"#utility.yul\":997:1123   */\n  swap2\n  swap1\n  pop\n  jump\t// out\n    /* \"#utility.yul\":1129:1230   */\ntag_31:\n    /* \"#utility.yul\":1165:1172   */\n  0x00\n    /* \"#utility.yul\":1205:1223   */\n  0xffffffffffffffff\n    /* \"#utility.yul\":1198:1203   */\n  dup3\n    /* \"#utility.yul\":1194:1224   */\n  and\n    /* \"#utility.yul\":1183:1224   */\n  swap1\n  pop\n    /* \"#utility.yul\":1129:1230   */\n  swap2\n  swap1\n  pop\n  jump\t// out\n    /* \"#utility.yul\":1359:1476   */\ntag_21:\n    /* \"#utility.yul\":1468:1469   */\n  0x00\n    /* \"#utility.yul\":1465:1466   */\n  dup1\n    /* \"#utility.yul\":1458:1470   */\n  revert\n    /* \"#utility.yul\":1482:1604   */\ntag_13:\n    /* \"#utility.yul\":1555:1579   */\n  tag_37\n    /* \"#utility.yul\":1573:1578   */\n  dup2\n    /* \"#utility.yul\":1555:1579   */\n  tag_26\n  jump\t// in\ntag_37:\n    /* \"#utility.yul\":1548:1553   */\n  dup2\n    /* \"#utility.yul\":1545:1580   */\n  eq\n    /* \"#utility.yul\":1535:1598   */\n  tag_38\n  jumpi\n    /* \"#utility.yul\":1594:1595   */\n  0x00\n    /* \"#utility.yul\":1591:1592   */\n  dup1\n    /* \"#utility.yul\":1584:1596   */\n  revert\n    /* \"#utility.yul\":1535:1598   */\ntag_38:\n    /* \"#utility.yul\":1482:1604   */\n  pop\n  jump\t// out\n    /* \"#utility.yul\":1610:1730   */\ntag_17:\n    /* \"#utility.yul\":1682:1705   */\n  tag_40\n    /* \"#utility.yul\":1699:1704   */\n  dup2\n    /* \"#utility.yul\":1682:1705   */\n  tag_31\n  jump\t// in\ntag_40:\n    /* \"#utility.yul\":1675:1680   */\n  dup2\n    /* \"#utility.yul\":1672:1706   */\n  eq\n    /* \"#utility.yul\":1662:1724   */\n  tag_41\n  jumpi\n    /* \"#utility.yul\":1720:1721   */\n  0x00\n    /* \"#utility.yul\":1717:1718   */\n  dup1\n    /* \"#utility.yul\":1710:1722   */\n  revert\n    /* \"#utility.yul\":1662:1724   */\ntag_41:\n    /* \"#utility.yul\":1610:1730   */\n  pop\n  jump\t// out\n    /* \"contracts/FavorsV2.sol\":604:6613  contract FavorsContractV2 is VRFConsumerBaseV2 {\r... */\ntag_8:\n  shr(0x60, mload(0x80))\n  codecopy(0x00, dataOffset(sub_0), dataSize(sub_0))\n  0x00\n  assignImmutable(\"0x1a192fabce13988b84994d4296e6cdc418d55e2f1d7f942188d4040b94fc57ac\")\n  return(0x00, dataSize(sub_0))\nstop\n\nsub_0: assembly {\n        /* \"contracts/FavorsV2.sol\":604:6613  contract FavorsContractV2 is VRFConsumerBaseV2 {\r... */\n      mstore(0x40, 0x80)\n      jumpi(tag_1, lt(calldatasize, 0x04))\n      shr(0xe0, calldataload(0x00))\n      dup1\n      0x5a3af2c1\n      gt\n      tag_9\n      jumpi\n      dup1\n      0x5a3af2c1\n      eq\n      tag_5\n      jumpi\n      dup1\n      0x6f2983b9\n      eq\n      tag_6\n      jumpi\n      dup1\n      0x78d0fd4a\n      eq\n      tag_7\n      jumpi\n      dup1\n      0xd5fb33c2\n      eq\n      tag_8\n      jumpi\n      jump(tag_1)\n    tag_9:\n      dup1\n      0x1fe543e3\n      eq\n      tag_2\n      jumpi\n      dup1\n      0x25baf3a0\n      eq\n      tag_3\n      jumpi\n      dup1\n      0x331ead10\n      eq\n      tag_4\n      jumpi\n    tag_1:\n      0x00\n      dup1\n      revert\n        /* \"@chainlink/contracts/src/v0.8/VRFConsumerBaseV2.sol\":6618:6874  function rawFulfillRandomWords(uint256 requestId, uint256[] memory randomWords) external {... */\n    tag_2:\n      callvalue\n      dup1\n      iszero\n      tag_10\n      jumpi\n      0x00\n      dup1\n      revert\n    tag_10:\n      pop\n      tag_11\n      0x04\n      dup1\n      calldatasize\n      sub\n      dup2\n      add\n      swap1\n      tag_12\n      swap2\n      swap1\n      tag_13\n      jump\t// in\n    tag_12:\n      tag_14\n      jump\t// in\n    tag_11:\n      stop\n        /* \"contracts/FavorsV2.sol\":6260:6610  function completeFavor(uint256 favorId, bool isCompleted) external {\r... */\n    tag_3:\n      callvalue\n      dup1\n      iszero\n      tag_15\n      jumpi\n      0x00\n      dup1\n      revert\n    tag_15:\n      pop\n      tag_16\n      0x04\n      dup1\n      calldatasize\n      sub\n      dup2\n      add\n      swap1\n      tag_17\n      swap2\n      swap1\n      tag_18\n      jump\t// in\n    tag_17:\n      tag_19\n      jump\t// in\n    tag_16:\n      stop\n        /* \"contracts/FavorsV2.sol\":4826:5444  function getMyFavors() external view returns (Favor[] memory) {\r... */\n    tag_4:\n      callvalue\n      dup1\n      iszero\n      tag_20\n      jumpi\n      0x00\n      dup1\n      revert\n    tag_20:\n      pop\n      tag_21\n      tag_22\n      jump\t// in\n    tag_21:\n      mload(0x40)\n      tag_23\n      swap2\n      swap1\n      tag_24\n      jump\t// in\n    tag_23:\n      mload(0x40)\n      dup1\n      swap2\n      sub\n      swap1\n      return\n        /* \"contracts/FavorsV2.sol\":6024:6252  function acceptFavor(uint256 favorId) external {\r... */\n    tag_5:\n      callvalue\n      dup1\n      iszero\n      tag_25\n      jumpi\n      0x00\n      dup1\n      revert\n    tag_25:\n      pop\n      tag_26\n      0x04\n      dup1\n      calldatasize\n      sub\n      dup2\n      add\n      swap1\n      tag_27\n      swap2\n      swap1\n      tag_28\n      jump\t// in\n    tag_27:\n      tag_29\n      jump\t// in\n    tag_26:\n      stop\n        /* \"contracts/FavorsV2.sol\":2957:3551  function addFavor(string memory favorText, bool isCompleted)\r... */\n    tag_6:\n      tag_30\n      0x04\n      dup1\n      calldatasize\n      sub\n      dup2\n      add\n      swap1\n      tag_31\n      swap2\n      swap1\n      tag_32\n      jump\t// in\n    tag_31:\n      tag_33\n      jump\t// in\n    tag_30:\n      stop\n        /* \"contracts/FavorsV2.sol\":5452:6016  function getAllIncompleteFavors() external view returns (Favor[] memory) {\r... */\n    tag_7:\n      callvalue\n      dup1\n      iszero\n      tag_34\n      jumpi\n      0x00\n      dup1\n      revert\n    tag_34:\n      pop\n      tag_35\n      tag_36\n      jump\t// in\n    tag_35:\n      mload(0x40)\n      tag_37\n      swap2\n      swap1\n      tag_24\n      jump\t// in\n    tag_37:\n      mload(0x40)\n      dup1\n      swap2\n      sub\n      swap1\n      return\n        /* \"contracts/FavorsV2.sol\":4400:4818  function collectBonus () public returns (bool bonusCollected)  {\r... */\n    tag_8:\n      callvalue\n      dup1\n      iszero\n      tag_38\n      jumpi\n      0x00\n      dup1\n      revert\n    tag_38:\n      pop\n      tag_39\n      tag_40\n      jump\t// in\n    tag_39:\n      mload(0x40)\n      tag_41\n      swap2\n      swap1\n      tag_42\n      jump\t// in\n    tag_41:\n      mload(0x40)\n      dup1\n      swap2\n      sub\n      swap1\n      return\n        /* \"@chainlink/contracts/src/v0.8/VRFConsumerBaseV2.sol\":6618:6874  function rawFulfillRandomWords(uint256 requestId, uint256[] memory randomWords) external {... */\n    tag_14:\n        /* \"@chainlink/contracts/src/v0.8/VRFConsumerBaseV2.sol\":6731:6745  vrfCoordinator */\n      immutable(\"0x1a192fabce13988b84994d4296e6cdc418d55e2f1d7f942188d4040b94fc57ac\")\n        /* \"@chainlink/contracts/src/v0.8/VRFConsumerBaseV2.sol\":6717:6745  msg.sender != vrfCoordinator */\n      0xffffffffffffffffffffffffffffffffffffffff\n      and\n        /* \"@chainlink/contracts/src/v0.8/VRFConsumerBaseV2.sol\":6717:6727  msg.sender */\n      caller\n        /* \"@chainlink/contracts/src/v0.8/VRFConsumerBaseV2.sol\":6717:6745  msg.sender != vrfCoordinator */\n      0xffffffffffffffffffffffffffffffffffffffff\n      and\n      eq\n        /* \"@chainlink/contracts/src/v0.8/VRFConsumerBaseV2.sol\":6713:6822  if (msg.sender != vrfCoordinator) {... */\n      tag_44\n      jumpi\n        /* \"@chainlink/contracts/src/v0.8/VRFConsumerBaseV2.sol\":6788:6798  msg.sender */\n      caller\n        /* \"@chainlink/contracts/src/v0.8/VRFConsumerBaseV2.sol\":6800:6814  vrfCoordinator */\n      immutable(\"0x1a192fabce13988b84994d4296e6cdc418d55e2f1d7f942188d4040b94fc57ac\")\n        /* \"@chainlink/contracts/src/v0.8/VRFConsumerBaseV2.sol\":6762:6815  OnlyCoordinatorCanFulfill(msg.sender, vrfCoordinator) */\n      mload(0x40)\n      0x1cf993f400000000000000000000000000000000000000000000000000000000\n      dup2\n      mstore\n      0x04\n      add\n      tag_45\n      swap3\n      swap2\n      swap1\n      tag_46\n      jump\t// in\n    tag_45:\n      mload(0x40)\n      dup1\n      swap2\n      sub\n      swap1\n      revert\n        /* \"@chainlink/contracts/src/v0.8/VRFConsumerBaseV2.sol\":6713:6822  if (msg.sender != vrfCoordinator) {... */\n    tag_44:\n        /* \"@chainlink/contracts/src/v0.8/VRFConsumerBaseV2.sol\":6827:6869  fulfillRandomWords(requestId, randomWords) */\n      tag_47\n        /* \"@chainlink/contracts/src/v0.8/VRFConsumerBaseV2.sol\":6846:6855  requestId */\n      dup3\n        /* \"@chainlink/contracts/src/v0.8/VRFConsumerBaseV2.sol\":6857:6868  randomWords */\n      dup3\n        /* \"@chainlink/contracts/src/v0.8/VRFConsumerBaseV2.sol\":6827:6845  fulfillRandomWords */\n      tag_48\n        /* \"@chainlink/contracts/src/v0.8/VRFConsumerBaseV2.sol\":6827:6869  fulfillRandomWords(requestId, randomWords) */\n      jump\t// in\n    tag_47:\n        /* \"@chainlink/contracts/src/v0.8/VRFConsumerBaseV2.sol\":6618:6874  function rawFulfillRandomWords(uint256 requestId, uint256[] memory randomWords) external {... */\n      pop\n      pop\n      jump\t// out\n        /* \"contracts/FavorsV2.sol\":6260:6610  function completeFavor(uint256 favorId, bool isCompleted) external {\r... */\n    tag_19:\n        /* \"contracts/FavorsV2.sol\":6367:6377  msg.sender */\n      caller\n        /* \"contracts/FavorsV2.sol\":6342:6377  favorToOwner[favorId] == msg.sender */\n      0xffffffffffffffffffffffffffffffffffffffff\n      and\n        /* \"contracts/FavorsV2.sol\":6342:6354  favorToOwner */\n      0x06\n        /* \"contracts/FavorsV2.sol\":6342:6363  favorToOwner[favorId] */\n      0x00\n        /* \"contracts/FavorsV2.sol\":6355:6362  favorId */\n      dup5\n        /* \"contracts/FavorsV2.sol\":6342:6363  favorToOwner[favorId] */\n      dup2\n      mstore\n      0x20\n      add\n      swap1\n      dup2\n      mstore\n      0x20\n      add\n      0x00\n      keccak256\n      0x00\n      swap1\n      sload\n      swap1\n      0x0100\n      exp\n      swap1\n      div\n      0xffffffffffffffffffffffffffffffffffffffff\n      and\n        /* \"contracts/FavorsV2.sol\":6342:6377  favorToOwner[favorId] == msg.sender */\n      0xffffffffffffffffffffffffffffffffffffffff\n      and\n      eq\n        /* \"contracts/FavorsV2.sol\":6338:6603  if (favorToOwner[favorId] == msg.sender) {\r... */\n      iszero\n      tag_50\n      jumpi\n        /* \"contracts/FavorsV2.sol\":6424:6435  isCompleted */\n      dup1\n        /* \"contracts/FavorsV2.sol\":6394:6400  favors */\n      0x05\n        /* \"contracts/FavorsV2.sol\":6401:6408  favorId */\n      dup4\n        /* \"contracts/FavorsV2.sol\":6394:6409  favors[favorId] */\n      dup2\n      sload\n      dup2\n      lt\n      tag_51\n      jumpi\n      tag_52\n      tag_53\n      jump\t// in\n    tag_52:\n    tag_51:\n      swap1\n      0x00\n      mstore\n      keccak256(0x00, 0x20)\n      swap1\n      0x04\n      mul\n      add\n        /* \"contracts/FavorsV2.sol\":6394:6421  favors[favorId].isCompleted */\n      0x02\n      add\n      0x00\n        /* \"contracts/FavorsV2.sol\":6394:6435  favors[favorId].isCompleted = isCompleted */\n      0x0100\n      exp\n      dup2\n      sload\n      dup2\n      0xff\n      mul\n      not\n      and\n      swap1\n      dup4\n      iszero\n      iszero\n      mul\n      or\n      swap1\n      sstore\n      pop\n        /* \"contracts/FavorsV2.sol\":6490:6496  _token */\n      0x04\n      0x00\n      swap1\n      sload\n      swap1\n      0x0100\n      exp\n      swap1\n      div\n      0xffffffffffffffffffffffffffffffffffffffff\n      and\n        /* \"contracts/FavorsV2.sol\":6490:6504  _token.approve */\n      0xffffffffffffffffffffffffffffffffffffffff\n      and\n      0x095ea7b3\n        /* \"contracts/FavorsV2.sol\":6505:6511  favors */\n      0x05\n        /* \"contracts/FavorsV2.sol\":6512:6519  favorId */\n      dup5\n        /* \"contracts/FavorsV2.sol\":6505:6520  favors[favorId] */\n      dup2\n      sload\n      dup2\n      lt\n      tag_55\n      jumpi\n      tag_56\n      tag_53\n      jump\t// in\n    tag_56:\n    tag_55:\n      swap1\n      0x00\n      mstore\n      keccak256(0x00, 0x20)\n      swap1\n      0x04\n      mul\n      add\n        /* \"contracts/FavorsV2.sol\":6505:6531  favors[favorId].acceptedBy */\n      0x03\n      add\n      0x00\n      swap1\n      sload\n      swap1\n      0x0100\n      exp\n      swap1\n      div\n      0xffffffffffffffffffffffffffffffffffffffff\n      and\n        /* \"contracts/FavorsV2.sol\":6533:6535  10 */\n      0x0a\n        /* \"contracts/FavorsV2.sol\":6490:6536  _token.approve(favors[favorId].acceptedBy, 10) */\n      mload(0x40)\n      dup4\n      0xffffffff\n      and\n      0xe0\n      shl\n      dup2\n      mstore\n      0x04\n      add\n      tag_58\n      swap3\n      swap2\n      swap1\n      tag_59\n      jump\t// in\n    tag_58:\n      0x20\n      mload(0x40)\n      dup1\n      dup4\n      sub\n      dup2\n      0x00\n      dup8\n      dup1\n      extcodesize\n      iszero\n      dup1\n      iszero\n      tag_60\n      jumpi\n      0x00\n      dup1\n      revert\n    tag_60:\n      pop\n      gas\n      call\n      iszero\n      dup1\n      iszero\n      tag_62\n      jumpi\n      returndatasize\n      0x00\n      dup1\n      returndatacopy\n      revert(0x00, returndatasize)\n    tag_62:\n      pop\n      pop\n      pop\n      pop\n      mload(0x40)\n      returndatasize\n      not(0x1f)\n      0x1f\n      dup3\n      add\n      and\n      dup3\n      add\n      dup1\n      0x40\n      mstore\n      pop\n      dup2\n      add\n      swap1\n      tag_63\n      swap2\n      swap1\n      tag_64\n      jump\t// in\n    tag_63:\n      pop\n        /* \"contracts/FavorsV2.sol\":6556:6591  CompleteFavor(favorId, isCompleted) */\n      0x22f2c4d5f84b94ce8b3a58c899c5e8beb5229bb388b036554727490c25451f66\n        /* \"contracts/FavorsV2.sol\":6570:6577  favorId */\n      dup3\n        /* \"contracts/FavorsV2.sol\":6579:6590  isCompleted */\n      dup3\n        /* \"contracts/FavorsV2.sol\":6556:6591  CompleteFavor(favorId, isCompleted) */\n      mload(0x40)\n      tag_65\n      swap3\n      swap2\n      swap1\n      tag_66\n      jump\t// in\n    tag_65:\n      mload(0x40)\n      dup1\n      swap2\n      sub\n      swap1\n      log1\n        /* \"contracts/FavorsV2.sol\":6338:6603  if (favorToOwner[favorId] == msg.sender) {\r... */\n    tag_50:\n        /* \"contracts/FavorsV2.sol\":6260:6610  function completeFavor(uint256 favorId, bool isCompleted) external {\r... */\n      pop\n      pop\n      jump\t// out\n        /* \"contracts/FavorsV2.sol\":4826:5444  function getMyFavors() external view returns (Favor[] memory) {\r... */\n    tag_22:\n        /* \"contracts/FavorsV2.sol\":4872:4886  Favor[] memory */\n      0x60\n        /* \"contracts/FavorsV2.sol\":4899:4923  Favor[] memory temporary */\n      0x00\n        /* \"contracts/FavorsV2.sol\":4938:4944  favors */\n      0x05\n        /* \"contracts/FavorsV2.sol\":4938:4951  favors.length */\n      dup1\n      sload\n      swap1\n      pop\n        /* \"contracts/FavorsV2.sol\":4926:4952  new Favor[](favors.length) */\n      0xffffffffffffffff\n      dup2\n      gt\n      iszero\n      tag_68\n      jumpi\n      tag_69\n      tag_70\n      jump\t// in\n    tag_69:\n    tag_68:\n      mload(0x40)\n      swap1\n      dup1\n      dup3\n      mstore\n      dup1\n      0x20\n      mul\n      0x20\n      add\n      dup3\n      add\n      0x40\n      mstore\n      dup1\n      iszero\n      tag_71\n      jumpi\n      dup2\n      0x20\n      add\n    tag_72:\n      tag_73\n      tag_74\n      jump\t// in\n    tag_73:\n      dup2\n      mstore\n      0x20\n      add\n      swap1\n      0x01\n      swap1\n      sub\n      swap1\n      dup2\n      tag_72\n      jumpi\n      swap1\n      pop\n    tag_71:\n      pop\n        /* \"contracts/FavorsV2.sol\":4899:4952  Favor[] memory temporary = new Favor[](favors.length) */\n      swap1\n      pop\n        /* \"contracts/FavorsV2.sol\":4963:4978  uint256 counter */\n      0x00\n        /* \"contracts/FavorsV2.sol\":5000:5009  uint256 i */\n      dup1\n        /* \"contracts/FavorsV2.sol\":4995:5259  for (uint256 i = 0; i < favors.length; i++) {\r... */\n    tag_75:\n        /* \"contracts/FavorsV2.sol\":5019:5025  favors */\n      0x05\n        /* \"contracts/FavorsV2.sol\":5019:5032  favors.length */\n      dup1\n      sload\n      swap1\n      pop\n        /* \"contracts/FavorsV2.sol\":5015:5016  i */\n      dup2\n        /* \"contracts/FavorsV2.sol\":5015:5032  i < favors.length */\n      lt\n        /* \"contracts/FavorsV2.sol\":4995:5259  for (uint256 i = 0; i < favors.length; i++) {\r... */\n      iszero\n      tag_76\n      jumpi\n        /* \"contracts/FavorsV2.sol\":5095:5105  msg.sender */\n      caller\n        /* \"contracts/FavorsV2.sol\":5076:5105  favorToOwner[i] == msg.sender */\n      0xffffffffffffffffffffffffffffffffffffffff\n      and\n        /* \"contracts/FavorsV2.sol\":5076:5088  favorToOwner */\n      0x06\n        /* \"contracts/FavorsV2.sol\":5076:5091  favorToOwner[i] */\n      0x00\n        /* \"contracts/FavorsV2.sol\":5089:5090  i */\n      dup4\n        /* \"contracts/FavorsV2.sol\":5076:5091  favorToOwner[i] */\n      dup2\n      mstore\n      0x20\n      add\n      swap1\n      dup2\n      mstore\n      0x20\n      add\n      0x00\n      keccak256\n      0x00\n      swap1\n      sload\n      swap1\n      0x0100\n      exp\n      swap1\n      div\n      0xffffffffffffffffffffffffffffffffffffffff\n      and\n        /* \"contracts/FavorsV2.sol\":5076:5105  favorToOwner[i] == msg.sender */\n      0xffffffffffffffffffffffffffffffffffffffff\n      and\n      eq\n        /* \"contracts/FavorsV2.sol\":5076:5139  favorToOwner[i] == msg.sender && favors[i].isCompleted == false */\n      dup1\n      iszero\n      tag_78\n      jumpi\n      pop\n        /* \"contracts/FavorsV2.sol\":5134:5139  false */\n      0x00\n        /* \"contracts/FavorsV2.sol\":5109:5139  favors[i].isCompleted == false */\n      iszero\n      iszero\n        /* \"contracts/FavorsV2.sol\":5109:5115  favors */\n      0x05\n        /* \"contracts/FavorsV2.sol\":5116:5117  i */\n      dup3\n        /* \"contracts/FavorsV2.sol\":5109:5118  favors[i] */\n      dup2\n      sload\n      dup2\n      lt\n      tag_79\n      jumpi\n      tag_80\n      tag_53\n      jump\t// in\n    tag_80:\n    tag_79:\n      swap1\n      0x00\n      mstore\n      keccak256(0x00, 0x20)\n      swap1\n      0x04\n      mul\n      add\n        /* \"contracts/FavorsV2.sol\":5109:5130  favors[i].isCompleted */\n      0x02\n      add\n      0x00\n      swap1\n      sload\n      swap1\n      0x0100\n      exp\n      swap1\n      div\n      0xff\n      and\n        /* \"contracts/FavorsV2.sol\":5109:5139  favors[i].isCompleted == false */\n      iszero\n      iszero\n      eq\n        /* \"contracts/FavorsV2.sol\":5076:5139  favorToOwner[i] == msg.sender && favors[i].isCompleted == false */\n    tag_78:\n        /* \"contracts/FavorsV2.sol\":5054:5248  if (\r... */\n      iszero\n      tag_82\n      jumpi\n        /* \"contracts/FavorsV2.sol\":5195:5201  favors */\n      0x05\n        /* \"contracts/FavorsV2.sol\":5202:5203  i */\n      dup2\n        /* \"contracts/FavorsV2.sol\":5195:5204  favors[i] */\n      dup2\n      sload\n      dup2\n      lt\n      tag_83\n      jumpi\n      tag_84\n      tag_53\n      jump\t// in\n    tag_84:\n    tag_83:\n      swap1\n      0x00\n      mstore\n      keccak256(0x00, 0x20)\n      swap1\n      0x04\n      mul\n      add\n        /* \"contracts/FavorsV2.sol\":5174:5204  temporary[counter] = favors[i] */\n      mload(0x40)\n      dup1\n      0xa0\n      add\n      0x40\n      mstore\n      swap1\n      dup2\n      0x00\n      dup3\n      add\n      sload\n      dup2\n      mstore\n      0x20\n      add\n      0x01\n      dup3\n      add\n      dup1\n      sload\n      tag_86\n      swap1\n      tag_87\n      jump\t// in\n    tag_86:\n      dup1\n      0x1f\n      add\n      0x20\n      dup1\n      swap2\n      div\n      mul\n      0x20\n      add\n      mload(0x40)\n      swap1\n      dup2\n      add\n      0x40\n      mstore\n      dup1\n      swap3\n      swap2\n      swap1\n      dup2\n      dup2\n      mstore\n      0x20\n      add\n      dup3\n      dup1\n      sload\n      tag_88\n      swap1\n      tag_87\n      jump\t// in\n    tag_88:\n      dup1\n      iszero\n      tag_89\n      jumpi\n      dup1\n      0x1f\n      lt\n      tag_90\n      jumpi\n      0x0100\n      dup1\n      dup4\n      sload\n      div\n      mul\n      dup4\n      mstore\n      swap2\n      0x20\n      add\n      swap2\n      jump(tag_89)\n    tag_90:\n      dup3\n      add\n      swap2\n      swap1\n      0x00\n      mstore\n      keccak256(0x00, 0x20)\n      swap1\n    tag_91:\n      dup2\n      sload\n      dup2\n      mstore\n      swap1\n      0x01\n      add\n      swap1\n      0x20\n      add\n      dup1\n      dup4\n      gt\n      tag_91\n      jumpi\n      dup3\n      swap1\n      sub\n      0x1f\n      and\n      dup3\n      add\n      swap2\n    tag_89:\n      pop\n      pop\n      pop\n      pop\n      pop\n      dup2\n      mstore\n      0x20\n      add\n      0x02\n      dup3\n      add\n      0x00\n      swap1\n      sload\n      swap1\n      0x0100\n      exp\n      swap1\n      div\n      0xff\n      and\n      iszero\n      iszero\n      iszero\n      iszero\n      dup2\n      mstore\n      0x20\n      add\n      0x02\n      dup3\n      add\n      0x01\n      swap1\n      sload\n      swap1\n      0x0100\n      exp\n      swap1\n      div\n      0xffffffffffffffffffffffffffffffffffffffff\n      and\n      0xffffffffffffffffffffffffffffffffffffffff\n      and\n      0xffffffffffffffffffffffffffffffffffffffff\n      and\n      dup2\n      mstore\n      0x20\n      add\n      0x03\n      dup3\n      add\n      0x00\n      swap1\n      sload\n      swap1\n      0x0100\n      exp\n      swap1\n      div\n      0xffffffffffffffffffffffffffffffffffffffff\n      and\n      0xffffffffffffffffffffffffffffffffffffffff\n      and\n      0xffffffffffffffffffffffffffffffffffffffff\n      and\n      dup2\n      mstore\n      pop\n      pop\n        /* \"contracts/FavorsV2.sol\":5174:5183  temporary */\n      dup4\n        /* \"contracts/FavorsV2.sol\":5184:5191  counter */\n      dup4\n        /* \"contracts/FavorsV2.sol\":5174:5192  temporary[counter] */\n      dup2\n      mload\n      dup2\n      lt\n      tag_92\n      jumpi\n      tag_93\n      tag_53\n      jump\t// in\n    tag_93:\n    tag_92:\n      0x20\n      mul\n      0x20\n      add\n      add\n        /* \"contracts/FavorsV2.sol\":5174:5204  temporary[counter] = favors[i] */\n      dup2\n      swap1\n      mstore\n      pop\n        /* \"contracts/FavorsV2.sol\":5223:5232  counter++ */\n      dup2\n      dup1\n      tag_94\n      swap1\n      tag_95\n      jump\t// in\n    tag_94:\n      swap3\n      pop\n      pop\n        /* \"contracts/FavorsV2.sol\":5054:5248  if (\r... */\n    tag_82:\n        /* \"contracts/FavorsV2.sol\":5034:5037  i++ */\n      dup1\n      dup1\n      tag_96\n      swap1\n      tag_95\n      jump\t// in\n    tag_96:\n      swap2\n      pop\n      pop\n        /* \"contracts/FavorsV2.sol\":4995:5259  for (uint256 i = 0; i < favors.length; i++) {\r... */\n      jump(tag_75)\n    tag_76:\n      pop\n        /* \"contracts/FavorsV2.sol\":5269:5290  Favor[] memory result */\n      0x00\n        /* \"contracts/FavorsV2.sol\":5305:5312  counter */\n      dup2\n        /* \"contracts/FavorsV2.sol\":5293:5313  new Favor[](counter) */\n      0xffffffffffffffff\n      dup2\n      gt\n      iszero\n      tag_97\n      jumpi\n      tag_98\n      tag_70\n      jump\t// in\n    tag_98:\n    tag_97:\n      mload(0x40)\n      swap1\n      dup1\n      dup3\n      mstore\n      dup1\n      0x20\n      mul\n      0x20\n      add\n      dup3\n      add\n      0x40\n      mstore\n      dup1\n      iszero\n      tag_99\n      jumpi\n      dup2\n      0x20\n      add\n    tag_100:\n      tag_101\n      tag_74\n      jump\t// in\n    tag_101:\n      dup2\n      mstore\n      0x20\n      add\n      swap1\n      0x01\n      swap1\n      sub\n      swap1\n      dup2\n      tag_100\n      jumpi\n      swap1\n      pop\n    tag_99:\n      pop\n        /* \"contracts/FavorsV2.sol\":5269:5313  Favor[] memory result = new Favor[](counter) */\n      swap1\n      pop\n        /* \"contracts/FavorsV2.sol\":5329:5338  uint256 i */\n      0x00\n        /* \"contracts/FavorsV2.sol\":5324:5413  for (uint256 i = 0; i < counter; i++) {\r... */\n    tag_102:\n        /* \"contracts/FavorsV2.sol\":5348:5355  counter */\n      dup3\n        /* \"contracts/FavorsV2.sol\":5344:5345  i */\n      dup2\n        /* \"contracts/FavorsV2.sol\":5344:5355  i < counter */\n      lt\n        /* \"contracts/FavorsV2.sol\":5324:5413  for (uint256 i = 0; i < counter; i++) {\r... */\n      iszero\n      tag_103\n      jumpi\n        /* \"contracts/FavorsV2.sol\":5389:5398  temporary */\n      dup4\n        /* \"contracts/FavorsV2.sol\":5399:5400  i */\n      dup2\n        /* \"contracts/FavorsV2.sol\":5389:5401  temporary[i] */\n      dup2\n      mload\n      dup2\n      lt\n      tag_105\n      jumpi\n      tag_106\n      tag_53\n      jump\t// in\n    tag_106:\n    tag_105:\n      0x20\n      mul\n      0x20\n      add\n      add\n      mload\n        /* \"contracts/FavorsV2.sol\":5377:5383  result */\n      dup3\n        /* \"contracts/FavorsV2.sol\":5384:5385  i */\n      dup3\n        /* \"contracts/FavorsV2.sol\":5377:5386  result[i] */\n      dup2\n      mload\n      dup2\n      lt\n      tag_107\n      jumpi\n      tag_108\n      tag_53\n      jump\t// in\n    tag_108:\n    tag_107:\n      0x20\n      mul\n      0x20\n      add\n      add\n        /* \"contracts/FavorsV2.sol\":5377:5401  result[i] = temporary[i] */\n      dup2\n      swap1\n      mstore\n      pop\n        /* \"contracts/FavorsV2.sol\":5357:5360  i++ */\n      dup1\n      dup1\n      tag_109\n      swap1\n      tag_95\n      jump\t// in\n    tag_109:\n      swap2\n      pop\n      pop\n        /* \"contracts/FavorsV2.sol\":5324:5413  for (uint256 i = 0; i < counter; i++) {\r... */\n      jump(tag_102)\n    tag_103:\n      pop\n        /* \"contracts/FavorsV2.sol\":5430:5436  result */\n      dup1\n        /* \"contracts/FavorsV2.sol\":5423:5436  return result */\n      swap4\n      pop\n      pop\n      pop\n      pop\n        /* \"contracts/FavorsV2.sol\":4826:5444  function getMyFavors() external view returns (Favor[] memory) {\r... */\n      swap1\n      jump\t// out\n        /* \"contracts/FavorsV2.sol\":6024:6252  function acceptFavor(uint256 favorId) external {\r... */\n    tag_29:\n        /* \"contracts/FavorsV2.sol\":6115:6125  msg.sender */\n      caller\n        /* \"contracts/FavorsV2.sol\":6086:6125  favors[favorId].createdBy != msg.sender */\n      0xffffffffffffffffffffffffffffffffffffffff\n      and\n        /* \"contracts/FavorsV2.sol\":6086:6092  favors */\n      0x05\n        /* \"contracts/FavorsV2.sol\":6093:6100  favorId */\n      dup3\n        /* \"contracts/FavorsV2.sol\":6086:6101  favors[favorId] */\n      dup2\n      sload\n      dup2\n      lt\n      tag_111\n      jumpi\n      tag_112\n      tag_53\n      jump\t// in\n    tag_112:\n    tag_111:\n      swap1\n      0x00\n      mstore\n      keccak256(0x00, 0x20)\n      swap1\n      0x04\n      mul\n      add\n        /* \"contracts/FavorsV2.sol\":6086:6111  favors[favorId].createdBy */\n      0x02\n      add\n      0x01\n      swap1\n      sload\n      swap1\n      0x0100\n      exp\n      swap1\n      div\n      0xffffffffffffffffffffffffffffffffffffffff\n      and\n        /* \"contracts/FavorsV2.sol\":6086:6125  favors[favorId].createdBy != msg.sender */\n      0xffffffffffffffffffffffffffffffffffffffff\n      and\n      eq\n        /* \"contracts/FavorsV2.sol\":6082:6245  if (favors[favorId].createdBy != msg.sender) {\r... */\n      tag_114\n      jumpi\n        /* \"contracts/FavorsV2.sol\":6171:6181  msg.sender */\n      caller\n        /* \"contracts/FavorsV2.sol\":6142:6148  favors */\n      0x05\n        /* \"contracts/FavorsV2.sol\":6149:6156  favorId */\n      dup3\n        /* \"contracts/FavorsV2.sol\":6142:6157  favors[favorId] */\n      dup2\n      sload\n      dup2\n      lt\n      tag_115\n      jumpi\n      tag_116\n      tag_53\n      jump\t// in\n    tag_116:\n    tag_115:\n      swap1\n      0x00\n      mstore\n      keccak256(0x00, 0x20)\n      swap1\n      0x04\n      mul\n      add\n        /* \"contracts/FavorsV2.sol\":6142:6168  favors[favorId].acceptedBy */\n      0x03\n      add\n      0x00\n        /* \"contracts/FavorsV2.sol\":6142:6181  favors[favorId].acceptedBy = msg.sender */\n      0x0100\n      exp\n      dup2\n      sload\n      dup2\n      0xffffffffffffffffffffffffffffffffffffffff\n      mul\n      not\n      and\n      swap1\n      dup4\n      0xffffffffffffffffffffffffffffffffffffffff\n      and\n      mul\n      or\n      swap1\n      sstore\n      pop\n        /* \"contracts/FavorsV2.sol\":6201:6233  AceeptFavor(favorId, acceptedBy) */\n      0x4148441eba233225e9979895d623fae450e8a06ed83f0e422c718e10fdc84656\n        /* \"contracts/FavorsV2.sol\":6213:6220  favorId */\n      dup2\n        /* \"contracts/FavorsV2.sol\":6222:6232  acceptedBy */\n      0x09\n      0x00\n      swap1\n      sload\n      swap1\n      0x0100\n      exp\n      swap1\n      div\n      0xffffffffffffffffffffffffffffffffffffffff\n      and\n        /* \"contracts/FavorsV2.sol\":6201:6233  AceeptFavor(favorId, acceptedBy) */\n      mload(0x40)\n      tag_118\n      swap3\n      swap2\n      swap1\n      tag_119\n      jump\t// in\n    tag_118:\n      mload(0x40)\n      dup1\n      swap2\n      sub\n      swap1\n      log1\n        /* \"contracts/FavorsV2.sol\":6082:6245  if (favors[favorId].createdBy != msg.sender) {\r... */\n    tag_114:\n        /* \"contracts/FavorsV2.sol\":6024:6252  function acceptFavor(uint256 favorId) external {\r... */\n      pop\n      jump\t// out\n        /* \"contracts/FavorsV2.sol\":2957:3551  function addFavor(string memory favorText, bool isCompleted)\r... */\n    tag_33:\n        /* \"contracts/FavorsV2.sol\":3069:3084  uint256 favorId */\n      0x00\n        /* \"contracts/FavorsV2.sol\":3087:3093  favors */\n      0x05\n        /* \"contracts/FavorsV2.sol\":3087:3100  favors.length */\n      dup1\n      sload\n      swap1\n      pop\n        /* \"contracts/FavorsV2.sol\":3069:3100  uint256 favorId = favors.length */\n      swap1\n      pop\n        /* \"contracts/FavorsV2.sol\":3111:3117  favors */\n      0x05\n        /* \"contracts/FavorsV2.sol\":3137:3199  Favor(favorId, favorText, isCompleted, msg.sender, acceptedBy) */\n      mload(0x40)\n      dup1\n      0xa0\n      add\n      0x40\n      mstore\n      dup1\n        /* \"contracts/FavorsV2.sol\":3143:3150  favorId */\n      dup4\n        /* \"contracts/FavorsV2.sol\":3137:3199  Favor(favorId, favorText, isCompleted, msg.sender, acceptedBy) */\n      dup2\n      mstore\n      0x20\n      add\n        /* \"contracts/FavorsV2.sol\":3152:3161  favorText */\n      dup6\n        /* \"contracts/FavorsV2.sol\":3137:3199  Favor(favorId, favorText, isCompleted, msg.sender, acceptedBy) */\n      dup2\n      mstore\n      0x20\n      add\n        /* \"contracts/FavorsV2.sol\":3163:3174  isCompleted */\n      dup5\n        /* \"contracts/FavorsV2.sol\":3137:3199  Favor(favorId, favorText, isCompleted, msg.sender, acceptedBy) */\n      iszero\n      iszero\n      dup2\n      mstore\n      0x20\n      add\n        /* \"contracts/FavorsV2.sol\":3176:3186  msg.sender */\n      caller\n        /* \"contracts/FavorsV2.sol\":3137:3199  Favor(favorId, favorText, isCompleted, msg.sender, acceptedBy) */\n      0xffffffffffffffffffffffffffffffffffffffff\n      and\n      dup2\n      mstore\n      0x20\n      add\n        /* \"contracts/FavorsV2.sol\":3188:3198  acceptedBy */\n      0x09\n      0x00\n      swap1\n      sload\n      swap1\n      0x0100\n      exp\n      swap1\n      div\n      0xffffffffffffffffffffffffffffffffffffffff\n      and\n        /* \"contracts/FavorsV2.sol\":3137:3199  Favor(favorId, favorText, isCompleted, msg.sender, acceptedBy) */\n      0xffffffffffffffffffffffffffffffffffffffff\n      and\n      dup2\n      mstore\n      pop\n        /* \"contracts/FavorsV2.sol\":3111:3210  favors.push(\r... */\n      swap1\n      dup1\n      0x01\n      dup2\n      sload\n      add\n      dup1\n      dup3\n      sstore\n      dup1\n      swap2\n      pop\n      pop\n      0x01\n      swap1\n      sub\n      swap1\n      0x00\n      mstore\n      keccak256(0x00, 0x20)\n      swap1\n      0x04\n      mul\n      add\n      0x00\n      swap1\n      swap2\n      swap1\n      swap2\n      swap1\n      swap2\n      pop\n      0x00\n      dup3\n      add\n      mload\n      dup2\n      0x00\n      add\n      sstore\n      0x20\n      dup3\n      add\n      mload\n      dup2\n      0x01\n      add\n      swap1\n      dup1\n      mload\n      swap1\n      0x20\n      add\n      swap1\n      tag_122\n      swap3\n      swap2\n      swap1\n      tag_123\n      jump\t// in\n    tag_122:\n      pop\n      0x40\n      dup3\n      add\n      mload\n      dup2\n      0x02\n      add\n      exp(0x0100, 0x00)\n      dup2\n      sload\n      dup2\n      0xff\n      mul\n      not\n      and\n      swap1\n      dup4\n      iszero\n      iszero\n      mul\n      or\n      swap1\n      sstore\n      pop\n      0x60\n      dup3\n      add\n      mload\n      dup2\n      0x02\n      add\n      exp(0x0100, 0x01)\n      dup2\n      sload\n      dup2\n      0xffffffffffffffffffffffffffffffffffffffff\n      mul\n      not\n      and\n      swap1\n      dup4\n      0xffffffffffffffffffffffffffffffffffffffff\n      and\n      mul\n      or\n      swap1\n      sstore\n      pop\n      0x80\n      dup3\n      add\n      mload\n      dup2\n      0x03\n      add\n      exp(0x0100, 0x00)\n      dup2\n      sload\n      dup2\n      0xffffffffffffffffffffffffffffffffffffffff\n      mul\n      not\n      and\n      swap1\n      dup4\n      0xffffffffffffffffffffffffffffffffffffffff\n      and\n      mul\n      or\n      swap1\n      sstore\n      pop\n      pop\n      pop\n        /* \"contracts/FavorsV2.sol\":3245:3255  msg.sender */\n      caller\n        /* \"contracts/FavorsV2.sol\":3221:3233  favorToOwner */\n      0x06\n        /* \"contracts/FavorsV2.sol\":3221:3242  favorToOwner[favorId] */\n      0x00\n        /* \"contracts/FavorsV2.sol\":3234:3241  favorId */\n      dup4\n        /* \"contracts/FavorsV2.sol\":3221:3242  favorToOwner[favorId] */\n      dup2\n      mstore\n      0x20\n      add\n      swap1\n      dup2\n      mstore\n      0x20\n      add\n      0x00\n      keccak256\n      0x00\n        /* \"contracts/FavorsV2.sol\":3221:3255  favorToOwner[favorId] = msg.sender */\n      0x0100\n      exp\n      dup2\n      sload\n      dup2\n      0xffffffffffffffffffffffffffffffffffffffff\n      mul\n      not\n      and\n      swap1\n      dup4\n      0xffffffffffffffffffffffffffffffffffffffff\n      and\n      mul\n      or\n      swap1\n      sstore\n      pop\n        /* \"contracts/FavorsV2.sol\":3271:3300  AddFavor(msg.sender, favorId) */\n      0x70ad01a37bd5505ab7fe715aa7144a63a75da2ec5da4b3db55a646699336e4f4\n        /* \"contracts/FavorsV2.sol\":3280:3290  msg.sender */\n      caller\n        /* \"contracts/FavorsV2.sol\":3292:3299  favorId */\n      dup3\n        /* \"contracts/FavorsV2.sol\":3271:3300  AddFavor(msg.sender, favorId) */\n      mload(0x40)\n      tag_124\n      swap3\n      swap2\n      swap1\n      tag_125\n      jump\t// in\n    tag_124:\n      mload(0x40)\n      dup1\n      swap2\n      sub\n      swap1\n      log1\n        /* \"contracts/FavorsV2.sol\":3521:3543  firstFavor(msg.sender) */\n      tag_126\n        /* \"contracts/FavorsV2.sol\":3532:3542  msg.sender */\n      caller\n        /* \"contracts/FavorsV2.sol\":3521:3531  firstFavor */\n      tag_127\n        /* \"contracts/FavorsV2.sol\":3521:3543  firstFavor(msg.sender) */\n      jump\t// in\n    tag_126:\n      pop\n        /* \"contracts/FavorsV2.sol\":3058:3551  {\r... */\n      pop\n        /* \"contracts/FavorsV2.sol\":2957:3551  function addFavor(string memory favorText, bool isCompleted)\r... */\n      pop\n      pop\n      jump\t// out\n        /* \"contracts/FavorsV2.sol\":5452:6016  function getAllIncompleteFavors() external view returns (Favor[] memory) {\r... */\n    tag_36:\n        /* \"contracts/FavorsV2.sol\":5509:5523  Favor[] memory */\n      0x60\n        /* \"contracts/FavorsV2.sol\":5536:5560  Favor[] memory temporary */\n      0x00\n        /* \"contracts/FavorsV2.sol\":5575:5581  favors */\n      0x05\n        /* \"contracts/FavorsV2.sol\":5575:5588  favors.length */\n      dup1\n      sload\n      swap1\n      pop\n        /* \"contracts/FavorsV2.sol\":5563:5589  new Favor[](favors.length) */\n      0xffffffffffffffff\n      dup2\n      gt\n      iszero\n      tag_129\n      jumpi\n      tag_130\n      tag_70\n      jump\t// in\n    tag_130:\n    tag_129:\n      mload(0x40)\n      swap1\n      dup1\n      dup3\n      mstore\n      dup1\n      0x20\n      mul\n      0x20\n      add\n      dup3\n      add\n      0x40\n      mstore\n      dup1\n      iszero\n      tag_131\n      jumpi\n      dup2\n      0x20\n      add\n    tag_132:\n      tag_133\n      tag_74\n      jump\t// in\n    tag_133:\n      dup2\n      mstore\n      0x20\n      add\n      swap1\n      0x01\n      swap1\n      sub\n      swap1\n      dup2\n      tag_132\n      jumpi\n      swap1\n      pop\n    tag_131:\n      pop\n        /* \"contracts/FavorsV2.sol\":5536:5589  Favor[] memory temporary = new Favor[](favors.length) */\n      swap1\n      pop\n        /* \"contracts/FavorsV2.sol\":5600:5615  uint256 counter */\n      0x00\n        /* \"contracts/FavorsV2.sol\":5637:5646  uint256 i */\n      dup1\n        /* \"contracts/FavorsV2.sol\":5632:5831  for (uint256 i = 0; i < favors.length; i++) {\r... */\n    tag_134:\n        /* \"contracts/FavorsV2.sol\":5656:5662  favors */\n      0x05\n        /* \"contracts/FavorsV2.sol\":5656:5669  favors.length */\n      dup1\n      sload\n      swap1\n      pop\n        /* \"contracts/FavorsV2.sol\":5652:5653  i */\n      dup2\n        /* \"contracts/FavorsV2.sol\":5652:5669  i < favors.length */\n      lt\n        /* \"contracts/FavorsV2.sol\":5632:5831  for (uint256 i = 0; i < favors.length; i++) {\r... */\n      iszero\n      tag_135\n      jumpi\n        /* \"contracts/FavorsV2.sol\":5720:5725  false */\n      0x00\n        /* \"contracts/FavorsV2.sol\":5695:5725  favors[i].isCompleted == false */\n      iszero\n      iszero\n        /* \"contracts/FavorsV2.sol\":5695:5701  favors */\n      0x05\n        /* \"contracts/FavorsV2.sol\":5702:5703  i */\n      dup3\n        /* \"contracts/FavorsV2.sol\":5695:5704  favors[i] */\n      dup2\n      sload\n      dup2\n      lt\n      tag_137\n      jumpi\n      tag_138\n      tag_53\n      jump\t// in\n    tag_138:\n    tag_137:\n      swap1\n      0x00\n      mstore\n      keccak256(0x00, 0x20)\n      swap1\n      0x04\n      mul\n      add\n        /* \"contracts/FavorsV2.sol\":5695:5716  favors[i].isCompleted */\n      0x02\n      add\n      0x00\n      swap1\n      sload\n      swap1\n      0x0100\n      exp\n      swap1\n      div\n      0xff\n      and\n        /* \"contracts/FavorsV2.sol\":5695:5725  favors[i].isCompleted == false */\n      iszero\n      iszero\n      eq\n        /* \"contracts/FavorsV2.sol\":5691:5820  if (favors[i].isCompleted == false) {\r... */\n      iszero\n      tag_140\n      jumpi\n        /* \"contracts/FavorsV2.sol\":5767:5773  favors */\n      0x05\n        /* \"contracts/FavorsV2.sol\":5774:5775  i */\n      dup2\n        /* \"contracts/FavorsV2.sol\":5767:5776  favors[i] */\n      dup2\n      sload\n      dup2\n      lt\n      tag_141\n      jumpi\n      tag_142\n      tag_53\n      jump\t// in\n    tag_142:\n    tag_141:\n      swap1\n      0x00\n      mstore\n      keccak256(0x00, 0x20)\n      swap1\n      0x04\n      mul\n      add\n        /* \"contracts/FavorsV2.sol\":5746:5776  temporary[counter] = favors[i] */\n      mload(0x40)\n      dup1\n      0xa0\n      add\n      0x40\n      mstore\n      swap1\n      dup2\n      0x00\n      dup3\n      add\n      sload\n      dup2\n      mstore\n      0x20\n      add\n      0x01\n      dup3\n      add\n      dup1\n      sload\n      tag_144\n      swap1\n      tag_87\n      jump\t// in\n    tag_144:\n      dup1\n      0x1f\n      add\n      0x20\n      dup1\n      swap2\n      div\n      mul\n      0x20\n      add\n      mload(0x40)\n      swap1\n      dup2\n      add\n      0x40\n      mstore\n      dup1\n      swap3\n      swap2\n      swap1\n      dup2\n      dup2\n      mstore\n      0x20\n      add\n      dup3\n      dup1\n      sload\n      tag_145\n      swap1\n      tag_87\n      jump\t// in\n    tag_145:\n      dup1\n      iszero\n      tag_146\n      jumpi\n      dup1\n      0x1f\n      lt\n      tag_147\n      jumpi\n      0x0100\n      dup1\n      dup4\n      sload\n      div\n      mul\n      dup4\n      mstore\n      swap2\n      0x20\n      add\n      swap2\n      jump(tag_146)\n    tag_147:\n      dup3\n      add\n      swap2\n      swap1\n      0x00\n      mstore\n      keccak256(0x00, 0x20)\n      swap1\n    tag_148:\n      dup2\n      sload\n      dup2\n      mstore\n      swap1\n      0x01\n      add\n      swap1\n      0x20\n      add\n      dup1\n      dup4\n      gt\n      tag_148\n      jumpi\n      dup3\n      swap1\n      sub\n      0x1f\n      and\n      dup3\n      add\n      swap2\n    tag_146:\n      pop\n      pop\n      pop\n      pop\n      pop\n      dup2\n      mstore\n      0x20\n      add\n      0x02\n      dup3\n      add\n      0x00\n      swap1\n      sload\n      swap1\n      0x0100\n      exp\n      swap1\n      div\n      0xff\n      and\n      iszero\n      iszero\n      iszero\n      iszero\n      dup2\n      mstore\n      0x20\n      add\n      0x02\n      dup3\n      add\n      0x01\n      swap1\n      sload\n      swap1\n      0x0100\n      exp\n      swap1\n      div\n      0xffffffffffffffffffffffffffffffffffffffff\n      and\n      0xffffffffffffffffffffffffffffffffffffffff\n      and\n      0xffffffffffffffffffffffffffffffffffffffff\n      and\n      dup2\n      mstore\n      0x20\n      add\n      0x03\n      dup3\n      add\n      0x00\n      swap1\n      sload\n      swap1\n      0x0100\n      exp\n      swap1\n      div\n      0xffffffffffffffffffffffffffffffffffffffff\n      and\n      0xffffffffffffffffffffffffffffffffffffffff\n      and\n      0xffffffffffffffffffffffffffffffffffffffff\n      and\n      dup2\n      mstore\n      pop\n      pop\n        /* \"contracts/FavorsV2.sol\":5746:5755  temporary */\n      dup4\n        /* \"contracts/FavorsV2.sol\":5756:5763  counter */\n      dup4\n        /* \"contracts/FavorsV2.sol\":5746:5764  temporary[counter] */\n      dup2\n      mload\n      dup2\n      lt\n      tag_149\n      jumpi\n      tag_150\n      tag_53\n      jump\t// in\n    tag_150:\n    tag_149:\n      0x20\n      mul\n      0x20\n      add\n      add\n        /* \"contracts/FavorsV2.sol\":5746:5776  temporary[counter] = favors[i] */\n      dup2\n      swap1\n      mstore\n      pop\n        /* \"contracts/FavorsV2.sol\":5795:5804  counter++ */\n      dup2\n      dup1\n      tag_151\n      swap1\n      tag_95\n      jump\t// in\n    tag_151:\n      swap3\n      pop\n      pop\n        /* \"contracts/FavorsV2.sol\":5691:5820  if (favors[i].isCompleted == false) {\r... */\n    tag_140:\n        /* \"contracts/FavorsV2.sol\":5671:5674  i++ */\n      dup1\n      dup1\n      tag_152\n      swap1\n      tag_95\n      jump\t// in\n    tag_152:\n      swap2\n      pop\n      pop\n        /* \"contracts/FavorsV2.sol\":5632:5831  for (uint256 i = 0; i < favors.length; i++) {\r... */\n      jump(tag_134)\n    tag_135:\n      pop\n        /* \"contracts/FavorsV2.sol\":5841:5862  Favor[] memory result */\n      0x00\n        /* \"contracts/FavorsV2.sol\":5877:5884  counter */\n      dup2\n        /* \"contracts/FavorsV2.sol\":5865:5885  new Favor[](counter) */\n      0xffffffffffffffff\n      dup2\n      gt\n      iszero\n      tag_153\n      jumpi\n      tag_154\n      tag_70\n      jump\t// in\n    tag_154:\n    tag_153:\n      mload(0x40)\n      swap1\n      dup1\n      dup3\n      mstore\n      dup1\n      0x20\n      mul\n      0x20\n      add\n      dup3\n      add\n      0x40\n      mstore\n      dup1\n      iszero\n      tag_155\n      jumpi\n      dup2\n      0x20\n      add\n    tag_156:\n      tag_157\n      tag_74\n      jump\t// in\n    tag_157:\n      dup2\n      mstore\n      0x20\n      add\n      swap1\n      0x01\n      swap1\n      sub\n      swap1\n      dup2\n      tag_156\n      jumpi\n      swap1\n      pop\n    tag_155:\n      pop\n        /* \"contracts/FavorsV2.sol\":5841:5885  Favor[] memory result = new Favor[](counter) */\n      swap1\n      pop\n        /* \"contracts/FavorsV2.sol\":5901:5910  uint256 i */\n      0x00\n        /* \"contracts/FavorsV2.sol\":5896:5985  for (uint256 i = 0; i < counter; i++) {\r... */\n    tag_158:\n        /* \"contracts/FavorsV2.sol\":5920:5927  counter */\n      dup3\n        /* \"contracts/FavorsV2.sol\":5916:5917  i */\n      dup2\n        /* \"contracts/FavorsV2.sol\":5916:5927  i < counter */\n      lt\n        /* \"contracts/FavorsV2.sol\":5896:5985  for (uint256 i = 0; i < counter; i++) {\r... */\n      iszero\n      tag_159\n      jumpi\n        /* \"contracts/FavorsV2.sol\":5961:5970  temporary */\n      dup4\n        /* \"contracts/FavorsV2.sol\":5971:5972  i */\n      dup2\n        /* \"contracts/FavorsV2.sol\":5961:5973  temporary[i] */\n      dup2\n      mload\n      dup2\n      lt\n      tag_161\n      jumpi\n      tag_162\n      tag_53\n      jump\t// in\n    tag_162:\n    tag_161:\n      0x20\n      mul\n      0x20\n      add\n      add\n      mload\n        /* \"contracts/FavorsV2.sol\":5949:5955  result */\n      dup3\n        /* \"contracts/FavorsV2.sol\":5956:5957  i */\n      dup3\n        /* \"contracts/FavorsV2.sol\":5949:5958  result[i] */\n      dup2\n      mload\n      dup2\n      lt\n      tag_163\n      jumpi\n      tag_164\n      tag_53\n      jump\t// in\n    tag_164:\n    tag_163:\n      0x20\n      mul\n      0x20\n      add\n      add\n        /* \"contracts/FavorsV2.sol\":5949:5973  result[i] = temporary[i] */\n      dup2\n      swap1\n      mstore\n      pop\n        /* \"contracts/FavorsV2.sol\":5929:5932  i++ */\n      dup1\n      dup1\n      tag_165\n      swap1\n      tag_95\n      jump\t// in\n    tag_165:\n      swap2\n      pop\n      pop\n        /* \"contracts/FavorsV2.sol\":5896:5985  for (uint256 i = 0; i < counter; i++) {\r... */\n      jump(tag_158)\n    tag_159:\n      pop\n        /* \"contracts/FavorsV2.sol\":6002:6008  result */\n      dup1\n        /* \"contracts/FavorsV2.sol\":5995:6008  return result */\n      swap4\n      pop\n      pop\n      pop\n      pop\n        /* \"contracts/FavorsV2.sol\":5452:6016  function getAllIncompleteFavors() external view returns (Favor[] memory) {\r... */\n      swap1\n      jump\t// out\n        /* \"contracts/FavorsV2.sol\":4400:4818  function collectBonus () public returns (bool bonusCollected)  {\r... */\n    tag_40:\n        /* \"contracts/FavorsV2.sol\":4441:4460  bool bonusCollected */\n      0x00\n        /* \"contracts/FavorsV2.sol\":4474:4495  bool alreadyCollected */\n      dup1\n        /* \"contracts/FavorsV2.sol\":4498:4503  false */\n      0x00\n        /* \"contracts/FavorsV2.sol\":4474:4503  bool alreadyCollected = false */\n      swap1\n      pop\n        /* \"contracts/FavorsV2.sol\":4518:4534  alreadyCollected */\n      dup1\n        /* \"contracts/FavorsV2.sol\":4514:4811  if(!alreadyCollected) {\r... */\n      tag_167\n      jumpi\n        /* \"contracts/FavorsV2.sol\":4584:4585  0 */\n      0x00\n        /* \"contracts/FavorsV2.sol\":4559:4568  s_results */\n      0x08\n        /* \"contracts/FavorsV2.sol\":4559:4580  s_results[msg.sender] */\n      0x00\n        /* \"contracts/FavorsV2.sol\":4569:4579  msg.sender */\n      caller\n        /* \"contracts/FavorsV2.sol\":4559:4580  s_results[msg.sender] */\n      0xffffffffffffffffffffffffffffffffffffffff\n      and\n      0xffffffffffffffffffffffffffffffffffffffff\n      and\n      dup2\n      mstore\n      0x20\n      add\n      swap1\n      dup2\n      mstore\n      0x20\n      add\n      0x00\n      keccak256\n      sload\n        /* \"contracts/FavorsV2.sol\":4559:4585  s_results[msg.sender] != 0 */\n      eq\n      iszero\n        /* \"contracts/FavorsV2.sol\":4551:4605  require(s_results[msg.sender] != 0, \"Dice not rolled\") */\n      tag_168\n      jumpi\n      mload(0x40)\n      0x08c379a000000000000000000000000000000000000000000000000000000000\n      dup2\n      mstore\n      0x04\n      add\n      tag_169\n      swap1\n      tag_170\n      jump\t// in\n    tag_169:\n      mload(0x40)\n      dup1\n      swap2\n      sub\n      swap1\n      revert\n    tag_168:\n        /* \"contracts/FavorsV2.sol\":702:704  42 */\n      0x2a\n        /* \"contracts/FavorsV2.sol\":4628:4637  s_results */\n      0x08\n        /* \"contracts/FavorsV2.sol\":4628:4649  s_results[msg.sender] */\n      0x00\n        /* \"contracts/FavorsV2.sol\":4638:4648  msg.sender */\n      caller\n        /* \"contracts/FavorsV2.sol\":4628:4649  s_results[msg.sender] */\n      0xffffffffffffffffffffffffffffffffffffffff\n      and\n      0xffffffffffffffffffffffffffffffffffffffff\n      and\n      dup2\n      mstore\n      0x20\n      add\n      swap1\n      dup2\n      mstore\n      0x20\n      add\n      0x00\n      keccak256\n      sload\n        /* \"contracts/FavorsV2.sol\":4628:4669  s_results[msg.sender] != ROLL_IN_PROGRESS */\n      eq\n      iszero\n        /* \"contracts/FavorsV2.sol\":4620:4690  require(s_results[msg.sender] != ROLL_IN_PROGRESS, \"Roll in progress\") */\n      tag_171\n      jumpi\n      mload(0x40)\n      0x08c379a000000000000000000000000000000000000000000000000000000000\n      dup2\n      mstore\n      0x04\n      add\n      tag_172\n      swap1\n      tag_173\n      jump\t// in\n    tag_172:\n      mload(0x40)\n      dup1\n      swap2\n      sub\n      swap1\n      revert\n    tag_171:\n        /* \"contracts/FavorsV2.sol\":4705:4711  _token */\n      0x04\n      0x00\n      swap1\n      sload\n      swap1\n      0x0100\n      exp\n      swap1\n      div\n      0xffffffffffffffffffffffffffffffffffffffff\n      and\n        /* \"contracts/FavorsV2.sol\":4705:4719  _token.approve */\n      0xffffffffffffffffffffffffffffffffffffffff\n      and\n      0x095ea7b3\n        /* \"contracts/FavorsV2.sol\":4720:4730  msg.sender */\n      caller\n        /* \"contracts/FavorsV2.sol\":4732:4741  s_results */\n      0x08\n        /* \"contracts/FavorsV2.sol\":4732:4753  s_results[msg.sender] */\n      0x00\n        /* \"contracts/FavorsV2.sol\":4742:4752  msg.sender */\n      caller\n        /* \"contracts/FavorsV2.sol\":4732:4753  s_results[msg.sender] */\n      0xffffffffffffffffffffffffffffffffffffffff\n      and\n      0xffffffffffffffffffffffffffffffffffffffff\n      and\n      dup2\n      mstore\n      0x20\n      add\n      swap1\n      dup2\n      mstore\n      0x20\n      add\n      0x00\n      keccak256\n      sload\n        /* \"contracts/FavorsV2.sol\":4705:4754  _token.approve(msg.sender, s_results[msg.sender]) */\n      mload(0x40)\n      dup4\n      0xffffffff\n      and\n      0xe0\n      shl\n      dup2\n      mstore\n      0x04\n      add\n      tag_174\n      swap3\n      swap2\n      swap1\n      tag_125\n      jump\t// in\n    tag_174:\n      0x20\n      mload(0x40)\n      dup1\n      dup4\n      sub\n      dup2\n      0x00\n      dup8\n      dup1\n      extcodesize\n      iszero\n      dup1\n      iszero\n      tag_175\n      jumpi\n      0x00\n      dup1\n      revert\n    tag_175:\n      pop\n      gas\n      call\n      iszero\n      dup1\n      iszero\n      tag_177\n      jumpi\n      returndatasize\n      0x00\n      dup1\n      returndatacopy\n      revert(0x00, returndatasize)\n    tag_177:\n      pop\n      pop\n      pop\n      pop\n      mload(0x40)\n      returndatasize\n      not(0x1f)\n      0x1f\n      dup3\n      add\n      and\n      dup3\n      add\n      dup1\n      0x40\n      mstore\n      pop\n      dup2\n      add\n      swap1\n      tag_178\n      swap2\n      swap1\n      tag_64\n      jump\t// in\n    tag_178:\n      pop\n        /* \"contracts/FavorsV2.sol\":4795:4799  true */\n      0x01\n        /* \"contracts/FavorsV2.sol\":4776:4799  alreadyCollected = true */\n      swap1\n      pop\n      dup1\n        /* \"contracts/FavorsV2.sol\":4769:4799  return alreadyCollected = true */\n      swap2\n      pop\n      pop\n      jump(tag_166)\n        /* \"contracts/FavorsV2.sol\":4514:4811  if(!alreadyCollected) {\r... */\n    tag_167:\n        /* \"contracts/FavorsV2.sol\":4463:4818  {\r... */\n      pop\n        /* \"contracts/FavorsV2.sol\":4400:4818  function collectBonus () public returns (bool bonusCollected)  {\r... */\n    tag_166:\n      swap1\n      jump\t// out\n        /* \"contracts/FavorsV2.sol\":4111:4392  function fulfillRandomWords(uint256 requestId, uint256[] memory randomWords)\r... */\n    tag_48:\n        /* \"contracts/FavorsV2.sol\":4240:4256  uint256 d20Value */\n      0x00\n        /* \"contracts/FavorsV2.sol\":4283:4284  1 */\n      0x01\n        /* \"contracts/FavorsV2.sol\":4277:4279  20 */\n      0x14\n        /* \"contracts/FavorsV2.sol\":4260:4271  randomWords */\n      dup4\n        /* \"contracts/FavorsV2.sol\":4272:4273  0 */\n      0x00\n        /* \"contracts/FavorsV2.sol\":4260:4274  randomWords[0] */\n      dup2\n      mload\n      dup2\n      lt\n      tag_180\n      jumpi\n      tag_181\n      tag_53\n      jump\t// in\n    tag_181:\n    tag_180:\n      0x20\n      mul\n      0x20\n      add\n      add\n      mload\n        /* \"contracts/FavorsV2.sol\":4260:4279  randomWords[0] % 20 */\n      tag_182\n      swap2\n      swap1\n      tag_183\n      jump\t// in\n    tag_182:\n        /* \"contracts/FavorsV2.sol\":4259:4284  (randomWords[0] % 20) + 1 */\n      tag_184\n      swap2\n      swap1\n      tag_185\n      jump\t// in\n    tag_184:\n        /* \"contracts/FavorsV2.sol\":4240:4284  uint256 d20Value = (randomWords[0] % 20) + 1 */\n      swap1\n      pop\n        /* \"contracts/FavorsV2.sol\":4329:4337  d20Value */\n      dup1\n        /* \"contracts/FavorsV2.sol\":4295:4304  s_results */\n      0x08\n        /* \"contracts/FavorsV2.sol\":4295:4326  s_results[s_rollers[requestId]] */\n      0x00\n        /* \"contracts/FavorsV2.sol\":4305:4314  s_rollers */\n      0x07\n        /* \"contracts/FavorsV2.sol\":4305:4325  s_rollers[requestId] */\n      0x00\n        /* \"contracts/FavorsV2.sol\":4315:4324  requestId */\n      dup8\n        /* \"contracts/FavorsV2.sol\":4305:4325  s_rollers[requestId] */\n      dup2\n      mstore\n      0x20\n      add\n      swap1\n      dup2\n      mstore\n      0x20\n      add\n      0x00\n      keccak256\n      0x00\n      swap1\n      sload\n      swap1\n      0x0100\n      exp\n      swap1\n      div\n      0xffffffffffffffffffffffffffffffffffffffff\n      and\n        /* \"contracts/FavorsV2.sol\":4295:4326  s_results[s_rollers[requestId]] */\n      0xffffffffffffffffffffffffffffffffffffffff\n      and\n      0xffffffffffffffffffffffffffffffffffffffff\n      and\n      dup2\n      mstore\n      0x20\n      add\n      swap1\n      dup2\n      mstore\n      0x20\n      add\n      0x00\n      keccak256\n        /* \"contracts/FavorsV2.sol\":4295:4337  s_results[s_rollers[requestId]] = d20Value */\n      dup2\n      swap1\n      sstore\n      pop\n        /* \"contracts/FavorsV2.sol\":4375:4383  d20Value */\n      dup1\n        /* \"contracts/FavorsV2.sol\":4364:4373  requestId */\n      dup4\n        /* \"contracts/FavorsV2.sol\":4353:4384  DiceLanded(requestId, d20Value) */\n      0x54d97c1f7e5abad75bd421455cd4dd296852a52e1ea721f2cdb66d06fa2082a9\n      mload(0x40)\n      mload(0x40)\n      dup1\n      swap2\n      sub\n      swap1\n      log3\n        /* \"contracts/FavorsV2.sol\":4229:4392  {\r... */\n      pop\n        /* \"contracts/FavorsV2.sol\":4111:4392  function fulfillRandomWords(uint256 requestId, uint256[] memory randomWords)\r... */\n      pop\n      pop\n      jump\t// out\n        /* \"contracts/FavorsV2.sol\":3559:4103  function firstFavor(address roller) internal returns (uint256 requestId) {\r... */\n    tag_127:\n        /* \"contracts/FavorsV2.sol\":3613:3630  uint256 requestId */\n      0x00\n        /* \"contracts/FavorsV2.sol\":3672:3673  0 */\n      dup1\n        /* \"contracts/FavorsV2.sol\":3651:3660  s_results */\n      0x08\n        /* \"contracts/FavorsV2.sol\":3651:3668  s_results[roller] */\n      0x00\n        /* \"contracts/FavorsV2.sol\":3661:3667  roller */\n      dup5\n        /* \"contracts/FavorsV2.sol\":3651:3668  s_results[roller] */\n      0xffffffffffffffffffffffffffffffffffffffff\n      and\n      0xffffffffffffffffffffffffffffffffffffffff\n      and\n      dup2\n      mstore\n      0x20\n      add\n      swap1\n      dup2\n      mstore\n      0x20\n      add\n      0x00\n      keccak256\n      sload\n        /* \"contracts/FavorsV2.sol\":3651:3673  s_results[roller] == 0 */\n      eq\n        /* \"contracts/FavorsV2.sol\":3643:3692  require(s_results[roller] == 0, \"Already rolled\") */\n      tag_187\n      jumpi\n      mload(0x40)\n      0x08c379a000000000000000000000000000000000000000000000000000000000\n      dup2\n      mstore\n      0x04\n      add\n      tag_188\n      swap1\n      tag_189\n      jump\t// in\n    tag_188:\n      mload(0x40)\n      dup1\n      swap2\n      sub\n      swap1\n      revert\n    tag_187:\n        /* \"contracts/FavorsV2.sol\":3778:3789  COORDINATOR */\n      0x00\n      dup1\n      sload\n      swap1\n      0x0100\n      exp\n      swap1\n      div\n      0xffffffffffffffffffffffffffffffffffffffff\n      and\n        /* \"contracts/FavorsV2.sol\":3778:3808  COORDINATOR.requestRandomWords */\n      0xffffffffffffffffffffffffffffffffffffffff\n      and\n      0x5d3b1d30\n        /* \"contracts/FavorsV2.sol\":3823:3832  s_keyHash */\n      sload(0x02)\n        /* \"contracts/FavorsV2.sol\":3847:3863  s_subscriptionId */\n      0x00\n      0x14\n      swap1\n      sload\n      swap1\n      0x0100\n      exp\n      swap1\n      div\n      0xffffffffffffffff\n      and\n        /* \"contracts/FavorsV2.sol\":3878:3898  requestConfirmations */\n      0x03\n      0x04\n      swap1\n      sload\n      swap1\n      0x0100\n      exp\n      swap1\n      div\n      0xffff\n      and\n        /* \"contracts/FavorsV2.sol\":3913:3929  callbackGasLimit */\n      0x03\n      0x00\n      swap1\n      sload\n      swap1\n      0x0100\n      exp\n      swap1\n      div\n      0xffffffff\n      and\n        /* \"contracts/FavorsV2.sol\":3944:3952  numWords */\n      0x03\n      0x06\n      swap1\n      sload\n      swap1\n      0x0100\n      exp\n      swap1\n      div\n      0xffffffff\n      and\n        /* \"contracts/FavorsV2.sol\":3778:3963  COORDINATOR.requestRandomWords(\r... */\n      mload(0x40)\n      dup7\n      0xffffffff\n      and\n      0xe0\n      shl\n      dup2\n      mstore\n      0x04\n      add\n      tag_190\n      swap6\n      swap5\n      swap4\n      swap3\n      swap2\n      swap1\n      tag_191\n      jump\t// in\n    tag_190:\n      0x20\n      mload(0x40)\n      dup1\n      dup4\n      sub\n      dup2\n      0x00\n      dup8\n      dup1\n      extcodesize\n      iszero\n      dup1\n      iszero\n      tag_192\n      jumpi\n      0x00\n      dup1\n      revert\n    tag_192:\n      pop\n      gas\n      call\n      iszero\n      dup1\n      iszero\n      tag_194\n      jumpi\n      returndatasize\n      0x00\n      dup1\n      returndatacopy\n      revert(0x00, returndatasize)\n    tag_194:\n      pop\n      pop\n      pop\n      pop\n      mload(0x40)\n      returndatasize\n      not(0x1f)\n      0x1f\n      dup3\n      add\n      and\n      dup3\n      add\n      dup1\n      0x40\n      mstore\n      pop\n      dup2\n      add\n      swap1\n      tag_195\n      swap2\n      swap1\n      tag_196\n      jump\t// in\n    tag_195:\n        /* \"contracts/FavorsV2.sol\":3766:3963  requestId = COORDINATOR.requestRandomWords(\r... */\n      swap1\n      pop\n        /* \"contracts/FavorsV2.sol\":3997:4003  roller */\n      dup2\n        /* \"contracts/FavorsV2.sol\":3974:3983  s_rollers */\n      0x07\n        /* \"contracts/FavorsV2.sol\":3974:3994  s_rollers[requestId] */\n      0x00\n        /* \"contracts/FavorsV2.sol\":3984:3993  requestId */\n      dup4\n        /* \"contracts/FavorsV2.sol\":3974:3994  s_rollers[requestId] */\n      dup2\n      mstore\n      0x20\n      add\n      swap1\n      dup2\n      mstore\n      0x20\n      add\n      0x00\n      keccak256\n      0x00\n        /* \"contracts/FavorsV2.sol\":3974:4003  s_rollers[requestId] = roller */\n      0x0100\n      exp\n      dup2\n      sload\n      dup2\n      0xffffffffffffffffffffffffffffffffffffffff\n      mul\n      not\n      and\n      swap1\n      dup4\n      0xffffffffffffffffffffffffffffffffffffffff\n      and\n      mul\n      or\n      swap1\n      sstore\n      pop\n        /* \"contracts/FavorsV2.sol\":702:704  42 */\n      0x2a\n        /* \"contracts/FavorsV2.sol\":4014:4023  s_results */\n      0x08\n        /* \"contracts/FavorsV2.sol\":4014:4031  s_results[roller] */\n      0x00\n        /* \"contracts/FavorsV2.sol\":4024:4030  roller */\n      dup5\n        /* \"contracts/FavorsV2.sol\":4014:4031  s_results[roller] */\n      0xffffffffffffffffffffffffffffffffffffffff\n      and\n      0xffffffffffffffffffffffffffffffffffffffff\n      and\n      dup2\n      mstore\n      0x20\n      add\n      swap1\n      dup2\n      mstore\n      0x20\n      add\n      0x00\n      keccak256\n        /* \"contracts/FavorsV2.sol\":4014:4050  s_results[roller] = ROLL_IN_PROGRESS */\n      dup2\n      swap1\n      sstore\n      pop\n        /* \"contracts/FavorsV2.sol\":4088:4094  roller */\n      dup2\n        /* \"contracts/FavorsV2.sol\":4066:4095  DiceRolled(requestId, roller) */\n      0xffffffffffffffffffffffffffffffffffffffff\n      and\n        /* \"contracts/FavorsV2.sol\":4077:4086  requestId */\n      dup2\n        /* \"contracts/FavorsV2.sol\":4066:4095  DiceRolled(requestId, roller) */\n      0x3e7fdeab84c01ce5308321caa0b460e1c4ec3c7099223d79634d9a71d99932e3\n      mload(0x40)\n      mload(0x40)\n      dup1\n      swap2\n      sub\n      swap1\n      log3\n        /* \"contracts/FavorsV2.sol\":3559:4103  function firstFavor(address roller) internal returns (uint256 requestId) {\r... */\n      swap2\n      swap1\n      pop\n      jump\t// out\n    tag_74:\n      mload(0x40)\n      dup1\n      0xa0\n      add\n      0x40\n      mstore\n      dup1\n      0x00\n      dup2\n      mstore\n      0x20\n      add\n      0x60\n      dup2\n      mstore\n      0x20\n      add\n      iszero(iszero(0x00))\n      dup2\n      mstore\n      0x20\n      add\n      and(0xffffffffffffffffffffffffffffffffffffffff, 0x00)\n      dup2\n      mstore\n      0x20\n      add\n      and(0xffffffffffffffffffffffffffffffffffffffff, 0x00)\n      dup2\n      mstore\n      pop\n      swap1\n      jump\t// out\n    tag_123:\n      dup3\n      dup1\n      sload\n      tag_197\n      swap1\n      tag_87\n      jump\t// in\n    tag_197:\n      swap1\n      0x00\n      mstore\n      keccak256(0x00, 0x20)\n      swap1\n      0x1f\n      add\n      0x20\n      swap1\n      div\n      dup2\n      add\n      swap3\n      dup3\n      tag_199\n      jumpi\n      0x00\n      dup6\n      sstore\n      jump(tag_198)\n    tag_199:\n      dup3\n      0x1f\n      lt\n      tag_200\n      jumpi\n      dup1\n      mload\n      not(0xff)\n      and\n      dup4\n      dup1\n      add\n      or\n      dup6\n      sstore\n      jump(tag_198)\n    tag_200:\n      dup3\n      dup1\n      add\n      0x01\n      add\n      dup6\n      sstore\n      dup3\n      iszero\n      tag_198\n      jumpi\n      swap2\n      dup3\n      add\n    tag_201:\n      dup3\n      dup2\n      gt\n      iszero\n      tag_202\n      jumpi\n      dup3\n      mload\n      dup3\n      sstore\n      swap2\n      0x20\n      add\n      swap2\n      swap1\n      0x01\n      add\n      swap1\n      jump(tag_201)\n    tag_202:\n    tag_198:\n      pop\n      swap1\n      pop\n      tag_203\n      swap2\n      swap1\n      tag_204\n      jump\t// in\n    tag_203:\n      pop\n      swap1\n      jump\t// out\n    tag_204:\n    tag_205:\n      dup1\n      dup3\n      gt\n      iszero\n      tag_206\n      jumpi\n      0x00\n      dup2\n      0x00\n      swap1\n      sstore\n      pop\n      0x01\n      add\n      jump(tag_205)\n    tag_206:\n      pop\n      swap1\n      jump\t// out\n        /* \"#utility.yul\":24:746   */\n    tag_208:\n        /* \"#utility.yul\":120:125   */\n      0x00\n        /* \"#utility.yul\":145:226   */\n      tag_210\n        /* \"#utility.yul\":161:225   */\n      tag_211\n        /* \"#utility.yul\":218:224   */\n      dup5\n        /* \"#utility.yul\":161:225   */\n      tag_212\n      jump\t// in\n    tag_211:\n        /* \"#utility.yul\":145:226   */\n      tag_213\n      jump\t// in\n    tag_210:\n        /* \"#utility.yul\":136:226   */\n      swap1\n      pop\n        /* \"#utility.yul\":246:251   */\n      dup1\n        /* \"#utility.yul\":275:281   */\n      dup4\n        /* \"#utility.yul\":268:273   */\n      dup3\n        /* \"#utility.yul\":261:282   */\n      mstore\n        /* \"#utility.yul\":309:313   */\n      0x20\n        /* \"#utility.yul\":302:307   */\n      dup3\n        /* \"#utility.yul\":298:314   */\n      add\n        /* \"#utility.yul\":291:314   */\n      swap1\n      pop\n        /* \"#utility.yul\":335:341   */\n      dup3\n        /* \"#utility.yul\":385:388   */\n      dup6\n        /* \"#utility.yul\":377:381   */\n      0x20\n        /* \"#utility.yul\":369:375   */\n      dup7\n        /* \"#utility.yul\":365:382   */\n      mul\n        /* \"#utility.yul\":360:363   */\n      dup3\n        /* \"#utility.yul\":356:383   */\n      add\n        /* \"#utility.yul\":353:389   */\n      gt\n        /* \"#utility.yul\":350:493   */\n      iszero\n      tag_214\n      jumpi\n        /* \"#utility.yul\":404:483   */\n      tag_215\n      tag_216\n      jump\t// in\n    tag_215:\n        /* \"#utility.yul\":350:493   */\n    tag_214:\n        /* \"#utility.yul\":517:518   */\n      0x00\n        /* \"#utility.yul\":502:740   */\n    tag_217:\n        /* \"#utility.yul\":527:533   */\n      dup6\n        /* \"#utility.yul\":524:525   */\n      dup2\n        /* \"#utility.yul\":521:534   */\n      lt\n        /* \"#utility.yul\":502:740   */\n      iszero\n      tag_219\n      jumpi\n        /* \"#utility.yul\":595:598   */\n      dup2\n        /* \"#utility.yul\":624:661   */\n      tag_220\n        /* \"#utility.yul\":657:660   */\n      dup9\n        /* \"#utility.yul\":645:655   */\n      dup3\n        /* \"#utility.yul\":624:661   */\n      tag_221\n      jump\t// in\n    tag_220:\n        /* \"#utility.yul\":619:622   */\n      dup5\n        /* \"#utility.yul\":612:662   */\n      mstore\n        /* \"#utility.yul\":691:695   */\n      0x20\n        /* \"#utility.yul\":686:689   */\n      dup5\n        /* \"#utility.yul\":682:696   */\n      add\n        /* \"#utility.yul\":675:696   */\n      swap4\n      pop\n        /* \"#utility.yul\":725:729   */\n      0x20\n        /* \"#utility.yul\":720:723   */\n      dup4\n        /* \"#utility.yul\":716:730   */\n      add\n        /* \"#utility.yul\":709:730   */\n      swap3\n      pop\n        /* \"#utility.yul\":562:740   */\n      pop\n        /* \"#utility.yul\":549:550   */\n      0x01\n        /* \"#utility.yul\":546:547   */\n      dup2\n        /* \"#utility.yul\":542:551   */\n      add\n        /* \"#utility.yul\":537:551   */\n      swap1\n      pop\n        /* \"#utility.yul\":502:740   */\n      jump(tag_217)\n    tag_219:\n        /* \"#utility.yul\":506:520   */\n      pop\n        /* \"#utility.yul\":126:746   */\n      pop\n      pop\n        /* \"#utility.yul\":24:746   */\n      swap4\n      swap3\n      pop\n      pop\n      pop\n      jump\t// out\n        /* \"#utility.yul\":752:1164   */\n    tag_222:\n        /* \"#utility.yul\":830:835   */\n      0x00\n        /* \"#utility.yul\":855:921   */\n      tag_224\n        /* \"#utility.yul\":871:920   */\n      tag_225\n        /* \"#utility.yul\":913:919   */\n      dup5\n        /* \"#utility.yul\":871:920   */\n      tag_226\n      jump\t// in\n    tag_225:\n        /* \"#utility.yul\":855:921   */\n      tag_213\n      jump\t// in\n    tag_224:\n        /* \"#utility.yul\":846:921   */\n      swap1\n      pop\n        /* \"#utility.yul\":944:950   */\n      dup3\n        /* \"#utility.yul\":937:942   */\n      dup2\n        /* \"#utility.yul\":930:951   */\n      mstore\n        /* \"#utility.yul\":982:986   */\n      0x20\n        /* \"#utility.yul\":975:980   */\n      dup2\n        /* \"#utility.yul\":971:987   */\n      add\n        /* \"#utility.yul\":1020:1023   */\n      dup5\n        /* \"#utility.yul\":1011:1017   */\n      dup5\n        /* \"#utility.yul\":1006:1009   */\n      dup5\n        /* \"#utility.yul\":1002:1018   */\n      add\n        /* \"#utility.yul\":999:1024   */\n      gt\n        /* \"#utility.yul\":996:1108   */\n      iszero\n      tag_227\n      jumpi\n        /* \"#utility.yul\":1027:1106   */\n      tag_228\n      tag_229\n      jump\t// in\n    tag_228:\n        /* \"#utility.yul\":996:1108   */\n    tag_227:\n        /* \"#utility.yul\":1117:1158   */\n      tag_230\n        /* \"#utility.yul\":1151:1157   */\n      dup5\n        /* \"#utility.yul\":1146:1149   */\n      dup3\n        /* \"#utility.yul\":1141:1144   */\n      dup6\n        /* \"#utility.yul\":1117:1158   */\n      tag_231\n      jump\t// in\n    tag_230:\n        /* \"#utility.yul\":836:1164   */\n      pop\n        /* \"#utility.yul\":752:1164   */\n      swap4\n      swap3\n      pop\n      pop\n      pop\n      jump\t// out\n        /* \"#utility.yul\":1187:1557   */\n    tag_232:\n        /* \"#utility.yul\":1258:1263   */\n      0x00\n        /* \"#utility.yul\":1307:1310   */\n      dup3\n        /* \"#utility.yul\":1300:1304   */\n      0x1f\n        /* \"#utility.yul\":1292:1298   */\n      dup4\n        /* \"#utility.yul\":1288:1305   */\n      add\n        /* \"#utility.yul\":1284:1311   */\n      slt\n        /* \"#utility.yul\":1274:1396   */\n      tag_234\n      jumpi\n        /* \"#utility.yul\":1315:1394   */\n      tag_235\n      tag_236\n      jump\t// in\n    tag_235:\n        /* \"#utility.yul\":1274:1396   */\n    tag_234:\n        /* \"#utility.yul\":1432:1438   */\n      dup2\n        /* \"#utility.yul\":1419:1439   */\n      calldataload\n        /* \"#utility.yul\":1457:1551   */\n      tag_237\n        /* \"#utility.yul\":1547:1550   */\n      dup5\n        /* \"#utility.yul\":1539:1545   */\n      dup3\n        /* \"#utility.yul\":1532:1536   */\n      0x20\n        /* \"#utility.yul\":1524:1530   */\n      dup7\n        /* \"#utility.yul\":1520:1537   */\n      add\n        /* \"#utility.yul\":1457:1551   */\n      tag_208\n      jump\t// in\n    tag_237:\n        /* \"#utility.yul\":1448:1551   */\n      swap2\n      pop\n        /* \"#utility.yul\":1264:1557   */\n      pop\n        /* \"#utility.yul\":1187:1557   */\n      swap3\n      swap2\n      pop\n      pop\n      jump\t// out\n        /* \"#utility.yul\":1563:1696   */\n    tag_238:\n        /* \"#utility.yul\":1606:1611   */\n      0x00\n        /* \"#utility.yul\":1644:1650   */\n      dup2\n        /* \"#utility.yul\":1631:1651   */\n      calldataload\n        /* \"#utility.yul\":1622:1651   */\n      swap1\n      pop\n        /* \"#utility.yul\":1660:1690   */\n      tag_240\n        /* \"#utility.yul\":1684:1689   */\n      dup2\n        /* \"#utility.yul\":1660:1690   */\n      tag_241\n      jump\t// in\n    tag_240:\n        /* \"#utility.yul\":1563:1696   */\n      swap3\n      swap2\n      pop\n      pop\n      jump\t// out\n        /* \"#utility.yul\":1702:1839   */\n    tag_242:\n        /* \"#utility.yul\":1756:1761   */\n      0x00\n        /* \"#utility.yul\":1787:1793   */\n      dup2\n        /* \"#utility.yul\":1781:1794   */\n      mload\n        /* \"#utility.yul\":1772:1794   */\n      swap1\n      pop\n        /* \"#utility.yul\":1803:1833   */\n      tag_244\n        /* \"#utility.yul\":1827:1832   */\n      dup2\n        /* \"#utility.yul\":1803:1833   */\n      tag_241\n      jump\t// in\n    tag_244:\n        /* \"#utility.yul\":1702:1839   */\n      swap3\n      swap2\n      pop\n      pop\n      jump\t// out\n        /* \"#utility.yul\":1859:2199   */\n    tag_245:\n        /* \"#utility.yul\":1915:1920   */\n      0x00\n        /* \"#utility.yul\":1964:1967   */\n      dup3\n        /* \"#utility.yul\":1957:1961   */\n      0x1f\n        /* \"#utility.yul\":1949:1955   */\n      dup4\n        /* \"#utility.yul\":1945:1962   */\n      add\n        /* \"#utility.yul\":1941:1968   */\n      slt\n        /* \"#utility.yul\":1931:2053   */\n      tag_247\n      jumpi\n        /* \"#utility.yul\":1972:2051   */\n      tag_248\n      tag_236\n      jump\t// in\n    tag_248:\n        /* \"#utility.yul\":1931:2053   */\n    tag_247:\n        /* \"#utility.yul\":2089:2095   */\n      dup2\n        /* \"#utility.yul\":2076:2096   */\n      calldataload\n        /* \"#utility.yul\":2114:2193   */\n      tag_249\n        /* \"#utility.yul\":2189:2192   */\n      dup5\n        /* \"#utility.yul\":2181:2187   */\n      dup3\n        /* \"#utility.yul\":2174:2178   */\n      0x20\n        /* \"#utility.yul\":2166:2172   */\n      dup7\n        /* \"#utility.yul\":2162:2179   */\n      add\n        /* \"#utility.yul\":2114:2193   */\n      tag_222\n      jump\t// in\n    tag_249:\n        /* \"#utility.yul\":2105:2193   */\n      swap2\n      pop\n        /* \"#utility.yul\":1921:2199   */\n      pop\n        /* \"#utility.yul\":1859:2199   */\n      swap3\n      swap2\n      pop\n      pop\n      jump\t// out\n        /* \"#utility.yul\":2205:2344   */\n    tag_221:\n        /* \"#utility.yul\":2251:2256   */\n      0x00\n        /* \"#utility.yul\":2289:2295   */\n      dup2\n        /* \"#utility.yul\":2276:2296   */\n      calldataload\n        /* \"#utility.yul\":2267:2296   */\n      swap1\n      pop\n        /* \"#utility.yul\":2305:2338   */\n      tag_251\n        /* \"#utility.yul\":2332:2337   */\n      dup2\n        /* \"#utility.yul\":2305:2338   */\n      tag_252\n      jump\t// in\n    tag_251:\n        /* \"#utility.yul\":2205:2344   */\n      swap3\n      swap2\n      pop\n      pop\n      jump\t// out\n        /* \"#utility.yul\":2350:2493   */\n    tag_253:\n        /* \"#utility.yul\":2407:2412   */\n      0x00\n        /* \"#utility.yul\":2438:2444   */\n      dup2\n        /* \"#utility.yul\":2432:2445   */\n      mload\n        /* \"#utility.yul\":2423:2445   */\n      swap1\n      pop\n        /* \"#utility.yul\":2454:2487   */\n      tag_255\n        /* \"#utility.yul\":2481:2486   */\n      dup2\n        /* \"#utility.yul\":2454:2487   */\n      tag_252\n      jump\t// in\n    tag_255:\n        /* \"#utility.yul\":2350:2493   */\n      swap3\n      swap2\n      pop\n      pop\n      jump\t// out\n        /* \"#utility.yul\":2499:2844   */\n    tag_64:\n        /* \"#utility.yul\":2566:2572   */\n      0x00\n        /* \"#utility.yul\":2615:2617   */\n      0x20\n        /* \"#utility.yul\":2603:2612   */\n      dup3\n        /* \"#utility.yul\":2594:2601   */\n      dup5\n        /* \"#utility.yul\":2590:2613   */\n      sub\n        /* \"#utility.yul\":2586:2618   */\n      slt\n        /* \"#utility.yul\":2583:2702   */\n      iszero\n      tag_257\n      jumpi\n        /* \"#utility.yul\":2621:2700   */\n      tag_258\n      tag_259\n      jump\t// in\n    tag_258:\n        /* \"#utility.yul\":2583:2702   */\n    tag_257:\n        /* \"#utility.yul\":2741:2742   */\n      0x00\n        /* \"#utility.yul\":2766:2827   */\n      tag_260\n        /* \"#utility.yul\":2819:2826   */\n      dup5\n        /* \"#utility.yul\":2810:2816   */\n      dup3\n        /* \"#utility.yul\":2799:2808   */\n      dup6\n        /* \"#utility.yul\":2795:2817   */\n      add\n        /* \"#utility.yul\":2766:2827   */\n      tag_242\n      jump\t// in\n    tag_260:\n        /* \"#utility.yul\":2756:2827   */\n      swap2\n      pop\n        /* \"#utility.yul\":2712:2837   */\n      pop\n        /* \"#utility.yul\":2499:2844   */\n      swap3\n      swap2\n      pop\n      pop\n      jump\t// out\n        /* \"#utility.yul\":2850:3498   */\n    tag_32:\n        /* \"#utility.yul\":2925:2931   */\n      0x00\n        /* \"#utility.yul\":2933:2939   */\n      dup1\n        /* \"#utility.yul\":2982:2984   */\n      0x40\n        /* \"#utility.yul\":2970:2979   */\n      dup4\n        /* \"#utility.yul\":2961:2968   */\n      dup6\n        /* \"#utility.yul\":2957:2980   */\n      sub\n        /* \"#utility.yul\":2953:2985   */\n      slt\n        /* \"#utility.yul\":2950:3069   */\n      iszero\n      tag_262\n      jumpi\n        /* \"#utility.yul\":2988:3067   */\n      tag_263\n      tag_259\n      jump\t// in\n    tag_263:\n        /* \"#utility.yul\":2950:3069   */\n    tag_262:\n        /* \"#utility.yul\":3136:3137   */\n      0x00\n        /* \"#utility.yul\":3125:3134   */\n      dup4\n        /* \"#utility.yul\":3121:3138   */\n      add\n        /* \"#utility.yul\":3108:3139   */\n      calldataload\n        /* \"#utility.yul\":3166:3184   */\n      0xffffffffffffffff\n        /* \"#utility.yul\":3158:3164   */\n      dup2\n        /* \"#utility.yul\":3155:3185   */\n      gt\n        /* \"#utility.yul\":3152:3269   */\n      iszero\n      tag_264\n      jumpi\n        /* \"#utility.yul\":3188:3267   */\n      tag_265\n      tag_266\n      jump\t// in\n    tag_265:\n        /* \"#utility.yul\":3152:3269   */\n    tag_264:\n        /* \"#utility.yul\":3293:3356   */\n      tag_267\n        /* \"#utility.yul\":3348:3355   */\n      dup6\n        /* \"#utility.yul\":3339:3345   */\n      dup3\n        /* \"#utility.yul\":3328:3337   */\n      dup7\n        /* \"#utility.yul\":3324:3346   */\n      add\n        /* \"#utility.yul\":3293:3356   */\n      tag_245\n      jump\t// in\n    tag_267:\n        /* \"#utility.yul\":3283:3356   */\n      swap3\n      pop\n        /* \"#utility.yul\":3079:3366   */\n      pop\n        /* \"#utility.yul\":3405:3407   */\n      0x20\n        /* \"#utility.yul\":3431:3481   */\n      tag_268\n        /* \"#utility.yul\":3473:3480   */\n      dup6\n        /* \"#utility.yul\":3464:3470   */\n      dup3\n        /* \"#utility.yul\":3453:3462   */\n      dup7\n        /* \"#utility.yul\":3449:3471   */\n      add\n        /* \"#utility.yul\":3431:3481   */\n      tag_238\n      jump\t// in\n    tag_268:\n        /* \"#utility.yul\":3421:3481   */\n      swap2\n      pop\n        /* \"#utility.yul\":3376:3491   */\n      pop\n        /* \"#utility.yul\":2850:3498   */\n      swap3\n      pop\n      swap3\n      swap1\n      pop\n      jump\t// out\n        /* \"#utility.yul\":3504:3833   */\n    tag_28:\n        /* \"#utility.yul\":3563:3569   */\n      0x00\n        /* \"#utility.yul\":3612:3614   */\n      0x20\n        /* \"#utility.yul\":3600:3609   */\n      dup3\n        /* \"#utility.yul\":3591:3598   */\n      dup5\n        /* \"#utility.yul\":3587:3610   */\n      sub\n        /* \"#utility.yul\":3583:3615   */\n      slt\n        /* \"#utility.yul\":3580:3699   */\n      iszero\n      tag_270\n      jumpi\n        /* \"#utility.yul\":3618:3697   */\n      tag_271\n      tag_259\n      jump\t// in\n    tag_271:\n        /* \"#utility.yul\":3580:3699   */\n    tag_270:\n        /* \"#utility.yul\":3738:3739   */\n      0x00\n        /* \"#utility.yul\":3763:3816   */\n      tag_272\n        /* \"#utility.yul\":3808:3815   */\n      dup5\n        /* \"#utility.yul\":3799:3805   */\n      dup3\n        /* \"#utility.yul\":3788:3797   */\n      dup6\n        /* \"#utility.yul\":3784:3806   */\n      add\n        /* \"#utility.yul\":3763:3816   */\n      tag_221\n      jump\t// in\n    tag_272:\n        /* \"#utility.yul\":3753:3816   */\n      swap2\n      pop\n        /* \"#utility.yul\":3709:3826   */\n      pop\n        /* \"#utility.yul\":3504:3833   */\n      swap3\n      swap2\n      pop\n      pop\n      jump\t// out\n        /* \"#utility.yul\":3839:4190   */\n    tag_196:\n        /* \"#utility.yul\":3909:3915   */\n      0x00\n        /* \"#utility.yul\":3958:3960   */\n      0x20\n        /* \"#utility.yul\":3946:3955   */\n      dup3\n        /* \"#utility.yul\":3937:3944   */\n      dup5\n        /* \"#utility.yul\":3933:3956   */\n      sub\n        /* \"#utility.yul\":3929:3961   */\n      slt\n        /* \"#utility.yul\":3926:4045   */\n      iszero\n      tag_274\n      jumpi\n        /* \"#utility.yul\":3964:4043   */\n      tag_275\n      tag_259\n      jump\t// in\n    tag_275:\n        /* \"#utility.yul\":3926:4045   */\n    tag_274:\n        /* \"#utility.yul\":4084:4085   */\n      0x00\n        /* \"#utility.yul\":4109:4173   */\n      tag_276\n        /* \"#utility.yul\":4165:4172   */\n      dup5\n        /* \"#utility.yul\":4156:4162   */\n      dup3\n        /* \"#utility.yul\":4145:4154   */\n      dup6\n        /* \"#utility.yul\":4141:4163   */\n      add\n        /* \"#utility.yul\":4109:4173   */\n      tag_253\n      jump\t// in\n    tag_276:\n        /* \"#utility.yul\":4099:4173   */\n      swap2\n      pop\n        /* \"#utility.yul\":4055:4183   */\n      pop\n        /* \"#utility.yul\":3839:4190   */\n      swap3\n      swap2\n      pop\n      pop\n      jump\t// out\n        /* \"#utility.yul\":4196:4880   */\n    tag_13:\n        /* \"#utility.yul\":4289:4295   */\n      0x00\n        /* \"#utility.yul\":4297:4303   */\n      dup1\n        /* \"#utility.yul\":4346:4348   */\n      0x40\n        /* \"#utility.yul\":4334:4343   */\n      dup4\n        /* \"#utility.yul\":4325:4332   */\n      dup6\n        /* \"#utility.yul\":4321:4344   */\n      sub\n        /* \"#utility.yul\":4317:4349   */\n      slt\n        /* \"#utility.yul\":4314:4433   */\n      iszero\n      tag_278\n      jumpi\n        /* \"#utility.yul\":4352:4431   */\n      tag_279\n      tag_259\n      jump\t// in\n    tag_279:\n        /* \"#utility.yul\":4314:4433   */\n    tag_278:\n        /* \"#utility.yul\":4472:4473   */\n      0x00\n        /* \"#utility.yul\":4497:4550   */\n      tag_280\n        /* \"#utility.yul\":4542:4549   */\n      dup6\n        /* \"#utility.yul\":4533:4539   */\n      dup3\n        /* \"#utility.yul\":4522:4531   */\n      dup7\n        /* \"#utility.yul\":4518:4540   */\n      add\n        /* \"#utility.yul\":4497:4550   */\n      tag_221\n      jump\t// in\n    tag_280:\n        /* \"#utility.yul\":4487:4550   */\n      swap3\n      pop\n        /* \"#utility.yul\":4443:4560   */\n      pop\n        /* \"#utility.yul\":4627:4629   */\n      0x20\n        /* \"#utility.yul\":4616:4625   */\n      dup4\n        /* \"#utility.yul\":4612:4630   */\n      add\n        /* \"#utility.yul\":4599:4631   */\n      calldataload\n        /* \"#utility.yul\":4658:4676   */\n      0xffffffffffffffff\n        /* \"#utility.yul\":4650:4656   */\n      dup2\n        /* \"#utility.yul\":4647:4677   */\n      gt\n        /* \"#utility.yul\":4644:4761   */\n      iszero\n      tag_281\n      jumpi\n        /* \"#utility.yul\":4680:4759   */\n      tag_282\n      tag_266\n      jump\t// in\n    tag_282:\n        /* \"#utility.yul\":4644:4761   */\n    tag_281:\n        /* \"#utility.yul\":4785:4863   */\n      tag_283\n        /* \"#utility.yul\":4855:4862   */\n      dup6\n        /* \"#utility.yul\":4846:4852   */\n      dup3\n        /* \"#utility.yul\":4835:4844   */\n      dup7\n        /* \"#utility.yul\":4831:4853   */\n      add\n        /* \"#utility.yul\":4785:4863   */\n      tag_232\n      jump\t// in\n    tag_283:\n        /* \"#utility.yul\":4775:4863   */\n      swap2\n      pop\n        /* \"#utility.yul\":4570:4873   */\n      pop\n        /* \"#utility.yul\":4196:4880   */\n      swap3\n      pop\n      swap3\n      swap1\n      pop\n      jump\t// out\n        /* \"#utility.yul\":4886:5354   */\n    tag_18:\n        /* \"#utility.yul\":4951:4957   */\n      0x00\n        /* \"#utility.yul\":4959:4965   */\n      dup1\n        /* \"#utility.yul\":5008:5010   */\n      0x40\n        /* \"#utility.yul\":4996:5005   */\n      dup4\n        /* \"#utility.yul\":4987:4994   */\n      dup6\n        /* \"#utility.yul\":4983:5006   */\n      sub\n        /* \"#utility.yul\":4979:5011   */\n      slt\n        /* \"#utility.yul\":4976:5095   */\n      iszero\n      tag_285\n      jumpi\n        /* \"#utility.yul\":5014:5093   */\n      tag_286\n      tag_259\n      jump\t// in\n    tag_286:\n        /* \"#utility.yul\":4976:5095   */\n    tag_285:\n        /* \"#utility.yul\":5134:5135   */\n      0x00\n        /* \"#utility.yul\":5159:5212   */\n      tag_287\n        /* \"#utility.yul\":5204:5211   */\n      dup6\n        /* \"#utility.yul\":5195:5201   */\n      dup3\n        /* \"#utility.yul\":5184:5193   */\n      dup7\n        /* \"#utility.yul\":5180:5202   */\n      add\n        /* \"#utility.yul\":5159:5212   */\n      tag_221\n      jump\t// in\n    tag_287:\n        /* \"#utility.yul\":5149:5212   */\n      swap3\n      pop\n        /* \"#utility.yul\":5105:5222   */\n      pop\n        /* \"#utility.yul\":5261:5263   */\n      0x20\n        /* \"#utility.yul\":5287:5337   */\n      tag_288\n        /* \"#utility.yul\":5329:5336   */\n      dup6\n        /* \"#utility.yul\":5320:5326   */\n      dup3\n        /* \"#utility.yul\":5309:5318   */\n      dup7\n        /* \"#utility.yul\":5305:5327   */\n      add\n        /* \"#utility.yul\":5287:5337   */\n      tag_238\n      jump\t// in\n    tag_288:\n        /* \"#utility.yul\":5277:5337   */\n      swap2\n      pop\n        /* \"#utility.yul\":5232:5347   */\n      pop\n        /* \"#utility.yul\":4886:5354   */\n      swap3\n      pop\n      swap3\n      swap1\n      pop\n      jump\t// out\n        /* \"#utility.yul\":5360:5604   */\n    tag_289:\n        /* \"#utility.yul\":5473:5483   */\n      0x00\n        /* \"#utility.yul\":5508:5598   */\n      tag_291\n        /* \"#utility.yul\":5594:5597   */\n      dup4\n        /* \"#utility.yul\":5586:5592   */\n      dup4\n        /* \"#utility.yul\":5508:5598   */\n      tag_292\n      jump\t// in\n    tag_291:\n        /* \"#utility.yul\":5494:5598   */\n      swap1\n      pop\n        /* \"#utility.yul\":5360:5604   */\n      swap3\n      swap2\n      pop\n      pop\n      jump\t// out\n        /* \"#utility.yul\":5610:5718   */\n    tag_293:\n        /* \"#utility.yul\":5687:5711   */\n      tag_295\n        /* \"#utility.yul\":5705:5710   */\n      dup2\n        /* \"#utility.yul\":5687:5711   */\n      tag_296\n      jump\t// in\n    tag_295:\n        /* \"#utility.yul\":5682:5685   */\n      dup3\n        /* \"#utility.yul\":5675:5712   */\n      mstore\n        /* \"#utility.yul\":5610:5718   */\n      pop\n      pop\n      jump\t// out\n        /* \"#utility.yul\":5724:5842   */\n    tag_297:\n        /* \"#utility.yul\":5811:5835   */\n      tag_299\n        /* \"#utility.yul\":5829:5834   */\n      dup2\n        /* \"#utility.yul\":5811:5835   */\n      tag_296\n      jump\t// in\n    tag_299:\n        /* \"#utility.yul\":5806:5809   */\n      dup3\n        /* \"#utility.yul\":5799:5836   */\n      mstore\n        /* \"#utility.yul\":5724:5842   */\n      pop\n      pop\n      jump\t// out\n        /* \"#utility.yul\":5922:7009   */\n    tag_300:\n        /* \"#utility.yul\":6085:6088   */\n      0x00\n        /* \"#utility.yul\":6114:6190   */\n      tag_302\n        /* \"#utility.yul\":6184:6189   */\n      dup3\n        /* \"#utility.yul\":6114:6190   */\n      tag_303\n      jump\t// in\n    tag_302:\n        /* \"#utility.yul\":6206:6314   */\n      tag_304\n        /* \"#utility.yul\":6307:6313   */\n      dup2\n        /* \"#utility.yul\":6302:6305   */\n      dup6\n        /* \"#utility.yul\":6206:6314   */\n      tag_305\n      jump\t// in\n    tag_304:\n        /* \"#utility.yul\":6199:6314   */\n      swap4\n      pop\n        /* \"#utility.yul\":6340:6343   */\n      dup4\n        /* \"#utility.yul\":6385:6389   */\n      0x20\n        /* \"#utility.yul\":6377:6383   */\n      dup3\n        /* \"#utility.yul\":6373:6390   */\n      mul\n        /* \"#utility.yul\":6368:6371   */\n      dup6\n        /* \"#utility.yul\":6364:6391   */\n      add\n        /* \"#utility.yul\":6415:6493   */\n      tag_306\n        /* \"#utility.yul\":6487:6492   */\n      dup6\n        /* \"#utility.yul\":6415:6493   */\n      tag_307\n      jump\t// in\n    tag_306:\n        /* \"#utility.yul\":6516:6523   */\n      dup1\n        /* \"#utility.yul\":6547:6548   */\n      0x00\n        /* \"#utility.yul\":6532:6964   */\n    tag_308:\n        /* \"#utility.yul\":6557:6563   */\n      dup6\n        /* \"#utility.yul\":6554:6555   */\n      dup2\n        /* \"#utility.yul\":6551:6564   */\n      lt\n        /* \"#utility.yul\":6532:6964   */\n      iszero\n      tag_310\n      jumpi\n        /* \"#utility.yul\":6628:6637   */\n      dup5\n        /* \"#utility.yul\":6622:6626   */\n      dup5\n        /* \"#utility.yul\":6618:6638   */\n      sub\n        /* \"#utility.yul\":6613:6616   */\n      dup10\n        /* \"#utility.yul\":6606:6639   */\n      mstore\n        /* \"#utility.yul\":6679:6685   */\n      dup2\n        /* \"#utility.yul\":6673:6686   */\n      mload\n        /* \"#utility.yul\":6707:6815   */\n      tag_311\n        /* \"#utility.yul\":6810:6814   */\n      dup6\n        /* \"#utility.yul\":6795:6808   */\n      dup3\n        /* \"#utility.yul\":6707:6815   */\n      tag_289\n      jump\t// in\n    tag_311:\n        /* \"#utility.yul\":6699:6815   */\n      swap5\n      pop\n        /* \"#utility.yul\":6838:6920   */\n      tag_312\n        /* \"#utility.yul\":6913:6919   */\n      dup4\n        /* \"#utility.yul\":6838:6920   */\n      tag_313\n      jump\t// in\n    tag_312:\n        /* \"#utility.yul\":6828:6920   */\n      swap3\n      pop\n        /* \"#utility.yul\":6949:6953   */\n      0x20\n        /* \"#utility.yul\":6944:6947   */\n      dup11\n        /* \"#utility.yul\":6940:6954   */\n      add\n        /* \"#utility.yul\":6933:6954   */\n      swap10\n      pop\n        /* \"#utility.yul\":6592:6964   */\n      pop\n        /* \"#utility.yul\":6579:6580   */\n      0x01\n        /* \"#utility.yul\":6576:6577   */\n      dup2\n        /* \"#utility.yul\":6572:6581   */\n      add\n        /* \"#utility.yul\":6567:6581   */\n      swap1\n      pop\n        /* \"#utility.yul\":6532:6964   */\n      jump(tag_308)\n    tag_310:\n        /* \"#utility.yul\":6536:6550   */\n      pop\n        /* \"#utility.yul\":6980:6984   */\n      dup3\n        /* \"#utility.yul\":6973:6984   */\n      swap8\n      pop\n        /* \"#utility.yul\":7000:7003   */\n      dup8\n        /* \"#utility.yul\":6993:7003   */\n      swap6\n      pop\n        /* \"#utility.yul\":6090:7009   */\n      pop\n      pop\n      pop\n      pop\n      pop\n        /* \"#utility.yul\":5922:7009   */\n      swap3\n      swap2\n      pop\n      pop\n      jump\t// out\n        /* \"#utility.yul\":7015:7114   */\n    tag_314:\n        /* \"#utility.yul\":7086:7107   */\n      tag_316\n        /* \"#utility.yul\":7101:7106   */\n      dup2\n        /* \"#utility.yul\":7086:7107   */\n      tag_317\n      jump\t// in\n    tag_316:\n        /* \"#utility.yul\":7081:7084   */\n      dup3\n        /* \"#utility.yul\":7074:7108   */\n      mstore\n        /* \"#utility.yul\":7015:7114   */\n      pop\n      pop\n      jump\t// out\n        /* \"#utility.yul\":7120:7229   */\n    tag_318:\n        /* \"#utility.yul\":7201:7222   */\n      tag_320\n        /* \"#utility.yul\":7216:7221   */\n      dup2\n        /* \"#utility.yul\":7201:7222   */\n      tag_317\n      jump\t// in\n    tag_320:\n        /* \"#utility.yul\":7196:7199   */\n      dup3\n        /* \"#utility.yul\":7189:7223   */\n      mstore\n        /* \"#utility.yul\":7120:7229   */\n      pop\n      pop\n      jump\t// out\n        /* \"#utility.yul\":7235:7353   */\n    tag_321:\n        /* \"#utility.yul\":7322:7346   */\n      tag_323\n        /* \"#utility.yul\":7340:7345   */\n      dup2\n        /* \"#utility.yul\":7322:7346   */\n      tag_324\n      jump\t// in\n    tag_323:\n        /* \"#utility.yul\":7317:7320   */\n      dup3\n        /* \"#utility.yul\":7310:7347   */\n      mstore\n        /* \"#utility.yul\":7235:7353   */\n      pop\n      pop\n      jump\t// out\n        /* \"#utility.yul\":7359:7508   */\n    tag_325:\n        /* \"#utility.yul\":7455:7501   */\n      tag_327\n        /* \"#utility.yul\":7495:7500   */\n      dup2\n        /* \"#utility.yul\":7455:7501   */\n      tag_328\n      jump\t// in\n    tag_327:\n        /* \"#utility.yul\":7450:7453   */\n      dup3\n        /* \"#utility.yul\":7443:7502   */\n      mstore\n        /* \"#utility.yul\":7359:7508   */\n      pop\n      pop\n      jump\t// out\n        /* \"#utility.yul\":7514:7858   */\n    tag_329:\n        /* \"#utility.yul\":7592:7595   */\n      0x00\n        /* \"#utility.yul\":7620:7659   */\n      tag_331\n        /* \"#utility.yul\":7653:7658   */\n      dup3\n        /* \"#utility.yul\":7620:7659   */\n      tag_332\n      jump\t// in\n    tag_331:\n        /* \"#utility.yul\":7675:7736   */\n      tag_333\n        /* \"#utility.yul\":7729:7735   */\n      dup2\n        /* \"#utility.yul\":7724:7727   */\n      dup6\n        /* \"#utility.yul\":7675:7736   */\n      tag_334\n      jump\t// in\n    tag_333:\n        /* \"#utility.yul\":7668:7736   */\n      swap4\n      pop\n        /* \"#utility.yul\":7745:7797   */\n      tag_335\n        /* \"#utility.yul\":7790:7796   */\n      dup2\n        /* \"#utility.yul\":7785:7788   */\n      dup6\n        /* \"#utility.yul\":7778:7782   */\n      0x20\n        /* \"#utility.yul\":7771:7776   */\n      dup7\n        /* \"#utility.yul\":7767:7783   */\n      add\n        /* \"#utility.yul\":7745:7797   */\n      tag_336\n      jump\t// in\n    tag_335:\n        /* \"#utility.yul\":7822:7851   */\n      tag_337\n        /* \"#utility.yul\":7844:7850   */\n      dup2\n        /* \"#utility.yul\":7822:7851   */\n      tag_338\n      jump\t// in\n    tag_337:\n        /* \"#utility.yul\":7817:7820   */\n      dup5\n        /* \"#utility.yul\":7813:7852   */\n      add\n        /* \"#utility.yul\":7806:7852   */\n      swap2\n      pop\n        /* \"#utility.yul\":7596:7858   */\n      pop\n        /* \"#utility.yul\":7514:7858   */\n      swap3\n      swap2\n      pop\n      pop\n      jump\t// out\n        /* \"#utility.yul\":7864:8230   */\n    tag_339:\n        /* \"#utility.yul\":8006:8009   */\n      0x00\n        /* \"#utility.yul\":8027:8094   */\n      tag_341\n        /* \"#utility.yul\":8091:8093   */\n      0x10\n        /* \"#utility.yul\":8086:8089   */\n      dup4\n        /* \"#utility.yul\":8027:8094   */\n      tag_342\n      jump\t// in\n    tag_341:\n        /* \"#utility.yul\":8020:8094   */\n      swap2\n      pop\n        /* \"#utility.yul\":8103:8196   */\n      tag_343\n        /* \"#utility.yul\":8192:8195   */\n      dup3\n        /* \"#utility.yul\":8103:8196   */\n      tag_344\n      jump\t// in\n    tag_343:\n        /* \"#utility.yul\":8221:8223   */\n      0x20\n        /* \"#utility.yul\":8216:8219   */\n      dup3\n        /* \"#utility.yul\":8212:8224   */\n      add\n        /* \"#utility.yul\":8205:8224   */\n      swap1\n      pop\n        /* \"#utility.yul\":7864:8230   */\n      swap2\n      swap1\n      pop\n      jump\t// out\n        /* \"#utility.yul\":8236:8602   */\n    tag_345:\n        /* \"#utility.yul\":8378:8381   */\n      0x00\n        /* \"#utility.yul\":8399:8466   */\n      tag_347\n        /* \"#utility.yul\":8463:8465   */\n      0x0f\n        /* \"#utility.yul\":8458:8461   */\n      dup4\n        /* \"#utility.yul\":8399:8466   */\n      tag_342\n      jump\t// in\n    tag_347:\n        /* \"#utility.yul\":8392:8466   */\n      swap2\n      pop\n        /* \"#utility.yul\":8475:8568   */\n      tag_348\n        /* \"#utility.yul\":8564:8567   */\n      dup3\n        /* \"#utility.yul\":8475:8568   */\n      tag_349\n      jump\t// in\n    tag_348:\n        /* \"#utility.yul\":8593:8595   */\n      0x20\n        /* \"#utility.yul\":8588:8591   */\n      dup3\n        /* \"#utility.yul\":8584:8596   */\n      add\n        /* \"#utility.yul\":8577:8596   */\n      swap1\n      pop\n        /* \"#utility.yul\":8236:8602   */\n      swap2\n      swap1\n      pop\n      jump\t// out\n        /* \"#utility.yul\":8608:8974   */\n    tag_350:\n        /* \"#utility.yul\":8750:8753   */\n      0x00\n        /* \"#utility.yul\":8771:8838   */\n      tag_352\n        /* \"#utility.yul\":8835:8837   */\n      0x0e\n        /* \"#utility.yul\":8830:8833   */\n      dup4\n        /* \"#utility.yul\":8771:8838   */\n      tag_342\n      jump\t// in\n    tag_352:\n        /* \"#utility.yul\":8764:8838   */\n      swap2\n      pop\n        /* \"#utility.yul\":8847:8940   */\n      tag_353\n        /* \"#utility.yul\":8936:8939   */\n      dup3\n        /* \"#utility.yul\":8847:8940   */\n      tag_354\n      jump\t// in\n    tag_353:\n        /* \"#utility.yul\":8965:8967   */\n      0x20\n        /* \"#utility.yul\":8960:8963   */\n      dup3\n        /* \"#utility.yul\":8956:8968   */\n      add\n        /* \"#utility.yul\":8949:8968   */\n      swap1\n      pop\n        /* \"#utility.yul\":8608:8974   */\n      swap2\n      swap1\n      pop\n      jump\t// out\n        /* \"#utility.yul\":9050:10177   */\n    tag_292:\n        /* \"#utility.yul\":9153:9156   */\n      0x00\n        /* \"#utility.yul\":9189:9193   */\n      0xa0\n        /* \"#utility.yul\":9184:9187   */\n      dup4\n        /* \"#utility.yul\":9180:9194   */\n      add\n        /* \"#utility.yul\":9274:9278   */\n      0x00\n        /* \"#utility.yul\":9267:9272   */\n      dup4\n        /* \"#utility.yul\":9263:9279   */\n      add\n        /* \"#utility.yul\":9257:9280   */\n      mload\n        /* \"#utility.yul\":9293:9356   */\n      tag_356\n        /* \"#utility.yul\":9350:9354   */\n      0x00\n        /* \"#utility.yul\":9345:9348   */\n      dup7\n        /* \"#utility.yul\":9341:9355   */\n      add\n        /* \"#utility.yul\":9327:9339   */\n      dup3\n        /* \"#utility.yul\":9293:9356   */\n      tag_357\n      jump\t// in\n    tag_356:\n        /* \"#utility.yul\":9204:9366   */\n      pop\n        /* \"#utility.yul\":9453:9457   */\n      0x20\n        /* \"#utility.yul\":9446:9451   */\n      dup4\n        /* \"#utility.yul\":9442:9458   */\n      add\n        /* \"#utility.yul\":9436:9459   */\n      mload\n        /* \"#utility.yul\":9506:9509   */\n      dup5\n        /* \"#utility.yul\":9500:9504   */\n      dup3\n        /* \"#utility.yul\":9496:9510   */\n      sub\n        /* \"#utility.yul\":9489:9493   */\n      0x20\n        /* \"#utility.yul\":9484:9487   */\n      dup7\n        /* \"#utility.yul\":9480:9494   */\n      add\n        /* \"#utility.yul\":9473:9511   */\n      mstore\n        /* \"#utility.yul\":9532:9605   */\n      tag_358\n        /* \"#utility.yul\":9600:9604   */\n      dup3\n        /* \"#utility.yul\":9586:9598   */\n      dup3\n        /* \"#utility.yul\":9532:9605   */\n      tag_329\n      jump\t// in\n    tag_358:\n        /* \"#utility.yul\":9524:9605   */\n      swap2\n      pop\n        /* \"#utility.yul\":9376:9616   */\n      pop\n        /* \"#utility.yul\":9705:9709   */\n      0x40\n        /* \"#utility.yul\":9698:9703   */\n      dup4\n        /* \"#utility.yul\":9694:9710   */\n      add\n        /* \"#utility.yul\":9688:9711   */\n      mload\n        /* \"#utility.yul\":9724:9781   */\n      tag_359\n        /* \"#utility.yul\":9775:9779   */\n      0x40\n        /* \"#utility.yul\":9770:9773   */\n      dup7\n        /* \"#utility.yul\":9766:9780   */\n      add\n        /* \"#utility.yul\":9752:9764   */\n      dup3\n        /* \"#utility.yul\":9724:9781   */\n      tag_314\n      jump\t// in\n    tag_359:\n        /* \"#utility.yul\":9626:9791   */\n      pop\n        /* \"#utility.yul\":9878:9882   */\n      0x60\n        /* \"#utility.yul\":9871:9876   */\n      dup4\n        /* \"#utility.yul\":9867:9883   */\n      add\n        /* \"#utility.yul\":9861:9884   */\n      mload\n        /* \"#utility.yul\":9897:9960   */\n      tag_360\n        /* \"#utility.yul\":9954:9958   */\n      0x60\n        /* \"#utility.yul\":9949:9952   */\n      dup7\n        /* \"#utility.yul\":9945:9959   */\n      add\n        /* \"#utility.yul\":9931:9943   */\n      dup3\n        /* \"#utility.yul\":9897:9960   */\n      tag_293\n      jump\t// in\n    tag_360:\n        /* \"#utility.yul\":9801:9970   */\n      pop\n        /* \"#utility.yul\":10058:10062   */\n      0x80\n        /* \"#utility.yul\":10051:10056   */\n      dup4\n        /* \"#utility.yul\":10047:10063   */\n      add\n        /* \"#utility.yul\":10041:10064   */\n      mload\n        /* \"#utility.yul\":10077:10140   */\n      tag_361\n        /* \"#utility.yul\":10134:10138   */\n      0x80\n        /* \"#utility.yul\":10129:10132   */\n      dup7\n        /* \"#utility.yul\":10125:10139   */\n      add\n        /* \"#utility.yul\":10111:10123   */\n      dup3\n        /* \"#utility.yul\":10077:10140   */\n      tag_293\n      jump\t// in\n    tag_361:\n        /* \"#utility.yul\":9980:10150   */\n      pop\n        /* \"#utility.yul\":10167:10171   */\n      dup1\n        /* \"#utility.yul\":10160:10171   */\n      swap2\n      pop\n        /* \"#utility.yul\":9158:10177   */\n      pop\n        /* \"#utility.yul\":9050:10177   */\n      swap3\n      swap2\n      pop\n      pop\n      jump\t// out\n        /* \"#utility.yul\":10183:10298   */\n    tag_362:\n        /* \"#utility.yul\":10268:10291   */\n      tag_364\n        /* \"#utility.yul\":10285:10290   */\n      dup2\n        /* \"#utility.yul\":10268:10291   */\n      tag_365\n      jump\t// in\n    tag_364:\n        /* \"#utility.yul\":10263:10266   */\n      dup3\n        /* \"#utility.yul\":10256:10292   */\n      mstore\n        /* \"#utility.yul\":10183:10298   */\n      pop\n      pop\n      jump\t// out\n        /* \"#utility.yul\":10304:10412   */\n    tag_357:\n        /* \"#utility.yul\":10381:10405   */\n      tag_367\n        /* \"#utility.yul\":10399:10404   */\n      dup2\n        /* \"#utility.yul\":10381:10405   */\n      tag_368\n      jump\t// in\n    tag_367:\n        /* \"#utility.yul\":10376:10379   */\n      dup3\n        /* \"#utility.yul\":10369:10406   */\n      mstore\n        /* \"#utility.yul\":10304:10412   */\n      pop\n      pop\n      jump\t// out\n        /* \"#utility.yul\":10418:10536   */\n    tag_369:\n        /* \"#utility.yul\":10505:10529   */\n      tag_371\n        /* \"#utility.yul\":10523:10528   */\n      dup2\n        /* \"#utility.yul\":10505:10529   */\n      tag_368\n      jump\t// in\n    tag_371:\n        /* \"#utility.yul\":10500:10503   */\n      dup3\n        /* \"#utility.yul\":10493:10530   */\n      mstore\n        /* \"#utility.yul\":10418:10536   */\n      pop\n      pop\n      jump\t// out\n        /* \"#utility.yul\":10542:10657   */\n    tag_372:\n        /* \"#utility.yul\":10627:10650   */\n      tag_374\n        /* \"#utility.yul\":10644:10649   */\n      dup2\n        /* \"#utility.yul\":10627:10650   */\n      tag_375\n      jump\t// in\n    tag_374:\n        /* \"#utility.yul\":10622:10625   */\n      dup3\n        /* \"#utility.yul\":10615:10651   */\n      mstore\n        /* \"#utility.yul\":10542:10657   */\n      pop\n      pop\n      jump\t// out\n        /* \"#utility.yul\":10663:10778   */\n    tag_376:\n        /* \"#utility.yul\":10748:10771   */\n      tag_378\n        /* \"#utility.yul\":10765:10770   */\n      dup2\n        /* \"#utility.yul\":10748:10771   */\n      tag_379\n      jump\t// in\n    tag_378:\n        /* \"#utility.yul\":10743:10746   */\n      dup3\n        /* \"#utility.yul\":10736:10772   */\n      mstore\n        /* \"#utility.yul\":10663:10778   */\n      pop\n      pop\n      jump\t// out\n        /* \"#utility.yul\":10784:11116   */\n    tag_46:\n        /* \"#utility.yul\":10905:10909   */\n      0x00\n        /* \"#utility.yul\":10943:10945   */\n      0x40\n        /* \"#utility.yul\":10932:10941   */\n      dup3\n        /* \"#utility.yul\":10928:10946   */\n      add\n        /* \"#utility.yul\":10920:10946   */\n      swap1\n      pop\n        /* \"#utility.yul\":10956:11027   */\n      tag_381\n        /* \"#utility.yul\":11024:11025   */\n      0x00\n        /* \"#utility.yul\":11013:11022   */\n      dup4\n        /* \"#utility.yul\":11009:11026   */\n      add\n        /* \"#utility.yul\":11000:11006   */\n      dup6\n        /* \"#utility.yul\":10956:11027   */\n      tag_297\n      jump\t// in\n    tag_381:\n        /* \"#utility.yul\":11037:11109   */\n      tag_382\n        /* \"#utility.yul\":11105:11107   */\n      0x20\n        /* \"#utility.yul\":11094:11103   */\n      dup4\n        /* \"#utility.yul\":11090:11108   */\n      add\n        /* \"#utility.yul\":11081:11087   */\n      dup5\n        /* \"#utility.yul\":11037:11109   */\n      tag_297\n      jump\t// in\n    tag_382:\n        /* \"#utility.yul\":10784:11116   */\n      swap4\n      swap3\n      pop\n      pop\n      pop\n      jump\t// out\n        /* \"#utility.yul\":11122:11472   */\n    tag_59:\n        /* \"#utility.yul\":11252:11256   */\n      0x00\n        /* \"#utility.yul\":11290:11292   */\n      0x40\n        /* \"#utility.yul\":11279:11288   */\n      dup3\n        /* \"#utility.yul\":11275:11293   */\n      add\n        /* \"#utility.yul\":11267:11293   */\n      swap1\n      pop\n        /* \"#utility.yul\":11303:11374   */\n      tag_384\n        /* \"#utility.yul\":11371:11372   */\n      0x00\n        /* \"#utility.yul\":11360:11369   */\n      dup4\n        /* \"#utility.yul\":11356:11373   */\n      add\n        /* \"#utility.yul\":11347:11353   */\n      dup6\n        /* \"#utility.yul\":11303:11374   */\n      tag_297\n      jump\t// in\n    tag_384:\n        /* \"#utility.yul\":11384:11465   */\n      tag_385\n        /* \"#utility.yul\":11461:11463   */\n      0x20\n        /* \"#utility.yul\":11450:11459   */\n      dup4\n        /* \"#utility.yul\":11446:11464   */\n      add\n        /* \"#utility.yul\":11437:11443   */\n      dup5\n        /* \"#utility.yul\":11384:11465   */\n      tag_325\n      jump\t// in\n    tag_385:\n        /* \"#utility.yul\":11122:11472   */\n      swap4\n      swap3\n      pop\n      pop\n      pop\n      jump\t// out\n        /* \"#utility.yul\":11478:11810   */\n    tag_125:\n        /* \"#utility.yul\":11599:11603   */\n      0x00\n        /* \"#utility.yul\":11637:11639   */\n      0x40\n        /* \"#utility.yul\":11626:11635   */\n      dup3\n        /* \"#utility.yul\":11622:11640   */\n      add\n        /* \"#utility.yul\":11614:11640   */\n      swap1\n      pop\n        /* \"#utility.yul\":11650:11721   */\n      tag_387\n        /* \"#utility.yul\":11718:11719   */\n      0x00\n        /* \"#utility.yul\":11707:11716   */\n      dup4\n        /* \"#utility.yul\":11703:11720   */\n      add\n        /* \"#utility.yul\":11694:11700   */\n      dup6\n        /* \"#utility.yul\":11650:11721   */\n      tag_297\n      jump\t// in\n    tag_387:\n        /* \"#utility.yul\":11731:11803   */\n      tag_388\n        /* \"#utility.yul\":11799:11801   */\n      0x20\n        /* \"#utility.yul\":11788:11797   */\n      dup4\n        /* \"#utility.yul\":11784:11802   */\n      add\n        /* \"#utility.yul\":11775:11781   */\n      dup5\n        /* \"#utility.yul\":11731:11803   */\n      tag_369\n      jump\t// in\n    tag_388:\n        /* \"#utility.yul\":11478:11810   */\n      swap4\n      swap3\n      pop\n      pop\n      pop\n      jump\t// out\n        /* \"#utility.yul\":11816:12277   */\n    tag_24:\n        /* \"#utility.yul\":12003:12007   */\n      0x00\n        /* \"#utility.yul\":12041:12043   */\n      0x20\n        /* \"#utility.yul\":12030:12039   */\n      dup3\n        /* \"#utility.yul\":12026:12044   */\n      add\n        /* \"#utility.yul\":12018:12044   */\n      swap1\n      pop\n        /* \"#utility.yul\":12090:12099   */\n      dup2\n        /* \"#utility.yul\":12084:12088   */\n      dup2\n        /* \"#utility.yul\":12080:12100   */\n      sub\n        /* \"#utility.yul\":12076:12077   */\n      0x00\n        /* \"#utility.yul\":12065:12074   */\n      dup4\n        /* \"#utility.yul\":12061:12078   */\n      add\n        /* \"#utility.yul\":12054:12101   */\n      mstore\n        /* \"#utility.yul\":12118:12270   */\n      tag_390\n        /* \"#utility.yul\":12265:12269   */\n      dup2\n        /* \"#utility.yul\":12256:12262   */\n      dup5\n        /* \"#utility.yul\":12118:12270   */\n      tag_300\n      jump\t// in\n    tag_390:\n        /* \"#utility.yul\":12110:12270   */\n      swap1\n      pop\n        /* \"#utility.yul\":11816:12277   */\n      swap3\n      swap2\n      pop\n      pop\n      jump\t// out\n        /* \"#utility.yul\":12283:12493   */\n    tag_42:\n        /* \"#utility.yul\":12370:12374   */\n      0x00\n        /* \"#utility.yul\":12408:12410   */\n      0x20\n        /* \"#utility.yul\":12397:12406   */\n      dup3\n        /* \"#utility.yul\":12393:12411   */\n      add\n        /* \"#utility.yul\":12385:12411   */\n      swap1\n      pop\n        /* \"#utility.yul\":12421:12486   */\n      tag_392\n        /* \"#utility.yul\":12483:12484   */\n      0x00\n        /* \"#utility.yul\":12472:12481   */\n      dup4\n        /* \"#utility.yul\":12468:12485   */\n      add\n        /* \"#utility.yul\":12459:12465   */\n      dup5\n        /* \"#utility.yul\":12421:12486   */\n      tag_318\n      jump\t// in\n    tag_392:\n        /* \"#utility.yul\":12283:12493   */\n      swap3\n      swap2\n      pop\n      pop\n      jump\t// out\n        /* \"#utility.yul\":12499:13147   */\n    tag_191:\n        /* \"#utility.yul\":12696:12700   */\n      0x00\n        /* \"#utility.yul\":12734:12737   */\n      0xa0\n        /* \"#utility.yul\":12723:12732   */\n      dup3\n        /* \"#utility.yul\":12719:12738   */\n      add\n        /* \"#utility.yul\":12711:12738   */\n      swap1\n      pop\n        /* \"#utility.yul\":12748:12819   */\n      tag_394\n        /* \"#utility.yul\":12816:12817   */\n      0x00\n        /* \"#utility.yul\":12805:12814   */\n      dup4\n        /* \"#utility.yul\":12801:12818   */\n      add\n        /* \"#utility.yul\":12792:12798   */\n      dup9\n        /* \"#utility.yul\":12748:12819   */\n      tag_321\n      jump\t// in\n    tag_394:\n        /* \"#utility.yul\":12829:12899   */\n      tag_395\n        /* \"#utility.yul\":12895:12897   */\n      0x20\n        /* \"#utility.yul\":12884:12893   */\n      dup4\n        /* \"#utility.yul\":12880:12898   */\n      add\n        /* \"#utility.yul\":12871:12877   */\n      dup8\n        /* \"#utility.yul\":12829:12899   */\n      tag_376\n      jump\t// in\n    tag_395:\n        /* \"#utility.yul\":12909:12979   */\n      tag_396\n        /* \"#utility.yul\":12975:12977   */\n      0x40\n        /* \"#utility.yul\":12964:12973   */\n      dup4\n        /* \"#utility.yul\":12960:12978   */\n      add\n        /* \"#utility.yul\":12951:12957   */\n      dup7\n        /* \"#utility.yul\":12909:12979   */\n      tag_362\n      jump\t// in\n    tag_396:\n        /* \"#utility.yul\":12989:13059   */\n      tag_397\n        /* \"#utility.yul\":13055:13057   */\n      0x60\n        /* \"#utility.yul\":13044:13053   */\n      dup4\n        /* \"#utility.yul\":13040:13058   */\n      add\n        /* \"#utility.yul\":13031:13037   */\n      dup6\n        /* \"#utility.yul\":12989:13059   */\n      tag_372\n      jump\t// in\n    tag_397:\n        /* \"#utility.yul\":13069:13140   */\n      tag_398\n        /* \"#utility.yul\":13135:13138   */\n      0x80\n        /* \"#utility.yul\":13124:13133   */\n      dup4\n        /* \"#utility.yul\":13120:13139   */\n      add\n        /* \"#utility.yul\":13111:13117   */\n      dup5\n        /* \"#utility.yul\":13069:13140   */\n      tag_372\n      jump\t// in\n    tag_398:\n        /* \"#utility.yul\":12499:13147   */\n      swap7\n      swap6\n      pop\n      pop\n      pop\n      pop\n      pop\n      pop\n      jump\t// out\n        /* \"#utility.yul\":13153:13572   */\n    tag_173:\n        /* \"#utility.yul\":13319:13323   */\n      0x00\n        /* \"#utility.yul\":13357:13359   */\n      0x20\n        /* \"#utility.yul\":13346:13355   */\n      dup3\n        /* \"#utility.yul\":13342:13360   */\n      add\n        /* \"#utility.yul\":13334:13360   */\n      swap1\n      pop\n        /* \"#utility.yul\":13406:13415   */\n      dup2\n        /* \"#utility.yul\":13400:13404   */\n      dup2\n        /* \"#utility.yul\":13396:13416   */\n      sub\n        /* \"#utility.yul\":13392:13393   */\n      0x00\n        /* \"#utility.yul\":13381:13390   */\n      dup4\n        /* \"#utility.yul\":13377:13394   */\n      add\n        /* \"#utility.yul\":13370:13417   */\n      mstore\n        /* \"#utility.yul\":13434:13565   */\n      tag_400\n        /* \"#utility.yul\":13560:13564   */\n      dup2\n        /* \"#utility.yul\":13434:13565   */\n      tag_339\n      jump\t// in\n    tag_400:\n        /* \"#utility.yul\":13426:13565   */\n      swap1\n      pop\n        /* \"#utility.yul\":13153:13572   */\n      swap2\n      swap1\n      pop\n      jump\t// out\n        /* \"#utility.yul\":13578:13997   */\n    tag_170:\n        /* \"#utility.yul\":13744:13748   */\n      0x00\n        /* \"#utility.yul\":13782:13784   */\n      0x20\n        /* \"#utility.yul\":13771:13780   */\n      dup3\n        /* \"#utility.yul\":13767:13785   */\n      add\n        /* \"#utility.yul\":13759:13785   */\n      swap1\n      pop\n        /* \"#utility.yul\":13831:13840   */\n      dup2\n        /* \"#utility.yul\":13825:13829   */\n      dup2\n        /* \"#utility.yul\":13821:13841   */\n      sub\n        /* \"#utility.yul\":13817:13818   */\n      0x00\n        /* \"#utility.yul\":13806:13815   */\n      dup4\n        /* \"#utility.yul\":13802:13819   */\n      add\n        /* \"#utility.yul\":13795:13842   */\n      mstore\n        /* \"#utility.yul\":13859:13990   */\n      tag_402\n        /* \"#utility.yul\":13985:13989   */\n      dup2\n        /* \"#utility.yul\":13859:13990   */\n      tag_345\n      jump\t// in\n    tag_402:\n        /* \"#utility.yul\":13851:13990   */\n      swap1\n      pop\n        /* \"#utility.yul\":13578:13997   */\n      swap2\n      swap1\n      pop\n      jump\t// out\n        /* \"#utility.yul\":14003:14422   */\n    tag_189:\n        /* \"#utility.yul\":14169:14173   */\n      0x00\n        /* \"#utility.yul\":14207:14209   */\n      0x20\n        /* \"#utility.yul\":14196:14205   */\n      dup3\n        /* \"#utility.yul\":14192:14210   */\n      add\n        /* \"#utility.yul\":14184:14210   */\n      swap1\n      pop\n        /* \"#utility.yul\":14256:14265   */\n      dup2\n        /* \"#utility.yul\":14250:14254   */\n      dup2\n        /* \"#utility.yul\":14246:14266   */\n      sub\n        /* \"#utility.yul\":14242:14243   */\n      0x00\n        /* \"#utility.yul\":14231:14240   */\n      dup4\n        /* \"#utility.yul\":14227:14244   */\n      add\n        /* \"#utility.yul\":14220:14267   */\n      mstore\n        /* \"#utility.yul\":14284:14415   */\n      tag_404\n        /* \"#utility.yul\":14410:14414   */\n      dup2\n        /* \"#utility.yul\":14284:14415   */\n      tag_350\n      jump\t// in\n    tag_404:\n        /* \"#utility.yul\":14276:14415   */\n      swap1\n      pop\n        /* \"#utility.yul\":14003:14422   */\n      swap2\n      swap1\n      pop\n      jump\t// out\n        /* \"#utility.yul\":14428:14760   */\n    tag_119:\n        /* \"#utility.yul\":14549:14553   */\n      0x00\n        /* \"#utility.yul\":14587:14589   */\n      0x40\n        /* \"#utility.yul\":14576:14585   */\n      dup3\n        /* \"#utility.yul\":14572:14590   */\n      add\n        /* \"#utility.yul\":14564:14590   */\n      swap1\n      pop\n        /* \"#utility.yul\":14600:14671   */\n      tag_406\n        /* \"#utility.yul\":14668:14669   */\n      0x00\n        /* \"#utility.yul\":14657:14666   */\n      dup4\n        /* \"#utility.yul\":14653:14670   */\n      add\n        /* \"#utility.yul\":14644:14650   */\n      dup6\n        /* \"#utility.yul\":14600:14671   */\n      tag_369\n      jump\t// in\n    tag_406:\n        /* \"#utility.yul\":14681:14753   */\n      tag_407\n        /* \"#utility.yul\":14749:14751   */\n      0x20\n        /* \"#utility.yul\":14738:14747   */\n      dup4\n        /* \"#utility.yul\":14734:14752   */\n      add\n        /* \"#utility.yul\":14725:14731   */\n      dup5\n        /* \"#utility.yul\":14681:14753   */\n      tag_297\n      jump\t// in\n    tag_407:\n        /* \"#utility.yul\":14428:14760   */\n      swap4\n      swap3\n      pop\n      pop\n      pop\n      jump\t// out\n        /* \"#utility.yul\":14766:15086   */\n    tag_66:\n        /* \"#utility.yul\":14881:14885   */\n      0x00\n        /* \"#utility.yul\":14919:14921   */\n      0x40\n        /* \"#utility.yul\":14908:14917   */\n      dup3\n        /* \"#utility.yul\":14904:14922   */\n      add\n        /* \"#utility.yul\":14896:14922   */\n      swap1\n      pop\n        /* \"#utility.yul\":14932:15003   */\n      tag_409\n        /* \"#utility.yul\":15000:15001   */\n      0x00\n        /* \"#utility.yul\":14989:14998   */\n      dup4\n        /* \"#utility.yul\":14985:15002   */\n      add\n        /* \"#utility.yul\":14976:14982   */\n      dup6\n        /* \"#utility.yul\":14932:15003   */\n      tag_369\n      jump\t// in\n    tag_409:\n        /* \"#utility.yul\":15013:15079   */\n      tag_410\n        /* \"#utility.yul\":15075:15077   */\n      0x20\n        /* \"#utility.yul\":15064:15073   */\n      dup4\n        /* \"#utility.yul\":15060:15078   */\n      add\n        /* \"#utility.yul\":15051:15057   */\n      dup5\n        /* \"#utility.yul\":15013:15079   */\n      tag_318\n      jump\t// in\n    tag_410:\n        /* \"#utility.yul\":14766:15086   */\n      swap4\n      swap3\n      pop\n      pop\n      pop\n      jump\t// out\n        /* \"#utility.yul\":15092:15221   */\n    tag_213:\n        /* \"#utility.yul\":15126:15132   */\n      0x00\n        /* \"#utility.yul\":15153:15173   */\n      tag_412\n      tag_413\n      jump\t// in\n    tag_412:\n        /* \"#utility.yul\":15143:15173   */\n      swap1\n      pop\n        /* \"#utility.yul\":15182:15215   */\n      tag_414\n        /* \"#utility.yul\":15210:15214   */\n      dup3\n        /* \"#utility.yul\":15202:15208   */\n      dup3\n        /* \"#utility.yul\":15182:15215   */\n      tag_415\n      jump\t// in\n    tag_414:\n        /* \"#utility.yul\":15092:15221   */\n      swap2\n      swap1\n      pop\n      jump\t// out\n        /* \"#utility.yul\":15227:15302   */\n    tag_413:\n        /* \"#utility.yul\":15260:15266   */\n      0x00\n        /* \"#utility.yul\":15293:15295   */\n      0x40\n        /* \"#utility.yul\":15287:15296   */\n      mload\n        /* \"#utility.yul\":15277:15296   */\n      swap1\n      pop\n        /* \"#utility.yul\":15227:15302   */\n      swap1\n      jump\t// out\n        /* \"#utility.yul\":15308:15619   */\n    tag_212:\n        /* \"#utility.yul\":15385:15389   */\n      0x00\n        /* \"#utility.yul\":15475:15493   */\n      0xffffffffffffffff\n        /* \"#utility.yul\":15467:15473   */\n      dup3\n        /* \"#utility.yul\":15464:15494   */\n      gt\n        /* \"#utility.yul\":15461:15517   */\n      iszero\n      tag_418\n      jumpi\n        /* \"#utility.yul\":15497:15515   */\n      tag_419\n      tag_70\n      jump\t// in\n    tag_419:\n        /* \"#utility.yul\":15461:15517   */\n    tag_418:\n        /* \"#utility.yul\":15547:15551   */\n      0x20\n        /* \"#utility.yul\":15539:15545   */\n      dup3\n        /* \"#utility.yul\":15535:15552   */\n      mul\n        /* \"#utility.yul\":15527:15552   */\n      swap1\n      pop\n        /* \"#utility.yul\":15607:15611   */\n      0x20\n        /* \"#utility.yul\":15601:15605   */\n      dup2\n        /* \"#utility.yul\":15597:15612   */\n      add\n        /* \"#utility.yul\":15589:15612   */\n      swap1\n      pop\n        /* \"#utility.yul\":15308:15619   */\n      swap2\n      swap1\n      pop\n      jump\t// out\n        /* \"#utility.yul\":15625:15933   */\n    tag_226:\n        /* \"#utility.yul\":15687:15691   */\n      0x00\n        /* \"#utility.yul\":15777:15795   */\n      0xffffffffffffffff\n        /* \"#utility.yul\":15769:15775   */\n      dup3\n        /* \"#utility.yul\":15766:15796   */\n      gt\n        /* \"#utility.yul\":15763:15819   */\n      iszero\n      tag_421\n      jumpi\n        /* \"#utility.yul\":15799:15817   */\n      tag_422\n      tag_70\n      jump\t// in\n    tag_422:\n        /* \"#utility.yul\":15763:15819   */\n    tag_421:\n        /* \"#utility.yul\":15837:15866   */\n      tag_423\n        /* \"#utility.yul\":15859:15865   */\n      dup3\n        /* \"#utility.yul\":15837:15866   */\n      tag_338\n      jump\t// in\n    tag_423:\n        /* \"#utility.yul\":15829:15866   */\n      swap1\n      pop\n        /* \"#utility.yul\":15921:15925   */\n      0x20\n        /* \"#utility.yul\":15915:15919   */\n      dup2\n        /* \"#utility.yul\":15911:15926   */\n      add\n        /* \"#utility.yul\":15903:15926   */\n      swap1\n      pop\n        /* \"#utility.yul\":15625:15933   */\n      swap2\n      swap1\n      pop\n      jump\t// out\n        /* \"#utility.yul\":15939:16093   */\n    tag_307:\n        /* \"#utility.yul\":16028:16032   */\n      0x00\n        /* \"#utility.yul\":16051:16054   */\n      dup2\n        /* \"#utility.yul\":16043:16054   */\n      swap1\n      pop\n        /* \"#utility.yul\":16081:16085   */\n      0x20\n        /* \"#utility.yul\":16076:16079   */\n      dup3\n        /* \"#utility.yul\":16072:16086   */\n      add\n        /* \"#utility.yul\":16064:16086   */\n      swap1\n      pop\n        /* \"#utility.yul\":15939:16093   */\n      swap2\n      swap1\n      pop\n      jump\t// out\n        /* \"#utility.yul\":16099:16235   */\n    tag_303:\n        /* \"#utility.yul\":16188:16194   */\n      0x00\n        /* \"#utility.yul\":16222:16227   */\n      dup2\n        /* \"#utility.yul\":16216:16228   */\n      mload\n        /* \"#utility.yul\":16206:16228   */\n      swap1\n      pop\n        /* \"#utility.yul\":16099:16235   */\n      swap2\n      swap1\n      pop\n      jump\t// out\n        /* \"#utility.yul\":16241:16340   */\n    tag_332:\n        /* \"#utility.yul\":16293:16299   */\n      0x00\n        /* \"#utility.yul\":16327:16332   */\n      dup2\n        /* \"#utility.yul\":16321:16333   */\n      mload\n        /* \"#utility.yul\":16311:16333   */\n      swap1\n      pop\n        /* \"#utility.yul\":16241:16340   */\n      swap2\n      swap1\n      pop\n      jump\t// out\n        /* \"#utility.yul\":16346:16481   */\n    tag_313:\n        /* \"#utility.yul\":16438:16442   */\n      0x00\n        /* \"#utility.yul\":16470:16474   */\n      0x20\n        /* \"#utility.yul\":16465:16468   */\n      dup3\n        /* \"#utility.yul\":16461:16475   */\n      add\n        /* \"#utility.yul\":16453:16475   */\n      swap1\n      pop\n        /* \"#utility.yul\":16346:16481   */\n      swap2\n      swap1\n      pop\n      jump\t// out\n        /* \"#utility.yul\":16487:16693   */\n    tag_305:\n        /* \"#utility.yul\":16608:16619   */\n      0x00\n        /* \"#utility.yul\":16642:16648   */\n      dup3\n        /* \"#utility.yul\":16637:16640   */\n      dup3\n        /* \"#utility.yul\":16630:16649   */\n      mstore\n        /* \"#utility.yul\":16682:16686   */\n      0x20\n        /* \"#utility.yul\":16677:16680   */\n      dup3\n        /* \"#utility.yul\":16673:16687   */\n      add\n        /* \"#utility.yul\":16658:16687   */\n      swap1\n      pop\n        /* \"#utility.yul\":16487:16693   */\n      swap3\n      swap2\n      pop\n      pop\n      jump\t// out\n        /* \"#utility.yul\":16699:16858   */\n    tag_334:\n        /* \"#utility.yul\":16773:16784   */\n      0x00\n        /* \"#utility.yul\":16807:16813   */\n      dup3\n        /* \"#utility.yul\":16802:16805   */\n      dup3\n        /* \"#utility.yul\":16795:16814   */\n      mstore\n        /* \"#utility.yul\":16847:16851   */\n      0x20\n        /* \"#utility.yul\":16842:16845   */\n      dup3\n        /* \"#utility.yul\":16838:16852   */\n      add\n        /* \"#utility.yul\":16823:16852   */\n      swap1\n      pop\n        /* \"#utility.yul\":16699:16858   */\n      swap3\n      swap2\n      pop\n      pop\n      jump\t// out\n        /* \"#utility.yul\":16864:17033   */\n    tag_342:\n        /* \"#utility.yul\":16948:16959   */\n      0x00\n        /* \"#utility.yul\":16982:16988   */\n      dup3\n        /* \"#utility.yul\":16977:16980   */\n      dup3\n        /* \"#utility.yul\":16970:16989   */\n      mstore\n        /* \"#utility.yul\":17022:17026   */\n      0x20\n        /* \"#utility.yul\":17017:17020   */\n      dup3\n        /* \"#utility.yul\":17013:17027   */\n      add\n        /* \"#utility.yul\":16998:17027   */\n      swap1\n      pop\n        /* \"#utility.yul\":16864:17033   */\n      swap3\n      swap2\n      pop\n      pop\n      jump\t// out\n        /* \"#utility.yul\":17039:17344   */\n    tag_185:\n        /* \"#utility.yul\":17079:17082   */\n      0x00\n        /* \"#utility.yul\":17098:17118   */\n      tag_432\n        /* \"#utility.yul\":17116:17117   */\n      dup3\n        /* \"#utility.yul\":17098:17118   */\n      tag_368\n      jump\t// in\n    tag_432:\n        /* \"#utility.yul\":17093:17118   */\n      swap2\n      pop\n        /* \"#utility.yul\":17132:17152   */\n      tag_433\n        /* \"#utility.yul\":17150:17151   */\n      dup4\n        /* \"#utility.yul\":17132:17152   */\n      tag_368\n      jump\t// in\n    tag_433:\n        /* \"#utility.yul\":17127:17152   */\n      swap3\n      pop\n        /* \"#utility.yul\":17286:17287   */\n      dup3\n        /* \"#utility.yul\":17218:17284   */\n      0xffffffffffffffffffffffffffffffffffffffffffffffffffffffffffffffff\n        /* \"#utility.yul\":17214:17288   */\n      sub\n        /* \"#utility.yul\":17211:17212   */\n      dup3\n        /* \"#utility.yul\":17208:17289   */\n      gt\n        /* \"#utility.yul\":17205:17312   */\n      iszero\n      tag_434\n      jumpi\n        /* \"#utility.yul\":17292:17310   */\n      tag_435\n      tag_436\n      jump\t// in\n    tag_435:\n        /* \"#utility.yul\":17205:17312   */\n    tag_434:\n        /* \"#utility.yul\":17336:17337   */\n      dup3\n        /* \"#utility.yul\":17333:17334   */\n      dup3\n        /* \"#utility.yul\":17329:17338   */\n      add\n        /* \"#utility.yul\":17322:17338   */\n      swap1\n      pop\n        /* \"#utility.yul\":17039:17344   */\n      swap3\n      swap2\n      pop\n      pop\n      jump\t// out\n        /* \"#utility.yul\":17350:17446   */\n    tag_296:\n        /* \"#utility.yul\":17387:17394   */\n      0x00\n        /* \"#utility.yul\":17416:17440   */\n      tag_438\n        /* \"#utility.yul\":17434:17439   */\n      dup3\n        /* \"#utility.yul\":17416:17440   */\n      tag_439\n      jump\t// in\n    tag_438:\n        /* \"#utility.yul\":17405:17440   */\n      swap1\n      pop\n        /* \"#utility.yul\":17350:17446   */\n      swap2\n      swap1\n      pop\n      jump\t// out\n        /* \"#utility.yul\":17452:17542   */\n    tag_317:\n        /* \"#utility.yul\":17486:17493   */\n      0x00\n        /* \"#utility.yul\":17529:17534   */\n      dup2\n        /* \"#utility.yul\":17522:17535   */\n      iszero\n        /* \"#utility.yul\":17515:17536   */\n      iszero\n        /* \"#utility.yul\":17504:17536   */\n      swap1\n      pop\n        /* \"#utility.yul\":17452:17542   */\n      swap2\n      swap1\n      pop\n      jump\t// out\n        /* \"#utility.yul\":17548:17625   */\n    tag_324:\n        /* \"#utility.yul\":17585:17592   */\n      0x00\n        /* \"#utility.yul\":17614:17619   */\n      dup2\n        /* \"#utility.yul\":17603:17619   */\n      swap1\n      pop\n        /* \"#utility.yul\":17548:17625   */\n      swap2\n      swap1\n      pop\n      jump\t// out\n        /* \"#utility.yul\":17631:17720   */\n    tag_365:\n        /* \"#utility.yul\":17667:17674   */\n      0x00\n        /* \"#utility.yul\":17707:17713   */\n      0xffff\n        /* \"#utility.yul\":17700:17705   */\n      dup3\n        /* \"#utility.yul\":17696:17714   */\n      and\n        /* \"#utility.yul\":17685:17714   */\n      swap1\n      pop\n        /* \"#utility.yul\":17631:17720   */\n      swap2\n      swap1\n      pop\n      jump\t// out\n        /* \"#utility.yul\":17726:17852   */\n    tag_439:\n        /* \"#utility.yul\":17763:17770   */\n      0x00\n        /* \"#utility.yul\":17803:17845   */\n      0xffffffffffffffffffffffffffffffffffffffff\n        /* \"#utility.yul\":17796:17801   */\n      dup3\n        /* \"#utility.yul\":17792:17846   */\n      and\n        /* \"#utility.yul\":17781:17846   */\n      swap1\n      pop\n        /* \"#utility.yul\":17726:17852   */\n      swap2\n      swap1\n      pop\n      jump\t// out\n        /* \"#utility.yul\":17858:17935   */\n    tag_368:\n        /* \"#utility.yul\":17895:17902   */\n      0x00\n        /* \"#utility.yul\":17924:17929   */\n      dup2\n        /* \"#utility.yul\":17913:17929   */\n      swap1\n      pop\n        /* \"#utility.yul\":17858:17935   */\n      swap2\n      swap1\n      pop\n      jump\t// out\n        /* \"#utility.yul\":17941:18034   */\n    tag_375:\n        /* \"#utility.yul\":17977:17984   */\n      0x00\n        /* \"#utility.yul\":18017:18027   */\n      0xffffffff\n        /* \"#utility.yul\":18010:18015   */\n      dup3\n        /* \"#utility.yul\":18006:18028   */\n      and\n        /* \"#utility.yul\":17995:18028   */\n      swap1\n      pop\n        /* \"#utility.yul\":17941:18034   */\n      swap2\n      swap1\n      pop\n      jump\t// out\n        /* \"#utility.yul\":18040:18141   */\n    tag_379:\n        /* \"#utility.yul\":18076:18083   */\n      0x00\n        /* \"#utility.yul\":18116:18134   */\n      0xffffffffffffffff\n        /* \"#utility.yul\":18109:18114   */\n      dup3\n        /* \"#utility.yul\":18105:18135   */\n      and\n        /* \"#utility.yul\":18094:18135   */\n      swap1\n      pop\n        /* \"#utility.yul\":18040:18141   */\n      swap2\n      swap1\n      pop\n      jump\t// out\n        /* \"#utility.yul\":18147:18269   */\n    tag_328:\n        /* \"#utility.yul\":18206:18215   */\n      0x00\n        /* \"#utility.yul\":18239:18263   */\n      tag_448\n        /* \"#utility.yul\":18257:18262   */\n      dup3\n        /* \"#utility.yul\":18239:18263   */\n      tag_368\n      jump\t// in\n    tag_448:\n        /* \"#utility.yul\":18226:18263   */\n      swap1\n      pop\n        /* \"#utility.yul\":18147:18269   */\n      swap2\n      swap1\n      pop\n      jump\t// out\n        /* \"#utility.yul\":18275:18429   */\n    tag_231:\n        /* \"#utility.yul\":18359:18365   */\n      dup3\n        /* \"#utility.yul\":18354:18357   */\n      dup2\n        /* \"#utility.yul\":18349:18352   */\n      dup4\n        /* \"#utility.yul\":18336:18366   */\n      calldatacopy\n        /* \"#utility.yul\":18421:18422   */\n      0x00\n        /* \"#utility.yul\":18412:18418   */\n      dup4\n        /* \"#utility.yul\":18407:18410   */\n      dup4\n        /* \"#utility.yul\":18403:18419   */\n      add\n        /* \"#utility.yul\":18396:18423   */\n      mstore\n        /* \"#utility.yul\":18275:18429   */\n      pop\n      pop\n      pop\n      jump\t// out\n        /* \"#utility.yul\":18435:18742   */\n    tag_336:\n        /* \"#utility.yul\":18503:18504   */\n      0x00\n        /* \"#utility.yul\":18513:18626   */\n    tag_451:\n        /* \"#utility.yul\":18527:18533   */\n      dup4\n        /* \"#utility.yul\":18524:18525   */\n      dup2\n        /* \"#utility.yul\":18521:18534   */\n      lt\n        /* \"#utility.yul\":18513:18626   */\n      iszero\n      tag_453\n      jumpi\n        /* \"#utility.yul\":18612:18613   */\n      dup1\n        /* \"#utility.yul\":18607:18610   */\n      dup3\n        /* \"#utility.yul\":18603:18614   */\n      add\n        /* \"#utility.yul\":18597:18615   */\n      mload\n        /* \"#utility.yul\":18593:18594   */\n      dup2\n        /* \"#utility.yul\":18588:18591   */\n      dup5\n        /* \"#utility.yul\":18584:18595   */\n      add\n        /* \"#utility.yul\":18577:18616   */\n      mstore\n        /* \"#utility.yul\":18549:18551   */\n      0x20\n        /* \"#utility.yul\":18546:18547   */\n      dup2\n        /* \"#utility.yul\":18542:18552   */\n      add\n        /* \"#utility.yul\":18537:18552   */\n      swap1\n      pop\n        /* \"#utility.yul\":18513:18626   */\n      jump(tag_451)\n    tag_453:\n        /* \"#utility.yul\":18644:18650   */\n      dup4\n        /* \"#utility.yul\":18641:18642   */\n      dup2\n        /* \"#utility.yul\":18638:18651   */\n      gt\n        /* \"#utility.yul\":18635:18736   */\n      iszero\n      tag_454\n      jumpi\n        /* \"#utility.yul\":18724:18725   */\n      0x00\n        /* \"#utility.yul\":18715:18721   */\n      dup5\n        /* \"#utility.yul\":18710:18713   */\n      dup5\n        /* \"#utility.yul\":18706:18722   */\n      add\n        /* \"#utility.yul\":18699:18726   */\n      mstore\n        /* \"#utility.yul\":18635:18736   */\n    tag_454:\n        /* \"#utility.yul\":18484:18742   */\n      pop\n        /* \"#utility.yul\":18435:18742   */\n      pop\n      pop\n      pop\n      jump\t// out\n        /* \"#utility.yul\":18748:19068   */\n    tag_87:\n        /* \"#utility.yul\":18792:18798   */\n      0x00\n        /* \"#utility.yul\":18829:18830   */\n      0x02\n        /* \"#utility.yul\":18823:18827   */\n      dup3\n        /* \"#utility.yul\":18819:18831   */\n      div\n        /* \"#utility.yul\":18809:18831   */\n      swap1\n      pop\n        /* \"#utility.yul\":18876:18877   */\n      0x01\n        /* \"#utility.yul\":18870:18874   */\n      dup3\n        /* \"#utility.yul\":18866:18878   */\n      and\n        /* \"#utility.yul\":18897:18915   */\n      dup1\n        /* \"#utility.yul\":18887:18968   */\n      tag_456\n      jumpi\n        /* \"#utility.yul\":18953:18957   */\n      0x7f\n        /* \"#utility.yul\":18945:18951   */\n      dup3\n        /* \"#utility.yul\":18941:18958   */\n      and\n        /* \"#utility.yul\":18931:18958   */\n      swap2\n      pop\n        /* \"#utility.yul\":18887:18968   */\n    tag_456:\n        /* \"#utility.yul\":19015:19017   */\n      0x20\n        /* \"#utility.yul\":19007:19013   */\n      dup3\n        /* \"#utility.yul\":19004:19018   */\n      lt\n        /* \"#utility.yul\":18984:19002   */\n      dup2\n        /* \"#utility.yul\":18981:19019   */\n      eq\n        /* \"#utility.yul\":18978:19062   */\n      iszero\n      tag_457\n      jumpi\n        /* \"#utility.yul\":19034:19052   */\n      tag_458\n      tag_459\n      jump\t// in\n    tag_458:\n        /* \"#utility.yul\":18978:19062   */\n    tag_457:\n        /* \"#utility.yul\":18799:19068   */\n      pop\n        /* \"#utility.yul\":18748:19068   */\n      swap2\n      swap1\n      pop\n      jump\t// out\n        /* \"#utility.yul\":19074:19355   */\n    tag_415:\n        /* \"#utility.yul\":19157:19184   */\n      tag_461\n        /* \"#utility.yul\":19179:19183   */\n      dup3\n        /* \"#utility.yul\":19157:19184   */\n      tag_338\n      jump\t// in\n    tag_461:\n        /* \"#utility.yul\":19149:19155   */\n      dup2\n        /* \"#utility.yul\":19145:19185   */\n      add\n        /* \"#utility.yul\":19287:19293   */\n      dup2\n        /* \"#utility.yul\":19275:19285   */\n      dup2\n        /* \"#utility.yul\":19272:19294   */\n      lt\n        /* \"#utility.yul\":19251:19269   */\n      0xffffffffffffffff\n        /* \"#utility.yul\":19239:19249   */\n      dup3\n        /* \"#utility.yul\":19236:19270   */\n      gt\n        /* \"#utility.yul\":19233:19295   */\n      or\n        /* \"#utility.yul\":19230:19318   */\n      iszero\n      tag_462\n      jumpi\n        /* \"#utility.yul\":19298:19316   */\n      tag_463\n      tag_70\n      jump\t// in\n    tag_463:\n        /* \"#utility.yul\":19230:19318   */\n    tag_462:\n        /* \"#utility.yul\":19338:19348   */\n      dup1\n        /* \"#utility.yul\":19334:19336   */\n      0x40\n        /* \"#utility.yul\":19327:19349   */\n      mstore\n        /* \"#utility.yul\":19117:19355   */\n      pop\n        /* \"#utility.yul\":19074:19355   */\n      pop\n      pop\n      jump\t// out\n        /* \"#utility.yul\":19361:19594   */\n    tag_95:\n        /* \"#utility.yul\":19400:19403   */\n      0x00\n        /* \"#utility.yul\":19423:19447   */\n      tag_465\n        /* \"#utility.yul\":19441:19446   */\n      dup3\n        /* \"#utility.yul\":19423:19447   */\n      tag_368\n      jump\t// in\n    tag_465:\n        /* \"#utility.yul\":19414:19447   */\n      swap2\n      pop\n        /* \"#utility.yul\":19469:19535   */\n      0xffffffffffffffffffffffffffffffffffffffffffffffffffffffffffffffff\n        /* \"#utility.yul\":19462:19467   */\n      dup3\n        /* \"#utility.yul\":19459:19536   */\n      eq\n        /* \"#utility.yul\":19456:19559   */\n      iszero\n      tag_466\n      jumpi\n        /* \"#utility.yul\":19539:19557   */\n      tag_467\n      tag_436\n      jump\t// in\n    tag_467:\n        /* \"#utility.yul\":19456:19559   */\n    tag_466:\n        /* \"#utility.yul\":19586:19587   */\n      0x01\n        /* \"#utility.yul\":19579:19584   */\n      dup3\n        /* \"#utility.yul\":19575:19588   */\n      add\n        /* \"#utility.yul\":19568:19588   */\n      swap1\n      pop\n        /* \"#utility.yul\":19361:19594   */\n      swap2\n      swap1\n      pop\n      jump\t// out\n        /* \"#utility.yul\":19600:19776   */\n    tag_183:\n        /* \"#utility.yul\":19632:19633   */\n      0x00\n        /* \"#utility.yul\":19649:19669   */\n      tag_469\n        /* \"#utility.yul\":19667:19668   */\n      dup3\n        /* \"#utility.yul\":19649:19669   */\n      tag_368\n      jump\t// in\n    tag_469:\n        /* \"#utility.yul\":19644:19669   */\n      swap2\n      pop\n        /* \"#utility.yul\":19683:19703   */\n      tag_470\n        /* \"#utility.yul\":19701:19702   */\n      dup4\n        /* \"#utility.yul\":19683:19703   */\n      tag_368\n      jump\t// in\n    tag_470:\n        /* \"#utility.yul\":19678:19703   */\n      swap3\n      pop\n        /* \"#utility.yul\":19722:19723   */\n      dup3\n        /* \"#utility.yul\":19712:19747   */\n      tag_471\n      jumpi\n        /* \"#utility.yul\":19727:19745   */\n      tag_472\n      tag_473\n      jump\t// in\n    tag_472:\n        /* \"#utility.yul\":19712:19747   */\n    tag_471:\n        /* \"#utility.yul\":19768:19769   */\n      dup3\n        /* \"#utility.yul\":19765:19766   */\n      dup3\n        /* \"#utility.yul\":19761:19770   */\n      mod\n        /* \"#utility.yul\":19756:19770   */\n      swap1\n      pop\n        /* \"#utility.yul\":19600:19776   */\n      swap3\n      swap2\n      pop\n      pop\n      jump\t// out\n        /* \"#utility.yul\":19782:19962   */\n    tag_436:\n        /* \"#utility.yul\":19830:19907   */\n      0x4e487b7100000000000000000000000000000000000000000000000000000000\n        /* \"#utility.yul\":19827:19828   */\n      0x00\n        /* \"#utility.yul\":19820:19908   */\n      mstore\n        /* \"#utility.yul\":19927:19931   */\n      0x11\n        /* \"#utility.yul\":19924:19925   */\n      0x04\n        /* \"#utility.yul\":19917:19932   */\n      mstore\n        /* \"#utility.yul\":19951:19955   */\n      0x24\n        /* \"#utility.yul\":19948:19949   */\n      0x00\n        /* \"#utility.yul\":19941:19956   */\n      revert\n        /* \"#utility.yul\":19968:20148   */\n    tag_473:\n        /* \"#utility.yul\":20016:20093   */\n      0x4e487b7100000000000000000000000000000000000000000000000000000000\n        /* \"#utility.yul\":20013:20014   */\n      0x00\n        /* \"#utility.yul\":20006:20094   */\n      mstore\n        /* \"#utility.yul\":20113:20117   */\n      0x12\n        /* \"#utility.yul\":20110:20111   */\n      0x04\n        /* \"#utility.yul\":20103:20118   */\n      mstore\n        /* \"#utility.yul\":20137:20141   */\n      0x24\n        /* \"#utility.yul\":20134:20135   */\n      0x00\n        /* \"#utility.yul\":20127:20142   */\n      revert\n        /* \"#utility.yul\":20154:20334   */\n    tag_459:\n        /* \"#utility.yul\":20202:20279   */\n      0x4e487b7100000000000000000000000000000000000000000000000000000000\n        /* \"#utility.yul\":20199:20200   */\n      0x00\n        /* \"#utility.yul\":20192:20280   */\n      mstore\n        /* \"#utility.yul\":20299:20303   */\n      0x22\n        /* \"#utility.yul\":20296:20297   */\n      0x04\n        /* \"#utility.yul\":20289:20304   */\n      mstore\n        /* \"#utility.yul\":20323:20327   */\n      0x24\n        /* \"#utility.yul\":20320:20321   */\n      0x00\n        /* \"#utility.yul\":20313:20328   */\n      revert\n        /* \"#utility.yul\":20340:20520   */\n    tag_53:\n        /* \"#utility.yul\":20388:20465   */\n      0x4e487b7100000000000000000000000000000000000000000000000000000000\n        /* \"#utility.yul\":20385:20386   */\n      0x00\n        /* \"#utility.yul\":20378:20466   */\n      mstore\n        /* \"#utility.yul\":20485:20489   */\n      0x32\n        /* \"#utility.yul\":20482:20483   */\n      0x04\n        /* \"#utility.yul\":20475:20490   */\n      mstore\n        /* \"#utility.yul\":20509:20513   */\n      0x24\n        /* \"#utility.yul\":20506:20507   */\n      0x00\n        /* \"#utility.yul\":20499:20514   */\n      revert\n        /* \"#utility.yul\":20526:20706   */\n    tag_70:\n        /* \"#utility.yul\":20574:20651   */\n      0x4e487b7100000000000000000000000000000000000000000000000000000000\n        /* \"#utility.yul\":20571:20572   */\n      0x00\n        /* \"#utility.yul\":20564:20652   */\n      mstore\n        /* \"#utility.yul\":20671:20675   */\n      0x41\n        /* \"#utility.yul\":20668:20669   */\n      0x04\n        /* \"#utility.yul\":20661:20676   */\n      mstore\n        /* \"#utility.yul\":20695:20699   */\n      0x24\n        /* \"#utility.yul\":20692:20693   */\n      0x00\n        /* \"#utility.yul\":20685:20700   */\n      revert\n        /* \"#utility.yul\":20712:20829   */\n    tag_236:\n        /* \"#utility.yul\":20821:20822   */\n      0x00\n        /* \"#utility.yul\":20818:20819   */\n      dup1\n        /* \"#utility.yul\":20811:20823   */\n      revert\n        /* \"#utility.yul\":20835:20952   */\n    tag_216:\n        /* \"#utility.yul\":20944:20945   */\n      0x00\n        /* \"#utility.yul\":20941:20942   */\n      dup1\n        /* \"#utility.yul\":20934:20946   */\n      revert\n        /* \"#utility.yul\":20958:21075   */\n    tag_229:\n        /* \"#utility.yul\":21067:21068   */\n      0x00\n        /* \"#utility.yul\":21064:21065   */\n      dup1\n        /* \"#utility.yul\":21057:21069   */\n      revert\n        /* \"#utility.yul\":21081:21198   */\n    tag_266:\n        /* \"#utility.yul\":21190:21191   */\n      0x00\n        /* \"#utility.yul\":21187:21188   */\n      dup1\n        /* \"#utility.yul\":21180:21192   */\n      revert\n        /* \"#utility.yul\":21204:21321   */\n    tag_259:\n        /* \"#utility.yul\":21313:21314   */\n      0x00\n        /* \"#utility.yul\":21310:21311   */\n      dup1\n        /* \"#utility.yul\":21303:21315   */\n      revert\n        /* \"#utility.yul\":21327:21429   */\n    tag_338:\n        /* \"#utility.yul\":21368:21374   */\n      0x00\n        /* \"#utility.yul\":21419:21421   */\n      0x1f\n        /* \"#utility.yul\":21415:21422   */\n      not\n        /* \"#utility.yul\":21410:21412   */\n      0x1f\n        /* \"#utility.yul\":21403:21408   */\n      dup4\n        /* \"#utility.yul\":21399:21413   */\n      add\n        /* \"#utility.yul\":21395:21423   */\n      and\n        /* \"#utility.yul\":21385:21423   */\n      swap1\n      pop\n        /* \"#utility.yul\":21327:21429   */\n      swap2\n      swap1\n      pop\n      jump\t// out\n        /* \"#utility.yul\":21435:21601   */\n    tag_344:\n        /* \"#utility.yul\":21575:21593   */\n      0x526f6c6c20696e2070726f677265737300000000000000000000000000000000\n        /* \"#utility.yul\":21571:21572   */\n      0x00\n        /* \"#utility.yul\":21563:21569   */\n      dup3\n        /* \"#utility.yul\":21559:21573   */\n      add\n        /* \"#utility.yul\":21552:21594   */\n      mstore\n        /* \"#utility.yul\":21435:21601   */\n      pop\n      jump\t// out\n        /* \"#utility.yul\":21607:21772   */\n    tag_349:\n        /* \"#utility.yul\":21747:21764   */\n      0x44696365206e6f7420726f6c6c65640000000000000000000000000000000000\n        /* \"#utility.yul\":21743:21744   */\n      0x00\n        /* \"#utility.yul\":21735:21741   */\n      dup3\n        /* \"#utility.yul\":21731:21745   */\n      add\n        /* \"#utility.yul\":21724:21765   */\n      mstore\n        /* \"#utility.yul\":21607:21772   */\n      pop\n      jump\t// out\n        /* \"#utility.yul\":21778:21942   */\n    tag_354:\n        /* \"#utility.yul\":21918:21934   */\n      0x416c726561647920726f6c6c6564000000000000000000000000000000000000\n        /* \"#utility.yul\":21914:21915   */\n      0x00\n        /* \"#utility.yul\":21906:21912   */\n      dup3\n        /* \"#utility.yul\":21902:21916   */\n      add\n        /* \"#utility.yul\":21895:21935   */\n      mstore\n        /* \"#utility.yul\":21778:21942   */\n      pop\n      jump\t// out\n        /* \"#utility.yul\":21948:22064   */\n    tag_241:\n        /* \"#utility.yul\":22018:22039   */\n      tag_489\n        /* \"#utility.yul\":22033:22038   */\n      dup2\n        /* \"#utility.yul\":22018:22039   */\n      tag_317\n      jump\t// in\n    tag_489:\n        /* \"#utility.yul\":22011:22016   */\n      dup2\n        /* \"#utility.yul\":22008:22040   */\n      eq\n        /* \"#utility.yul\":21998:22058   */\n      tag_490\n      jumpi\n        /* \"#utility.yul\":22054:22055   */\n      0x00\n        /* \"#utility.yul\":22051:22052   */\n      dup1\n        /* \"#utility.yul\":22044:22056   */\n      revert\n        /* \"#utility.yul\":21998:22058   */\n    tag_490:\n        /* \"#utility.yul\":21948:22064   */\n      pop\n      jump\t// out\n        /* \"#utility.yul\":22070:22192   */\n    tag_252:\n        /* \"#utility.yul\":22143:22167   */\n      tag_492\n        /* \"#utility.yul\":22161:22166   */\n      dup2\n        /* \"#utility.yul\":22143:22167   */\n      tag_368\n      jump\t// in\n    tag_492:\n        /* \"#utility.yul\":22136:22141   */\n      dup2\n        /* \"#utility.yul\":22133:22168   */\n      eq\n        /* \"#utility.yul\":22123:22186   */\n      tag_493\n      jumpi\n        /* \"#utility.yul\":22182:22183   */\n      0x00\n        /* \"#utility.yul\":22179:22180   */\n      dup1\n        /* \"#utility.yul\":22172:22184   */\n      revert\n        /* \"#utility.yul\":22123:22186   */\n    tag_493:\n        /* \"#utility.yul\":22070:22192   */\n      pop\n      jump\t// out\n\n    auxdata: 0xa2646970667358221220047e81e2299e7792e4b611632667281084f92009a3af246f711558a34ae9dfc364736f6c63430008070033\n}\n",
				"bytecode": {
					"linkReferences": {},
					"object": "60a0604052732ca8e0c643bde4c2e08ab1fa0da3401adad7734d600160006101000a81548173ffffffffffffffffffffffffffffffffffffffff021916908373ffffffffffffffffffffffffffffffffffffffff1602179055507f79d3d8832d904592c0bf9818b621522c988bb8b0c05cdc3b15aea1b6e8db0c1560001b600255619c40600360006101000a81548163ffffffff021916908363ffffffff16021790555060038060046101000a81548161ffff021916908361ffff1602179055506001600360066101000a81548163ffffffff021916908363ffffffff160217905550348015620000ef57600080fd5b506040516200241e3803806200241e8339818101604052810190620001159190620002b3565b600160009054906101000a900473ffffffffffffffffffffffffffffffffffffffff168073ffffffffffffffffffffffffffffffffffffffff1660808173ffffffffffffffffffffffffffffffffffffffff1660601b8152505050600160009054906101000a900473ffffffffffffffffffffffffffffffffffffffff166000806101000a81548173ffffffffffffffffffffffffffffffffffffffff021916908373ffffffffffffffffffffffffffffffffffffffff160217905550336003600a6101000a81548173ffffffffffffffffffffffffffffffffffffffff021916908373ffffffffffffffffffffffffffffffffffffffff16021790555081600060146101000a81548167ffffffffffffffff021916908367ffffffffffffffff16021790555080600460006101000a81548173ffffffffffffffffffffffffffffffffffffffff021916908373ffffffffffffffffffffffffffffffffffffffff16021790555050506200037b565b600081519050620002968162000347565b92915050565b600081519050620002ad8162000361565b92915050565b60008060408385031215620002cd57620002cc62000342565b5b6000620002dd858286016200029c565b9250506020620002f08582860162000285565b9150509250929050565b600062000307826200030e565b9050919050565b600073ffffffffffffffffffffffffffffffffffffffff82169050919050565b600067ffffffffffffffff82169050919050565b600080fd5b6200035281620002fa565b81146200035e57600080fd5b50565b6200036c816200032e565b81146200037857600080fd5b50565b60805160601c61207d620003a16000396000818161018f01526101e3015261207d6000f3fe6080604052600436106100705760003560e01c80635a3af2c11161004e5780635a3af2c1146100f25780636f2983b91461011b57806378d0fd4a14610137578063d5fb33c21461016257610070565b80631fe543e31461007557806325baf3a01461009e578063331ead10146100c7575b600080fd5b34801561008157600080fd5b5061009c600480360381019061009791906116f7565b61018d565b005b3480156100aa57600080fd5b506100c560048036038101906100c09190611753565b61024d565b005b3480156100d357600080fd5b506100dc610425565b6040516100e99190611a54565b60405180910390f35b3480156100fe57600080fd5b506101196004803603810190610114919061169d565b6107c8565b005b61013560048036038101906101309190611641565b610903565b005b34801561014357600080fd5b5061014c610b20565b6040516101599190611a54565b60405180910390f35b34801561016e57600080fd5b50610177610e59565b6040516101849190611a76565b60405180910390f35b7f000000000000000000000000000000000000000000000000000000000000000073ffffffffffffffffffffffffffffffffffffffff163373ffffffffffffffffffffffffffffffffffffffff161461023f57337f00000000000000000000000000000000000000000000000000000000000000006040517f1cf993f40000000000000000000000000000000000000000000000000000000081526004016102369291906119d9565b60405180910390fd5b610249828261106c565b5050565b3373ffffffffffffffffffffffffffffffffffffffff166006600084815260200190815260200160002060009054906101000a900473ffffffffffffffffffffffffffffffffffffffff1673ffffffffffffffffffffffffffffffffffffffff1614156104215780600583815481106102c9576102c8611f16565b5b906000526020600020906004020160020160006101000a81548160ff021916908315150217905550600460009054906101000a900473ffffffffffffffffffffffffffffffffffffffff1673ffffffffffffffffffffffffffffffffffffffff1663095ea7b36005848154811061034357610342611f16565b5b906000526020600020906004020160030160009054906101000a900473ffffffffffffffffffffffffffffffffffffffff16600a6040518363ffffffff1660e01b8152600401610394929190611a02565b602060405180830381600087803b1580156103ae57600080fd5b505af11580156103c2573d6000803e3d6000fd5b505050506040513d601f19601f820116820180604052508101906103e69190611614565b507f22f2c4d5f84b94ce8b3a58c899c5e8beb5229bb388b036554727490c25451f668282604051610418929190611b6d565b60405180910390a15b5050565b6060600060058054905067ffffffffffffffff81111561044857610447611f45565b5b60405190808252806020026020018201604052801561048157816020015b61046e6113b2565b8152602001906001900390816104665790505b5090506000805b60058054905081101561070e573373ffffffffffffffffffffffffffffffffffffffff166006600083815260200190815260200160002060009054906101000a900473ffffffffffffffffffffffffffffffffffffffff1673ffffffffffffffffffffffffffffffffffffffff161480156105395750600015156005828154811061051657610515611f16565b5b906000526020600020906004020160020160009054906101000a900460ff161515145b156106fb576005818154811061055257610551611f16565b5b90600052602060002090600402016040518060a00160405290816000820154815260200160018201805461058590611dac565b80601f01602080910402602001604051908101604052809291908181526020018280546105b190611dac565b80156105fe5780601f106105d3576101008083540402835291602001916105fe565b820191906000526020600020905b8154815290600101906020018083116105e157829003601f168201915b505050505081526020016002820160009054906101000a900460ff161515151581526020016002820160019054906101000a900473ffffffffffffffffffffffffffffffffffffffff1673ffffffffffffffffffffffffffffffffffffffff1673ffffffffffffffffffffffffffffffffffffffff1681526020016003820160009054906101000a900473ffffffffffffffffffffffffffffffffffffffff1673ffffffffffffffffffffffffffffffffffffffff1673ffffffffffffffffffffffffffffffffffffffff16815250508383815181106106e1576106e0611f16565b5b602002602001018190525081806106f790611e0f565b9250505b808061070690611e0f565b915050610488565b5060008167ffffffffffffffff81111561072b5761072a611f45565b5b60405190808252806020026020018201604052801561076457816020015b6107516113b2565b8152602001906001900390816107495790505b50905060005b828110156107be5783818151811061078557610784611f16565b5b60200260200101518282815181106107a05761079f611f16565b5b602002602001018190525080806107b690611e0f565b91505061076a565b5080935050505090565b3373ffffffffffffffffffffffffffffffffffffffff16600582815481106107f3576107f2611f16565b5b906000526020600020906004020160020160019054906101000a900473ffffffffffffffffffffffffffffffffffffffff1673ffffffffffffffffffffffffffffffffffffffff161461090057336005828154811061085557610854611f16565b5b906000526020600020906004020160030160006101000a81548173ffffffffffffffffffffffffffffffffffffffff021916908373ffffffffffffffffffffffffffffffffffffffff1602179055507f4148441eba233225e9979895d623fae450e8a06ed83f0e422c718e10fdc8465681600960009054906101000a900473ffffffffffffffffffffffffffffffffffffffff166040516108f7929190611b44565b60405180910390a15b50565b6000600580549050905060056040518060a0016040528083815260200185815260200184151581526020013373ffffffffffffffffffffffffffffffffffffffff168152602001600960009054906101000a900473ffffffffffffffffffffffffffffffffffffffff1673ffffffffffffffffffffffffffffffffffffffff1681525090806001815401808255809150506001900390600052602060002090600402016000909190919091506000820151816000015560208201518160010190805190602001906109d592919061140f565b5060408201518160020160006101000a81548160ff02191690831515021790555060608201518160020160016101000a81548173ffffffffffffffffffffffffffffffffffffffff021916908373ffffffffffffffffffffffffffffffffffffffff16021790555060808201518160030160006101000a81548173ffffffffffffffffffffffffffffffffffffffff021916908373ffffffffffffffffffffffffffffffffffffffff1602179055505050336006600083815260200190815260200160002060006101000a81548173ffffffffffffffffffffffffffffffffffffffff021916908373ffffffffffffffffffffffffffffffffffffffff1602179055507f70ad01a37bd5505ab7fe715aa7144a63a75da2ec5da4b3db55a646699336e4f43382604051610b09929190611a2b565b60405180910390a1610b1a3361114e565b50505050565b6060600060058054905067ffffffffffffffff811115610b4357610b42611f45565b5b604051908082528060200260200182016040528015610b7c57816020015b610b696113b2565b815260200190600190039081610b615790505b5090506000805b600580549050811015610d9f576000151560058281548110610ba857610ba7611f16565b5b906000526020600020906004020160020160009054906101000a900460ff1615151415610d8c5760058181548110610be357610be2611f16565b5b90600052602060002090600402016040518060a001604052908160008201548152602001600182018054610c1690611dac565b80601f0160208091040260200160405190810160405280929190818152602001828054610c4290611dac565b8015610c8f5780601f10610c6457610100808354040283529160200191610c8f565b820191906000526020600020905b815481529060010190602001808311610c7257829003601f168201915b505050505081526020016002820160009054906101000a900460ff161515151581526020016002820160019054906101000a900473ffffffffffffffffffffffffffffffffffffffff1673ffffffffffffffffffffffffffffffffffffffff1673ffffffffffffffffffffffffffffffffffffffff1681526020016003820160009054906101000a900473ffffffffffffffffffffffffffffffffffffffff1673ffffffffffffffffffffffffffffffffffffffff1673ffffffffffffffffffffffffffffffffffffffff1681525050838381518110610d7257610d71611f16565b5b60200260200101819052508180610d8890611e0f565b9250505b8080610d9790611e0f565b915050610b83565b5060008167ffffffffffffffff811115610dbc57610dbb611f45565b5b604051908082528060200260200182016040528015610df557816020015b610de26113b2565b815260200190600190039081610dda5790505b50905060005b82811015610e4f57838181518110610e1657610e15611f16565b5b6020026020010151828281518110610e3157610e30611f16565b5b60200260200101819052508080610e4790611e0f565b915050610dfb565b5080935050505090565b6000806000905080611067576000600860003373ffffffffffffffffffffffffffffffffffffffff1673ffffffffffffffffffffffffffffffffffffffff168152602001908152602001600020541415610ee8576040517f08c379a0000000000000000000000000000000000000000000000000000000008152600401610edf90611b04565b60405180910390fd5b602a600860003373ffffffffffffffffffffffffffffffffffffffff1673ffffffffffffffffffffffffffffffffffffffff168152602001908152602001600020541415610f6b576040517f08c379a0000000000000000000000000000000000000000000000000000000008152600401610f6290611ae4565b60405180910390fd5b600460009054906101000a900473ffffffffffffffffffffffffffffffffffffffff1673ffffffffffffffffffffffffffffffffffffffff1663095ea7b333600860003373ffffffffffffffffffffffffffffffffffffffff1673ffffffffffffffffffffffffffffffffffffffff168152602001908152602001600020546040518363ffffffff1660e01b8152600401611007929190611a2b565b602060405180830381600087803b15801561102157600080fd5b505af1158015611035573d6000803e3d6000fd5b505050506040513d601f19601f820116820180604052508101906110599190611614565b506001905080915050611069565b505b90565b6000600160148360008151811061108657611085611f16565b5b60200260200101516110989190611e58565b6110a29190611c7e565b905080600860006007600087815260200190815260200160002060009054906101000a900473ffffffffffffffffffffffffffffffffffffffff1673ffffffffffffffffffffffffffffffffffffffff1673ffffffffffffffffffffffffffffffffffffffff1681526020019081526020016000208190555080837f54d97c1f7e5abad75bd421455cd4dd296852a52e1ea721f2cdb66d06fa2082a960405160405180910390a3505050565b600080600860008473ffffffffffffffffffffffffffffffffffffffff1673ffffffffffffffffffffffffffffffffffffffff16815260200190815260200160002054146111d1576040517f08c379a00000000000000000000000000000000000000000000000000000000081526004016111c890611b24565b60405180910390fd5b60008054906101000a900473ffffffffffffffffffffffffffffffffffffffff1673ffffffffffffffffffffffffffffffffffffffff16635d3b1d30600254600060149054906101000a900467ffffffffffffffff16600360049054906101000a900461ffff16600360009054906101000a900463ffffffff16600360069054906101000a900463ffffffff166040518663ffffffff1660e01b815260040161127e959493929190611a91565b602060405180830381600087803b15801561129857600080fd5b505af11580156112ac573d6000803e3d6000fd5b505050506040513d601f19601f820116820180604052508101906112d091906116ca565b9050816007600083815260200190815260200160002060006101000a81548173ffffffffffffffffffffffffffffffffffffffff021916908373ffffffffffffffffffffffffffffffffffffffff160217905550602a600860008473ffffffffffffffffffffffffffffffffffffffff1673ffffffffffffffffffffffffffffffffffffffff168152602001908152602001600020819055508173ffffffffffffffffffffffffffffffffffffffff16817f3e7fdeab84c01ce5308321caa0b460e1c4ec3c7099223d79634d9a71d99932e360405160405180910390a3919050565b6040518060a001604052806000815260200160608152602001600015158152602001600073ffffffffffffffffffffffffffffffffffffffff168152602001600073ffffffffffffffffffffffffffffffffffffffff1681525090565b82805461141b90611dac565b90600052602060002090601f01602090048101928261143d5760008555611484565b82601f1061145657805160ff1916838001178555611484565b82800160010185558215611484579182015b82811115611483578251825591602001919060010190611468565b5b5090506114919190611495565b5090565b5b808211156114ae576000816000905550600101611496565b5090565b60006114c56114c084611bbb565b611b96565b905080838252602082019050828560208602820111156114e8576114e7611f79565b5b60005b8581101561151857816114fe88826115ea565b8452602084019350602083019250506001810190506114eb565b5050509392505050565b600061153561153084611be7565b611b96565b90508281526020810184848401111561155157611550611f7e565b5b61155c848285611d6a565b509392505050565b600082601f83011261157957611578611f74565b5b81356115898482602086016114b2565b91505092915050565b6000813590506115a181612019565b92915050565b6000815190506115b681612019565b92915050565b600082601f8301126115d1576115d0611f74565b5b81356115e1848260208601611522565b91505092915050565b6000813590506115f981612030565b92915050565b60008151905061160e81612030565b92915050565b60006020828403121561162a57611629611f88565b5b6000611638848285016115a7565b91505092915050565b6000806040838503121561165857611657611f88565b5b600083013567ffffffffffffffff81111561167657611675611f83565b5b611682858286016115bc565b925050602061169385828601611592565b9150509250929050565b6000602082840312156116b3576116b2611f88565b5b60006116c1848285016115ea565b91505092915050565b6000602082840312156116e0576116df611f88565b5b60006116ee848285016115ff565b91505092915050565b6000806040838503121561170e5761170d611f88565b5b600061171c858286016115ea565b925050602083013567ffffffffffffffff81111561173d5761173c611f83565b5b61174985828601611564565b9150509250929050565b6000806040838503121561176a57611769611f88565b5b6000611778858286016115ea565b925050602061178985828601611592565b9150509250929050565b600061179f8383611918565b905092915050565b6117b081611cd4565b82525050565b6117bf81611cd4565b82525050565b60006117d082611c28565b6117da8185611c4b565b9350836020820285016117ec85611c18565b8060005b8581101561182857848403895281516118098582611793565b945061181483611c3e565b925060208a019950506001810190506117f0565b50829750879550505050505092915050565b61184381611ce6565b82525050565b61185281611ce6565b82525050565b61186181611cf2565b82525050565b61187081611d58565b82525050565b600061188182611c33565b61188b8185611c5c565b935061189b818560208601611d79565b6118a481611f8d565b840191505092915050565b60006118bc601083611c6d565b91506118c782611f9e565b602082019050919050565b60006118df600f83611c6d565b91506118ea82611fc7565b602082019050919050565b6000611902600e83611c6d565b915061190d82611ff0565b602082019050919050565b600060a083016000830151611930600086018261199d565b50602083015184820360208601526119488282611876565b915050604083015161195d604086018261183a565b50606083015161197060608601826117a7565b50608083015161198360808601826117a7565b508091505092915050565b61199781611cfc565b82525050565b6119a681611d2a565b82525050565b6119b581611d2a565b82525050565b6119c481611d34565b82525050565b6119d381611d44565b82525050565b60006040820190506119ee60008301856117b6565b6119fb60208301846117b6565b9392505050565b6000604082019050611a1760008301856117b6565b611a246020830184611867565b9392505050565b6000604082019050611a4060008301856117b6565b611a4d60208301846119ac565b9392505050565b60006020820190508181036000830152611a6e81846117c5565b905092915050565b6000602082019050611a8b6000830184611849565b92915050565b600060a082019050611aa66000830188611858565b611ab360208301876119ca565b611ac0604083018661198e565b611acd60608301856119bb565b611ada60808301846119bb565b9695505050505050565b60006020820190508181036000830152611afd816118af565b9050919050565b60006020820190508181036000830152611b1d816118d2565b9050919050565b60006020820190508181036000830152611b3d816118f5565b9050919050565b6000604082019050611b5960008301856119ac565b611b6660208301846117b6565b9392505050565b6000604082019050611b8260008301856119ac565b611b8f6020830184611849565b9392505050565b6000611ba0611bb1565b9050611bac8282611dde565b919050565b6000604051905090565b600067ffffffffffffffff821115611bd657611bd5611f45565b5b602082029050602081019050919050565b600067ffffffffffffffff821115611c0257611c01611f45565b5b611c0b82611f8d565b9050602081019050919050565b6000819050602082019050919050565b600081519050919050565b600081519050919050565b6000602082019050919050565b600082825260208201905092915050565b600082825260208201905092915050565b600082825260208201905092915050565b6000611c8982611d2a565b9150611c9483611d2a565b9250827fffffffffffffffffffffffffffffffffffffffffffffffffffffffffffffffff03821115611cc957611cc8611e89565b5b828201905092915050565b6000611cdf82611d0a565b9050919050565b60008115159050919050565b6000819050919050565b600061ffff82169050919050565b600073ffffffffffffffffffffffffffffffffffffffff82169050919050565b6000819050919050565b600063ffffffff82169050919050565b600067ffffffffffffffff82169050919050565b6000611d6382611d2a565b9050919050565b82818337600083830152505050565b60005b83811015611d97578082015181840152602081019050611d7c565b83811115611da6576000848401525b50505050565b60006002820490506001821680611dc457607f821691505b60208210811415611dd857611dd7611ee7565b5b50919050565b611de782611f8d565b810181811067ffffffffffffffff82111715611e0657611e05611f45565b5b80604052505050565b6000611e1a82611d2a565b91507fffffffffffffffffffffffffffffffffffffffffffffffffffffffffffffffff821415611e4d57611e4c611e89565b5b600182019050919050565b6000611e6382611d2a565b9150611e6e83611d2a565b925082611e7e57611e7d611eb8565b5b828206905092915050565b7f4e487b7100000000000000000000000000000000000000000000000000000000600052601160045260246000fd5b7f4e487b7100000000000000000000000000000000000000000000000000000000600052601260045260246000fd5b7f4e487b7100000000000000000000000000000000000000000000000000000000600052602260045260246000fd5b7f4e487b7100000000000000000000000000000000000000000000000000000000600052603260045260246000fd5b7f4e487b7100000000000000000000000000000000000000000000000000000000600052604160045260246000fd5b600080fd5b600080fd5b600080fd5b600080fd5b600080fd5b6000601f19601f8301169050919050565b7f526f6c6c20696e2070726f677265737300000000000000000000000000000000600082015250565b7f44696365206e6f7420726f6c6c65640000000000000000000000000000000000600082015250565b7f416c726561647920726f6c6c6564000000000000000000000000000000000000600082015250565b61202281611ce6565b811461202d57600080fd5b50565b61203981611d2a565b811461204457600080fd5b5056fea2646970667358221220047e81e2299e7792e4b611632667281084f92009a3af246f711558a34ae9dfc364736f6c63430008070033",
					"opcodes": "PUSH1 0xA0 PUSH1 0x40 MSTORE PUSH20 0x2CA8E0C643BDE4C2E08AB1FA0DA3401ADAD7734D PUSH1 0x1 PUSH1 0x0 PUSH2 0x100 EXP DUP2 SLOAD DUP2 PUSH20 0xFFFFFFFFFFFFFFFFFFFFFFFFFFFFFFFFFFFFFFFF MUL NOT AND SWAP1 DUP4 PUSH20 0xFFFFFFFFFFFFFFFFFFFFFFFFFFFFFFFFFFFFFFFF AND MUL OR SWAP1 SSTORE POP PUSH32 0x79D3D8832D904592C0BF9818B621522C988BB8B0C05CDC3B15AEA1B6E8DB0C15 PUSH1 0x0 SHL PUSH1 0x2 SSTORE PUSH2 0x9C40 PUSH1 0x3 PUSH1 0x0 PUSH2 0x100 EXP DUP2 SLOAD DUP2 PUSH4 0xFFFFFFFF MUL NOT AND SWAP1 DUP4 PUSH4 0xFFFFFFFF AND MUL OR SWAP1 SSTORE POP PUSH1 0x3 DUP1 PUSH1 0x4 PUSH2 0x100 EXP DUP2 SLOAD DUP2 PUSH2 0xFFFF MUL NOT AND SWAP1 DUP4 PUSH2 0xFFFF AND MUL OR SWAP1 SSTORE POP PUSH1 0x1 PUSH1 0x3 PUSH1 0x6 PUSH2 0x100 EXP DUP2 SLOAD DUP2 PUSH4 0xFFFFFFFF MUL NOT AND SWAP1 DUP4 PUSH4 0xFFFFFFFF AND MUL OR SWAP1 SSTORE POP CALLVALUE DUP1 ISZERO PUSH3 0xEF JUMPI PUSH1 0x0 DUP1 REVERT JUMPDEST POP PUSH1 0x40 MLOAD PUSH3 0x241E CODESIZE SUB DUP1 PUSH3 0x241E DUP4 CODECOPY DUP2 DUP2 ADD PUSH1 0x40 MSTORE DUP2 ADD SWAP1 PUSH3 0x115 SWAP2 SWAP1 PUSH3 0x2B3 JUMP JUMPDEST PUSH1 0x1 PUSH1 0x0 SWAP1 SLOAD SWAP1 PUSH2 0x100 EXP SWAP1 DIV PUSH20 0xFFFFFFFFFFFFFFFFFFFFFFFFFFFFFFFFFFFFFFFF AND DUP1 PUSH20 0xFFFFFFFFFFFFFFFFFFFFFFFFFFFFFFFFFFFFFFFF AND PUSH1 0x80 DUP2 PUSH20 0xFFFFFFFFFFFFFFFFFFFFFFFFFFFFFFFFFFFFFFFF AND PUSH1 0x60 SHL DUP2 MSTORE POP POP POP PUSH1 0x1 PUSH1 0x0 SWAP1 SLOAD SWAP1 PUSH2 0x100 EXP SWAP1 DIV PUSH20 0xFFFFFFFFFFFFFFFFFFFFFFFFFFFFFFFFFFFFFFFF AND PUSH1 0x0 DUP1 PUSH2 0x100 EXP DUP2 SLOAD DUP2 PUSH20 0xFFFFFFFFFFFFFFFFFFFFFFFFFFFFFFFFFFFFFFFF MUL NOT AND SWAP1 DUP4 PUSH20 0xFFFFFFFFFFFFFFFFFFFFFFFFFFFFFFFFFFFFFFFF AND MUL OR SWAP1 SSTORE POP CALLER PUSH1 0x3 PUSH1 0xA PUSH2 0x100 EXP DUP2 SLOAD DUP2 PUSH20 0xFFFFFFFFFFFFFFFFFFFFFFFFFFFFFFFFFFFFFFFF MUL NOT AND SWAP1 DUP4 PUSH20 0xFFFFFFFFFFFFFFFFFFFFFFFFFFFFFFFFFFFFFFFF AND MUL OR SWAP1 SSTORE POP DUP2 PUSH1 0x0 PUSH1 0x14 PUSH2 0x100 EXP DUP2 SLOAD DUP2 PUSH8 0xFFFFFFFFFFFFFFFF MUL NOT AND SWAP1 DUP4 PUSH8 0xFFFFFFFFFFFFFFFF AND MUL OR SWAP1 SSTORE POP DUP1 PUSH1 0x4 PUSH1 0x0 PUSH2 0x100 EXP DUP2 SLOAD DUP2 PUSH20 0xFFFFFFFFFFFFFFFFFFFFFFFFFFFFFFFFFFFFFFFF MUL NOT AND SWAP1 DUP4 PUSH20 0xFFFFFFFFFFFFFFFFFFFFFFFFFFFFFFFFFFFFFFFF AND MUL OR SWAP1 SSTORE POP POP POP PUSH3 0x37B JUMP JUMPDEST PUSH1 0x0 DUP2 MLOAD SWAP1 POP PUSH3 0x296 DUP2 PUSH3 0x347 JUMP JUMPDEST SWAP3 SWAP2 POP POP JUMP JUMPDEST PUSH1 0x0 DUP2 MLOAD SWAP1 POP PUSH3 0x2AD DUP2 PUSH3 0x361 JUMP JUMPDEST SWAP3 SWAP2 POP POP JUMP JUMPDEST PUSH1 0x0 DUP1 PUSH1 0x40 DUP4 DUP6 SUB SLT ISZERO PUSH3 0x2CD JUMPI PUSH3 0x2CC PUSH3 0x342 JUMP JUMPDEST JUMPDEST PUSH1 0x0 PUSH3 0x2DD DUP6 DUP3 DUP7 ADD PUSH3 0x29C JUMP JUMPDEST SWAP3 POP POP PUSH1 0x20 PUSH3 0x2F0 DUP6 DUP3 DUP7 ADD PUSH3 0x285 JUMP JUMPDEST SWAP2 POP POP SWAP3 POP SWAP3 SWAP1 POP JUMP JUMPDEST PUSH1 0x0 PUSH3 0x307 DUP3 PUSH3 0x30E JUMP JUMPDEST SWAP1 POP SWAP2 SWAP1 POP JUMP JUMPDEST PUSH1 0x0 PUSH20 0xFFFFFFFFFFFFFFFFFFFFFFFFFFFFFFFFFFFFFFFF DUP3 AND SWAP1 POP SWAP2 SWAP1 POP JUMP JUMPDEST PUSH1 0x0 PUSH8 0xFFFFFFFFFFFFFFFF DUP3 AND SWAP1 POP SWAP2 SWAP1 POP JUMP JUMPDEST PUSH1 0x0 DUP1 REVERT JUMPDEST PUSH3 0x352 DUP2 PUSH3 0x2FA JUMP JUMPDEST DUP2 EQ PUSH3 0x35E JUMPI PUSH1 0x0 DUP1 REVERT JUMPDEST POP JUMP JUMPDEST PUSH3 0x36C DUP2 PUSH3 0x32E JUMP JUMPDEST DUP2 EQ PUSH3 0x378 JUMPI PUSH1 0x0 DUP1 REVERT JUMPDEST POP JUMP JUMPDEST PUSH1 0x80 MLOAD PUSH1 0x60 SHR PUSH2 0x207D PUSH3 0x3A1 PUSH1 0x0 CODECOPY PUSH1 0x0 DUP2 DUP2 PUSH2 0x18F ADD MSTORE PUSH2 0x1E3 ADD MSTORE PUSH2 0x207D PUSH1 0x0 RETURN INVALID PUSH1 0x80 PUSH1 0x40 MSTORE PUSH1 0x4 CALLDATASIZE LT PUSH2 0x70 JUMPI PUSH1 0x0 CALLDATALOAD PUSH1 0xE0 SHR DUP1 PUSH4 0x5A3AF2C1 GT PUSH2 0x4E JUMPI DUP1 PUSH4 0x5A3AF2C1 EQ PUSH2 0xF2 JUMPI DUP1 PUSH4 0x6F2983B9 EQ PUSH2 0x11B JUMPI DUP1 PUSH4 0x78D0FD4A EQ PUSH2 0x137 JUMPI DUP1 PUSH4 0xD5FB33C2 EQ PUSH2 0x162 JUMPI PUSH2 0x70 JUMP JUMPDEST DUP1 PUSH4 0x1FE543E3 EQ PUSH2 0x75 JUMPI DUP1 PUSH4 0x25BAF3A0 EQ PUSH2 0x9E JUMPI DUP1 PUSH4 0x331EAD10 EQ PUSH2 0xC7 JUMPI JUMPDEST PUSH1 0x0 DUP1 REVERT JUMPDEST CALLVALUE DUP1 ISZERO PUSH2 0x81 JUMPI PUSH1 0x0 DUP1 REVERT JUMPDEST POP PUSH2 0x9C PUSH1 0x4 DUP1 CALLDATASIZE SUB DUP2 ADD SWAP1 PUSH2 0x97 SWAP2 SWAP1 PUSH2 0x16F7 JUMP JUMPDEST PUSH2 0x18D JUMP JUMPDEST STOP JUMPDEST CALLVALUE DUP1 ISZERO PUSH2 0xAA JUMPI PUSH1 0x0 DUP1 REVERT JUMPDEST POP PUSH2 0xC5 PUSH1 0x4 DUP1 CALLDATASIZE SUB DUP2 ADD SWAP1 PUSH2 0xC0 SWAP2 SWAP1 PUSH2 0x1753 JUMP JUMPDEST PUSH2 0x24D JUMP JUMPDEST STOP JUMPDEST CALLVALUE DUP1 ISZERO PUSH2 0xD3 JUMPI PUSH1 0x0 DUP1 REVERT JUMPDEST POP PUSH2 0xDC PUSH2 0x425 JUMP JUMPDEST PUSH1 0x40 MLOAD PUSH2 0xE9 SWAP2 SWAP1 PUSH2 0x1A54 JUMP JUMPDEST PUSH1 0x40 MLOAD DUP1 SWAP2 SUB SWAP1 RETURN JUMPDEST CALLVALUE DUP1 ISZERO PUSH2 0xFE JUMPI PUSH1 0x0 DUP1 REVERT JUMPDEST POP PUSH2 0x119 PUSH1 0x4 DUP1 CALLDATASIZE SUB DUP2 ADD SWAP1 PUSH2 0x114 SWAP2 SWAP1 PUSH2 0x169D JUMP JUMPDEST PUSH2 0x7C8 JUMP JUMPDEST STOP JUMPDEST PUSH2 0x135 PUSH1 0x4 DUP1 CALLDATASIZE SUB DUP2 ADD SWAP1 PUSH2 0x130 SWAP2 SWAP1 PUSH2 0x1641 JUMP JUMPDEST PUSH2 0x903 JUMP JUMPDEST STOP JUMPDEST CALLVALUE DUP1 ISZERO PUSH2 0x143 JUMPI PUSH1 0x0 DUP1 REVERT JUMPDEST POP PUSH2 0x14C PUSH2 0xB20 JUMP JUMPDEST PUSH1 0x40 MLOAD PUSH2 0x159 SWAP2 SWAP1 PUSH2 0x1A54 JUMP JUMPDEST PUSH1 0x40 MLOAD DUP1 SWAP2 SUB SWAP1 RETURN JUMPDEST CALLVALUE DUP1 ISZERO PUSH2 0x16E JUMPI PUSH1 0x0 DUP1 REVERT JUMPDEST POP PUSH2 0x177 PUSH2 0xE59 JUMP JUMPDEST PUSH1 0x40 MLOAD PUSH2 0x184 SWAP2 SWAP1 PUSH2 0x1A76 JUMP JUMPDEST PUSH1 0x40 MLOAD DUP1 SWAP2 SUB SWAP1 RETURN JUMPDEST PUSH32 0x0 PUSH20 0xFFFFFFFFFFFFFFFFFFFFFFFFFFFFFFFFFFFFFFFF AND CALLER PUSH20 0xFFFFFFFFFFFFFFFFFFFFFFFFFFFFFFFFFFFFFFFF AND EQ PUSH2 0x23F JUMPI CALLER PUSH32 0x0 PUSH1 0x40 MLOAD PUSH32 0x1CF993F400000000000000000000000000000000000000000000000000000000 DUP2 MSTORE PUSH1 0x4 ADD PUSH2 0x236 SWAP3 SWAP2 SWAP1 PUSH2 0x19D9 JUMP JUMPDEST PUSH1 0x40 MLOAD DUP1 SWAP2 SUB SWAP1 REVERT JUMPDEST PUSH2 0x249 DUP3 DUP3 PUSH2 0x106C JUMP JUMPDEST POP POP JUMP JUMPDEST CALLER PUSH20 0xFFFFFFFFFFFFFFFFFFFFFFFFFFFFFFFFFFFFFFFF AND PUSH1 0x6 PUSH1 0x0 DUP5 DUP2 MSTORE PUSH1 0x20 ADD SWAP1 DUP2 MSTORE PUSH1 0x20 ADD PUSH1 0x0 KECCAK256 PUSH1 0x0 SWAP1 SLOAD SWAP1 PUSH2 0x100 EXP SWAP1 DIV PUSH20 0xFFFFFFFFFFFFFFFFFFFFFFFFFFFFFFFFFFFFFFFF AND PUSH20 0xFFFFFFFFFFFFFFFFFFFFFFFFFFFFFFFFFFFFFFFF AND EQ ISZERO PUSH2 0x421 JUMPI DUP1 PUSH1 0x5 DUP4 DUP2 SLOAD DUP2 LT PUSH2 0x2C9 JUMPI PUSH2 0x2C8 PUSH2 0x1F16 JUMP JUMPDEST JUMPDEST SWAP1 PUSH1 0x0 MSTORE PUSH1 0x20 PUSH1 0x0 KECCAK256 SWAP1 PUSH1 0x4 MUL ADD PUSH1 0x2 ADD PUSH1 0x0 PUSH2 0x100 EXP DUP2 SLOAD DUP2 PUSH1 0xFF MUL NOT AND SWAP1 DUP4 ISZERO ISZERO MUL OR SWAP1 SSTORE POP PUSH1 0x4 PUSH1 0x0 SWAP1 SLOAD SWAP1 PUSH2 0x100 EXP SWAP1 DIV PUSH20 0xFFFFFFFFFFFFFFFFFFFFFFFFFFFFFFFFFFFFFFFF AND PUSH20 0xFFFFFFFFFFFFFFFFFFFFFFFFFFFFFFFFFFFFFFFF AND PUSH4 0x95EA7B3 PUSH1 0x5 DUP5 DUP2 SLOAD DUP2 LT PUSH2 0x343 JUMPI PUSH2 0x342 PUSH2 0x1F16 JUMP JUMPDEST JUMPDEST SWAP1 PUSH1 0x0 MSTORE PUSH1 0x20 PUSH1 0x0 KECCAK256 SWAP1 PUSH1 0x4 MUL ADD PUSH1 0x3 ADD PUSH1 0x0 SWAP1 SLOAD SWAP1 PUSH2 0x100 EXP SWAP1 DIV PUSH20 0xFFFFFFFFFFFFFFFFFFFFFFFFFFFFFFFFFFFFFFFF AND PUSH1 0xA PUSH1 0x40 MLOAD DUP4 PUSH4 0xFFFFFFFF AND PUSH1 0xE0 SHL DUP2 MSTORE PUSH1 0x4 ADD PUSH2 0x394 SWAP3 SWAP2 SWAP1 PUSH2 0x1A02 JUMP JUMPDEST PUSH1 0x20 PUSH1 0x40 MLOAD DUP1 DUP4 SUB DUP2 PUSH1 0x0 DUP8 DUP1 EXTCODESIZE ISZERO DUP1 ISZERO PUSH2 0x3AE JUMPI PUSH1 0x0 DUP1 REVERT JUMPDEST POP GAS CALL ISZERO DUP1 ISZERO PUSH2 0x3C2 JUMPI RETURNDATASIZE PUSH1 0x0 DUP1 RETURNDATACOPY RETURNDATASIZE PUSH1 0x0 REVERT JUMPDEST POP POP POP POP PUSH1 0x40 MLOAD RETURNDATASIZE PUSH1 0x1F NOT PUSH1 0x1F DUP3 ADD AND DUP3 ADD DUP1 PUSH1 0x40 MSTORE POP DUP2 ADD SWAP1 PUSH2 0x3E6 SWAP2 SWAP1 PUSH2 0x1614 JUMP JUMPDEST POP PUSH32 0x22F2C4D5F84B94CE8B3A58C899C5E8BEB5229BB388B036554727490C25451F66 DUP3 DUP3 PUSH1 0x40 MLOAD PUSH2 0x418 SWAP3 SWAP2 SWAP1 PUSH2 0x1B6D JUMP JUMPDEST PUSH1 0x40 MLOAD DUP1 SWAP2 SUB SWAP1 LOG1 JUMPDEST POP POP JUMP JUMPDEST PUSH1 0x60 PUSH1 0x0 PUSH1 0x5 DUP1 SLOAD SWAP1 POP PUSH8 0xFFFFFFFFFFFFFFFF DUP2 GT ISZERO PUSH2 0x448 JUMPI PUSH2 0x447 PUSH2 0x1F45 JUMP JUMPDEST JUMPDEST PUSH1 0x40 MLOAD SWAP1 DUP1 DUP3 MSTORE DUP1 PUSH1 0x20 MUL PUSH1 0x20 ADD DUP3 ADD PUSH1 0x40 MSTORE DUP1 ISZERO PUSH2 0x481 JUMPI DUP2 PUSH1 0x20 ADD JUMPDEST PUSH2 0x46E PUSH2 0x13B2 JUMP JUMPDEST DUP2 MSTORE PUSH1 0x20 ADD SWAP1 PUSH1 0x1 SWAP1 SUB SWAP1 DUP2 PUSH2 0x466 JUMPI SWAP1 POP JUMPDEST POP SWAP1 POP PUSH1 0x0 DUP1 JUMPDEST PUSH1 0x5 DUP1 SLOAD SWAP1 POP DUP2 LT ISZERO PUSH2 0x70E JUMPI CALLER PUSH20 0xFFFFFFFFFFFFFFFFFFFFFFFFFFFFFFFFFFFFFFFF AND PUSH1 0x6 PUSH1 0x0 DUP4 DUP2 MSTORE PUSH1 0x20 ADD SWAP1 DUP2 MSTORE PUSH1 0x20 ADD PUSH1 0x0 KECCAK256 PUSH1 0x0 SWAP1 SLOAD SWAP1 PUSH2 0x100 EXP SWAP1 DIV PUSH20 0xFFFFFFFFFFFFFFFFFFFFFFFFFFFFFFFFFFFFFFFF AND PUSH20 0xFFFFFFFFFFFFFFFFFFFFFFFFFFFFFFFFFFFFFFFF AND EQ DUP1 ISZERO PUSH2 0x539 JUMPI POP PUSH1 0x0 ISZERO ISZERO PUSH1 0x5 DUP3 DUP2 SLOAD DUP2 LT PUSH2 0x516 JUMPI PUSH2 0x515 PUSH2 0x1F16 JUMP JUMPDEST JUMPDEST SWAP1 PUSH1 0x0 MSTORE PUSH1 0x20 PUSH1 0x0 KECCAK256 SWAP1 PUSH1 0x4 MUL ADD PUSH1 0x2 ADD PUSH1 0x0 SWAP1 SLOAD SWAP1 PUSH2 0x100 EXP SWAP1 DIV PUSH1 0xFF AND ISZERO ISZERO EQ JUMPDEST ISZERO PUSH2 0x6FB JUMPI PUSH1 0x5 DUP2 DUP2 SLOAD DUP2 LT PUSH2 0x552 JUMPI PUSH2 0x551 PUSH2 0x1F16 JUMP JUMPDEST JUMPDEST SWAP1 PUSH1 0x0 MSTORE PUSH1 0x20 PUSH1 0x0 KECCAK256 SWAP1 PUSH1 0x4 MUL ADD PUSH1 0x40 MLOAD DUP1 PUSH1 0xA0 ADD PUSH1 0x40 MSTORE SWAP1 DUP2 PUSH1 0x0 DUP3 ADD SLOAD DUP2 MSTORE PUSH1 0x20 ADD PUSH1 0x1 DUP3 ADD DUP1 SLOAD PUSH2 0x585 SWAP1 PUSH2 0x1DAC JUMP JUMPDEST DUP1 PUSH1 0x1F ADD PUSH1 0x20 DUP1 SWAP2 DIV MUL PUSH1 0x20 ADD PUSH1 0x40 MLOAD SWAP1 DUP2 ADD PUSH1 0x40 MSTORE DUP1 SWAP3 SWAP2 SWAP1 DUP2 DUP2 MSTORE PUSH1 0x20 ADD DUP3 DUP1 SLOAD PUSH2 0x5B1 SWAP1 PUSH2 0x1DAC JUMP JUMPDEST DUP1 ISZERO PUSH2 0x5FE JUMPI DUP1 PUSH1 0x1F LT PUSH2 0x5D3 JUMPI PUSH2 0x100 DUP1 DUP4 SLOAD DIV MUL DUP4 MSTORE SWAP2 PUSH1 0x20 ADD SWAP2 PUSH2 0x5FE JUMP JUMPDEST DUP3 ADD SWAP2 SWAP1 PUSH1 0x0 MSTORE PUSH1 0x20 PUSH1 0x0 KECCAK256 SWAP1 JUMPDEST DUP2 SLOAD DUP2 MSTORE SWAP1 PUSH1 0x1 ADD SWAP1 PUSH1 0x20 ADD DUP1 DUP4 GT PUSH2 0x5E1 JUMPI DUP3 SWAP1 SUB PUSH1 0x1F AND DUP3 ADD SWAP2 JUMPDEST POP POP POP POP POP DUP2 MSTORE PUSH1 0x20 ADD PUSH1 0x2 DUP3 ADD PUSH1 0x0 SWAP1 SLOAD SWAP1 PUSH2 0x100 EXP SWAP1 DIV PUSH1 0xFF AND ISZERO ISZERO ISZERO ISZERO DUP2 MSTORE PUSH1 0x20 ADD PUSH1 0x2 DUP3 ADD PUSH1 0x1 SWAP1 SLOAD SWAP1 PUSH2 0x100 EXP SWAP1 DIV PUSH20 0xFFFFFFFFFFFFFFFFFFFFFFFFFFFFFFFFFFFFFFFF AND PUSH20 0xFFFFFFFFFFFFFFFFFFFFFFFFFFFFFFFFFFFFFFFF AND PUSH20 0xFFFFFFFFFFFFFFFFFFFFFFFFFFFFFFFFFFFFFFFF AND DUP2 MSTORE PUSH1 0x20 ADD PUSH1 0x3 DUP3 ADD PUSH1 0x0 SWAP1 SLOAD SWAP1 PUSH2 0x100 EXP SWAP1 DIV PUSH20 0xFFFFFFFFFFFFFFFFFFFFFFFFFFFFFFFFFFFFFFFF AND PUSH20 0xFFFFFFFFFFFFFFFFFFFFFFFFFFFFFFFFFFFFFFFF AND PUSH20 0xFFFFFFFFFFFFFFFFFFFFFFFFFFFFFFFFFFFFFFFF AND DUP2 MSTORE POP POP DUP4 DUP4 DUP2 MLOAD DUP2 LT PUSH2 0x6E1 JUMPI PUSH2 0x6E0 PUSH2 0x1F16 JUMP JUMPDEST JUMPDEST PUSH1 0x20 MUL PUSH1 0x20 ADD ADD DUP2 SWAP1 MSTORE POP DUP2 DUP1 PUSH2 0x6F7 SWAP1 PUSH2 0x1E0F JUMP JUMPDEST SWAP3 POP POP JUMPDEST DUP1 DUP1 PUSH2 0x706 SWAP1 PUSH2 0x1E0F JUMP JUMPDEST SWAP2 POP POP PUSH2 0x488 JUMP JUMPDEST POP PUSH1 0x0 DUP2 PUSH8 0xFFFFFFFFFFFFFFFF DUP2 GT ISZERO PUSH2 0x72B JUMPI PUSH2 0x72A PUSH2 0x1F45 JUMP JUMPDEST JUMPDEST PUSH1 0x40 MLOAD SWAP1 DUP1 DUP3 MSTORE DUP1 PUSH1 0x20 MUL PUSH1 0x20 ADD DUP3 ADD PUSH1 0x40 MSTORE DUP1 ISZERO PUSH2 0x764 JUMPI DUP2 PUSH1 0x20 ADD JUMPDEST PUSH2 0x751 PUSH2 0x13B2 JUMP JUMPDEST DUP2 MSTORE PUSH1 0x20 ADD SWAP1 PUSH1 0x1 SWAP1 SUB SWAP1 DUP2 PUSH2 0x749 JUMPI SWAP1 POP JUMPDEST POP SWAP1 POP PUSH1 0x0 JUMPDEST DUP3 DUP2 LT ISZERO PUSH2 0x7BE JUMPI DUP4 DUP2 DUP2 MLOAD DUP2 LT PUSH2 0x785 JUMPI PUSH2 0x784 PUSH2 0x1F16 JUMP JUMPDEST JUMPDEST PUSH1 0x20 MUL PUSH1 0x20 ADD ADD MLOAD DUP3 DUP3 DUP2 MLOAD DUP2 LT PUSH2 0x7A0 JUMPI PUSH2 0x79F PUSH2 0x1F16 JUMP JUMPDEST JUMPDEST PUSH1 0x20 MUL PUSH1 0x20 ADD ADD DUP2 SWAP1 MSTORE POP DUP1 DUP1 PUSH2 0x7B6 SWAP1 PUSH2 0x1E0F JUMP JUMPDEST SWAP2 POP POP PUSH2 0x76A JUMP JUMPDEST POP DUP1 SWAP4 POP POP POP POP SWAP1 JUMP JUMPDEST CALLER PUSH20 0xFFFFFFFFFFFFFFFFFFFFFFFFFFFFFFFFFFFFFFFF AND PUSH1 0x5 DUP3 DUP2 SLOAD DUP2 LT PUSH2 0x7F3 JUMPI PUSH2 0x7F2 PUSH2 0x1F16 JUMP JUMPDEST JUMPDEST SWAP1 PUSH1 0x0 MSTORE PUSH1 0x20 PUSH1 0x0 KECCAK256 SWAP1 PUSH1 0x4 MUL ADD PUSH1 0x2 ADD PUSH1 0x1 SWAP1 SLOAD SWAP1 PUSH2 0x100 EXP SWAP1 DIV PUSH20 0xFFFFFFFFFFFFFFFFFFFFFFFFFFFFFFFFFFFFFFFF AND PUSH20 0xFFFFFFFFFFFFFFFFFFFFFFFFFFFFFFFFFFFFFFFF AND EQ PUSH2 0x900 JUMPI CALLER PUSH1 0x5 DUP3 DUP2 SLOAD DUP2 LT PUSH2 0x855 JUMPI PUSH2 0x854 PUSH2 0x1F16 JUMP JUMPDEST JUMPDEST SWAP1 PUSH1 0x0 MSTORE PUSH1 0x20 PUSH1 0x0 KECCAK256 SWAP1 PUSH1 0x4 MUL ADD PUSH1 0x3 ADD PUSH1 0x0 PUSH2 0x100 EXP DUP2 SLOAD DUP2 PUSH20 0xFFFFFFFFFFFFFFFFFFFFFFFFFFFFFFFFFFFFFFFF MUL NOT AND SWAP1 DUP4 PUSH20 0xFFFFFFFFFFFFFFFFFFFFFFFFFFFFFFFFFFFFFFFF AND MUL OR SWAP1 SSTORE POP PUSH32 0x4148441EBA233225E9979895D623FAE450E8A06ED83F0E422C718E10FDC84656 DUP2 PUSH1 0x9 PUSH1 0x0 SWAP1 SLOAD SWAP1 PUSH2 0x100 EXP SWAP1 DIV PUSH20 0xFFFFFFFFFFFFFFFFFFFFFFFFFFFFFFFFFFFFFFFF AND PUSH1 0x40 MLOAD PUSH2 0x8F7 SWAP3 SWAP2 SWAP1 PUSH2 0x1B44 JUMP JUMPDEST PUSH1 0x40 MLOAD DUP1 SWAP2 SUB SWAP1 LOG1 JUMPDEST POP JUMP JUMPDEST PUSH1 0x0 PUSH1 0x5 DUP1 SLOAD SWAP1 POP SWAP1 POP PUSH1 0x5 PUSH1 0x40 MLOAD DUP1 PUSH1 0xA0 ADD PUSH1 0x40 MSTORE DUP1 DUP4 DUP2 MSTORE PUSH1 0x20 ADD DUP6 DUP2 MSTORE PUSH1 0x20 ADD DUP5 ISZERO ISZERO DUP2 MSTORE PUSH1 0x20 ADD CALLER PUSH20 0xFFFFFFFFFFFFFFFFFFFFFFFFFFFFFFFFFFFFFFFF AND DUP2 MSTORE PUSH1 0x20 ADD PUSH1 0x9 PUSH1 0x0 SWAP1 SLOAD SWAP1 PUSH2 0x100 EXP SWAP1 DIV PUSH20 0xFFFFFFFFFFFFFFFFFFFFFFFFFFFFFFFFFFFFFFFF AND PUSH20 0xFFFFFFFFFFFFFFFFFFFFFFFFFFFFFFFFFFFFFFFF AND DUP2 MSTORE POP SWAP1 DUP1 PUSH1 0x1 DUP2 SLOAD ADD DUP1 DUP3 SSTORE DUP1 SWAP2 POP POP PUSH1 0x1 SWAP1 SUB SWAP1 PUSH1 0x0 MSTORE PUSH1 0x20 PUSH1 0x0 KECCAK256 SWAP1 PUSH1 0x4 MUL ADD PUSH1 0x0 SWAP1 SWAP2 SWAP1 SWAP2 SWAP1 SWAP2 POP PUSH1 0x0 DUP3 ADD MLOAD DUP2 PUSH1 0x0 ADD SSTORE PUSH1 0x20 DUP3 ADD MLOAD DUP2 PUSH1 0x1 ADD SWAP1 DUP1 MLOAD SWAP1 PUSH1 0x20 ADD SWAP1 PUSH2 0x9D5 SWAP3 SWAP2 SWAP1 PUSH2 0x140F JUMP JUMPDEST POP PUSH1 0x40 DUP3 ADD MLOAD DUP2 PUSH1 0x2 ADD PUSH1 0x0 PUSH2 0x100 EXP DUP2 SLOAD DUP2 PUSH1 0xFF MUL NOT AND SWAP1 DUP4 ISZERO ISZERO MUL OR SWAP1 SSTORE POP PUSH1 0x60 DUP3 ADD MLOAD DUP2 PUSH1 0x2 ADD PUSH1 0x1 PUSH2 0x100 EXP DUP2 SLOAD DUP2 PUSH20 0xFFFFFFFFFFFFFFFFFFFFFFFFFFFFFFFFFFFFFFFF MUL NOT AND SWAP1 DUP4 PUSH20 0xFFFFFFFFFFFFFFFFFFFFFFFFFFFFFFFFFFFFFFFF AND MUL OR SWAP1 SSTORE POP PUSH1 0x80 DUP3 ADD MLOAD DUP2 PUSH1 0x3 ADD PUSH1 0x0 PUSH2 0x100 EXP DUP2 SLOAD DUP2 PUSH20 0xFFFFFFFFFFFFFFFFFFFFFFFFFFFFFFFFFFFFFFFF MUL NOT AND SWAP1 DUP4 PUSH20 0xFFFFFFFFFFFFFFFFFFFFFFFFFFFFFFFFFFFFFFFF AND MUL OR SWAP1 SSTORE POP POP POP CALLER PUSH1 0x6 PUSH1 0x0 DUP4 DUP2 MSTORE PUSH1 0x20 ADD SWAP1 DUP2 MSTORE PUSH1 0x20 ADD PUSH1 0x0 KECCAK256 PUSH1 0x0 PUSH2 0x100 EXP DUP2 SLOAD DUP2 PUSH20 0xFFFFFFFFFFFFFFFFFFFFFFFFFFFFFFFFFFFFFFFF MUL NOT AND SWAP1 DUP4 PUSH20 0xFFFFFFFFFFFFFFFFFFFFFFFFFFFFFFFFFFFFFFFF AND MUL OR SWAP1 SSTORE POP PUSH32 0x70AD01A37BD5505AB7FE715AA7144A63A75DA2EC5DA4B3DB55A646699336E4F4 CALLER DUP3 PUSH1 0x40 MLOAD PUSH2 0xB09 SWAP3 SWAP2 SWAP1 PUSH2 0x1A2B JUMP JUMPDEST PUSH1 0x40 MLOAD DUP1 SWAP2 SUB SWAP1 LOG1 PUSH2 0xB1A CALLER PUSH2 0x114E JUMP JUMPDEST POP POP POP POP JUMP JUMPDEST PUSH1 0x60 PUSH1 0x0 PUSH1 0x5 DUP1 SLOAD SWAP1 POP PUSH8 0xFFFFFFFFFFFFFFFF DUP2 GT ISZERO PUSH2 0xB43 JUMPI PUSH2 0xB42 PUSH2 0x1F45 JUMP JUMPDEST JUMPDEST PUSH1 0x40 MLOAD SWAP1 DUP1 DUP3 MSTORE DUP1 PUSH1 0x20 MUL PUSH1 0x20 ADD DUP3 ADD PUSH1 0x40 MSTORE DUP1 ISZERO PUSH2 0xB7C JUMPI DUP2 PUSH1 0x20 ADD JUMPDEST PUSH2 0xB69 PUSH2 0x13B2 JUMP JUMPDEST DUP2 MSTORE PUSH1 0x20 ADD SWAP1 PUSH1 0x1 SWAP1 SUB SWAP1 DUP2 PUSH2 0xB61 JUMPI SWAP1 POP JUMPDEST POP SWAP1 POP PUSH1 0x0 DUP1 JUMPDEST PUSH1 0x5 DUP1 SLOAD SWAP1 POP DUP2 LT ISZERO PUSH2 0xD9F JUMPI PUSH1 0x0 ISZERO ISZERO PUSH1 0x5 DUP3 DUP2 SLOAD DUP2 LT PUSH2 0xBA8 JUMPI PUSH2 0xBA7 PUSH2 0x1F16 JUMP JUMPDEST JUMPDEST SWAP1 PUSH1 0x0 MSTORE PUSH1 0x20 PUSH1 0x0 KECCAK256 SWAP1 PUSH1 0x4 MUL ADD PUSH1 0x2 ADD PUSH1 0x0 SWAP1 SLOAD SWAP1 PUSH2 0x100 EXP SWAP1 DIV PUSH1 0xFF AND ISZERO ISZERO EQ ISZERO PUSH2 0xD8C JUMPI PUSH1 0x5 DUP2 DUP2 SLOAD DUP2 LT PUSH2 0xBE3 JUMPI PUSH2 0xBE2 PUSH2 0x1F16 JUMP JUMPDEST JUMPDEST SWAP1 PUSH1 0x0 MSTORE PUSH1 0x20 PUSH1 0x0 KECCAK256 SWAP1 PUSH1 0x4 MUL ADD PUSH1 0x40 MLOAD DUP1 PUSH1 0xA0 ADD PUSH1 0x40 MSTORE SWAP1 DUP2 PUSH1 0x0 DUP3 ADD SLOAD DUP2 MSTORE PUSH1 0x20 ADD PUSH1 0x1 DUP3 ADD DUP1 SLOAD PUSH2 0xC16 SWAP1 PUSH2 0x1DAC JUMP JUMPDEST DUP1 PUSH1 0x1F ADD PUSH1 0x20 DUP1 SWAP2 DIV MUL PUSH1 0x20 ADD PUSH1 0x40 MLOAD SWAP1 DUP2 ADD PUSH1 0x40 MSTORE DUP1 SWAP3 SWAP2 SWAP1 DUP2 DUP2 MSTORE PUSH1 0x20 ADD DUP3 DUP1 SLOAD PUSH2 0xC42 SWAP1 PUSH2 0x1DAC JUMP JUMPDEST DUP1 ISZERO PUSH2 0xC8F JUMPI DUP1 PUSH1 0x1F LT PUSH2 0xC64 JUMPI PUSH2 0x100 DUP1 DUP4 SLOAD DIV MUL DUP4 MSTORE SWAP2 PUSH1 0x20 ADD SWAP2 PUSH2 0xC8F JUMP JUMPDEST DUP3 ADD SWAP2 SWAP1 PUSH1 0x0 MSTORE PUSH1 0x20 PUSH1 0x0 KECCAK256 SWAP1 JUMPDEST DUP2 SLOAD DUP2 MSTORE SWAP1 PUSH1 0x1 ADD SWAP1 PUSH1 0x20 ADD DUP1 DUP4 GT PUSH2 0xC72 JUMPI DUP3 SWAP1 SUB PUSH1 0x1F AND DUP3 ADD SWAP2 JUMPDEST POP POP POP POP POP DUP2 MSTORE PUSH1 0x20 ADD PUSH1 0x2 DUP3 ADD PUSH1 0x0 SWAP1 SLOAD SWAP1 PUSH2 0x100 EXP SWAP1 DIV PUSH1 0xFF AND ISZERO ISZERO ISZERO ISZERO DUP2 MSTORE PUSH1 0x20 ADD PUSH1 0x2 DUP3 ADD PUSH1 0x1 SWAP1 SLOAD SWAP1 PUSH2 0x100 EXP SWAP1 DIV PUSH20 0xFFFFFFFFFFFFFFFFFFFFFFFFFFFFFFFFFFFFFFFF AND PUSH20 0xFFFFFFFFFFFFFFFFFFFFFFFFFFFFFFFFFFFFFFFF AND PUSH20 0xFFFFFFFFFFFFFFFFFFFFFFFFFFFFFFFFFFFFFFFF AND DUP2 MSTORE PUSH1 0x20 ADD PUSH1 0x3 DUP3 ADD PUSH1 0x0 SWAP1 SLOAD SWAP1 PUSH2 0x100 EXP SWAP1 DIV PUSH20 0xFFFFFFFFFFFFFFFFFFFFFFFFFFFFFFFFFFFFFFFF AND PUSH20 0xFFFFFFFFFFFFFFFFFFFFFFFFFFFFFFFFFFFFFFFF AND PUSH20 0xFFFFFFFFFFFFFFFFFFFFFFFFFFFFFFFFFFFFFFFF AND DUP2 MSTORE POP POP DUP4 DUP4 DUP2 MLOAD DUP2 LT PUSH2 0xD72 JUMPI PUSH2 0xD71 PUSH2 0x1F16 JUMP JUMPDEST JUMPDEST PUSH1 0x20 MUL PUSH1 0x20 ADD ADD DUP2 SWAP1 MSTORE POP DUP2 DUP1 PUSH2 0xD88 SWAP1 PUSH2 0x1E0F JUMP JUMPDEST SWAP3 POP POP JUMPDEST DUP1 DUP1 PUSH2 0xD97 SWAP1 PUSH2 0x1E0F JUMP JUMPDEST SWAP2 POP POP PUSH2 0xB83 JUMP JUMPDEST POP PUSH1 0x0 DUP2 PUSH8 0xFFFFFFFFFFFFFFFF DUP2 GT ISZERO PUSH2 0xDBC JUMPI PUSH2 0xDBB PUSH2 0x1F45 JUMP JUMPDEST JUMPDEST PUSH1 0x40 MLOAD SWAP1 DUP1 DUP3 MSTORE DUP1 PUSH1 0x20 MUL PUSH1 0x20 ADD DUP3 ADD PUSH1 0x40 MSTORE DUP1 ISZERO PUSH2 0xDF5 JUMPI DUP2 PUSH1 0x20 ADD JUMPDEST PUSH2 0xDE2 PUSH2 0x13B2 JUMP JUMPDEST DUP2 MSTORE PUSH1 0x20 ADD SWAP1 PUSH1 0x1 SWAP1 SUB SWAP1 DUP2 PUSH2 0xDDA JUMPI SWAP1 POP JUMPDEST POP SWAP1 POP PUSH1 0x0 JUMPDEST DUP3 DUP2 LT ISZERO PUSH2 0xE4F JUMPI DUP4 DUP2 DUP2 MLOAD DUP2 LT PUSH2 0xE16 JUMPI PUSH2 0xE15 PUSH2 0x1F16 JUMP JUMPDEST JUMPDEST PUSH1 0x20 MUL PUSH1 0x20 ADD ADD MLOAD DUP3 DUP3 DUP2 MLOAD DUP2 LT PUSH2 0xE31 JUMPI PUSH2 0xE30 PUSH2 0x1F16 JUMP JUMPDEST JUMPDEST PUSH1 0x20 MUL PUSH1 0x20 ADD ADD DUP2 SWAP1 MSTORE POP DUP1 DUP1 PUSH2 0xE47 SWAP1 PUSH2 0x1E0F JUMP JUMPDEST SWAP2 POP POP PUSH2 0xDFB JUMP JUMPDEST POP DUP1 SWAP4 POP POP POP POP SWAP1 JUMP JUMPDEST PUSH1 0x0 DUP1 PUSH1 0x0 SWAP1 POP DUP1 PUSH2 0x1067 JUMPI PUSH1 0x0 PUSH1 0x8 PUSH1 0x0 CALLER PUSH20 0xFFFFFFFFFFFFFFFFFFFFFFFFFFFFFFFFFFFFFFFF AND PUSH20 0xFFFFFFFFFFFFFFFFFFFFFFFFFFFFFFFFFFFFFFFF AND DUP2 MSTORE PUSH1 0x20 ADD SWAP1 DUP2 MSTORE PUSH1 0x20 ADD PUSH1 0x0 KECCAK256 SLOAD EQ ISZERO PUSH2 0xEE8 JUMPI PUSH1 0x40 MLOAD PUSH32 0x8C379A000000000000000000000000000000000000000000000000000000000 DUP2 MSTORE PUSH1 0x4 ADD PUSH2 0xEDF SWAP1 PUSH2 0x1B04 JUMP JUMPDEST PUSH1 0x40 MLOAD DUP1 SWAP2 SUB SWAP1 REVERT JUMPDEST PUSH1 0x2A PUSH1 0x8 PUSH1 0x0 CALLER PUSH20 0xFFFFFFFFFFFFFFFFFFFFFFFFFFFFFFFFFFFFFFFF AND PUSH20 0xFFFFFFFFFFFFFFFFFFFFFFFFFFFFFFFFFFFFFFFF AND DUP2 MSTORE PUSH1 0x20 ADD SWAP1 DUP2 MSTORE PUSH1 0x20 ADD PUSH1 0x0 KECCAK256 SLOAD EQ ISZERO PUSH2 0xF6B JUMPI PUSH1 0x40 MLOAD PUSH32 0x8C379A000000000000000000000000000000000000000000000000000000000 DUP2 MSTORE PUSH1 0x4 ADD PUSH2 0xF62 SWAP1 PUSH2 0x1AE4 JUMP JUMPDEST PUSH1 0x40 MLOAD DUP1 SWAP2 SUB SWAP1 REVERT JUMPDEST PUSH1 0x4 PUSH1 0x0 SWAP1 SLOAD SWAP1 PUSH2 0x100 EXP SWAP1 DIV PUSH20 0xFFFFFFFFFFFFFFFFFFFFFFFFFFFFFFFFFFFFFFFF AND PUSH20 0xFFFFFFFFFFFFFFFFFFFFFFFFFFFFFFFFFFFFFFFF AND PUSH4 0x95EA7B3 CALLER PUSH1 0x8 PUSH1 0x0 CALLER PUSH20 0xFFFFFFFFFFFFFFFFFFFFFFFFFFFFFFFFFFFFFFFF AND PUSH20 0xFFFFFFFFFFFFFFFFFFFFFFFFFFFFFFFFFFFFFFFF AND DUP2 MSTORE PUSH1 0x20 ADD SWAP1 DUP2 MSTORE PUSH1 0x20 ADD PUSH1 0x0 KECCAK256 SLOAD PUSH1 0x40 MLOAD DUP4 PUSH4 0xFFFFFFFF AND PUSH1 0xE0 SHL DUP2 MSTORE PUSH1 0x4 ADD PUSH2 0x1007 SWAP3 SWAP2 SWAP1 PUSH2 0x1A2B JUMP JUMPDEST PUSH1 0x20 PUSH1 0x40 MLOAD DUP1 DUP4 SUB DUP2 PUSH1 0x0 DUP8 DUP1 EXTCODESIZE ISZERO DUP1 ISZERO PUSH2 0x1021 JUMPI PUSH1 0x0 DUP1 REVERT JUMPDEST POP GAS CALL ISZERO DUP1 ISZERO PUSH2 0x1035 JUMPI RETURNDATASIZE PUSH1 0x0 DUP1 RETURNDATACOPY RETURNDATASIZE PUSH1 0x0 REVERT JUMPDEST POP POP POP POP PUSH1 0x40 MLOAD RETURNDATASIZE PUSH1 0x1F NOT PUSH1 0x1F DUP3 ADD AND DUP3 ADD DUP1 PUSH1 0x40 MSTORE POP DUP2 ADD SWAP1 PUSH2 0x1059 SWAP2 SWAP1 PUSH2 0x1614 JUMP JUMPDEST POP PUSH1 0x1 SWAP1 POP DUP1 SWAP2 POP POP PUSH2 0x1069 JUMP JUMPDEST POP JUMPDEST SWAP1 JUMP JUMPDEST PUSH1 0x0 PUSH1 0x1 PUSH1 0x14 DUP4 PUSH1 0x0 DUP2 MLOAD DUP2 LT PUSH2 0x1086 JUMPI PUSH2 0x1085 PUSH2 0x1F16 JUMP JUMPDEST JUMPDEST PUSH1 0x20 MUL PUSH1 0x20 ADD ADD MLOAD PUSH2 0x1098 SWAP2 SWAP1 PUSH2 0x1E58 JUMP JUMPDEST PUSH2 0x10A2 SWAP2 SWAP1 PUSH2 0x1C7E JUMP JUMPDEST SWAP1 POP DUP1 PUSH1 0x8 PUSH1 0x0 PUSH1 0x7 PUSH1 0x0 DUP8 DUP2 MSTORE PUSH1 0x20 ADD SWAP1 DUP2 MSTORE PUSH1 0x20 ADD PUSH1 0x0 KECCAK256 PUSH1 0x0 SWAP1 SLOAD SWAP1 PUSH2 0x100 EXP SWAP1 DIV PUSH20 0xFFFFFFFFFFFFFFFFFFFFFFFFFFFFFFFFFFFFFFFF AND PUSH20 0xFFFFFFFFFFFFFFFFFFFFFFFFFFFFFFFFFFFFFFFF AND PUSH20 0xFFFFFFFFFFFFFFFFFFFFFFFFFFFFFFFFFFFFFFFF AND DUP2 MSTORE PUSH1 0x20 ADD SWAP1 DUP2 MSTORE PUSH1 0x20 ADD PUSH1 0x0 KECCAK256 DUP2 SWAP1 SSTORE POP DUP1 DUP4 PUSH32 0x54D97C1F7E5ABAD75BD421455CD4DD296852A52E1EA721F2CDB66D06FA2082A9 PUSH1 0x40 MLOAD PUSH1 0x40 MLOAD DUP1 SWAP2 SUB SWAP1 LOG3 POP POP POP JUMP JUMPDEST PUSH1 0x0 DUP1 PUSH1 0x8 PUSH1 0x0 DUP5 PUSH20 0xFFFFFFFFFFFFFFFFFFFFFFFFFFFFFFFFFFFFFFFF AND PUSH20 0xFFFFFFFFFFFFFFFFFFFFFFFFFFFFFFFFFFFFFFFF AND DUP2 MSTORE PUSH1 0x20 ADD SWAP1 DUP2 MSTORE PUSH1 0x20 ADD PUSH1 0x0 KECCAK256 SLOAD EQ PUSH2 0x11D1 JUMPI PUSH1 0x40 MLOAD PUSH32 0x8C379A000000000000000000000000000000000000000000000000000000000 DUP2 MSTORE PUSH1 0x4 ADD PUSH2 0x11C8 SWAP1 PUSH2 0x1B24 JUMP JUMPDEST PUSH1 0x40 MLOAD DUP1 SWAP2 SUB SWAP1 REVERT JUMPDEST PUSH1 0x0 DUP1 SLOAD SWAP1 PUSH2 0x100 EXP SWAP1 DIV PUSH20 0xFFFFFFFFFFFFFFFFFFFFFFFFFFFFFFFFFFFFFFFF AND PUSH20 0xFFFFFFFFFFFFFFFFFFFFFFFFFFFFFFFFFFFFFFFF AND PUSH4 0x5D3B1D30 PUSH1 0x2 SLOAD PUSH1 0x0 PUSH1 0x14 SWAP1 SLOAD SWAP1 PUSH2 0x100 EXP SWAP1 DIV PUSH8 0xFFFFFFFFFFFFFFFF AND PUSH1 0x3 PUSH1 0x4 SWAP1 SLOAD SWAP1 PUSH2 0x100 EXP SWAP1 DIV PUSH2 0xFFFF AND PUSH1 0x3 PUSH1 0x0 SWAP1 SLOAD SWAP1 PUSH2 0x100 EXP SWAP1 DIV PUSH4 0xFFFFFFFF AND PUSH1 0x3 PUSH1 0x6 SWAP1 SLOAD SWAP1 PUSH2 0x100 EXP SWAP1 DIV PUSH4 0xFFFFFFFF AND PUSH1 0x40 MLOAD DUP7 PUSH4 0xFFFFFFFF AND PUSH1 0xE0 SHL DUP2 MSTORE PUSH1 0x4 ADD PUSH2 0x127E SWAP6 SWAP5 SWAP4 SWAP3 SWAP2 SWAP1 PUSH2 0x1A91 JUMP JUMPDEST PUSH1 0x20 PUSH1 0x40 MLOAD DUP1 DUP4 SUB DUP2 PUSH1 0x0 DUP8 DUP1 EXTCODESIZE ISZERO DUP1 ISZERO PUSH2 0x1298 JUMPI PUSH1 0x0 DUP1 REVERT JUMPDEST POP GAS CALL ISZERO DUP1 ISZERO PUSH2 0x12AC JUMPI RETURNDATASIZE PUSH1 0x0 DUP1 RETURNDATACOPY RETURNDATASIZE PUSH1 0x0 REVERT JUMPDEST POP POP POP POP PUSH1 0x40 MLOAD RETURNDATASIZE PUSH1 0x1F NOT PUSH1 0x1F DUP3 ADD AND DUP3 ADD DUP1 PUSH1 0x40 MSTORE POP DUP2 ADD SWAP1 PUSH2 0x12D0 SWAP2 SWAP1 PUSH2 0x16CA JUMP JUMPDEST SWAP1 POP DUP2 PUSH1 0x7 PUSH1 0x0 DUP4 DUP2 MSTORE PUSH1 0x20 ADD SWAP1 DUP2 MSTORE PUSH1 0x20 ADD PUSH1 0x0 KECCAK256 PUSH1 0x0 PUSH2 0x100 EXP DUP2 SLOAD DUP2 PUSH20 0xFFFFFFFFFFFFFFFFFFFFFFFFFFFFFFFFFFFFFFFF MUL NOT AND SWAP1 DUP4 PUSH20 0xFFFFFFFFFFFFFFFFFFFFFFFFFFFFFFFFFFFFFFFF AND MUL OR SWAP1 SSTORE POP PUSH1 0x2A PUSH1 0x8 PUSH1 0x0 DUP5 PUSH20 0xFFFFFFFFFFFFFFFFFFFFFFFFFFFFFFFFFFFFFFFF AND PUSH20 0xFFFFFFFFFFFFFFFFFFFFFFFFFFFFFFFFFFFFFFFF AND DUP2 MSTORE PUSH1 0x20 ADD SWAP1 DUP2 MSTORE PUSH1 0x20 ADD PUSH1 0x0 KECCAK256 DUP2 SWAP1 SSTORE POP DUP2 PUSH20 0xFFFFFFFFFFFFFFFFFFFFFFFFFFFFFFFFFFFFFFFF AND DUP2 PUSH32 0x3E7FDEAB84C01CE5308321CAA0B460E1C4EC3C7099223D79634D9A71D99932E3 PUSH1 0x40 MLOAD PUSH1 0x40 MLOAD DUP1 SWAP2 SUB SWAP1 LOG3 SWAP2 SWAP1 POP JUMP JUMPDEST PUSH1 0x40 MLOAD DUP1 PUSH1 0xA0 ADD PUSH1 0x40 MSTORE DUP1 PUSH1 0x0 DUP2 MSTORE PUSH1 0x20 ADD PUSH1 0x60 DUP2 MSTORE PUSH1 0x20 ADD PUSH1 0x0 ISZERO ISZERO DUP2 MSTORE PUSH1 0x20 ADD PUSH1 0x0 PUSH20 0xFFFFFFFFFFFFFFFFFFFFFFFFFFFFFFFFFFFFFFFF AND DUP2 MSTORE PUSH1 0x20 ADD PUSH1 0x0 PUSH20 0xFFFFFFFFFFFFFFFFFFFFFFFFFFFFFFFFFFFFFFFF AND DUP2 MSTORE POP SWAP1 JUMP JUMPDEST DUP3 DUP1 SLOAD PUSH2 0x141B SWAP1 PUSH2 0x1DAC JUMP JUMPDEST SWAP1 PUSH1 0x0 MSTORE PUSH1 0x20 PUSH1 0x0 KECCAK256 SWAP1 PUSH1 0x1F ADD PUSH1 0x20 SWAP1 DIV DUP2 ADD SWAP3 DUP3 PUSH2 0x143D JUMPI PUSH1 0x0 DUP6 SSTORE PUSH2 0x1484 JUMP JUMPDEST DUP3 PUSH1 0x1F LT PUSH2 0x1456 JUMPI DUP1 MLOAD PUSH1 0xFF NOT AND DUP4 DUP1 ADD OR DUP6 SSTORE PUSH2 0x1484 JUMP JUMPDEST DUP3 DUP1 ADD PUSH1 0x1 ADD DUP6 SSTORE DUP3 ISZERO PUSH2 0x1484 JUMPI SWAP2 DUP3 ADD JUMPDEST DUP3 DUP2 GT ISZERO PUSH2 0x1483 JUMPI DUP3 MLOAD DUP3 SSTORE SWAP2 PUSH1 0x20 ADD SWAP2 SWAP1 PUSH1 0x1 ADD SWAP1 PUSH2 0x1468 JUMP JUMPDEST JUMPDEST POP SWAP1 POP PUSH2 0x1491 SWAP2 SWAP1 PUSH2 0x1495 JUMP JUMPDEST POP SWAP1 JUMP JUMPDEST JUMPDEST DUP1 DUP3 GT ISZERO PUSH2 0x14AE JUMPI PUSH1 0x0 DUP2 PUSH1 0x0 SWAP1 SSTORE POP PUSH1 0x1 ADD PUSH2 0x1496 JUMP JUMPDEST POP SWAP1 JUMP JUMPDEST PUSH1 0x0 PUSH2 0x14C5 PUSH2 0x14C0 DUP5 PUSH2 0x1BBB JUMP JUMPDEST PUSH2 0x1B96 JUMP JUMPDEST SWAP1 POP DUP1 DUP4 DUP3 MSTORE PUSH1 0x20 DUP3 ADD SWAP1 POP DUP3 DUP6 PUSH1 0x20 DUP7 MUL DUP3 ADD GT ISZERO PUSH2 0x14E8 JUMPI PUSH2 0x14E7 PUSH2 0x1F79 JUMP JUMPDEST JUMPDEST PUSH1 0x0 JUMPDEST DUP6 DUP2 LT ISZERO PUSH2 0x1518 JUMPI DUP2 PUSH2 0x14FE DUP9 DUP3 PUSH2 0x15EA JUMP JUMPDEST DUP5 MSTORE PUSH1 0x20 DUP5 ADD SWAP4 POP PUSH1 0x20 DUP4 ADD SWAP3 POP POP PUSH1 0x1 DUP2 ADD SWAP1 POP PUSH2 0x14EB JUMP JUMPDEST POP POP POP SWAP4 SWAP3 POP POP POP JUMP JUMPDEST PUSH1 0x0 PUSH2 0x1535 PUSH2 0x1530 DUP5 PUSH2 0x1BE7 JUMP JUMPDEST PUSH2 0x1B96 JUMP JUMPDEST SWAP1 POP DUP3 DUP2 MSTORE PUSH1 0x20 DUP2 ADD DUP5 DUP5 DUP5 ADD GT ISZERO PUSH2 0x1551 JUMPI PUSH2 0x1550 PUSH2 0x1F7E JUMP JUMPDEST JUMPDEST PUSH2 0x155C DUP5 DUP3 DUP6 PUSH2 0x1D6A JUMP JUMPDEST POP SWAP4 SWAP3 POP POP POP JUMP JUMPDEST PUSH1 0x0 DUP3 PUSH1 0x1F DUP4 ADD SLT PUSH2 0x1579 JUMPI PUSH2 0x1578 PUSH2 0x1F74 JUMP JUMPDEST JUMPDEST DUP2 CALLDATALOAD PUSH2 0x1589 DUP5 DUP3 PUSH1 0x20 DUP7 ADD PUSH2 0x14B2 JUMP JUMPDEST SWAP2 POP POP SWAP3 SWAP2 POP POP JUMP JUMPDEST PUSH1 0x0 DUP2 CALLDATALOAD SWAP1 POP PUSH2 0x15A1 DUP2 PUSH2 0x2019 JUMP JUMPDEST SWAP3 SWAP2 POP POP JUMP JUMPDEST PUSH1 0x0 DUP2 MLOAD SWAP1 POP PUSH2 0x15B6 DUP2 PUSH2 0x2019 JUMP JUMPDEST SWAP3 SWAP2 POP POP JUMP JUMPDEST PUSH1 0x0 DUP3 PUSH1 0x1F DUP4 ADD SLT PUSH2 0x15D1 JUMPI PUSH2 0x15D0 PUSH2 0x1F74 JUMP JUMPDEST JUMPDEST DUP2 CALLDATALOAD PUSH2 0x15E1 DUP5 DUP3 PUSH1 0x20 DUP7 ADD PUSH2 0x1522 JUMP JUMPDEST SWAP2 POP POP SWAP3 SWAP2 POP POP JUMP JUMPDEST PUSH1 0x0 DUP2 CALLDATALOAD SWAP1 POP PUSH2 0x15F9 DUP2 PUSH2 0x2030 JUMP JUMPDEST SWAP3 SWAP2 POP POP JUMP JUMPDEST PUSH1 0x0 DUP2 MLOAD SWAP1 POP PUSH2 0x160E DUP2 PUSH2 0x2030 JUMP JUMPDEST SWAP3 SWAP2 POP POP JUMP JUMPDEST PUSH1 0x0 PUSH1 0x20 DUP3 DUP5 SUB SLT ISZERO PUSH2 0x162A JUMPI PUSH2 0x1629 PUSH2 0x1F88 JUMP JUMPDEST JUMPDEST PUSH1 0x0 PUSH2 0x1638 DUP5 DUP3 DUP6 ADD PUSH2 0x15A7 JUMP JUMPDEST SWAP2 POP POP SWAP3 SWAP2 POP POP JUMP JUMPDEST PUSH1 0x0 DUP1 PUSH1 0x40 DUP4 DUP6 SUB SLT ISZERO PUSH2 0x1658 JUMPI PUSH2 0x1657 PUSH2 0x1F88 JUMP JUMPDEST JUMPDEST PUSH1 0x0 DUP4 ADD CALLDATALOAD PUSH8 0xFFFFFFFFFFFFFFFF DUP2 GT ISZERO PUSH2 0x1676 JUMPI PUSH2 0x1675 PUSH2 0x1F83 JUMP JUMPDEST JUMPDEST PUSH2 0x1682 DUP6 DUP3 DUP7 ADD PUSH2 0x15BC JUMP JUMPDEST SWAP3 POP POP PUSH1 0x20 PUSH2 0x1693 DUP6 DUP3 DUP7 ADD PUSH2 0x1592 JUMP JUMPDEST SWAP2 POP POP SWAP3 POP SWAP3 SWAP1 POP JUMP JUMPDEST PUSH1 0x0 PUSH1 0x20 DUP3 DUP5 SUB SLT ISZERO PUSH2 0x16B3 JUMPI PUSH2 0x16B2 PUSH2 0x1F88 JUMP JUMPDEST JUMPDEST PUSH1 0x0 PUSH2 0x16C1 DUP5 DUP3 DUP6 ADD PUSH2 0x15EA JUMP JUMPDEST SWAP2 POP POP SWAP3 SWAP2 POP POP JUMP JUMPDEST PUSH1 0x0 PUSH1 0x20 DUP3 DUP5 SUB SLT ISZERO PUSH2 0x16E0 JUMPI PUSH2 0x16DF PUSH2 0x1F88 JUMP JUMPDEST JUMPDEST PUSH1 0x0 PUSH2 0x16EE DUP5 DUP3 DUP6 ADD PUSH2 0x15FF JUMP JUMPDEST SWAP2 POP POP SWAP3 SWAP2 POP POP JUMP JUMPDEST PUSH1 0x0 DUP1 PUSH1 0x40 DUP4 DUP6 SUB SLT ISZERO PUSH2 0x170E JUMPI PUSH2 0x170D PUSH2 0x1F88 JUMP JUMPDEST JUMPDEST PUSH1 0x0 PUSH2 0x171C DUP6 DUP3 DUP7 ADD PUSH2 0x15EA JUMP JUMPDEST SWAP3 POP POP PUSH1 0x20 DUP4 ADD CALLDATALOAD PUSH8 0xFFFFFFFFFFFFFFFF DUP2 GT ISZERO PUSH2 0x173D JUMPI PUSH2 0x173C PUSH2 0x1F83 JUMP JUMPDEST JUMPDEST PUSH2 0x1749 DUP6 DUP3 DUP7 ADD PUSH2 0x1564 JUMP JUMPDEST SWAP2 POP POP SWAP3 POP SWAP3 SWAP1 POP JUMP JUMPDEST PUSH1 0x0 DUP1 PUSH1 0x40 DUP4 DUP6 SUB SLT ISZERO PUSH2 0x176A JUMPI PUSH2 0x1769 PUSH2 0x1F88 JUMP JUMPDEST JUMPDEST PUSH1 0x0 PUSH2 0x1778 DUP6 DUP3 DUP7 ADD PUSH2 0x15EA JUMP JUMPDEST SWAP3 POP POP PUSH1 0x20 PUSH2 0x1789 DUP6 DUP3 DUP7 ADD PUSH2 0x1592 JUMP JUMPDEST SWAP2 POP POP SWAP3 POP SWAP3 SWAP1 POP JUMP JUMPDEST PUSH1 0x0 PUSH2 0x179F DUP4 DUP4 PUSH2 0x1918 JUMP JUMPDEST SWAP1 POP SWAP3 SWAP2 POP POP JUMP JUMPDEST PUSH2 0x17B0 DUP2 PUSH2 0x1CD4 JUMP JUMPDEST DUP3 MSTORE POP POP JUMP JUMPDEST PUSH2 0x17BF DUP2 PUSH2 0x1CD4 JUMP JUMPDEST DUP3 MSTORE POP POP JUMP JUMPDEST PUSH1 0x0 PUSH2 0x17D0 DUP3 PUSH2 0x1C28 JUMP JUMPDEST PUSH2 0x17DA DUP2 DUP6 PUSH2 0x1C4B JUMP JUMPDEST SWAP4 POP DUP4 PUSH1 0x20 DUP3 MUL DUP6 ADD PUSH2 0x17EC DUP6 PUSH2 0x1C18 JUMP JUMPDEST DUP1 PUSH1 0x0 JUMPDEST DUP6 DUP2 LT ISZERO PUSH2 0x1828 JUMPI DUP5 DUP5 SUB DUP10 MSTORE DUP2 MLOAD PUSH2 0x1809 DUP6 DUP3 PUSH2 0x1793 JUMP JUMPDEST SWAP5 POP PUSH2 0x1814 DUP4 PUSH2 0x1C3E JUMP JUMPDEST SWAP3 POP PUSH1 0x20 DUP11 ADD SWAP10 POP POP PUSH1 0x1 DUP2 ADD SWAP1 POP PUSH2 0x17F0 JUMP JUMPDEST POP DUP3 SWAP8 POP DUP8 SWAP6 POP POP POP POP POP POP SWAP3 SWAP2 POP POP JUMP JUMPDEST PUSH2 0x1843 DUP2 PUSH2 0x1CE6 JUMP JUMPDEST DUP3 MSTORE POP POP JUMP JUMPDEST PUSH2 0x1852 DUP2 PUSH2 0x1CE6 JUMP JUMPDEST DUP3 MSTORE POP POP JUMP JUMPDEST PUSH2 0x1861 DUP2 PUSH2 0x1CF2 JUMP JUMPDEST DUP3 MSTORE POP POP JUMP JUMPDEST PUSH2 0x1870 DUP2 PUSH2 0x1D58 JUMP JUMPDEST DUP3 MSTORE POP POP JUMP JUMPDEST PUSH1 0x0 PUSH2 0x1881 DUP3 PUSH2 0x1C33 JUMP JUMPDEST PUSH2 0x188B DUP2 DUP6 PUSH2 0x1C5C JUMP JUMPDEST SWAP4 POP PUSH2 0x189B DUP2 DUP6 PUSH1 0x20 DUP7 ADD PUSH2 0x1D79 JUMP JUMPDEST PUSH2 0x18A4 DUP2 PUSH2 0x1F8D JUMP JUMPDEST DUP5 ADD SWAP2 POP POP SWAP3 SWAP2 POP POP JUMP JUMPDEST PUSH1 0x0 PUSH2 0x18BC PUSH1 0x10 DUP4 PUSH2 0x1C6D JUMP JUMPDEST SWAP2 POP PUSH2 0x18C7 DUP3 PUSH2 0x1F9E JUMP JUMPDEST PUSH1 0x20 DUP3 ADD SWAP1 POP SWAP2 SWAP1 POP JUMP JUMPDEST PUSH1 0x0 PUSH2 0x18DF PUSH1 0xF DUP4 PUSH2 0x1C6D JUMP JUMPDEST SWAP2 POP PUSH2 0x18EA DUP3 PUSH2 0x1FC7 JUMP JUMPDEST PUSH1 0x20 DUP3 ADD SWAP1 POP SWAP2 SWAP1 POP JUMP JUMPDEST PUSH1 0x0 PUSH2 0x1902 PUSH1 0xE DUP4 PUSH2 0x1C6D JUMP JUMPDEST SWAP2 POP PUSH2 0x190D DUP3 PUSH2 0x1FF0 JUMP JUMPDEST PUSH1 0x20 DUP3 ADD SWAP1 POP SWAP2 SWAP1 POP JUMP JUMPDEST PUSH1 0x0 PUSH1 0xA0 DUP4 ADD PUSH1 0x0 DUP4 ADD MLOAD PUSH2 0x1930 PUSH1 0x0 DUP7 ADD DUP3 PUSH2 0x199D JUMP JUMPDEST POP PUSH1 0x20 DUP4 ADD MLOAD DUP5 DUP3 SUB PUSH1 0x20 DUP7 ADD MSTORE PUSH2 0x1948 DUP3 DUP3 PUSH2 0x1876 JUMP JUMPDEST SWAP2 POP POP PUSH1 0x40 DUP4 ADD MLOAD PUSH2 0x195D PUSH1 0x40 DUP7 ADD DUP3 PUSH2 0x183A JUMP JUMPDEST POP PUSH1 0x60 DUP4 ADD MLOAD PUSH2 0x1970 PUSH1 0x60 DUP7 ADD DUP3 PUSH2 0x17A7 JUMP JUMPDEST POP PUSH1 0x80 DUP4 ADD MLOAD PUSH2 0x1983 PUSH1 0x80 DUP7 ADD DUP3 PUSH2 0x17A7 JUMP JUMPDEST POP DUP1 SWAP2 POP POP SWAP3 SWAP2 POP POP JUMP JUMPDEST PUSH2 0x1997 DUP2 PUSH2 0x1CFC JUMP JUMPDEST DUP3 MSTORE POP POP JUMP JUMPDEST PUSH2 0x19A6 DUP2 PUSH2 0x1D2A JUMP JUMPDEST DUP3 MSTORE POP POP JUMP JUMPDEST PUSH2 0x19B5 DUP2 PUSH2 0x1D2A JUMP JUMPDEST DUP3 MSTORE POP POP JUMP JUMPDEST PUSH2 0x19C4 DUP2 PUSH2 0x1D34 JUMP JUMPDEST DUP3 MSTORE POP POP JUMP JUMPDEST PUSH2 0x19D3 DUP2 PUSH2 0x1D44 JUMP JUMPDEST DUP3 MSTORE POP POP JUMP JUMPDEST PUSH1 0x0 PUSH1 0x40 DUP3 ADD SWAP1 POP PUSH2 0x19EE PUSH1 0x0 DUP4 ADD DUP6 PUSH2 0x17B6 JUMP JUMPDEST PUSH2 0x19FB PUSH1 0x20 DUP4 ADD DUP5 PUSH2 0x17B6 JUMP JUMPDEST SWAP4 SWAP3 POP POP POP JUMP JUMPDEST PUSH1 0x0 PUSH1 0x40 DUP3 ADD SWAP1 POP PUSH2 0x1A17 PUSH1 0x0 DUP4 ADD DUP6 PUSH2 0x17B6 JUMP JUMPDEST PUSH2 0x1A24 PUSH1 0x20 DUP4 ADD DUP5 PUSH2 0x1867 JUMP JUMPDEST SWAP4 SWAP3 POP POP POP JUMP JUMPDEST PUSH1 0x0 PUSH1 0x40 DUP3 ADD SWAP1 POP PUSH2 0x1A40 PUSH1 0x0 DUP4 ADD DUP6 PUSH2 0x17B6 JUMP JUMPDEST PUSH2 0x1A4D PUSH1 0x20 DUP4 ADD DUP5 PUSH2 0x19AC JUMP JUMPDEST SWAP4 SWAP3 POP POP POP JUMP JUMPDEST PUSH1 0x0 PUSH1 0x20 DUP3 ADD SWAP1 POP DUP2 DUP2 SUB PUSH1 0x0 DUP4 ADD MSTORE PUSH2 0x1A6E DUP2 DUP5 PUSH2 0x17C5 JUMP JUMPDEST SWAP1 POP SWAP3 SWAP2 POP POP JUMP JUMPDEST PUSH1 0x0 PUSH1 0x20 DUP3 ADD SWAP1 POP PUSH2 0x1A8B PUSH1 0x0 DUP4 ADD DUP5 PUSH2 0x1849 JUMP JUMPDEST SWAP3 SWAP2 POP POP JUMP JUMPDEST PUSH1 0x0 PUSH1 0xA0 DUP3 ADD SWAP1 POP PUSH2 0x1AA6 PUSH1 0x0 DUP4 ADD DUP9 PUSH2 0x1858 JUMP JUMPDEST PUSH2 0x1AB3 PUSH1 0x20 DUP4 ADD DUP8 PUSH2 0x19CA JUMP JUMPDEST PUSH2 0x1AC0 PUSH1 0x40 DUP4 ADD DUP7 PUSH2 0x198E JUMP JUMPDEST PUSH2 0x1ACD PUSH1 0x60 DUP4 ADD DUP6 PUSH2 0x19BB JUMP JUMPDEST PUSH2 0x1ADA PUSH1 0x80 DUP4 ADD DUP5 PUSH2 0x19BB JUMP JUMPDEST SWAP7 SWAP6 POP POP POP POP POP POP JUMP JUMPDEST PUSH1 0x0 PUSH1 0x20 DUP3 ADD SWAP1 POP DUP2 DUP2 SUB PUSH1 0x0 DUP4 ADD MSTORE PUSH2 0x1AFD DUP2 PUSH2 0x18AF JUMP JUMPDEST SWAP1 POP SWAP2 SWAP1 POP JUMP JUMPDEST PUSH1 0x0 PUSH1 0x20 DUP3 ADD SWAP1 POP DUP2 DUP2 SUB PUSH1 0x0 DUP4 ADD MSTORE PUSH2 0x1B1D DUP2 PUSH2 0x18D2 JUMP JUMPDEST SWAP1 POP SWAP2 SWAP1 POP JUMP JUMPDEST PUSH1 0x0 PUSH1 0x20 DUP3 ADD SWAP1 POP DUP2 DUP2 SUB PUSH1 0x0 DUP4 ADD MSTORE PUSH2 0x1B3D DUP2 PUSH2 0x18F5 JUMP JUMPDEST SWAP1 POP SWAP2 SWAP1 POP JUMP JUMPDEST PUSH1 0x0 PUSH1 0x40 DUP3 ADD SWAP1 POP PUSH2 0x1B59 PUSH1 0x0 DUP4 ADD DUP6 PUSH2 0x19AC JUMP JUMPDEST PUSH2 0x1B66 PUSH1 0x20 DUP4 ADD DUP5 PUSH2 0x17B6 JUMP JUMPDEST SWAP4 SWAP3 POP POP POP JUMP JUMPDEST PUSH1 0x0 PUSH1 0x40 DUP3 ADD SWAP1 POP PUSH2 0x1B82 PUSH1 0x0 DUP4 ADD DUP6 PUSH2 0x19AC JUMP JUMPDEST PUSH2 0x1B8F PUSH1 0x20 DUP4 ADD DUP5 PUSH2 0x1849 JUMP JUMPDEST SWAP4 SWAP3 POP POP POP JUMP JUMPDEST PUSH1 0x0 PUSH2 0x1BA0 PUSH2 0x1BB1 JUMP JUMPDEST SWAP1 POP PUSH2 0x1BAC DUP3 DUP3 PUSH2 0x1DDE JUMP JUMPDEST SWAP2 SWAP1 POP JUMP JUMPDEST PUSH1 0x0 PUSH1 0x40 MLOAD SWAP1 POP SWAP1 JUMP JUMPDEST PUSH1 0x0 PUSH8 0xFFFFFFFFFFFFFFFF DUP3 GT ISZERO PUSH2 0x1BD6 JUMPI PUSH2 0x1BD5 PUSH2 0x1F45 JUMP JUMPDEST JUMPDEST PUSH1 0x20 DUP3 MUL SWAP1 POP PUSH1 0x20 DUP2 ADD SWAP1 POP SWAP2 SWAP1 POP JUMP JUMPDEST PUSH1 0x0 PUSH8 0xFFFFFFFFFFFFFFFF DUP3 GT ISZERO PUSH2 0x1C02 JUMPI PUSH2 0x1C01 PUSH2 0x1F45 JUMP JUMPDEST JUMPDEST PUSH2 0x1C0B DUP3 PUSH2 0x1F8D JUMP JUMPDEST SWAP1 POP PUSH1 0x20 DUP2 ADD SWAP1 POP SWAP2 SWAP1 POP JUMP JUMPDEST PUSH1 0x0 DUP2 SWAP1 POP PUSH1 0x20 DUP3 ADD SWAP1 POP SWAP2 SWAP1 POP JUMP JUMPDEST PUSH1 0x0 DUP2 MLOAD SWAP1 POP SWAP2 SWAP1 POP JUMP JUMPDEST PUSH1 0x0 DUP2 MLOAD SWAP1 POP SWAP2 SWAP1 POP JUMP JUMPDEST PUSH1 0x0 PUSH1 0x20 DUP3 ADD SWAP1 POP SWAP2 SWAP1 POP JUMP JUMPDEST PUSH1 0x0 DUP3 DUP3 MSTORE PUSH1 0x20 DUP3 ADD SWAP1 POP SWAP3 SWAP2 POP POP JUMP JUMPDEST PUSH1 0x0 DUP3 DUP3 MSTORE PUSH1 0x20 DUP3 ADD SWAP1 POP SWAP3 SWAP2 POP POP JUMP JUMPDEST PUSH1 0x0 DUP3 DUP3 MSTORE PUSH1 0x20 DUP3 ADD SWAP1 POP SWAP3 SWAP2 POP POP JUMP JUMPDEST PUSH1 0x0 PUSH2 0x1C89 DUP3 PUSH2 0x1D2A JUMP JUMPDEST SWAP2 POP PUSH2 0x1C94 DUP4 PUSH2 0x1D2A JUMP JUMPDEST SWAP3 POP DUP3 PUSH32 0xFFFFFFFFFFFFFFFFFFFFFFFFFFFFFFFFFFFFFFFFFFFFFFFFFFFFFFFFFFFFFFFF SUB DUP3 GT ISZERO PUSH2 0x1CC9 JUMPI PUSH2 0x1CC8 PUSH2 0x1E89 JUMP JUMPDEST JUMPDEST DUP3 DUP3 ADD SWAP1 POP SWAP3 SWAP2 POP POP JUMP JUMPDEST PUSH1 0x0 PUSH2 0x1CDF DUP3 PUSH2 0x1D0A JUMP JUMPDEST SWAP1 POP SWAP2 SWAP1 POP JUMP JUMPDEST PUSH1 0x0 DUP2 ISZERO ISZERO SWAP1 POP SWAP2 SWAP1 POP JUMP JUMPDEST PUSH1 0x0 DUP2 SWAP1 POP SWAP2 SWAP1 POP JUMP JUMPDEST PUSH1 0x0 PUSH2 0xFFFF DUP3 AND SWAP1 POP SWAP2 SWAP1 POP JUMP JUMPDEST PUSH1 0x0 PUSH20 0xFFFFFFFFFFFFFFFFFFFFFFFFFFFFFFFFFFFFFFFF DUP3 AND SWAP1 POP SWAP2 SWAP1 POP JUMP JUMPDEST PUSH1 0x0 DUP2 SWAP1 POP SWAP2 SWAP1 POP JUMP JUMPDEST PUSH1 0x0 PUSH4 0xFFFFFFFF DUP3 AND SWAP1 POP SWAP2 SWAP1 POP JUMP JUMPDEST PUSH1 0x0 PUSH8 0xFFFFFFFFFFFFFFFF DUP3 AND SWAP1 POP SWAP2 SWAP1 POP JUMP JUMPDEST PUSH1 0x0 PUSH2 0x1D63 DUP3 PUSH2 0x1D2A JUMP JUMPDEST SWAP1 POP SWAP2 SWAP1 POP JUMP JUMPDEST DUP3 DUP2 DUP4 CALLDATACOPY PUSH1 0x0 DUP4 DUP4 ADD MSTORE POP POP POP JUMP JUMPDEST PUSH1 0x0 JUMPDEST DUP4 DUP2 LT ISZERO PUSH2 0x1D97 JUMPI DUP1 DUP3 ADD MLOAD DUP2 DUP5 ADD MSTORE PUSH1 0x20 DUP2 ADD SWAP1 POP PUSH2 0x1D7C JUMP JUMPDEST DUP4 DUP2 GT ISZERO PUSH2 0x1DA6 JUMPI PUSH1 0x0 DUP5 DUP5 ADD MSTORE JUMPDEST POP POP POP POP JUMP JUMPDEST PUSH1 0x0 PUSH1 0x2 DUP3 DIV SWAP1 POP PUSH1 0x1 DUP3 AND DUP1 PUSH2 0x1DC4 JUMPI PUSH1 0x7F DUP3 AND SWAP2 POP JUMPDEST PUSH1 0x20 DUP3 LT DUP2 EQ ISZERO PUSH2 0x1DD8 JUMPI PUSH2 0x1DD7 PUSH2 0x1EE7 JUMP JUMPDEST JUMPDEST POP SWAP2 SWAP1 POP JUMP JUMPDEST PUSH2 0x1DE7 DUP3 PUSH2 0x1F8D JUMP JUMPDEST DUP2 ADD DUP2 DUP2 LT PUSH8 0xFFFFFFFFFFFFFFFF DUP3 GT OR ISZERO PUSH2 0x1E06 JUMPI PUSH2 0x1E05 PUSH2 0x1F45 JUMP JUMPDEST JUMPDEST DUP1 PUSH1 0x40 MSTORE POP POP POP JUMP JUMPDEST PUSH1 0x0 PUSH2 0x1E1A DUP3 PUSH2 0x1D2A JUMP JUMPDEST SWAP2 POP PUSH32 0xFFFFFFFFFFFFFFFFFFFFFFFFFFFFFFFFFFFFFFFFFFFFFFFFFFFFFFFFFFFFFFFF DUP3 EQ ISZERO PUSH2 0x1E4D JUMPI PUSH2 0x1E4C PUSH2 0x1E89 JUMP JUMPDEST JUMPDEST PUSH1 0x1 DUP3 ADD SWAP1 POP SWAP2 SWAP1 POP JUMP JUMPDEST PUSH1 0x0 PUSH2 0x1E63 DUP3 PUSH2 0x1D2A JUMP JUMPDEST SWAP2 POP PUSH2 0x1E6E DUP4 PUSH2 0x1D2A JUMP JUMPDEST SWAP3 POP DUP3 PUSH2 0x1E7E JUMPI PUSH2 0x1E7D PUSH2 0x1EB8 JUMP JUMPDEST JUMPDEST DUP3 DUP3 MOD SWAP1 POP SWAP3 SWAP2 POP POP JUMP JUMPDEST PUSH32 0x4E487B7100000000000000000000000000000000000000000000000000000000 PUSH1 0x0 MSTORE PUSH1 0x11 PUSH1 0x4 MSTORE PUSH1 0x24 PUSH1 0x0 REVERT JUMPDEST PUSH32 0x4E487B7100000000000000000000000000000000000000000000000000000000 PUSH1 0x0 MSTORE PUSH1 0x12 PUSH1 0x4 MSTORE PUSH1 0x24 PUSH1 0x0 REVERT JUMPDEST PUSH32 0x4E487B7100000000000000000000000000000000000000000000000000000000 PUSH1 0x0 MSTORE PUSH1 0x22 PUSH1 0x4 MSTORE PUSH1 0x24 PUSH1 0x0 REVERT JUMPDEST PUSH32 0x4E487B7100000000000000000000000000000000000000000000000000000000 PUSH1 0x0 MSTORE PUSH1 0x32 PUSH1 0x4 MSTORE PUSH1 0x24 PUSH1 0x0 REVERT JUMPDEST PUSH32 0x4E487B7100000000000000000000000000000000000000000000000000000000 PUSH1 0x0 MSTORE PUSH1 0x41 PUSH1 0x4 MSTORE PUSH1 0x24 PUSH1 0x0 REVERT JUMPDEST PUSH1 0x0 DUP1 REVERT JUMPDEST PUSH1 0x0 DUP1 REVERT JUMPDEST PUSH1 0x0 DUP1 REVERT JUMPDEST PUSH1 0x0 DUP1 REVERT JUMPDEST PUSH1 0x0 DUP1 REVERT JUMPDEST PUSH1 0x0 PUSH1 0x1F NOT PUSH1 0x1F DUP4 ADD AND SWAP1 POP SWAP2 SWAP1 POP JUMP JUMPDEST PUSH32 0x526F6C6C20696E2070726F677265737300000000000000000000000000000000 PUSH1 0x0 DUP3 ADD MSTORE POP JUMP JUMPDEST PUSH32 0x44696365206E6F7420726F6C6C65640000000000000000000000000000000000 PUSH1 0x0 DUP3 ADD MSTORE POP JUMP JUMPDEST PUSH32 0x416C726561647920726F6C6C6564000000000000000000000000000000000000 PUSH1 0x0 DUP3 ADD MSTORE POP JUMP JUMPDEST PUSH2 0x2022 DUP2 PUSH2 0x1CE6 JUMP JUMPDEST DUP2 EQ PUSH2 0x202D JUMPI PUSH1 0x0 DUP1 REVERT JUMPDEST POP JUMP JUMPDEST PUSH2 0x2039 DUP2 PUSH2 0x1D2A JUMP JUMPDEST DUP2 EQ PUSH2 0x2044 JUMPI PUSH1 0x0 DUP1 REVERT JUMPDEST POP JUMP INVALID LOG2 PUSH5 0x6970667358 0x22 SLT KECCAK256 DIV PUSH31 0x81E2299E7792E4B611632667281084F92009A3AF246F711558A34AE9DFC364 PUSH20 0x6F6C634300080700330000000000000000000000 "
				},
				"gasEstimates": {
					"creation": {
						"codeDepositCost": "1663400",
						"executionCost": "infinite",
						"totalCost": "infinite"
					},
					"external": {
						"acceptFavor(uint256)": "infinite",
						"addFavor(string,bool)": "infinite",
						"collectBonus()": "infinite",
						"completeFavor(uint256,bool)": "infinite",
						"getAllIncompleteFavors()": "infinite",
						"getMyFavors()": "infinite",
						"rawFulfillRandomWords(uint256,uint256[])": "infinite"
					},
					"internal": {
						"firstFavor(address)": "infinite",
						"fulfillRandomWords(uint256,uint256[] memory)": "infinite"
					}
				},
				"methodIdentifiers": {
					"acceptFavor(uint256)": "5a3af2c1",
					"addFavor(string,bool)": "6f2983b9",
					"collectBonus()": "d5fb33c2",
					"completeFavor(uint256,bool)": "25baf3a0",
					"getAllIncompleteFavors()": "78d0fd4a",
					"getMyFavors()": "331ead10",
					"rawFulfillRandomWords(uint256,uint256[])": "1fe543e3"
				}
			},
			"storageLayout": {
				"storage": [
					{
						"astId": 244,
						"contract": "contracts/FavorsV2.sol:FavorsContractV2",
						"label": "COORDINATOR",
						"offset": 0,
						"slot": "0",
						"type": "t_contract(VRFCoordinatorV2Interface)153"
					},
					{
						"astId": 246,
						"contract": "contracts/FavorsV2.sol:FavorsContractV2",
						"label": "s_subscriptionId",
						"offset": 20,
						"slot": "0",
						"type": "t_uint64"
					},
					{
						"astId": 249,
						"contract": "contracts/FavorsV2.sol:FavorsContractV2",
						"label": "vrfCoordinator",
						"offset": 0,
						"slot": "1",
						"type": "t_address"
					},
					{
						"astId": 252,
						"contract": "contracts/FavorsV2.sol:FavorsContractV2",
						"label": "s_keyHash",
						"offset": 0,
						"slot": "2",
						"type": "t_bytes32"
					},
					{
						"astId": 255,
						"contract": "contracts/FavorsV2.sol:FavorsContractV2",
						"label": "callbackGasLimit",
						"offset": 0,
						"slot": "3",
						"type": "t_uint32"
					},
					{
						"astId": 258,
						"contract": "contracts/FavorsV2.sol:FavorsContractV2",
						"label": "requestConfirmations",
						"offset": 4,
						"slot": "3",
						"type": "t_uint16"
					},
					{
						"astId": 261,
						"contract": "contracts/FavorsV2.sol:FavorsContractV2",
						"label": "numWords",
						"offset": 6,
						"slot": "3",
						"type": "t_uint32"
					},
					{
						"astId": 263,
						"contract": "contracts/FavorsV2.sol:FavorsContractV2",
						"label": "s_owner",
						"offset": 10,
						"slot": "3",
						"type": "t_address"
					},
					{
						"astId": 266,
						"contract": "contracts/FavorsV2.sol:FavorsContractV2",
						"label": "_token",
						"offset": 0,
						"slot": "4",
						"type": "t_contract(IERC20)231"
					},
					{
						"astId": 311,
						"contract": "contracts/FavorsV2.sol:FavorsContractV2",
						"label": "favors",
						"offset": 0,
						"slot": "5",
						"type": "t_array(t_struct(Favor)307_storage)dyn_storage"
					},
					{
						"astId": 315,
						"contract": "contracts/FavorsV2.sol:FavorsContractV2",
						"label": "favorToOwner",
						"offset": 0,
						"slot": "6",
						"type": "t_mapping(t_uint256,t_address)"
					},
					{
						"astId": 319,
						"contract": "contracts/FavorsV2.sol:FavorsContractV2",
						"label": "s_rollers",
						"offset": 0,
						"slot": "7",
						"type": "t_mapping(t_uint256,t_address)"
					},
					{
						"astId": 323,
						"contract": "contracts/FavorsV2.sol:FavorsContractV2",
						"label": "s_results",
						"offset": 0,
						"slot": "8",
						"type": "t_mapping(t_address,t_uint256)"
					},
					{
						"astId": 325,
						"contract": "contracts/FavorsV2.sol:FavorsContractV2",
						"label": "acceptedBy",
						"offset": 0,
						"slot": "9",
						"type": "t_address"
					}
				],
				"types": {
					"t_address": {
						"encoding": "inplace",
						"label": "address",
						"numberOfBytes": "20"
					},
					"t_array(t_struct(Favor)307_storage)dyn_storage": {
						"base": "t_struct(Favor)307_storage",
						"encoding": "dynamic_array",
						"label": "struct FavorsContractV2.Favor[]",
						"numberOfBytes": "32"
					},
					"t_bool": {
						"encoding": "inplace",
						"label": "bool",
						"numberOfBytes": "1"
					},
					"t_bytes32": {
						"encoding": "inplace",
						"label": "bytes32",
						"numberOfBytes": "32"
					},
					"t_contract(IERC20)231": {
						"encoding": "inplace",
						"label": "contract IERC20",
						"numberOfBytes": "20"
					},
					"t_contract(VRFCoordinatorV2Interface)153": {
						"encoding": "inplace",
						"label": "contract VRFCoordinatorV2Interface",
						"numberOfBytes": "20"
					},
					"t_mapping(t_address,t_uint256)": {
						"encoding": "mapping",
						"key": "t_address",
						"label": "mapping(address => uint256)",
						"numberOfBytes": "32",
						"value": "t_uint256"
					},
					"t_mapping(t_uint256,t_address)": {
						"encoding": "mapping",
						"key": "t_uint256",
						"label": "mapping(uint256 => address)",
						"numberOfBytes": "32",
						"value": "t_address"
					},
					"t_string_storage": {
						"encoding": "bytes",
						"label": "string",
						"numberOfBytes": "32"
					},
					"t_struct(Favor)307_storage": {
						"encoding": "inplace",
						"label": "struct FavorsContractV2.Favor",
						"members": [
							{
								"astId": 298,
								"contract": "contracts/FavorsV2.sol:FavorsContractV2",
								"label": "id",
								"offset": 0,
								"slot": "0",
								"type": "t_uint256"
							},
							{
								"astId": 300,
								"contract": "contracts/FavorsV2.sol:FavorsContractV2",
								"label": "favorText",
								"offset": 0,
								"slot": "1",
								"type": "t_string_storage"
							},
							{
								"astId": 302,
								"contract": "contracts/FavorsV2.sol:FavorsContractV2",
								"label": "isCompleted",
								"offset": 0,
								"slot": "2",
								"type": "t_bool"
							},
							{
								"astId": 304,
								"contract": "contracts/FavorsV2.sol:FavorsContractV2",
								"label": "createdBy",
								"offset": 1,
								"slot": "2",
								"type": "t_address"
							},
							{
								"astId": 306,
								"contract": "contracts/FavorsV2.sol:FavorsContractV2",
								"label": "acceptedBy",
								"offset": 0,
								"slot": "3",
								"type": "t_address"
							}
						],
						"numberOfBytes": "128"
					},
					"t_uint16": {
						"encoding": "inplace",
						"label": "uint16",
						"numberOfBytes": "2"
					},
					"t_uint256": {
						"encoding": "inplace",
						"label": "uint256",
						"numberOfBytes": "32"
					},
					"t_uint32": {
						"encoding": "inplace",
						"label": "uint32",
						"numberOfBytes": "4"
					},
					"t_uint64": {
						"encoding": "inplace",
						"label": "uint64",
						"numberOfBytes": "8"
					}
				}
			},
			"userdoc": {
				"kind": "user",
				"methods": {},
				"version": 1
			}
		}
	}
}