{
	"contracts/Favors.sol": {
		"Favors": {
			"abi": [
				{
					"inputs": [
						{
							"internalType": "uint64",
							"name": "subscriptionId",
							"type": "uint64"
						}
					],
					"stateMutability": "nonpayable",
					"type": "constructor"
				},
				{
					"inputs": [
						{
							"internalType": "address",
							"name": "have",
							"type": "address"
						},
						{
							"internalType": "address",
							"name": "want",
							"type": "address"
						}
					],
					"name": "OnlyCoordinatorCanFulfill",
					"type": "error"
				},
				{
					"anonymous": false,
					"inputs": [
						{
							"indexed": true,
							"internalType": "uint256",
							"name": "requestId",
							"type": "uint256"
						},
						{
							"indexed": true,
							"internalType": "uint256",
							"name": "result",
							"type": "uint256"
						}
					],
					"name": "DiceLanded",
					"type": "event"
				},
				{
					"anonymous": false,
					"inputs": [
						{
							"indexed": true,
							"internalType": "uint256",
							"name": "requestId",
							"type": "uint256"
						},
						{
							"indexed": true,
							"internalType": "address",
							"name": "roller",
							"type": "address"
						}
					],
					"name": "DiceRolled",
					"type": "event"
				},
				{
					"inputs": [
						{
							"internalType": "address",
							"name": "player",
							"type": "address"
						}
					],
					"name": "collectBonus",
					"outputs": [
						{
							"internalType": "uint8",
							"name": "",
							"type": "uint8"
						}
					],
					"stateMutability": "view",
					"type": "function"
				},
				{
					"inputs": [
						{
							"internalType": "address",
							"name": "roller",
							"type": "address"
						}
					],
					"name": "createPlayer",
					"outputs": [
						{
							"internalType": "uint256",
							"name": "requestId",
							"type": "uint256"
						}
					],
					"stateMutability": "nonpayable",
					"type": "function"
				},
				{
					"inputs": [
						{
							"internalType": "uint256",
							"name": "id",
							"type": "uint256"
						}
					],
					"name": "getBonus",
					"outputs": [
						{
							"internalType": "uint8",
							"name": "",
							"type": "uint8"
						}
					],
					"stateMutability": "pure",
					"type": "function"
				},
				{
					"inputs": [
						{
							"internalType": "uint256",
							"name": "",
							"type": "uint256"
						}
					],
					"name": "playerAddresses",
					"outputs": [
						{
							"internalType": "address",
							"name": "",
							"type": "address"
						}
					],
					"stateMutability": "view",
					"type": "function"
				},
				{
					"inputs": [],
					"name": "playerCount",
					"outputs": [
						{
							"internalType": "uint256",
							"name": "",
							"type": "uint256"
						}
					],
					"stateMutability": "view",
					"type": "function"
				},
				{
					"inputs": [
						{
							"internalType": "uint256",
							"name": "requestId",
							"type": "uint256"
						},
						{
							"internalType": "uint256[]",
							"name": "randomWords",
							"type": "uint256[]"
						}
					],
					"name": "rawFulfillRandomWords",
					"outputs": [],
					"stateMutability": "nonpayable",
					"type": "function"
				},
				{
					"inputs": [
						{
							"internalType": "address",
							"name": "roller",
							"type": "address"
						}
					],
					"name": "storePlayer",
					"outputs": [
						{
							"internalType": "address[]",
							"name": "",
							"type": "address[]"
						}
					],
					"stateMutability": "nonpayable",
					"type": "function"
				}
			],
			"devdoc": {
				"kind": "dev",
				"methods": {
					"collectBonus(address)": {
						"params": {
							"player": "address"
						},
						"returns": {
							"_0": "favor as a string"
						}
					},
					"constructor": {
						"details": "NETWORK: Goerli",
						"params": {
							"subscriptionId": "subscription id that this consumer contract can use"
						}
					},
					"createPlayer(address)": {
						"details": "Warning: if the VRF response is delayed, avoid calling requestRandomness repeatedly as that would give miners/VRF operators latitude about which VRF response arrives first.You must review your implementation details with extreme care.",
						"params": {
							"roller": "address of the roller"
						}
					},
					"getBonus(uint256)": {
						"params": {
							"id": "uint256"
						},
						"returns": {
							"_0": "bonus int"
						}
					}
				},
				"version": 1
			},
			"evm": {
				"assembly": "    /* \"contracts/Favors.sol\":577:7172  contract Favors is VRFConsumerBaseV2 {\r... */\n  mstore(0x40, 0xa0)\n    /* \"contracts/Favors.sol\":1047:1089  0x2Ca8E0C643bDe4C2E08ab1fA0da3401AdAD7734D */\n  0x2ca8e0c643bde4c2e08ab1fa0da3401adad7734d\n    /* \"contracts/Favors.sol\":1022:1089  address vrfCoordinator = 0x2Ca8E0C643bDe4C2E08ab1fA0da3401AdAD7734D */\n  0x01\n  exp(0x0100, 0x00)\n  dup2\n  sload\n  dup2\n  0xffffffffffffffffffffffffffffffffffffffff\n  mul\n  not\n  and\n  swap1\n  dup4\n  0xffffffffffffffffffffffffffffffffffffffff\n  and\n  mul\n  or\n  swap1\n  sstore\n  pop\n    /* \"contracts/Favors.sol\":1317:1383  0x79d3d8832d904592c0bf9818b621522c988bb8b0c05cdc3b15aea1b6e8db0c15 */\n  0x79d3d8832d904592c0bf9818b621522c988bb8b0c05cdc3b15aea1b6e8db0c15\n    /* \"contracts/Favors.sol\":1297:1383  bytes32 s_keyHash = 0x79d3d8832d904592c0bf9818b621522c988bb8b0c05cdc3b15aea1b6e8db0c15 */\n  0x00\n  shl\n  0x02\n  sstore\n    /* \"contracts/Favors.sol\":1676:1681  40000 */\n  0x9c40\n    /* \"contracts/Favors.sol\":1650:1681  uint32 callbackGasLimit = 40000 */\n  0x03\n  exp(0x0100, 0x00)\n  dup2\n  sload\n  dup2\n  0xffffffff\n  mul\n  not\n  and\n  swap1\n  dup4\n  0xffffffff\n  and\n  mul\n  or\n  swap1\n  sstore\n  pop\n    /* \"contracts/Favors.sol\":1773:1774  3 */\n  0x03\n    /* \"contracts/Favors.sol\":1743:1774  uint16 requestConfirmations = 3 */\n  dup1\n  exp(0x0100, 0x04)\n  dup2\n  sload\n  dup2\n  0xffff\n  mul\n  not\n  and\n  swap1\n  dup4\n  0xffff\n  and\n  mul\n  or\n  swap1\n  sstore\n  pop\n    /* \"contracts/Favors.sol\":1919:1920  1 */\n  0x01\n    /* \"contracts/Favors.sol\":1901:1920  uint32 numWords = 1 */\n  0x03\n  exp(0x0100, 0x06)\n  dup2\n  sload\n  dup2\n  0xffffffff\n  mul\n  not\n  and\n  swap1\n  dup4\n  0xffffffff\n  and\n  mul\n  or\n  swap1\n  sstore\n  pop\n    /* \"contracts/Favors.sol\":2966:3184  constructor(uint64 subscriptionId) VRFConsumerBaseV2(vrfCoordinator) {\r... */\n  callvalue\n  dup1\n  iszero\n  tag_1\n  jumpi\n  0x00\n  dup1\n  revert\ntag_1:\n  pop\n  mload(0x40)\n  sub(codesize, bytecodeSize)\n  dup1\n  bytecodeSize\n  dup4\n  codecopy\n  dup2\n  dup2\n  add\n  0x40\n  mstore\n  dup2\n  add\n  swap1\n  tag_2\n  swap2\n  swap1\n  tag_3\n  jump\t// in\ntag_2:\n    /* \"contracts/Favors.sol\":3019:3033  vrfCoordinator */\n  0x01\n  0x00\n  swap1\n  sload\n  swap1\n  0x0100\n  exp\n  swap1\n  div\n  0xffffffffffffffffffffffffffffffffffffffff\n  and\n    /* \"node_modules/@chainlink/contracts/src/v0.8/VRFConsumerBaseV2.sol\":5616:5631  _vrfCoordinator */\n  dup1\n    /* \"node_modules/@chainlink/contracts/src/v0.8/VRFConsumerBaseV2.sol\":5599:5631  vrfCoordinator = _vrfCoordinator */\n  0xffffffffffffffffffffffffffffffffffffffff\n  and\n  0x80\n  dup2\n  0xffffffffffffffffffffffffffffffffffffffff\n  and\n  0x60\n  shl\n  dup2\n  mstore\n  pop\n  pop\n    /* \"node_modules/@chainlink/contracts/src/v0.8/VRFConsumerBaseV2.sol\":5556:5636  constructor(address _vrfCoordinator) {... */\n  pop\n    /* \"contracts/Favors.sol\":3086:3100  vrfCoordinator */\n  0x01\n  0x00\n  swap1\n  sload\n  swap1\n  0x0100\n  exp\n  swap1\n  div\n  0xffffffffffffffffffffffffffffffffffffffff\n  and\n    /* \"contracts/Favors.sol\":3046:3057  COORDINATOR */\n  0x00\n  dup1\n    /* \"contracts/Favors.sol\":3046:3101  COORDINATOR = VRFCoordinatorV2Interface(vrfCoordinator) */\n  0x0100\n  exp\n  dup2\n  sload\n  dup2\n  0xffffffffffffffffffffffffffffffffffffffff\n  mul\n  not\n  and\n  swap1\n  dup4\n  0xffffffffffffffffffffffffffffffffffffffff\n  and\n  mul\n  or\n  swap1\n  sstore\n  pop\n    /* \"contracts/Favors.sol\":3122:3132  msg.sender */\n  caller\n    /* \"contracts/Favors.sol\":3112:3119  s_owner */\n  0x03\n  0x0a\n    /* \"contracts/Favors.sol\":3112:3132  s_owner = msg.sender */\n  0x0100\n  exp\n  dup2\n  sload\n  dup2\n  0xffffffffffffffffffffffffffffffffffffffff\n  mul\n  not\n  and\n  swap1\n  dup4\n  0xffffffffffffffffffffffffffffffffffffffff\n  and\n  mul\n  or\n  swap1\n  sstore\n  pop\n    /* \"contracts/Favors.sol\":3162:3176  subscriptionId */\n  dup1\n    /* \"contracts/Favors.sol\":3143:3159  s_subscriptionId */\n  0x00\n  0x14\n    /* \"contracts/Favors.sol\":3143:3176  s_subscriptionId = subscriptionId */\n  0x0100\n  exp\n  dup2\n  sload\n  dup2\n  0xffffffffffffffff\n  mul\n  not\n  and\n  swap1\n  dup4\n  0xffffffffffffffff\n  and\n  mul\n  or\n  swap1\n  sstore\n  pop\n    /* \"contracts/Favors.sol\":2966:3184  constructor(uint64 subscriptionId) VRFConsumerBaseV2(vrfCoordinator) {\r... */\n  pop\n    /* \"contracts/Favors.sol\":577:7172  contract Favors is VRFConsumerBaseV2 {\r... */\n  jump(tag_8)\n    /* \"#utility.yul\":7:148   */\ntag_10:\n    /* \"#utility.yul\":63:68   */\n  0x00\n    /* \"#utility.yul\":94:100   */\n  dup2\n    /* \"#utility.yul\":88:101   */\n  mload\n    /* \"#utility.yul\":79:101   */\n  swap1\n  pop\n    /* \"#utility.yul\":110:142   */\n  tag_12\n    /* \"#utility.yul\":136:141   */\n  dup2\n    /* \"#utility.yul\":110:142   */\n  tag_13\n  jump\t// in\ntag_12:\n    /* \"#utility.yul\":7:148   */\n  swap3\n  swap2\n  pop\n  pop\n  jump\t// out\n    /* \"#utility.yul\":154:503   */\ntag_3:\n    /* \"#utility.yul\":223:229   */\n  0x00\n    /* \"#utility.yul\":272:274   */\n  0x20\n    /* \"#utility.yul\":260:269   */\n  dup3\n    /* \"#utility.yul\":251:258   */\n  dup5\n    /* \"#utility.yul\":247:270   */\n  sub\n    /* \"#utility.yul\":243:275   */\n  slt\n    /* \"#utility.yul\":240:359   */\n  iszero\n  tag_15\n  jumpi\n    /* \"#utility.yul\":278:357   */\n  tag_16\n  tag_17\n  jump\t// in\ntag_16:\n    /* \"#utility.yul\":240:359   */\ntag_15:\n    /* \"#utility.yul\":398:399   */\n  0x00\n    /* \"#utility.yul\":423:486   */\n  tag_18\n    /* \"#utility.yul\":478:485   */\n  dup5\n    /* \"#utility.yul\":469:475   */\n  dup3\n    /* \"#utility.yul\":458:467   */\n  dup6\n    /* \"#utility.yul\":454:476   */\n  add\n    /* \"#utility.yul\":423:486   */\n  tag_10\n  jump\t// in\ntag_18:\n    /* \"#utility.yul\":413:486   */\n  swap2\n  pop\n    /* \"#utility.yul\":369:496   */\n  pop\n    /* \"#utility.yul\":154:503   */\n  swap3\n  swap2\n  pop\n  pop\n  jump\t// out\n    /* \"#utility.yul\":590:691   */\ntag_21:\n    /* \"#utility.yul\":626:633   */\n  0x00\n    /* \"#utility.yul\":666:684   */\n  0xffffffffffffffff\n    /* \"#utility.yul\":659:664   */\n  dup3\n    /* \"#utility.yul\":655:685   */\n  and\n    /* \"#utility.yul\":644:685   */\n  swap1\n  pop\n    /* \"#utility.yul\":590:691   */\n  swap2\n  swap1\n  pop\n  jump\t// out\n    /* \"#utility.yul\":820:937   */\ntag_17:\n    /* \"#utility.yul\":929:930   */\n  0x00\n    /* \"#utility.yul\":926:927   */\n  dup1\n    /* \"#utility.yul\":919:931   */\n  revert\n    /* \"#utility.yul\":943:1063   */\ntag_13:\n    /* \"#utility.yul\":1015:1038   */\n  tag_27\n    /* \"#utility.yul\":1032:1037   */\n  dup2\n    /* \"#utility.yul\":1015:1038   */\n  tag_21\n  jump\t// in\ntag_27:\n    /* \"#utility.yul\":1008:1013   */\n  dup2\n    /* \"#utility.yul\":1005:1039   */\n  eq\n    /* \"#utility.yul\":995:1057   */\n  tag_28\n  jumpi\n    /* \"#utility.yul\":1053:1054   */\n  0x00\n    /* \"#utility.yul\":1050:1051   */\n  dup1\n    /* \"#utility.yul\":1043:1055   */\n  revert\n    /* \"#utility.yul\":995:1057   */\ntag_28:\n    /* \"#utility.yul\":943:1063   */\n  pop\n  jump\t// out\n    /* \"contracts/Favors.sol\":577:7172  contract Favors is VRFConsumerBaseV2 {\r... */\ntag_8:\n  shr(0x60, mload(0x80))\n  codecopy(0x00, dataOffset(sub_0), dataSize(sub_0))\n  0x00\n  assignImmutable(\"0x7aec2e6420b6fcb778a66c2b9d8fa18a316e494bda11ec5e5a11deee861d114c\")\n  return(0x00, dataSize(sub_0))\nstop\n\nsub_0: assembly {\n        /* \"contracts/Favors.sol\":577:7172  contract Favors is VRFConsumerBaseV2 {\r... */\n      mstore(0x40, 0x80)\n      callvalue\n      dup1\n      iszero\n      tag_1\n      jumpi\n      0x00\n      dup1\n      revert\n    tag_1:\n      pop\n      jumpi(tag_2, lt(calldatasize, 0x04))\n      shr(0xe0, calldataload(0x00))\n      dup1\n      0x4aa66b28\n      gt\n      tag_10\n      jumpi\n      dup1\n      0x4aa66b28\n      eq\n      tag_6\n      jumpi\n      dup1\n      0x646f2a16\n      eq\n      tag_7\n      jumpi\n      dup1\n      0xcfb09651\n      eq\n      tag_8\n      jumpi\n      dup1\n      0xe8ace5d7\n      eq\n      tag_9\n      jumpi\n      jump(tag_2)\n    tag_10:\n      dup1\n      0x15c6aee2\n      eq\n      tag_3\n      jumpi\n      dup1\n      0x1fe543e3\n      eq\n      tag_4\n      jumpi\n      dup1\n      0x302bcc57\n      eq\n      tag_5\n      jumpi\n    tag_2:\n      0x00\n      dup1\n      revert\n        /* \"contracts/Favors.sol\":1999:2031  address[] public playerAddresses */\n    tag_3:\n      tag_11\n      0x04\n      dup1\n      calldatasize\n      sub\n      dup2\n      add\n      swap1\n      tag_12\n      swap2\n      swap1\n      tag_13\n      jump\t// in\n    tag_12:\n      tag_14\n      jump\t// in\n    tag_11:\n      mload(0x40)\n      tag_15\n      swap2\n      swap1\n      tag_16\n      jump\t// in\n    tag_15:\n      mload(0x40)\n      dup1\n      swap2\n      sub\n      swap1\n      return\n        /* \"node_modules/@chainlink/contracts/src/v0.8/VRFConsumerBaseV2.sol\":6618:6874  function rawFulfillRandomWords(uint256 requestId, uint256[] memory randomWords) external {... */\n    tag_4:\n      tag_17\n      0x04\n      dup1\n      calldatasize\n      sub\n      dup2\n      add\n      swap1\n      tag_18\n      swap2\n      swap1\n      tag_19\n      jump\t// in\n    tag_18:\n      tag_20\n      jump\t// in\n    tag_17:\n      stop\n        /* \"contracts/Favors.sol\":2345:2446  function playerCount() public view returns (uint256) {\r... */\n    tag_5:\n      tag_21\n      tag_22\n      jump\t// in\n    tag_21:\n      mload(0x40)\n      tag_23\n      swap2\n      swap1\n      tag_24\n      jump\t// in\n    tag_23:\n      mload(0x40)\n      dup1\n      swap2\n      sub\n      swap1\n      return\n        /* \"contracts/Favors.sol\":6672:7081  function getBonus(uint256 id) public pure returns (uint8) {\r... */\n    tag_6:\n      tag_25\n      0x04\n      dup1\n      calldatasize\n      sub\n      dup2\n      add\n      swap1\n      tag_26\n      swap2\n      swap1\n      tag_13\n      jump\t// in\n    tag_26:\n      tag_27\n      jump\t// in\n    tag_25:\n      mload(0x40)\n      tag_28\n      swap2\n      swap1\n      tag_29\n      jump\t// in\n    tag_28:\n      mload(0x40)\n      dup1\n      swap2\n      sub\n      swap1\n      return\n        /* \"contracts/Favors.sol\":6281:6538  function collectBonus(address player) public view returns (uint8) {\r... */\n    tag_7:\n      tag_30\n      0x04\n      dup1\n      calldatasize\n      sub\n      dup2\n      add\n      swap1\n      tag_31\n      swap2\n      swap1\n      tag_32\n      jump\t// in\n    tag_31:\n      tag_33\n      jump\t// in\n    tag_30:\n      mload(0x40)\n      tag_34\n      swap2\n      swap1\n      tag_29\n      jump\t// in\n    tag_34:\n      mload(0x40)\n      dup1\n      swap2\n      sub\n      swap1\n      return\n        /* \"contracts/Favors.sol\":2124:2275  function storePlayer(address roller) public returns(address[] memory){  \r... */\n    tag_8:\n      tag_35\n      0x04\n      dup1\n      calldatasize\n      sub\n      dup2\n      add\n      swap1\n      tag_36\n      swap2\n      swap1\n      tag_32\n      jump\t// in\n    tag_36:\n      tag_37\n      jump\t// in\n    tag_35:\n      mload(0x40)\n      tag_38\n      swap2\n      swap1\n      tag_39\n      jump\t// in\n    tag_38:\n      mload(0x40)\n      dup1\n      swap2\n      sub\n      swap1\n      return\n        /* \"contracts/Favors.sol\":3946:5016  function createPlayer(address roller) public onlyOwner returns (uint256 requestId) {\r... */\n    tag_9:\n      tag_40\n      0x04\n      dup1\n      calldatasize\n      sub\n      dup2\n      add\n      swap1\n      tag_41\n      swap2\n      swap1\n      tag_32\n      jump\t// in\n    tag_41:\n      tag_42\n      jump\t// in\n    tag_40:\n      mload(0x40)\n      tag_43\n      swap2\n      swap1\n      tag_24\n      jump\t// in\n    tag_43:\n      mload(0x40)\n      dup1\n      swap2\n      sub\n      swap1\n      return\n        /* \"contracts/Favors.sol\":1999:2031  address[] public playerAddresses */\n    tag_14:\n      0x04\n      dup2\n      dup2\n      sload\n      dup2\n      lt\n      tag_44\n      jumpi\n      0x00\n      dup1\n      revert\n    tag_44:\n      swap1\n      0x00\n      mstore\n      keccak256(0x00, 0x20)\n      add\n      0x00\n      swap2\n      pop\n      sload\n      swap1\n      0x0100\n      exp\n      swap1\n      div\n      0xffffffffffffffffffffffffffffffffffffffff\n      and\n      dup2\n      jump\t// out\n        /* \"node_modules/@chainlink/contracts/src/v0.8/VRFConsumerBaseV2.sol\":6618:6874  function rawFulfillRandomWords(uint256 requestId, uint256[] memory randomWords) external {... */\n    tag_20:\n        /* \"node_modules/@chainlink/contracts/src/v0.8/VRFConsumerBaseV2.sol\":6731:6745  vrfCoordinator */\n      immutable(\"0x7aec2e6420b6fcb778a66c2b9d8fa18a316e494bda11ec5e5a11deee861d114c\")\n        /* \"node_modules/@chainlink/contracts/src/v0.8/VRFConsumerBaseV2.sol\":6717:6745  msg.sender != vrfCoordinator */\n      0xffffffffffffffffffffffffffffffffffffffff\n      and\n        /* \"node_modules/@chainlink/contracts/src/v0.8/VRFConsumerBaseV2.sol\":6717:6727  msg.sender */\n      caller\n        /* \"node_modules/@chainlink/contracts/src/v0.8/VRFConsumerBaseV2.sol\":6717:6745  msg.sender != vrfCoordinator */\n      0xffffffffffffffffffffffffffffffffffffffff\n      and\n      eq\n        /* \"node_modules/@chainlink/contracts/src/v0.8/VRFConsumerBaseV2.sol\":6713:6822  if (msg.sender != vrfCoordinator) {... */\n      tag_47\n      jumpi\n        /* \"node_modules/@chainlink/contracts/src/v0.8/VRFConsumerBaseV2.sol\":6788:6798  msg.sender */\n      caller\n        /* \"node_modules/@chainlink/contracts/src/v0.8/VRFConsumerBaseV2.sol\":6800:6814  vrfCoordinator */\n      immutable(\"0x7aec2e6420b6fcb778a66c2b9d8fa18a316e494bda11ec5e5a11deee861d114c\")\n        /* \"node_modules/@chainlink/contracts/src/v0.8/VRFConsumerBaseV2.sol\":6762:6815  OnlyCoordinatorCanFulfill(msg.sender, vrfCoordinator) */\n      mload(0x40)\n      0x1cf993f400000000000000000000000000000000000000000000000000000000\n      dup2\n      mstore\n      0x04\n      add\n      tag_48\n      swap3\n      swap2\n      swap1\n      tag_49\n      jump\t// in\n    tag_48:\n      mload(0x40)\n      dup1\n      swap2\n      sub\n      swap1\n      revert\n        /* \"node_modules/@chainlink/contracts/src/v0.8/VRFConsumerBaseV2.sol\":6713:6822  if (msg.sender != vrfCoordinator) {... */\n    tag_47:\n        /* \"node_modules/@chainlink/contracts/src/v0.8/VRFConsumerBaseV2.sol\":6827:6869  fulfillRandomWords(requestId, randomWords) */\n      tag_50\n        /* \"node_modules/@chainlink/contracts/src/v0.8/VRFConsumerBaseV2.sol\":6846:6855  requestId */\n      dup3\n        /* \"node_modules/@chainlink/contracts/src/v0.8/VRFConsumerBaseV2.sol\":6857:6868  randomWords */\n      dup3\n        /* \"node_modules/@chainlink/contracts/src/v0.8/VRFConsumerBaseV2.sol\":6827:6845  fulfillRandomWords */\n      tag_51\n        /* \"node_modules/@chainlink/contracts/src/v0.8/VRFConsumerBaseV2.sol\":6827:6869  fulfillRandomWords(requestId, randomWords) */\n      jump\t// in\n    tag_50:\n        /* \"node_modules/@chainlink/contracts/src/v0.8/VRFConsumerBaseV2.sol\":6618:6874  function rawFulfillRandomWords(uint256 requestId, uint256[] memory randomWords) external {... */\n      pop\n      pop\n      jump\t// out\n        /* \"contracts/Favors.sol\":2345:2446  function playerCount() public view returns (uint256) {\r... */\n    tag_22:\n        /* \"contracts/Favors.sol\":2389:2396  uint256 */\n      0x00\n        /* \"contracts/Favors.sol\":2416:2431  playerAddresses */\n      0x04\n        /* \"contracts/Favors.sol\":2416:2438  playerAddresses.length */\n      dup1\n      sload\n      swap1\n      pop\n        /* \"contracts/Favors.sol\":2409:2438  return playerAddresses.length */\n      swap1\n      pop\n        /* \"contracts/Favors.sol\":2345:2446  function playerCount() public view returns (uint256) {\r... */\n      swap1\n      jump\t// out\n        /* \"contracts/Favors.sol\":6672:7081  function getBonus(uint256 id) public pure returns (uint8) {\r... */\n    tag_27:\n        /* \"contracts/Favors.sol\":6723:6728  uint8 */\n      0x00\n        /* \"contracts/Favors.sol\":6797:6819  uint8[20] memory bonus */\n      dup1\n        /* \"contracts/Favors.sol\":6797:6874  uint8[20] memory bonus = [1,2,3,4,5,6,7,8,9,10,11,12,13,14,15,16,17,18,19,20] */\n      mload(0x40)\n      dup1\n      0x0280\n      add\n      0x40\n      mstore\n      dup1\n        /* \"contracts/Favors.sol\":6823:6824  1 */\n      0x01\n        /* \"contracts/Favors.sol\":6797:6874  uint8[20] memory bonus = [1,2,3,4,5,6,7,8,9,10,11,12,13,14,15,16,17,18,19,20] */\n      0xff\n      and\n      dup2\n      mstore\n      0x20\n      add\n        /* \"contracts/Favors.sol\":6825:6826  2 */\n      0x02\n        /* \"contracts/Favors.sol\":6797:6874  uint8[20] memory bonus = [1,2,3,4,5,6,7,8,9,10,11,12,13,14,15,16,17,18,19,20] */\n      0xff\n      and\n      dup2\n      mstore\n      0x20\n      add\n        /* \"contracts/Favors.sol\":6827:6828  3 */\n      0x03\n        /* \"contracts/Favors.sol\":6797:6874  uint8[20] memory bonus = [1,2,3,4,5,6,7,8,9,10,11,12,13,14,15,16,17,18,19,20] */\n      0xff\n      and\n      dup2\n      mstore\n      0x20\n      add\n        /* \"contracts/Favors.sol\":6829:6830  4 */\n      0x04\n        /* \"contracts/Favors.sol\":6797:6874  uint8[20] memory bonus = [1,2,3,4,5,6,7,8,9,10,11,12,13,14,15,16,17,18,19,20] */\n      0xff\n      and\n      dup2\n      mstore\n      0x20\n      add\n        /* \"contracts/Favors.sol\":6831:6832  5 */\n      0x05\n        /* \"contracts/Favors.sol\":6797:6874  uint8[20] memory bonus = [1,2,3,4,5,6,7,8,9,10,11,12,13,14,15,16,17,18,19,20] */\n      0xff\n      and\n      dup2\n      mstore\n      0x20\n      add\n        /* \"contracts/Favors.sol\":6833:6834  6 */\n      0x06\n        /* \"contracts/Favors.sol\":6797:6874  uint8[20] memory bonus = [1,2,3,4,5,6,7,8,9,10,11,12,13,14,15,16,17,18,19,20] */\n      0xff\n      and\n      dup2\n      mstore\n      0x20\n      add\n        /* \"contracts/Favors.sol\":6835:6836  7 */\n      0x07\n        /* \"contracts/Favors.sol\":6797:6874  uint8[20] memory bonus = [1,2,3,4,5,6,7,8,9,10,11,12,13,14,15,16,17,18,19,20] */\n      0xff\n      and\n      dup2\n      mstore\n      0x20\n      add\n        /* \"contracts/Favors.sol\":6837:6838  8 */\n      0x08\n        /* \"contracts/Favors.sol\":6797:6874  uint8[20] memory bonus = [1,2,3,4,5,6,7,8,9,10,11,12,13,14,15,16,17,18,19,20] */\n      0xff\n      and\n      dup2\n      mstore\n      0x20\n      add\n        /* \"contracts/Favors.sol\":6839:6840  9 */\n      0x09\n        /* \"contracts/Favors.sol\":6797:6874  uint8[20] memory bonus = [1,2,3,4,5,6,7,8,9,10,11,12,13,14,15,16,17,18,19,20] */\n      0xff\n      and\n      dup2\n      mstore\n      0x20\n      add\n        /* \"contracts/Favors.sol\":6841:6843  10 */\n      0x0a\n        /* \"contracts/Favors.sol\":6797:6874  uint8[20] memory bonus = [1,2,3,4,5,6,7,8,9,10,11,12,13,14,15,16,17,18,19,20] */\n      0xff\n      and\n      dup2\n      mstore\n      0x20\n      add\n        /* \"contracts/Favors.sol\":6844:6846  11 */\n      0x0b\n        /* \"contracts/Favors.sol\":6797:6874  uint8[20] memory bonus = [1,2,3,4,5,6,7,8,9,10,11,12,13,14,15,16,17,18,19,20] */\n      0xff\n      and\n      dup2\n      mstore\n      0x20\n      add\n        /* \"contracts/Favors.sol\":6847:6849  12 */\n      0x0c\n        /* \"contracts/Favors.sol\":6797:6874  uint8[20] memory bonus = [1,2,3,4,5,6,7,8,9,10,11,12,13,14,15,16,17,18,19,20] */\n      0xff\n      and\n      dup2\n      mstore\n      0x20\n      add\n        /* \"contracts/Favors.sol\":6850:6852  13 */\n      0x0d\n        /* \"contracts/Favors.sol\":6797:6874  uint8[20] memory bonus = [1,2,3,4,5,6,7,8,9,10,11,12,13,14,15,16,17,18,19,20] */\n      0xff\n      and\n      dup2\n      mstore\n      0x20\n      add\n        /* \"contracts/Favors.sol\":6853:6855  14 */\n      0x0e\n        /* \"contracts/Favors.sol\":6797:6874  uint8[20] memory bonus = [1,2,3,4,5,6,7,8,9,10,11,12,13,14,15,16,17,18,19,20] */\n      0xff\n      and\n      dup2\n      mstore\n      0x20\n      add\n        /* \"contracts/Favors.sol\":6856:6858  15 */\n      0x0f\n        /* \"contracts/Favors.sol\":6797:6874  uint8[20] memory bonus = [1,2,3,4,5,6,7,8,9,10,11,12,13,14,15,16,17,18,19,20] */\n      0xff\n      and\n      dup2\n      mstore\n      0x20\n      add\n        /* \"contracts/Favors.sol\":6859:6861  16 */\n      0x10\n        /* \"contracts/Favors.sol\":6797:6874  uint8[20] memory bonus = [1,2,3,4,5,6,7,8,9,10,11,12,13,14,15,16,17,18,19,20] */\n      0xff\n      and\n      dup2\n      mstore\n      0x20\n      add\n        /* \"contracts/Favors.sol\":6862:6864  17 */\n      0x11\n        /* \"contracts/Favors.sol\":6797:6874  uint8[20] memory bonus = [1,2,3,4,5,6,7,8,9,10,11,12,13,14,15,16,17,18,19,20] */\n      0xff\n      and\n      dup2\n      mstore\n      0x20\n      add\n        /* \"contracts/Favors.sol\":6865:6867  18 */\n      0x12\n        /* \"contracts/Favors.sol\":6797:6874  uint8[20] memory bonus = [1,2,3,4,5,6,7,8,9,10,11,12,13,14,15,16,17,18,19,20] */\n      0xff\n      and\n      dup2\n      mstore\n      0x20\n      add\n        /* \"contracts/Favors.sol\":6868:6870  19 */\n      0x13\n        /* \"contracts/Favors.sol\":6797:6874  uint8[20] memory bonus = [1,2,3,4,5,6,7,8,9,10,11,12,13,14,15,16,17,18,19,20] */\n      0xff\n      and\n      dup2\n      mstore\n      0x20\n      add\n        /* \"contracts/Favors.sol\":6871:6873  20 */\n      0x14\n        /* \"contracts/Favors.sol\":6797:6874  uint8[20] memory bonus = [1,2,3,4,5,6,7,8,9,10,11,12,13,14,15,16,17,18,19,20] */\n      0xff\n      and\n      dup2\n      mstore\n      pop\n      swap1\n      pop\n        /* \"contracts/Favors.sol\":7060:7065  bonus */\n      dup1\n        /* \"contracts/Favors.sol\":7071:7072  1 */\n      0x01\n        /* \"contracts/Favors.sol\":7066:7068  id */\n      dup5\n        /* \"contracts/Favors.sol\":7066:7072  id - 1 */\n      tag_54\n      swap2\n      swap1\n      tag_55\n      jump\t// in\n    tag_54:\n        /* \"contracts/Favors.sol\":7060:7073  bonus[id - 1] */\n      0x14\n      dup2\n      lt\n      tag_56\n      jumpi\n      tag_57\n      tag_58\n      jump\t// in\n    tag_57:\n    tag_56:\n      0x20\n      mul\n      add\n      mload\n        /* \"contracts/Favors.sol\":7053:7073  return bonus[id - 1] */\n      swap2\n      pop\n      pop\n        /* \"contracts/Favors.sol\":6672:7081  function getBonus(uint256 id) public pure returns (uint8) {\r... */\n      swap2\n      swap1\n      pop\n      jump\t// out\n        /* \"contracts/Favors.sol\":6281:6538  function collectBonus(address player) public view returns (uint8) {\r... */\n    tag_33:\n        /* \"contracts/Favors.sol\":6340:6345  uint8 */\n      0x00\n        /* \"contracts/Favors.sol\":6387:6388  0 */\n      dup1\n        /* \"contracts/Favors.sol\":6366:6375  s_results */\n      0x06\n        /* \"contracts/Favors.sol\":6366:6383  s_results[player] */\n      0x00\n        /* \"contracts/Favors.sol\":6376:6382  player */\n      dup5\n        /* \"contracts/Favors.sol\":6366:6383  s_results[player] */\n      0xffffffffffffffffffffffffffffffffffffffff\n      and\n      0xffffffffffffffffffffffffffffffffffffffff\n      and\n      dup2\n      mstore\n      0x20\n      add\n      swap1\n      dup2\n      mstore\n      0x20\n      add\n      0x00\n      keccak256\n      sload\n        /* \"contracts/Favors.sol\":6366:6388  s_results[player] != 0 */\n      eq\n      iszero\n        /* \"contracts/Favors.sol\":6358:6408  require(s_results[player] != 0, 'Dice not rolled') */\n      tag_60\n      jumpi\n      mload(0x40)\n      0x08c379a000000000000000000000000000000000000000000000000000000000\n      dup2\n      mstore\n      0x04\n      add\n      tag_61\n      swap1\n      tag_62\n      jump\t// in\n    tag_61:\n      mload(0x40)\n      dup1\n      swap2\n      sub\n      swap1\n      revert\n    tag_60:\n        /* \"contracts/Favors.sol\":790:792  42 */\n      0x2a\n        /* \"contracts/Favors.sol\":6427:6436  s_results */\n      0x06\n        /* \"contracts/Favors.sol\":6427:6444  s_results[player] */\n      0x00\n        /* \"contracts/Favors.sol\":6437:6443  player */\n      dup5\n        /* \"contracts/Favors.sol\":6427:6444  s_results[player] */\n      0xffffffffffffffffffffffffffffffffffffffff\n      and\n      0xffffffffffffffffffffffffffffffffffffffff\n      and\n      dup2\n      mstore\n      0x20\n      add\n      swap1\n      dup2\n      mstore\n      0x20\n      add\n      0x00\n      keccak256\n      sload\n        /* \"contracts/Favors.sol\":6427:6464  s_results[player] != ROLL_IN_PROGRESS */\n      eq\n      iszero\n        /* \"contracts/Favors.sol\":6419:6485  require(s_results[player] != ROLL_IN_PROGRESS, 'Roll in progress') */\n      tag_63\n      jumpi\n      mload(0x40)\n      0x08c379a000000000000000000000000000000000000000000000000000000000\n      dup2\n      mstore\n      0x04\n      add\n      tag_64\n      swap1\n      tag_65\n      jump\t// in\n    tag_64:\n      mload(0x40)\n      dup1\n      swap2\n      sub\n      swap1\n      revert\n    tag_63:\n        /* \"contracts/Favors.sol\":6503:6530  getBonus(s_results[player]) */\n      tag_66\n        /* \"contracts/Favors.sol\":6512:6521  s_results */\n      0x06\n        /* \"contracts/Favors.sol\":6512:6529  s_results[player] */\n      0x00\n        /* \"contracts/Favors.sol\":6522:6528  player */\n      dup5\n        /* \"contracts/Favors.sol\":6512:6529  s_results[player] */\n      0xffffffffffffffffffffffffffffffffffffffff\n      and\n      0xffffffffffffffffffffffffffffffffffffffff\n      and\n      dup2\n      mstore\n      0x20\n      add\n      swap1\n      dup2\n      mstore\n      0x20\n      add\n      0x00\n      keccak256\n      sload\n        /* \"contracts/Favors.sol\":6503:6511  getBonus */\n      tag_27\n        /* \"contracts/Favors.sol\":6503:6530  getBonus(s_results[player]) */\n      jump\t// in\n    tag_66:\n        /* \"contracts/Favors.sol\":6496:6530  return getBonus(s_results[player]) */\n      swap1\n      pop\n        /* \"contracts/Favors.sol\":6281:6538  function collectBonus(address player) public view returns (uint8) {\r... */\n      swap2\n      swap1\n      pop\n      jump\t// out\n        /* \"contracts/Favors.sol\":2124:2275  function storePlayer(address roller) public returns(address[] memory){  \r... */\n    tag_37:\n        /* \"contracts/Favors.sol\":2176:2192  address[] memory */\n      0x60\n        /* \"contracts/Favors.sol\":2206:2221  playerAddresses */\n      0x04\n        /* \"contracts/Favors.sol\":2227:2233  roller */\n      dup3\n        /* \"contracts/Favors.sol\":2206:2234  playerAddresses.push(roller) */\n      swap1\n      dup1\n      0x01\n      dup2\n      sload\n      add\n      dup1\n      dup3\n      sstore\n      dup1\n      swap2\n      pop\n      pop\n      0x01\n      swap1\n      sub\n      swap1\n      0x00\n      mstore\n      keccak256(0x00, 0x20)\n      add\n      0x00\n      swap1\n      swap2\n      swap1\n      swap2\n      swap1\n      swap2\n      0x0100\n      exp\n      dup2\n      sload\n      dup2\n      0xffffffffffffffffffffffffffffffffffffffff\n      mul\n      not\n      and\n      swap1\n      dup4\n      0xffffffffffffffffffffffffffffffffffffffff\n      and\n      mul\n      or\n      swap1\n      sstore\n      pop\n        /* \"contracts/Favors.sol\":2252:2267  playerAddresses */\n      0x04\n        /* \"contracts/Favors.sol\":2245:2267  return playerAddresses */\n      dup1\n      sload\n      dup1\n      0x20\n      mul\n      0x20\n      add\n      mload(0x40)\n      swap1\n      dup2\n      add\n      0x40\n      mstore\n      dup1\n      swap3\n      swap2\n      swap1\n      dup2\n      dup2\n      mstore\n      0x20\n      add\n      dup3\n      dup1\n      sload\n      dup1\n      iszero\n      tag_69\n      jumpi\n      0x20\n      mul\n      dup3\n      add\n      swap2\n      swap1\n      0x00\n      mstore\n      keccak256(0x00, 0x20)\n      swap1\n    tag_70:\n      dup2\n      0x00\n      swap1\n      sload\n      swap1\n      0x0100\n      exp\n      swap1\n      div\n      0xffffffffffffffffffffffffffffffffffffffff\n      and\n      0xffffffffffffffffffffffffffffffffffffffff\n      and\n      dup2\n      mstore\n      0x20\n      add\n      swap1\n      0x01\n      add\n      swap1\n      dup1\n      dup4\n      gt\n      tag_70\n      jumpi\n    tag_69:\n      pop\n      pop\n      pop\n      pop\n      pop\n      swap1\n      pop\n        /* \"contracts/Favors.sol\":2124:2275  function storePlayer(address roller) public returns(address[] memory){  \r... */\n      swap2\n      swap1\n      pop\n      jump\t// out\n        /* \"contracts/Favors.sol\":3946:5016  function createPlayer(address roller) public onlyOwner returns (uint256 requestId) {\r... */\n    tag_42:\n        /* \"contracts/Favors.sol\":4010:4027  uint256 requestId */\n      0x00\n        /* \"contracts/Favors.sol\":7141:7148  s_owner */\n      0x03\n      0x0a\n      swap1\n      sload\n      swap1\n      0x0100\n      exp\n      swap1\n      div\n      0xffffffffffffffffffffffffffffffffffffffff\n      and\n        /* \"contracts/Favors.sol\":7127:7148  msg.sender == s_owner */\n      0xffffffffffffffffffffffffffffffffffffffff\n      and\n        /* \"contracts/Favors.sol\":7127:7137  msg.sender */\n      caller\n        /* \"contracts/Favors.sol\":7127:7148  msg.sender == s_owner */\n      0xffffffffffffffffffffffffffffffffffffffff\n      and\n      eq\n        /* \"contracts/Favors.sol\":7119:7149  require(msg.sender == s_owner) */\n      tag_72\n      jumpi\n      0x00\n      dup1\n      revert\n    tag_72:\n        /* \"contracts/Favors.sol\":4106:4121  uint256 players */\n      0x00\n        /* \"contracts/Favors.sol\":4124:4137  playerCount() */\n      tag_74\n        /* \"contracts/Favors.sol\":4124:4135  playerCount */\n      tag_22\n        /* \"contracts/Favors.sol\":4124:4137  playerCount() */\n      jump\t// in\n    tag_74:\n        /* \"contracts/Favors.sol\":4106:4137  uint256 players = playerCount() */\n      swap1\n      pop\n        /* \"contracts/Favors.sol\":4153:4162  uint256 i */\n      0x00\n        /* \"contracts/Favors.sol\":4148:5009  for (uint256 i = 0; i < players; i++) {\r... */\n    tag_75:\n        /* \"contracts/Favors.sol\":4172:4179  players */\n      dup2\n        /* \"contracts/Favors.sol\":4168:4169  i */\n      dup2\n        /* \"contracts/Favors.sol\":4168:4179  i < players */\n      lt\n        /* \"contracts/Favors.sol\":4148:5009  for (uint256 i = 0; i < players; i++) {\r... */\n      iszero\n      tag_76\n      jumpi\n        /* \"contracts/Favors.sol\":4224:4230  roller */\n      dup4\n        /* \"contracts/Favors.sol\":4202:4230  playerAddresses[i] == roller */\n      0xffffffffffffffffffffffffffffffffffffffff\n      and\n        /* \"contracts/Favors.sol\":4202:4217  playerAddresses */\n      0x04\n        /* \"contracts/Favors.sol\":4218:4219  i */\n      dup3\n        /* \"contracts/Favors.sol\":4202:4220  playerAddresses[i] */\n      dup2\n      sload\n      dup2\n      lt\n      tag_78\n      jumpi\n      tag_79\n      tag_58\n      jump\t// in\n    tag_79:\n    tag_78:\n      swap1\n      0x00\n      mstore\n      keccak256(0x00, 0x20)\n      add\n      0x00\n      swap1\n      sload\n      swap1\n      0x0100\n      exp\n      swap1\n      div\n      0xffffffffffffffffffffffffffffffffffffffff\n      and\n        /* \"contracts/Favors.sol\":4202:4230  playerAddresses[i] == roller */\n      0xffffffffffffffffffffffffffffffffffffffff\n      and\n      eq\n        /* \"contracts/Favors.sol\":4198:4998  if (playerAddresses[i] == roller) {\r... */\n      iszero\n      tag_81\n      jumpi\n        /* \"contracts/Favors.sol\":4296:4301  break */\n      jump(tag_76)\n        /* \"contracts/Favors.sol\":4198:4998  if (playerAddresses[i] == roller) {\r... */\n    tag_81:\n        /* \"contracts/Favors.sol\":4404:4423  storePlayer(roller) */\n      tag_83\n        /* \"contracts/Favors.sol\":4416:4422  roller */\n      dup5\n        /* \"contracts/Favors.sol\":4404:4415  storePlayer */\n      tag_37\n        /* \"contracts/Favors.sol\":4404:4423  storePlayer(roller) */\n      jump\t// in\n    tag_83:\n      pop\n        /* \"contracts/Favors.sol\":4471:4472  0 */\n      0x00\n        /* \"contracts/Favors.sol\":4450:4459  s_results */\n      0x06\n        /* \"contracts/Favors.sol\":4450:4467  s_results[roller] */\n      0x00\n        /* \"contracts/Favors.sol\":4460:4466  roller */\n      dup7\n        /* \"contracts/Favors.sol\":4450:4467  s_results[roller] */\n      0xffffffffffffffffffffffffffffffffffffffff\n      and\n      0xffffffffffffffffffffffffffffffffffffffff\n      and\n      dup2\n      mstore\n      0x20\n      add\n      swap1\n      dup2\n      mstore\n      0x20\n      add\n      0x00\n      keccak256\n      sload\n        /* \"contracts/Favors.sol\":4450:4472  s_results[roller] == 0 */\n      eq\n        /* \"contracts/Favors.sol\":4442:4491  require(s_results[roller] == 0, 'Already rolled') */\n      tag_84\n      jumpi\n      mload(0x40)\n      0x08c379a000000000000000000000000000000000000000000000000000000000\n      dup2\n      mstore\n      0x04\n      add\n      tag_85\n      swap1\n      tag_86\n      jump\t// in\n    tag_85:\n      mload(0x40)\n      dup1\n      swap2\n      sub\n      swap1\n      revert\n    tag_84:\n        /* \"contracts/Favors.sol\":4593:4604  COORDINATOR */\n      0x00\n      dup1\n      sload\n      swap1\n      0x0100\n      exp\n      swap1\n      div\n      0xffffffffffffffffffffffffffffffffffffffff\n      and\n        /* \"contracts/Favors.sol\":4593:4623  COORDINATOR.requestRandomWords */\n      0xffffffffffffffffffffffffffffffffffffffff\n      and\n      0x5d3b1d30\n        /* \"contracts/Favors.sol\":4646:4655  s_keyHash */\n      sload(0x02)\n        /* \"contracts/Favors.sol\":4678:4694  s_subscriptionId */\n      0x00\n      0x14\n      swap1\n      sload\n      swap1\n      0x0100\n      exp\n      swap1\n      div\n      0xffffffffffffffff\n      and\n        /* \"contracts/Favors.sol\":4717:4737  requestConfirmations */\n      0x03\n      0x04\n      swap1\n      sload\n      swap1\n      0x0100\n      exp\n      swap1\n      div\n      0xffff\n      and\n        /* \"contracts/Favors.sol\":4760:4776  callbackGasLimit */\n      0x03\n      0x00\n      swap1\n      sload\n      swap1\n      0x0100\n      exp\n      swap1\n      div\n      0xffffffff\n      and\n        /* \"contracts/Favors.sol\":4799:4807  numWords */\n      0x03\n      0x06\n      swap1\n      sload\n      swap1\n      0x0100\n      exp\n      swap1\n      div\n      0xffffffff\n      and\n        /* \"contracts/Favors.sol\":4593:4826  COORDINATOR.requestRandomWords(\r... */\n      mload(0x40)\n      dup7\n      0xffffffff\n      and\n      0xe0\n      shl\n      dup2\n      mstore\n      0x04\n      add\n      tag_87\n      swap6\n      swap5\n      swap4\n      swap3\n      swap2\n      swap1\n      tag_88\n      jump\t// in\n    tag_87:\n      0x20\n      mload(0x40)\n      dup1\n      dup4\n      sub\n      dup2\n      0x00\n      dup8\n      dup1\n      extcodesize\n      iszero\n      dup1\n      iszero\n      tag_89\n      jumpi\n      0x00\n      dup1\n      revert\n    tag_89:\n      pop\n      gas\n      call\n      iszero\n      dup1\n      iszero\n      tag_91\n      jumpi\n      returndatasize\n      0x00\n      dup1\n      returndatacopy\n      revert(0x00, returndatasize)\n    tag_91:\n      pop\n      pop\n      pop\n      pop\n      mload(0x40)\n      returndatasize\n      not(0x1f)\n      0x1f\n      dup3\n      add\n      and\n      dup3\n      add\n      dup1\n      0x40\n      mstore\n      pop\n      dup2\n      add\n      swap1\n      tag_92\n      swap2\n      swap1\n      tag_93\n      jump\t// in\n    tag_92:\n        /* \"contracts/Favors.sol\":4581:4826  requestId = COORDINATOR.requestRandomWords(\r... */\n      swap3\n      pop\n        /* \"contracts/Favors.sol\":4868:4874  roller */\n      dup4\n        /* \"contracts/Favors.sol\":4845:4854  s_rollers */\n      0x05\n        /* \"contracts/Favors.sol\":4845:4865  s_rollers[requestId] */\n      0x00\n        /* \"contracts/Favors.sol\":4855:4864  requestId */\n      dup6\n        /* \"contracts/Favors.sol\":4845:4865  s_rollers[requestId] */\n      dup2\n      mstore\n      0x20\n      add\n      swap1\n      dup2\n      mstore\n      0x20\n      add\n      0x00\n      keccak256\n      0x00\n        /* \"contracts/Favors.sol\":4845:4874  s_rollers[requestId] = roller */\n      0x0100\n      exp\n      dup2\n      sload\n      dup2\n      0xffffffffffffffffffffffffffffffffffffffff\n      mul\n      not\n      and\n      swap1\n      dup4\n      0xffffffffffffffffffffffffffffffffffffffff\n      and\n      mul\n      or\n      swap1\n      sstore\n      pop\n        /* \"contracts/Favors.sol\":790:792  42 */\n      0x2a\n        /* \"contracts/Favors.sol\":4893:4902  s_results */\n      0x06\n        /* \"contracts/Favors.sol\":4893:4910  s_results[roller] */\n      0x00\n        /* \"contracts/Favors.sol\":4903:4909  roller */\n      dup7\n        /* \"contracts/Favors.sol\":4893:4910  s_results[roller] */\n      0xffffffffffffffffffffffffffffffffffffffff\n      and\n      0xffffffffffffffffffffffffffffffffffffffff\n      and\n      dup2\n      mstore\n      0x20\n      add\n      swap1\n      dup2\n      mstore\n      0x20\n      add\n      0x00\n      keccak256\n        /* \"contracts/Favors.sol\":4893:4929  s_results[roller] = ROLL_IN_PROGRESS */\n      dup2\n      swap1\n      sstore\n      pop\n        /* \"contracts/Favors.sol\":4975:4981  roller */\n      dup4\n        /* \"contracts/Favors.sol\":4953:4982  DiceRolled(requestId, roller) */\n      0xffffffffffffffffffffffffffffffffffffffff\n      and\n        /* \"contracts/Favors.sol\":4964:4973  requestId */\n      dup4\n        /* \"contracts/Favors.sol\":4953:4982  DiceRolled(requestId, roller) */\n      0x3e7fdeab84c01ce5308321caa0b460e1c4ec3c7099223d79634d9a71d99932e3\n      mload(0x40)\n      mload(0x40)\n      dup1\n      swap2\n      sub\n      swap1\n      log3\n        /* \"contracts/Favors.sol\":4181:4184  i++ */\n      dup1\n      dup1\n      tag_94\n      swap1\n      tag_95\n      jump\t// in\n    tag_94:\n      swap2\n      pop\n      pop\n        /* \"contracts/Favors.sol\":4148:5009  for (uint256 i = 0; i < players; i++) {\r... */\n      jump(tag_75)\n    tag_76:\n      pop\n        /* \"contracts/Favors.sol\":4029:5016  {\r... */\n      pop\n        /* \"contracts/Favors.sol\":3946:5016  function createPlayer(address roller) public onlyOwner returns (uint256 requestId) {\r... */\n      swap2\n      swap1\n      pop\n      jump\t// out\n        /* \"contracts/Favors.sol\":5854:6112  function fulfillRandomWords(uint256 requestId, uint256[] memory randomWords) internal override {\r... */\n    tag_51:\n        /* \"contracts/Favors.sol\":5960:5976  uint256 d20Value */\n      0x00\n        /* \"contracts/Favors.sol\":6003:6004  1 */\n      0x01\n        /* \"contracts/Favors.sol\":5997:5999  20 */\n      0x14\n        /* \"contracts/Favors.sol\":5980:5991  randomWords */\n      dup4\n        /* \"contracts/Favors.sol\":5992:5993  0 */\n      0x00\n        /* \"contracts/Favors.sol\":5980:5994  randomWords[0] */\n      dup2\n      mload\n      dup2\n      lt\n      tag_97\n      jumpi\n      tag_98\n      tag_58\n      jump\t// in\n    tag_98:\n    tag_97:\n      0x20\n      mul\n      0x20\n      add\n      add\n      mload\n        /* \"contracts/Favors.sol\":5980:5999  randomWords[0] % 20 */\n      tag_99\n      swap2\n      swap1\n      tag_100\n      jump\t// in\n    tag_99:\n        /* \"contracts/Favors.sol\":5979:6004  (randomWords[0] % 20) + 1 */\n      tag_101\n      swap2\n      swap1\n      tag_102\n      jump\t// in\n    tag_101:\n        /* \"contracts/Favors.sol\":5960:6004  uint256 d20Value = (randomWords[0] % 20) + 1 */\n      swap1\n      pop\n        /* \"contracts/Favors.sol\":6049:6057  d20Value */\n      dup1\n        /* \"contracts/Favors.sol\":6015:6024  s_results */\n      0x06\n        /* \"contracts/Favors.sol\":6015:6046  s_results[s_rollers[requestId]] */\n      0x00\n        /* \"contracts/Favors.sol\":6025:6034  s_rollers */\n      0x05\n        /* \"contracts/Favors.sol\":6025:6045  s_rollers[requestId] */\n      0x00\n        /* \"contracts/Favors.sol\":6035:6044  requestId */\n      dup8\n        /* \"contracts/Favors.sol\":6025:6045  s_rollers[requestId] */\n      dup2\n      mstore\n      0x20\n      add\n      swap1\n      dup2\n      mstore\n      0x20\n      add\n      0x00\n      keccak256\n      0x00\n      swap1\n      sload\n      swap1\n      0x0100\n      exp\n      swap1\n      div\n      0xffffffffffffffffffffffffffffffffffffffff\n      and\n        /* \"contracts/Favors.sol\":6015:6046  s_results[s_rollers[requestId]] */\n      0xffffffffffffffffffffffffffffffffffffffff\n      and\n      0xffffffffffffffffffffffffffffffffffffffff\n      and\n      dup2\n      mstore\n      0x20\n      add\n      swap1\n      dup2\n      mstore\n      0x20\n      add\n      0x00\n      keccak256\n        /* \"contracts/Favors.sol\":6015:6057  s_results[s_rollers[requestId]] = d20Value */\n      dup2\n      swap1\n      sstore\n      pop\n        /* \"contracts/Favors.sol\":6095:6103  d20Value */\n      dup1\n        /* \"contracts/Favors.sol\":6084:6093  requestId */\n      dup4\n        /* \"contracts/Favors.sol\":6073:6104  DiceLanded(requestId, d20Value) */\n      0x54d97c1f7e5abad75bd421455cd4dd296852a52e1ea721f2cdb66d06fa2082a9\n      mload(0x40)\n      mload(0x40)\n      dup1\n      swap2\n      sub\n      swap1\n      log3\n        /* \"contracts/Favors.sol\":5949:6112  {\r... */\n      pop\n        /* \"contracts/Favors.sol\":5854:6112  function fulfillRandomWords(uint256 requestId, uint256[] memory randomWords) internal override {\r... */\n      pop\n      pop\n      jump\t// out\n        /* \"#utility.yul\":24:746   */\n    tag_104:\n        /* \"#utility.yul\":120:125   */\n      0x00\n        /* \"#utility.yul\":145:226   */\n      tag_106\n        /* \"#utility.yul\":161:225   */\n      tag_107\n        /* \"#utility.yul\":218:224   */\n      dup5\n        /* \"#utility.yul\":161:225   */\n      tag_108\n      jump\t// in\n    tag_107:\n        /* \"#utility.yul\":145:226   */\n      tag_109\n      jump\t// in\n    tag_106:\n        /* \"#utility.yul\":136:226   */\n      swap1\n      pop\n        /* \"#utility.yul\":246:251   */\n      dup1\n        /* \"#utility.yul\":275:281   */\n      dup4\n        /* \"#utility.yul\":268:273   */\n      dup3\n        /* \"#utility.yul\":261:282   */\n      mstore\n        /* \"#utility.yul\":309:313   */\n      0x20\n        /* \"#utility.yul\":302:307   */\n      dup3\n        /* \"#utility.yul\":298:314   */\n      add\n        /* \"#utility.yul\":291:314   */\n      swap1\n      pop\n        /* \"#utility.yul\":335:341   */\n      dup3\n        /* \"#utility.yul\":385:388   */\n      dup6\n        /* \"#utility.yul\":377:381   */\n      0x20\n        /* \"#utility.yul\":369:375   */\n      dup7\n        /* \"#utility.yul\":365:382   */\n      mul\n        /* \"#utility.yul\":360:363   */\n      dup3\n        /* \"#utility.yul\":356:383   */\n      add\n        /* \"#utility.yul\":353:389   */\n      gt\n        /* \"#utility.yul\":350:493   */\n      iszero\n      tag_110\n      jumpi\n        /* \"#utility.yul\":404:483   */\n      tag_111\n      tag_112\n      jump\t// in\n    tag_111:\n        /* \"#utility.yul\":350:493   */\n    tag_110:\n        /* \"#utility.yul\":517:518   */\n      0x00\n        /* \"#utility.yul\":502:740   */\n    tag_113:\n        /* \"#utility.yul\":527:533   */\n      dup6\n        /* \"#utility.yul\":524:525   */\n      dup2\n        /* \"#utility.yul\":521:534   */\n      lt\n        /* \"#utility.yul\":502:740   */\n      iszero\n      tag_115\n      jumpi\n        /* \"#utility.yul\":595:598   */\n      dup2\n        /* \"#utility.yul\":624:661   */\n      tag_116\n        /* \"#utility.yul\":657:660   */\n      dup9\n        /* \"#utility.yul\":645:655   */\n      dup3\n        /* \"#utility.yul\":624:661   */\n      tag_117\n      jump\t// in\n    tag_116:\n        /* \"#utility.yul\":619:622   */\n      dup5\n        /* \"#utility.yul\":612:662   */\n      mstore\n        /* \"#utility.yul\":691:695   */\n      0x20\n        /* \"#utility.yul\":686:689   */\n      dup5\n        /* \"#utility.yul\":682:696   */\n      add\n        /* \"#utility.yul\":675:696   */\n      swap4\n      pop\n        /* \"#utility.yul\":725:729   */\n      0x20\n        /* \"#utility.yul\":720:723   */\n      dup4\n        /* \"#utility.yul\":716:730   */\n      add\n        /* \"#utility.yul\":709:730   */\n      swap3\n      pop\n        /* \"#utility.yul\":562:740   */\n      pop\n        /* \"#utility.yul\":549:550   */\n      0x01\n        /* \"#utility.yul\":546:547   */\n      dup2\n        /* \"#utility.yul\":542:551   */\n      add\n        /* \"#utility.yul\":537:551   */\n      swap1\n      pop\n        /* \"#utility.yul\":502:740   */\n      jump(tag_113)\n    tag_115:\n        /* \"#utility.yul\":506:520   */\n      pop\n        /* \"#utility.yul\":126:746   */\n      pop\n      pop\n        /* \"#utility.yul\":24:746   */\n      swap4\n      swap3\n      pop\n      pop\n      pop\n      jump\t// out\n        /* \"#utility.yul\":752:891   */\n    tag_118:\n        /* \"#utility.yul\":798:803   */\n      0x00\n        /* \"#utility.yul\":836:842   */\n      dup2\n        /* \"#utility.yul\":823:843   */\n      calldataload\n        /* \"#utility.yul\":814:843   */\n      swap1\n      pop\n        /* \"#utility.yul\":852:885   */\n      tag_120\n        /* \"#utility.yul\":879:884   */\n      dup2\n        /* \"#utility.yul\":852:885   */\n      tag_121\n      jump\t// in\n    tag_120:\n        /* \"#utility.yul\":752:891   */\n      swap3\n      swap2\n      pop\n      pop\n      jump\t// out\n        /* \"#utility.yul\":914:1284   */\n    tag_122:\n        /* \"#utility.yul\":985:990   */\n      0x00\n        /* \"#utility.yul\":1034:1037   */\n      dup3\n        /* \"#utility.yul\":1027:1031   */\n      0x1f\n        /* \"#utility.yul\":1019:1025   */\n      dup4\n        /* \"#utility.yul\":1015:1032   */\n      add\n        /* \"#utility.yul\":1011:1038   */\n      slt\n        /* \"#utility.yul\":1001:1123   */\n      tag_124\n      jumpi\n        /* \"#utility.yul\":1042:1121   */\n      tag_125\n      tag_126\n      jump\t// in\n    tag_125:\n        /* \"#utility.yul\":1001:1123   */\n    tag_124:\n        /* \"#utility.yul\":1159:1165   */\n      dup2\n        /* \"#utility.yul\":1146:1166   */\n      calldataload\n        /* \"#utility.yul\":1184:1278   */\n      tag_127\n        /* \"#utility.yul\":1274:1277   */\n      dup5\n        /* \"#utility.yul\":1266:1272   */\n      dup3\n        /* \"#utility.yul\":1259:1263   */\n      0x20\n        /* \"#utility.yul\":1251:1257   */\n      dup7\n        /* \"#utility.yul\":1247:1264   */\n      add\n        /* \"#utility.yul\":1184:1278   */\n      tag_104\n      jump\t// in\n    tag_127:\n        /* \"#utility.yul\":1175:1278   */\n      swap2\n      pop\n        /* \"#utility.yul\":991:1284   */\n      pop\n        /* \"#utility.yul\":914:1284   */\n      swap3\n      swap2\n      pop\n      pop\n      jump\t// out\n        /* \"#utility.yul\":1290:1429   */\n    tag_117:\n        /* \"#utility.yul\":1336:1341   */\n      0x00\n        /* \"#utility.yul\":1374:1380   */\n      dup2\n        /* \"#utility.yul\":1361:1381   */\n      calldataload\n        /* \"#utility.yul\":1352:1381   */\n      swap1\n      pop\n        /* \"#utility.yul\":1390:1423   */\n      tag_129\n        /* \"#utility.yul\":1417:1422   */\n      dup2\n        /* \"#utility.yul\":1390:1423   */\n      tag_130\n      jump\t// in\n    tag_129:\n        /* \"#utility.yul\":1290:1429   */\n      swap3\n      swap2\n      pop\n      pop\n      jump\t// out\n        /* \"#utility.yul\":1435:1578   */\n    tag_131:\n        /* \"#utility.yul\":1492:1497   */\n      0x00\n        /* \"#utility.yul\":1523:1529   */\n      dup2\n        /* \"#utility.yul\":1517:1530   */\n      mload\n        /* \"#utility.yul\":1508:1530   */\n      swap1\n      pop\n        /* \"#utility.yul\":1539:1572   */\n      tag_133\n        /* \"#utility.yul\":1566:1571   */\n      dup2\n        /* \"#utility.yul\":1539:1572   */\n      tag_130\n      jump\t// in\n    tag_133:\n        /* \"#utility.yul\":1435:1578   */\n      swap3\n      swap2\n      pop\n      pop\n      jump\t// out\n        /* \"#utility.yul\":1584:1913   */\n    tag_32:\n        /* \"#utility.yul\":1643:1649   */\n      0x00\n        /* \"#utility.yul\":1692:1694   */\n      0x20\n        /* \"#utility.yul\":1680:1689   */\n      dup3\n        /* \"#utility.yul\":1671:1678   */\n      dup5\n        /* \"#utility.yul\":1667:1690   */\n      sub\n        /* \"#utility.yul\":1663:1695   */\n      slt\n        /* \"#utility.yul\":1660:1779   */\n      iszero\n      tag_135\n      jumpi\n        /* \"#utility.yul\":1698:1777   */\n      tag_136\n      tag_137\n      jump\t// in\n    tag_136:\n        /* \"#utility.yul\":1660:1779   */\n    tag_135:\n        /* \"#utility.yul\":1818:1819   */\n      0x00\n        /* \"#utility.yul\":1843:1896   */\n      tag_138\n        /* \"#utility.yul\":1888:1895   */\n      dup5\n        /* \"#utility.yul\":1879:1885   */\n      dup3\n        /* \"#utility.yul\":1868:1877   */\n      dup6\n        /* \"#utility.yul\":1864:1886   */\n      add\n        /* \"#utility.yul\":1843:1896   */\n      tag_118\n      jump\t// in\n    tag_138:\n        /* \"#utility.yul\":1833:1896   */\n      swap2\n      pop\n        /* \"#utility.yul\":1789:1906   */\n      pop\n        /* \"#utility.yul\":1584:1913   */\n      swap3\n      swap2\n      pop\n      pop\n      jump\t// out\n        /* \"#utility.yul\":1919:2248   */\n    tag_13:\n        /* \"#utility.yul\":1978:1984   */\n      0x00\n        /* \"#utility.yul\":2027:2029   */\n      0x20\n        /* \"#utility.yul\":2015:2024   */\n      dup3\n        /* \"#utility.yul\":2006:2013   */\n      dup5\n        /* \"#utility.yul\":2002:2025   */\n      sub\n        /* \"#utility.yul\":1998:2030   */\n      slt\n        /* \"#utility.yul\":1995:2114   */\n      iszero\n      tag_140\n      jumpi\n        /* \"#utility.yul\":2033:2112   */\n      tag_141\n      tag_137\n      jump\t// in\n    tag_141:\n        /* \"#utility.yul\":1995:2114   */\n    tag_140:\n        /* \"#utility.yul\":2153:2154   */\n      0x00\n        /* \"#utility.yul\":2178:2231   */\n      tag_142\n        /* \"#utility.yul\":2223:2230   */\n      dup5\n        /* \"#utility.yul\":2214:2220   */\n      dup3\n        /* \"#utility.yul\":2203:2212   */\n      dup6\n        /* \"#utility.yul\":2199:2221   */\n      add\n        /* \"#utility.yul\":2178:2231   */\n      tag_117\n      jump\t// in\n    tag_142:\n        /* \"#utility.yul\":2168:2231   */\n      swap2\n      pop\n        /* \"#utility.yul\":2124:2241   */\n      pop\n        /* \"#utility.yul\":1919:2248   */\n      swap3\n      swap2\n      pop\n      pop\n      jump\t// out\n        /* \"#utility.yul\":2254:2605   */\n    tag_93:\n        /* \"#utility.yul\":2324:2330   */\n      0x00\n        /* \"#utility.yul\":2373:2375   */\n      0x20\n        /* \"#utility.yul\":2361:2370   */\n      dup3\n        /* \"#utility.yul\":2352:2359   */\n      dup5\n        /* \"#utility.yul\":2348:2371   */\n      sub\n        /* \"#utility.yul\":2344:2376   */\n      slt\n        /* \"#utility.yul\":2341:2460   */\n      iszero\n      tag_144\n      jumpi\n        /* \"#utility.yul\":2379:2458   */\n      tag_145\n      tag_137\n      jump\t// in\n    tag_145:\n        /* \"#utility.yul\":2341:2460   */\n    tag_144:\n        /* \"#utility.yul\":2499:2500   */\n      0x00\n        /* \"#utility.yul\":2524:2588   */\n      tag_146\n        /* \"#utility.yul\":2580:2587   */\n      dup5\n        /* \"#utility.yul\":2571:2577   */\n      dup3\n        /* \"#utility.yul\":2560:2569   */\n      dup6\n        /* \"#utility.yul\":2556:2578   */\n      add\n        /* \"#utility.yul\":2524:2588   */\n      tag_131\n      jump\t// in\n    tag_146:\n        /* \"#utility.yul\":2514:2588   */\n      swap2\n      pop\n        /* \"#utility.yul\":2470:2598   */\n      pop\n        /* \"#utility.yul\":2254:2605   */\n      swap3\n      swap2\n      pop\n      pop\n      jump\t// out\n        /* \"#utility.yul\":2611:3295   */\n    tag_19:\n        /* \"#utility.yul\":2704:2710   */\n      0x00\n        /* \"#utility.yul\":2712:2718   */\n      dup1\n        /* \"#utility.yul\":2761:2763   */\n      0x40\n        /* \"#utility.yul\":2749:2758   */\n      dup4\n        /* \"#utility.yul\":2740:2747   */\n      dup6\n        /* \"#utility.yul\":2736:2759   */\n      sub\n        /* \"#utility.yul\":2732:2764   */\n      slt\n        /* \"#utility.yul\":2729:2848   */\n      iszero\n      tag_148\n      jumpi\n        /* \"#utility.yul\":2767:2846   */\n      tag_149\n      tag_137\n      jump\t// in\n    tag_149:\n        /* \"#utility.yul\":2729:2848   */\n    tag_148:\n        /* \"#utility.yul\":2887:2888   */\n      0x00\n        /* \"#utility.yul\":2912:2965   */\n      tag_150\n        /* \"#utility.yul\":2957:2964   */\n      dup6\n        /* \"#utility.yul\":2948:2954   */\n      dup3\n        /* \"#utility.yul\":2937:2946   */\n      dup7\n        /* \"#utility.yul\":2933:2955   */\n      add\n        /* \"#utility.yul\":2912:2965   */\n      tag_117\n      jump\t// in\n    tag_150:\n        /* \"#utility.yul\":2902:2965   */\n      swap3\n      pop\n        /* \"#utility.yul\":2858:2975   */\n      pop\n        /* \"#utility.yul\":3042:3044   */\n      0x20\n        /* \"#utility.yul\":3031:3040   */\n      dup4\n        /* \"#utility.yul\":3027:3045   */\n      add\n        /* \"#utility.yul\":3014:3046   */\n      calldataload\n        /* \"#utility.yul\":3073:3091   */\n      0xffffffffffffffff\n        /* \"#utility.yul\":3065:3071   */\n      dup2\n        /* \"#utility.yul\":3062:3092   */\n      gt\n        /* \"#utility.yul\":3059:3176   */\n      iszero\n      tag_151\n      jumpi\n        /* \"#utility.yul\":3095:3174   */\n      tag_152\n      tag_153\n      jump\t// in\n    tag_152:\n        /* \"#utility.yul\":3059:3176   */\n    tag_151:\n        /* \"#utility.yul\":3200:3278   */\n      tag_154\n        /* \"#utility.yul\":3270:3277   */\n      dup6\n        /* \"#utility.yul\":3261:3267   */\n      dup3\n        /* \"#utility.yul\":3250:3259   */\n      dup7\n        /* \"#utility.yul\":3246:3268   */\n      add\n        /* \"#utility.yul\":3200:3278   */\n      tag_122\n      jump\t// in\n    tag_154:\n        /* \"#utility.yul\":3190:3278   */\n      swap2\n      pop\n        /* \"#utility.yul\":2985:3288   */\n      pop\n        /* \"#utility.yul\":2611:3295   */\n      swap3\n      pop\n      swap3\n      swap1\n      pop\n      jump\t// out\n        /* \"#utility.yul\":3301:3480   */\n    tag_155:\n        /* \"#utility.yul\":3370:3380   */\n      0x00\n        /* \"#utility.yul\":3391:3437   */\n      tag_157\n        /* \"#utility.yul\":3433:3436   */\n      dup4\n        /* \"#utility.yul\":3425:3431   */\n      dup4\n        /* \"#utility.yul\":3391:3437   */\n      tag_158\n      jump\t// in\n    tag_157:\n        /* \"#utility.yul\":3469:3473   */\n      0x20\n        /* \"#utility.yul\":3464:3467   */\n      dup4\n        /* \"#utility.yul\":3460:3474   */\n      add\n        /* \"#utility.yul\":3446:3474   */\n      swap1\n      pop\n        /* \"#utility.yul\":3301:3480   */\n      swap3\n      swap2\n      pop\n      pop\n      jump\t// out\n        /* \"#utility.yul\":3486:3594   */\n    tag_158:\n        /* \"#utility.yul\":3563:3587   */\n      tag_160\n        /* \"#utility.yul\":3581:3586   */\n      dup2\n        /* \"#utility.yul\":3563:3587   */\n      tag_161\n      jump\t// in\n    tag_160:\n        /* \"#utility.yul\":3558:3561   */\n      dup3\n        /* \"#utility.yul\":3551:3588   */\n      mstore\n        /* \"#utility.yul\":3486:3594   */\n      pop\n      pop\n      jump\t// out\n        /* \"#utility.yul\":3600:3718   */\n    tag_162:\n        /* \"#utility.yul\":3687:3711   */\n      tag_164\n        /* \"#utility.yul\":3705:3710   */\n      dup2\n        /* \"#utility.yul\":3687:3711   */\n      tag_161\n      jump\t// in\n    tag_164:\n        /* \"#utility.yul\":3682:3685   */\n      dup3\n        /* \"#utility.yul\":3675:3712   */\n      mstore\n        /* \"#utility.yul\":3600:3718   */\n      pop\n      pop\n      jump\t// out\n        /* \"#utility.yul\":3754:4486   */\n    tag_165:\n        /* \"#utility.yul\":3873:3876   */\n      0x00\n        /* \"#utility.yul\":3902:3956   */\n      tag_167\n        /* \"#utility.yul\":3950:3955   */\n      dup3\n        /* \"#utility.yul\":3902:3956   */\n      tag_168\n      jump\t// in\n    tag_167:\n        /* \"#utility.yul\":3972:4058   */\n      tag_169\n        /* \"#utility.yul\":4051:4057   */\n      dup2\n        /* \"#utility.yul\":4046:4049   */\n      dup6\n        /* \"#utility.yul\":3972:4058   */\n      tag_170\n      jump\t// in\n    tag_169:\n        /* \"#utility.yul\":3965:4058   */\n      swap4\n      pop\n        /* \"#utility.yul\":4082:4138   */\n      tag_171\n        /* \"#utility.yul\":4132:4137   */\n      dup4\n        /* \"#utility.yul\":4082:4138   */\n      tag_172\n      jump\t// in\n    tag_171:\n        /* \"#utility.yul\":4161:4168   */\n      dup1\n        /* \"#utility.yul\":4192:4193   */\n      0x00\n        /* \"#utility.yul\":4177:4461   */\n    tag_173:\n        /* \"#utility.yul\":4202:4208   */\n      dup4\n        /* \"#utility.yul\":4199:4200   */\n      dup2\n        /* \"#utility.yul\":4196:4209   */\n      lt\n        /* \"#utility.yul\":4177:4461   */\n      iszero\n      tag_175\n      jumpi\n        /* \"#utility.yul\":4278:4284   */\n      dup2\n        /* \"#utility.yul\":4272:4285   */\n      mload\n        /* \"#utility.yul\":4305:4368   */\n      tag_176\n        /* \"#utility.yul\":4364:4367   */\n      dup9\n        /* \"#utility.yul\":4349:4362   */\n      dup3\n        /* \"#utility.yul\":4305:4368   */\n      tag_155\n      jump\t// in\n    tag_176:\n        /* \"#utility.yul\":4298:4368   */\n      swap8\n      pop\n        /* \"#utility.yul\":4391:4451   */\n      tag_177\n        /* \"#utility.yul\":4444:4450   */\n      dup4\n        /* \"#utility.yul\":4391:4451   */\n      tag_178\n      jump\t// in\n    tag_177:\n        /* \"#utility.yul\":4381:4451   */\n      swap3\n      pop\n        /* \"#utility.yul\":4237:4461   */\n      pop\n        /* \"#utility.yul\":4224:4225   */\n      0x01\n        /* \"#utility.yul\":4221:4222   */\n      dup2\n        /* \"#utility.yul\":4217:4226   */\n      add\n        /* \"#utility.yul\":4212:4226   */\n      swap1\n      pop\n        /* \"#utility.yul\":4177:4461   */\n      jump(tag_173)\n    tag_175:\n        /* \"#utility.yul\":4181:4195   */\n      pop\n        /* \"#utility.yul\":4477:4480   */\n      dup6\n        /* \"#utility.yul\":4470:4480   */\n      swap4\n      pop\n        /* \"#utility.yul\":3878:4486   */\n      pop\n      pop\n      pop\n        /* \"#utility.yul\":3754:4486   */\n      swap3\n      swap2\n      pop\n      pop\n      jump\t// out\n        /* \"#utility.yul\":4492:4610   */\n    tag_179:\n        /* \"#utility.yul\":4579:4603   */\n      tag_181\n        /* \"#utility.yul\":4597:4602   */\n      dup2\n        /* \"#utility.yul\":4579:4603   */\n      tag_182\n      jump\t// in\n    tag_181:\n        /* \"#utility.yul\":4574:4577   */\n      dup3\n        /* \"#utility.yul\":4567:4604   */\n      mstore\n        /* \"#utility.yul\":4492:4610   */\n      pop\n      pop\n      jump\t// out\n        /* \"#utility.yul\":4616:4982   */\n    tag_183:\n        /* \"#utility.yul\":4758:4761   */\n      0x00\n        /* \"#utility.yul\":4779:4846   */\n      tag_185\n        /* \"#utility.yul\":4843:4845   */\n      0x10\n        /* \"#utility.yul\":4838:4841   */\n      dup4\n        /* \"#utility.yul\":4779:4846   */\n      tag_186\n      jump\t// in\n    tag_185:\n        /* \"#utility.yul\":4772:4846   */\n      swap2\n      pop\n        /* \"#utility.yul\":4855:4948   */\n      tag_187\n        /* \"#utility.yul\":4944:4947   */\n      dup3\n        /* \"#utility.yul\":4855:4948   */\n      tag_188\n      jump\t// in\n    tag_187:\n        /* \"#utility.yul\":4973:4975   */\n      0x20\n        /* \"#utility.yul\":4968:4971   */\n      dup3\n        /* \"#utility.yul\":4964:4976   */\n      add\n        /* \"#utility.yul\":4957:4976   */\n      swap1\n      pop\n        /* \"#utility.yul\":4616:4982   */\n      swap2\n      swap1\n      pop\n      jump\t// out\n        /* \"#utility.yul\":4988:5354   */\n    tag_189:\n        /* \"#utility.yul\":5130:5133   */\n      0x00\n        /* \"#utility.yul\":5151:5218   */\n      tag_191\n        /* \"#utility.yul\":5215:5217   */\n      0x0f\n        /* \"#utility.yul\":5210:5213   */\n      dup4\n        /* \"#utility.yul\":5151:5218   */\n      tag_186\n      jump\t// in\n    tag_191:\n        /* \"#utility.yul\":5144:5218   */\n      swap2\n      pop\n        /* \"#utility.yul\":5227:5320   */\n      tag_192\n        /* \"#utility.yul\":5316:5319   */\n      dup3\n        /* \"#utility.yul\":5227:5320   */\n      tag_193\n      jump\t// in\n    tag_192:\n        /* \"#utility.yul\":5345:5347   */\n      0x20\n        /* \"#utility.yul\":5340:5343   */\n      dup3\n        /* \"#utility.yul\":5336:5348   */\n      add\n        /* \"#utility.yul\":5329:5348   */\n      swap1\n      pop\n        /* \"#utility.yul\":4988:5354   */\n      swap2\n      swap1\n      pop\n      jump\t// out\n        /* \"#utility.yul\":5360:5726   */\n    tag_194:\n        /* \"#utility.yul\":5502:5505   */\n      0x00\n        /* \"#utility.yul\":5523:5590   */\n      tag_196\n        /* \"#utility.yul\":5587:5589   */\n      0x0e\n        /* \"#utility.yul\":5582:5585   */\n      dup4\n        /* \"#utility.yul\":5523:5590   */\n      tag_186\n      jump\t// in\n    tag_196:\n        /* \"#utility.yul\":5516:5590   */\n      swap2\n      pop\n        /* \"#utility.yul\":5599:5692   */\n      tag_197\n        /* \"#utility.yul\":5688:5691   */\n      dup3\n        /* \"#utility.yul\":5599:5692   */\n      tag_198\n      jump\t// in\n    tag_197:\n        /* \"#utility.yul\":5717:5719   */\n      0x20\n        /* \"#utility.yul\":5712:5715   */\n      dup3\n        /* \"#utility.yul\":5708:5720   */\n      add\n        /* \"#utility.yul\":5701:5720   */\n      swap1\n      pop\n        /* \"#utility.yul\":5360:5726   */\n      swap2\n      swap1\n      pop\n      jump\t// out\n        /* \"#utility.yul\":5732:5847   */\n    tag_199:\n        /* \"#utility.yul\":5817:5840   */\n      tag_201\n        /* \"#utility.yul\":5834:5839   */\n      dup2\n        /* \"#utility.yul\":5817:5840   */\n      tag_202\n      jump\t// in\n    tag_201:\n        /* \"#utility.yul\":5812:5815   */\n      dup3\n        /* \"#utility.yul\":5805:5841   */\n      mstore\n        /* \"#utility.yul\":5732:5847   */\n      pop\n      pop\n      jump\t// out\n        /* \"#utility.yul\":5853:5971   */\n    tag_203:\n        /* \"#utility.yul\":5940:5964   */\n      tag_205\n        /* \"#utility.yul\":5958:5963   */\n      dup2\n        /* \"#utility.yul\":5940:5964   */\n      tag_206\n      jump\t// in\n    tag_205:\n        /* \"#utility.yul\":5935:5938   */\n      dup3\n        /* \"#utility.yul\":5928:5965   */\n      mstore\n        /* \"#utility.yul\":5853:5971   */\n      pop\n      pop\n      jump\t// out\n        /* \"#utility.yul\":5977:6092   */\n    tag_207:\n        /* \"#utility.yul\":6062:6085   */\n      tag_209\n        /* \"#utility.yul\":6079:6084   */\n      dup2\n        /* \"#utility.yul\":6062:6085   */\n      tag_210\n      jump\t// in\n    tag_209:\n        /* \"#utility.yul\":6057:6060   */\n      dup3\n        /* \"#utility.yul\":6050:6086   */\n      mstore\n        /* \"#utility.yul\":5977:6092   */\n      pop\n      pop\n      jump\t// out\n        /* \"#utility.yul\":6098:6213   */\n    tag_211:\n        /* \"#utility.yul\":6183:6206   */\n      tag_213\n        /* \"#utility.yul\":6200:6205   */\n      dup2\n        /* \"#utility.yul\":6183:6206   */\n      tag_214\n      jump\t// in\n    tag_213:\n        /* \"#utility.yul\":6178:6181   */\n      dup3\n        /* \"#utility.yul\":6171:6207   */\n      mstore\n        /* \"#utility.yul\":6098:6213   */\n      pop\n      pop\n      jump\t// out\n        /* \"#utility.yul\":6219:6331   */\n    tag_215:\n        /* \"#utility.yul\":6302:6324   */\n      tag_217\n        /* \"#utility.yul\":6318:6323   */\n      dup2\n        /* \"#utility.yul\":6302:6324   */\n      tag_218\n      jump\t// in\n    tag_217:\n        /* \"#utility.yul\":6297:6300   */\n      dup3\n        /* \"#utility.yul\":6290:6325   */\n      mstore\n        /* \"#utility.yul\":6219:6331   */\n      pop\n      pop\n      jump\t// out\n        /* \"#utility.yul\":6337:6559   */\n    tag_16:\n        /* \"#utility.yul\":6430:6434   */\n      0x00\n        /* \"#utility.yul\":6468:6470   */\n      0x20\n        /* \"#utility.yul\":6457:6466   */\n      dup3\n        /* \"#utility.yul\":6453:6471   */\n      add\n        /* \"#utility.yul\":6445:6471   */\n      swap1\n      pop\n        /* \"#utility.yul\":6481:6552   */\n      tag_220\n        /* \"#utility.yul\":6549:6550   */\n      0x00\n        /* \"#utility.yul\":6538:6547   */\n      dup4\n        /* \"#utility.yul\":6534:6551   */\n      add\n        /* \"#utility.yul\":6525:6531   */\n      dup5\n        /* \"#utility.yul\":6481:6552   */\n      tag_162\n      jump\t// in\n    tag_220:\n        /* \"#utility.yul\":6337:6559   */\n      swap3\n      swap2\n      pop\n      pop\n      jump\t// out\n        /* \"#utility.yul\":6565:6897   */\n    tag_49:\n        /* \"#utility.yul\":6686:6690   */\n      0x00\n        /* \"#utility.yul\":6724:6726   */\n      0x40\n        /* \"#utility.yul\":6713:6722   */\n      dup3\n        /* \"#utility.yul\":6709:6727   */\n      add\n        /* \"#utility.yul\":6701:6727   */\n      swap1\n      pop\n        /* \"#utility.yul\":6737:6808   */\n      tag_222\n        /* \"#utility.yul\":6805:6806   */\n      0x00\n        /* \"#utility.yul\":6794:6803   */\n      dup4\n        /* \"#utility.yul\":6790:6807   */\n      add\n        /* \"#utility.yul\":6781:6787   */\n      dup6\n        /* \"#utility.yul\":6737:6808   */\n      tag_162\n      jump\t// in\n    tag_222:\n        /* \"#utility.yul\":6818:6890   */\n      tag_223\n        /* \"#utility.yul\":6886:6888   */\n      0x20\n        /* \"#utility.yul\":6875:6884   */\n      dup4\n        /* \"#utility.yul\":6871:6889   */\n      add\n        /* \"#utility.yul\":6862:6868   */\n      dup5\n        /* \"#utility.yul\":6818:6890   */\n      tag_162\n      jump\t// in\n    tag_223:\n        /* \"#utility.yul\":6565:6897   */\n      swap4\n      swap3\n      pop\n      pop\n      pop\n      jump\t// out\n        /* \"#utility.yul\":6903:7276   */\n    tag_39:\n        /* \"#utility.yul\":7046:7050   */\n      0x00\n        /* \"#utility.yul\":7084:7086   */\n      0x20\n        /* \"#utility.yul\":7073:7082   */\n      dup3\n        /* \"#utility.yul\":7069:7087   */\n      add\n        /* \"#utility.yul\":7061:7087   */\n      swap1\n      pop\n        /* \"#utility.yul\":7133:7142   */\n      dup2\n        /* \"#utility.yul\":7127:7131   */\n      dup2\n        /* \"#utility.yul\":7123:7143   */\n      sub\n        /* \"#utility.yul\":7119:7120   */\n      0x00\n        /* \"#utility.yul\":7108:7117   */\n      dup4\n        /* \"#utility.yul\":7104:7121   */\n      add\n        /* \"#utility.yul\":7097:7144   */\n      mstore\n        /* \"#utility.yul\":7161:7269   */\n      tag_225\n        /* \"#utility.yul\":7264:7268   */\n      dup2\n        /* \"#utility.yul\":7255:7261   */\n      dup5\n        /* \"#utility.yul\":7161:7269   */\n      tag_165\n      jump\t// in\n    tag_225:\n        /* \"#utility.yul\":7153:7269   */\n      swap1\n      pop\n        /* \"#utility.yul\":6903:7276   */\n      swap3\n      swap2\n      pop\n      pop\n      jump\t// out\n        /* \"#utility.yul\":7282:7930   */\n    tag_88:\n        /* \"#utility.yul\":7479:7483   */\n      0x00\n        /* \"#utility.yul\":7517:7520   */\n      0xa0\n        /* \"#utility.yul\":7506:7515   */\n      dup3\n        /* \"#utility.yul\":7502:7521   */\n      add\n        /* \"#utility.yul\":7494:7521   */\n      swap1\n      pop\n        /* \"#utility.yul\":7531:7602   */\n      tag_227\n        /* \"#utility.yul\":7599:7600   */\n      0x00\n        /* \"#utility.yul\":7588:7597   */\n      dup4\n        /* \"#utility.yul\":7584:7601   */\n      add\n        /* \"#utility.yul\":7575:7581   */\n      dup9\n        /* \"#utility.yul\":7531:7602   */\n      tag_179\n      jump\t// in\n    tag_227:\n        /* \"#utility.yul\":7612:7682   */\n      tag_228\n        /* \"#utility.yul\":7678:7680   */\n      0x20\n        /* \"#utility.yul\":7667:7676   */\n      dup4\n        /* \"#utility.yul\":7663:7681   */\n      add\n        /* \"#utility.yul\":7654:7660   */\n      dup8\n        /* \"#utility.yul\":7612:7682   */\n      tag_211\n      jump\t// in\n    tag_228:\n        /* \"#utility.yul\":7692:7762   */\n      tag_229\n        /* \"#utility.yul\":7758:7760   */\n      0x40\n        /* \"#utility.yul\":7747:7756   */\n      dup4\n        /* \"#utility.yul\":7743:7761   */\n      add\n        /* \"#utility.yul\":7734:7740   */\n      dup7\n        /* \"#utility.yul\":7692:7762   */\n      tag_199\n      jump\t// in\n    tag_229:\n        /* \"#utility.yul\":7772:7842   */\n      tag_230\n        /* \"#utility.yul\":7838:7840   */\n      0x60\n        /* \"#utility.yul\":7827:7836   */\n      dup4\n        /* \"#utility.yul\":7823:7841   */\n      add\n        /* \"#utility.yul\":7814:7820   */\n      dup6\n        /* \"#utility.yul\":7772:7842   */\n      tag_207\n      jump\t// in\n    tag_230:\n        /* \"#utility.yul\":7852:7923   */\n      tag_231\n        /* \"#utility.yul\":7918:7921   */\n      0x80\n        /* \"#utility.yul\":7907:7916   */\n      dup4\n        /* \"#utility.yul\":7903:7922   */\n      add\n        /* \"#utility.yul\":7894:7900   */\n      dup5\n        /* \"#utility.yul\":7852:7923   */\n      tag_207\n      jump\t// in\n    tag_231:\n        /* \"#utility.yul\":7282:7930   */\n      swap7\n      swap6\n      pop\n      pop\n      pop\n      pop\n      pop\n      pop\n      jump\t// out\n        /* \"#utility.yul\":7936:8355   */\n    tag_65:\n        /* \"#utility.yul\":8102:8106   */\n      0x00\n        /* \"#utility.yul\":8140:8142   */\n      0x20\n        /* \"#utility.yul\":8129:8138   */\n      dup3\n        /* \"#utility.yul\":8125:8143   */\n      add\n        /* \"#utility.yul\":8117:8143   */\n      swap1\n      pop\n        /* \"#utility.yul\":8189:8198   */\n      dup2\n        /* \"#utility.yul\":8183:8187   */\n      dup2\n        /* \"#utility.yul\":8179:8199   */\n      sub\n        /* \"#utility.yul\":8175:8176   */\n      0x00\n        /* \"#utility.yul\":8164:8173   */\n      dup4\n        /* \"#utility.yul\":8160:8177   */\n      add\n        /* \"#utility.yul\":8153:8200   */\n      mstore\n        /* \"#utility.yul\":8217:8348   */\n      tag_233\n        /* \"#utility.yul\":8343:8347   */\n      dup2\n        /* \"#utility.yul\":8217:8348   */\n      tag_183\n      jump\t// in\n    tag_233:\n        /* \"#utility.yul\":8209:8348   */\n      swap1\n      pop\n        /* \"#utility.yul\":7936:8355   */\n      swap2\n      swap1\n      pop\n      jump\t// out\n        /* \"#utility.yul\":8361:8780   */\n    tag_62:\n        /* \"#utility.yul\":8527:8531   */\n      0x00\n        /* \"#utility.yul\":8565:8567   */\n      0x20\n        /* \"#utility.yul\":8554:8563   */\n      dup3\n        /* \"#utility.yul\":8550:8568   */\n      add\n        /* \"#utility.yul\":8542:8568   */\n      swap1\n      pop\n        /* \"#utility.yul\":8614:8623   */\n      dup2\n        /* \"#utility.yul\":8608:8612   */\n      dup2\n        /* \"#utility.yul\":8604:8624   */\n      sub\n        /* \"#utility.yul\":8600:8601   */\n      0x00\n        /* \"#utility.yul\":8589:8598   */\n      dup4\n        /* \"#utility.yul\":8585:8602   */\n      add\n        /* \"#utility.yul\":8578:8625   */\n      mstore\n        /* \"#utility.yul\":8642:8773   */\n      tag_235\n        /* \"#utility.yul\":8768:8772   */\n      dup2\n        /* \"#utility.yul\":8642:8773   */\n      tag_189\n      jump\t// in\n    tag_235:\n        /* \"#utility.yul\":8634:8773   */\n      swap1\n      pop\n        /* \"#utility.yul\":8361:8780   */\n      swap2\n      swap1\n      pop\n      jump\t// out\n        /* \"#utility.yul\":8786:9205   */\n    tag_86:\n        /* \"#utility.yul\":8952:8956   */\n      0x00\n        /* \"#utility.yul\":8990:8992   */\n      0x20\n        /* \"#utility.yul\":8979:8988   */\n      dup3\n        /* \"#utility.yul\":8975:8993   */\n      add\n        /* \"#utility.yul\":8967:8993   */\n      swap1\n      pop\n        /* \"#utility.yul\":9039:9048   */\n      dup2\n        /* \"#utility.yul\":9033:9037   */\n      dup2\n        /* \"#utility.yul\":9029:9049   */\n      sub\n        /* \"#utility.yul\":9025:9026   */\n      0x00\n        /* \"#utility.yul\":9014:9023   */\n      dup4\n        /* \"#utility.yul\":9010:9027   */\n      add\n        /* \"#utility.yul\":9003:9050   */\n      mstore\n        /* \"#utility.yul\":9067:9198   */\n      tag_237\n        /* \"#utility.yul\":9193:9197   */\n      dup2\n        /* \"#utility.yul\":9067:9198   */\n      tag_194\n      jump\t// in\n    tag_237:\n        /* \"#utility.yul\":9059:9198   */\n      swap1\n      pop\n        /* \"#utility.yul\":8786:9205   */\n      swap2\n      swap1\n      pop\n      jump\t// out\n        /* \"#utility.yul\":9211:9433   */\n    tag_24:\n        /* \"#utility.yul\":9304:9308   */\n      0x00\n        /* \"#utility.yul\":9342:9344   */\n      0x20\n        /* \"#utility.yul\":9331:9340   */\n      dup3\n        /* \"#utility.yul\":9327:9345   */\n      add\n        /* \"#utility.yul\":9319:9345   */\n      swap1\n      pop\n        /* \"#utility.yul\":9355:9426   */\n      tag_239\n        /* \"#utility.yul\":9423:9424   */\n      0x00\n        /* \"#utility.yul\":9412:9421   */\n      dup4\n        /* \"#utility.yul\":9408:9425   */\n      add\n        /* \"#utility.yul\":9399:9405   */\n      dup5\n        /* \"#utility.yul\":9355:9426   */\n      tag_203\n      jump\t// in\n    tag_239:\n        /* \"#utility.yul\":9211:9433   */\n      swap3\n      swap2\n      pop\n      pop\n      jump\t// out\n        /* \"#utility.yul\":9439:9653   */\n    tag_29:\n        /* \"#utility.yul\":9528:9532   */\n      0x00\n        /* \"#utility.yul\":9566:9568   */\n      0x20\n        /* \"#utility.yul\":9555:9564   */\n      dup3\n        /* \"#utility.yul\":9551:9569   */\n      add\n        /* \"#utility.yul\":9543:9569   */\n      swap1\n      pop\n        /* \"#utility.yul\":9579:9646   */\n      tag_241\n        /* \"#utility.yul\":9643:9644   */\n      0x00\n        /* \"#utility.yul\":9632:9641   */\n      dup4\n        /* \"#utility.yul\":9628:9645   */\n      add\n        /* \"#utility.yul\":9619:9625   */\n      dup5\n        /* \"#utility.yul\":9579:9646   */\n      tag_215\n      jump\t// in\n    tag_241:\n        /* \"#utility.yul\":9439:9653   */\n      swap3\n      swap2\n      pop\n      pop\n      jump\t// out\n        /* \"#utility.yul\":9659:9788   */\n    tag_109:\n        /* \"#utility.yul\":9693:9699   */\n      0x00\n        /* \"#utility.yul\":9720:9740   */\n      tag_243\n      tag_244\n      jump\t// in\n    tag_243:\n        /* \"#utility.yul\":9710:9740   */\n      swap1\n      pop\n        /* \"#utility.yul\":9749:9782   */\n      tag_245\n        /* \"#utility.yul\":9777:9781   */\n      dup3\n        /* \"#utility.yul\":9769:9775   */\n      dup3\n        /* \"#utility.yul\":9749:9782   */\n      tag_246\n      jump\t// in\n    tag_245:\n        /* \"#utility.yul\":9659:9788   */\n      swap2\n      swap1\n      pop\n      jump\t// out\n        /* \"#utility.yul\":9794:9869   */\n    tag_244:\n        /* \"#utility.yul\":9827:9833   */\n      0x00\n        /* \"#utility.yul\":9860:9862   */\n      0x40\n        /* \"#utility.yul\":9854:9863   */\n      mload\n        /* \"#utility.yul\":9844:9863   */\n      swap1\n      pop\n        /* \"#utility.yul\":9794:9869   */\n      swap1\n      jump\t// out\n        /* \"#utility.yul\":9875:10186   */\n    tag_108:\n        /* \"#utility.yul\":9952:9956   */\n      0x00\n        /* \"#utility.yul\":10042:10060   */\n      0xffffffffffffffff\n        /* \"#utility.yul\":10034:10040   */\n      dup3\n        /* \"#utility.yul\":10031:10061   */\n      gt\n        /* \"#utility.yul\":10028:10084   */\n      iszero\n      tag_249\n      jumpi\n        /* \"#utility.yul\":10064:10082   */\n      tag_250\n      tag_251\n      jump\t// in\n    tag_250:\n        /* \"#utility.yul\":10028:10084   */\n    tag_249:\n        /* \"#utility.yul\":10114:10118   */\n      0x20\n        /* \"#utility.yul\":10106:10112   */\n      dup3\n        /* \"#utility.yul\":10102:10119   */\n      mul\n        /* \"#utility.yul\":10094:10119   */\n      swap1\n      pop\n        /* \"#utility.yul\":10174:10178   */\n      0x20\n        /* \"#utility.yul\":10168:10172   */\n      dup2\n        /* \"#utility.yul\":10164:10179   */\n      add\n        /* \"#utility.yul\":10156:10179   */\n      swap1\n      pop\n        /* \"#utility.yul\":9875:10186   */\n      swap2\n      swap1\n      pop\n      jump\t// out\n        /* \"#utility.yul\":10192:10324   */\n    tag_172:\n        /* \"#utility.yul\":10259:10263   */\n      0x00\n        /* \"#utility.yul\":10282:10285   */\n      dup2\n        /* \"#utility.yul\":10274:10285   */\n      swap1\n      pop\n        /* \"#utility.yul\":10312:10316   */\n      0x20\n        /* \"#utility.yul\":10307:10310   */\n      dup3\n        /* \"#utility.yul\":10303:10317   */\n      add\n        /* \"#utility.yul\":10295:10317   */\n      swap1\n      pop\n        /* \"#utility.yul\":10192:10324   */\n      swap2\n      swap1\n      pop\n      jump\t// out\n        /* \"#utility.yul\":10330:10444   */\n    tag_168:\n        /* \"#utility.yul\":10397:10403   */\n      0x00\n        /* \"#utility.yul\":10431:10436   */\n      dup2\n        /* \"#utility.yul\":10425:10437   */\n      mload\n        /* \"#utility.yul\":10415:10437   */\n      swap1\n      pop\n        /* \"#utility.yul\":10330:10444   */\n      swap2\n      swap1\n      pop\n      jump\t// out\n        /* \"#utility.yul\":10450:10563   */\n    tag_178:\n        /* \"#utility.yul\":10520:10524   */\n      0x00\n        /* \"#utility.yul\":10552:10556   */\n      0x20\n        /* \"#utility.yul\":10547:10550   */\n      dup3\n        /* \"#utility.yul\":10543:10557   */\n      add\n        /* \"#utility.yul\":10535:10557   */\n      swap1\n      pop\n        /* \"#utility.yul\":10450:10563   */\n      swap2\n      swap1\n      pop\n      jump\t// out\n        /* \"#utility.yul\":10569:10753   */\n    tag_170:\n        /* \"#utility.yul\":10668:10679   */\n      0x00\n        /* \"#utility.yul\":10702:10708   */\n      dup3\n        /* \"#utility.yul\":10697:10700   */\n      dup3\n        /* \"#utility.yul\":10690:10709   */\n      mstore\n        /* \"#utility.yul\":10742:10746   */\n      0x20\n        /* \"#utility.yul\":10737:10740   */\n      dup3\n        /* \"#utility.yul\":10733:10747   */\n      add\n        /* \"#utility.yul\":10718:10747   */\n      swap1\n      pop\n        /* \"#utility.yul\":10569:10753   */\n      swap3\n      swap2\n      pop\n      pop\n      jump\t// out\n        /* \"#utility.yul\":10759:10928   */\n    tag_186:\n        /* \"#utility.yul\":10843:10854   */\n      0x00\n        /* \"#utility.yul\":10877:10883   */\n      dup3\n        /* \"#utility.yul\":10872:10875   */\n      dup3\n        /* \"#utility.yul\":10865:10884   */\n      mstore\n        /* \"#utility.yul\":10917:10921   */\n      0x20\n        /* \"#utility.yul\":10912:10915   */\n      dup3\n        /* \"#utility.yul\":10908:10922   */\n      add\n        /* \"#utility.yul\":10893:10922   */\n      swap1\n      pop\n        /* \"#utility.yul\":10759:10928   */\n      swap3\n      swap2\n      pop\n      pop\n      jump\t// out\n        /* \"#utility.yul\":10934:11239   */\n    tag_102:\n        /* \"#utility.yul\":10974:10977   */\n      0x00\n        /* \"#utility.yul\":10993:11013   */\n      tag_258\n        /* \"#utility.yul\":11011:11012   */\n      dup3\n        /* \"#utility.yul\":10993:11013   */\n      tag_206\n      jump\t// in\n    tag_258:\n        /* \"#utility.yul\":10988:11013   */\n      swap2\n      pop\n        /* \"#utility.yul\":11027:11047   */\n      tag_259\n        /* \"#utility.yul\":11045:11046   */\n      dup4\n        /* \"#utility.yul\":11027:11047   */\n      tag_206\n      jump\t// in\n    tag_259:\n        /* \"#utility.yul\":11022:11047   */\n      swap3\n      pop\n        /* \"#utility.yul\":11181:11182   */\n      dup3\n        /* \"#utility.yul\":11113:11179   */\n      0xffffffffffffffffffffffffffffffffffffffffffffffffffffffffffffffff\n        /* \"#utility.yul\":11109:11183   */\n      sub\n        /* \"#utility.yul\":11106:11107   */\n      dup3\n        /* \"#utility.yul\":11103:11184   */\n      gt\n        /* \"#utility.yul\":11100:11207   */\n      iszero\n      tag_260\n      jumpi\n        /* \"#utility.yul\":11187:11205   */\n      tag_261\n      tag_262\n      jump\t// in\n    tag_261:\n        /* \"#utility.yul\":11100:11207   */\n    tag_260:\n        /* \"#utility.yul\":11231:11232   */\n      dup3\n        /* \"#utility.yul\":11228:11229   */\n      dup3\n        /* \"#utility.yul\":11224:11233   */\n      add\n        /* \"#utility.yul\":11217:11233   */\n      swap1\n      pop\n        /* \"#utility.yul\":10934:11239   */\n      swap3\n      swap2\n      pop\n      pop\n      jump\t// out\n        /* \"#utility.yul\":11245:11436   */\n    tag_55:\n        /* \"#utility.yul\":11285:11289   */\n      0x00\n        /* \"#utility.yul\":11305:11325   */\n      tag_264\n        /* \"#utility.yul\":11323:11324   */\n      dup3\n        /* \"#utility.yul\":11305:11325   */\n      tag_206\n      jump\t// in\n    tag_264:\n        /* \"#utility.yul\":11300:11325   */\n      swap2\n      pop\n        /* \"#utility.yul\":11339:11359   */\n      tag_265\n        /* \"#utility.yul\":11357:11358   */\n      dup4\n        /* \"#utility.yul\":11339:11359   */\n      tag_206\n      jump\t// in\n    tag_265:\n        /* \"#utility.yul\":11334:11359   */\n      swap3\n      pop\n        /* \"#utility.yul\":11378:11379   */\n      dup3\n        /* \"#utility.yul\":11375:11376   */\n      dup3\n        /* \"#utility.yul\":11372:11380   */\n      lt\n        /* \"#utility.yul\":11369:11403   */\n      iszero\n      tag_266\n      jumpi\n        /* \"#utility.yul\":11383:11401   */\n      tag_267\n      tag_262\n      jump\t// in\n    tag_267:\n        /* \"#utility.yul\":11369:11403   */\n    tag_266:\n        /* \"#utility.yul\":11428:11429   */\n      dup3\n        /* \"#utility.yul\":11425:11426   */\n      dup3\n        /* \"#utility.yul\":11421:11430   */\n      sub\n        /* \"#utility.yul\":11413:11430   */\n      swap1\n      pop\n        /* \"#utility.yul\":11245:11436   */\n      swap3\n      swap2\n      pop\n      pop\n      jump\t// out\n        /* \"#utility.yul\":11442:11538   */\n    tag_161:\n        /* \"#utility.yul\":11479:11486   */\n      0x00\n        /* \"#utility.yul\":11508:11532   */\n      tag_269\n        /* \"#utility.yul\":11526:11531   */\n      dup3\n        /* \"#utility.yul\":11508:11532   */\n      tag_270\n      jump\t// in\n    tag_269:\n        /* \"#utility.yul\":11497:11532   */\n      swap1\n      pop\n        /* \"#utility.yul\":11442:11538   */\n      swap2\n      swap1\n      pop\n      jump\t// out\n        /* \"#utility.yul\":11544:11621   */\n    tag_182:\n        /* \"#utility.yul\":11581:11588   */\n      0x00\n        /* \"#utility.yul\":11610:11615   */\n      dup2\n        /* \"#utility.yul\":11599:11615   */\n      swap1\n      pop\n        /* \"#utility.yul\":11544:11621   */\n      swap2\n      swap1\n      pop\n      jump\t// out\n        /* \"#utility.yul\":11627:11716   */\n    tag_202:\n        /* \"#utility.yul\":11663:11670   */\n      0x00\n        /* \"#utility.yul\":11703:11709   */\n      0xffff\n        /* \"#utility.yul\":11696:11701   */\n      dup3\n        /* \"#utility.yul\":11692:11710   */\n      and\n        /* \"#utility.yul\":11681:11710   */\n      swap1\n      pop\n        /* \"#utility.yul\":11627:11716   */\n      swap2\n      swap1\n      pop\n      jump\t// out\n        /* \"#utility.yul\":11722:11848   */\n    tag_270:\n        /* \"#utility.yul\":11759:11766   */\n      0x00\n        /* \"#utility.yul\":11799:11841   */\n      0xffffffffffffffffffffffffffffffffffffffff\n        /* \"#utility.yul\":11792:11797   */\n      dup3\n        /* \"#utility.yul\":11788:11842   */\n      and\n        /* \"#utility.yul\":11777:11842   */\n      swap1\n      pop\n        /* \"#utility.yul\":11722:11848   */\n      swap2\n      swap1\n      pop\n      jump\t// out\n        /* \"#utility.yul\":11854:11931   */\n    tag_206:\n        /* \"#utility.yul\":11891:11898   */\n      0x00\n        /* \"#utility.yul\":11920:11925   */\n      dup2\n        /* \"#utility.yul\":11909:11925   */\n      swap1\n      pop\n        /* \"#utility.yul\":11854:11931   */\n      swap2\n      swap1\n      pop\n      jump\t// out\n        /* \"#utility.yul\":11937:12030   */\n    tag_210:\n        /* \"#utility.yul\":11973:11980   */\n      0x00\n        /* \"#utility.yul\":12013:12023   */\n      0xffffffff\n        /* \"#utility.yul\":12006:12011   */\n      dup3\n        /* \"#utility.yul\":12002:12024   */\n      and\n        /* \"#utility.yul\":11991:12024   */\n      swap1\n      pop\n        /* \"#utility.yul\":11937:12030   */\n      swap2\n      swap1\n      pop\n      jump\t// out\n        /* \"#utility.yul\":12036:12137   */\n    tag_214:\n        /* \"#utility.yul\":12072:12079   */\n      0x00\n        /* \"#utility.yul\":12112:12130   */\n      0xffffffffffffffff\n        /* \"#utility.yul\":12105:12110   */\n      dup3\n        /* \"#utility.yul\":12101:12131   */\n      and\n        /* \"#utility.yul\":12090:12131   */\n      swap1\n      pop\n        /* \"#utility.yul\":12036:12137   */\n      swap2\n      swap1\n      pop\n      jump\t// out\n        /* \"#utility.yul\":12143:12229   */\n    tag_218:\n        /* \"#utility.yul\":12178:12185   */\n      0x00\n        /* \"#utility.yul\":12218:12222   */\n      0xff\n        /* \"#utility.yul\":12211:12216   */\n      dup3\n        /* \"#utility.yul\":12207:12223   */\n      and\n        /* \"#utility.yul\":12196:12223   */\n      swap1\n      pop\n        /* \"#utility.yul\":12143:12229   */\n      swap2\n      swap1\n      pop\n      jump\t// out\n        /* \"#utility.yul\":12235:12516   */\n    tag_246:\n        /* \"#utility.yul\":12318:12345   */\n      tag_279\n        /* \"#utility.yul\":12340:12344   */\n      dup3\n        /* \"#utility.yul\":12318:12345   */\n      tag_280\n      jump\t// in\n    tag_279:\n        /* \"#utility.yul\":12310:12316   */\n      dup2\n        /* \"#utility.yul\":12306:12346   */\n      add\n        /* \"#utility.yul\":12448:12454   */\n      dup2\n        /* \"#utility.yul\":12436:12446   */\n      dup2\n        /* \"#utility.yul\":12433:12455   */\n      lt\n        /* \"#utility.yul\":12412:12430   */\n      0xffffffffffffffff\n        /* \"#utility.yul\":12400:12410   */\n      dup3\n        /* \"#utility.yul\":12397:12431   */\n      gt\n        /* \"#utility.yul\":12394:12456   */\n      or\n        /* \"#utility.yul\":12391:12479   */\n      iszero\n      tag_281\n      jumpi\n        /* \"#utility.yul\":12459:12477   */\n      tag_282\n      tag_251\n      jump\t// in\n    tag_282:\n        /* \"#utility.yul\":12391:12479   */\n    tag_281:\n        /* \"#utility.yul\":12499:12509   */\n      dup1\n        /* \"#utility.yul\":12495:12497   */\n      0x40\n        /* \"#utility.yul\":12488:12510   */\n      mstore\n        /* \"#utility.yul\":12278:12516   */\n      pop\n        /* \"#utility.yul\":12235:12516   */\n      pop\n      pop\n      jump\t// out\n        /* \"#utility.yul\":12522:12755   */\n    tag_95:\n        /* \"#utility.yul\":12561:12564   */\n      0x00\n        /* \"#utility.yul\":12584:12608   */\n      tag_284\n        /* \"#utility.yul\":12602:12607   */\n      dup3\n        /* \"#utility.yul\":12584:12608   */\n      tag_206\n      jump\t// in\n    tag_284:\n        /* \"#utility.yul\":12575:12608   */\n      swap2\n      pop\n        /* \"#utility.yul\":12630:12696   */\n      0xffffffffffffffffffffffffffffffffffffffffffffffffffffffffffffffff\n        /* \"#utility.yul\":12623:12628   */\n      dup3\n        /* \"#utility.yul\":12620:12697   */\n      eq\n        /* \"#utility.yul\":12617:12720   */\n      iszero\n      tag_285\n      jumpi\n        /* \"#utility.yul\":12700:12718   */\n      tag_286\n      tag_262\n      jump\t// in\n    tag_286:\n        /* \"#utility.yul\":12617:12720   */\n    tag_285:\n        /* \"#utility.yul\":12747:12748   */\n      0x01\n        /* \"#utility.yul\":12740:12745   */\n      dup3\n        /* \"#utility.yul\":12736:12749   */\n      add\n        /* \"#utility.yul\":12729:12749   */\n      swap1\n      pop\n        /* \"#utility.yul\":12522:12755   */\n      swap2\n      swap1\n      pop\n      jump\t// out\n        /* \"#utility.yul\":12761:12937   */\n    tag_100:\n        /* \"#utility.yul\":12793:12794   */\n      0x00\n        /* \"#utility.yul\":12810:12830   */\n      tag_288\n        /* \"#utility.yul\":12828:12829   */\n      dup3\n        /* \"#utility.yul\":12810:12830   */\n      tag_206\n      jump\t// in\n    tag_288:\n        /* \"#utility.yul\":12805:12830   */\n      swap2\n      pop\n        /* \"#utility.yul\":12844:12864   */\n      tag_289\n        /* \"#utility.yul\":12862:12863   */\n      dup4\n        /* \"#utility.yul\":12844:12864   */\n      tag_206\n      jump\t// in\n    tag_289:\n        /* \"#utility.yul\":12839:12864   */\n      swap3\n      pop\n        /* \"#utility.yul\":12883:12884   */\n      dup3\n        /* \"#utility.yul\":12873:12908   */\n      tag_290\n      jumpi\n        /* \"#utility.yul\":12888:12906   */\n      tag_291\n      tag_292\n      jump\t// in\n    tag_291:\n        /* \"#utility.yul\":12873:12908   */\n    tag_290:\n        /* \"#utility.yul\":12929:12930   */\n      dup3\n        /* \"#utility.yul\":12926:12927   */\n      dup3\n        /* \"#utility.yul\":12922:12931   */\n      mod\n        /* \"#utility.yul\":12917:12931   */\n      swap1\n      pop\n        /* \"#utility.yul\":12761:12937   */\n      swap3\n      swap2\n      pop\n      pop\n      jump\t// out\n        /* \"#utility.yul\":12943:13123   */\n    tag_262:\n        /* \"#utility.yul\":12991:13068   */\n      0x4e487b7100000000000000000000000000000000000000000000000000000000\n        /* \"#utility.yul\":12988:12989   */\n      0x00\n        /* \"#utility.yul\":12981:13069   */\n      mstore\n        /* \"#utility.yul\":13088:13092   */\n      0x11\n        /* \"#utility.yul\":13085:13086   */\n      0x04\n        /* \"#utility.yul\":13078:13093   */\n      mstore\n        /* \"#utility.yul\":13112:13116   */\n      0x24\n        /* \"#utility.yul\":13109:13110   */\n      0x00\n        /* \"#utility.yul\":13102:13117   */\n      revert\n        /* \"#utility.yul\":13129:13309   */\n    tag_292:\n        /* \"#utility.yul\":13177:13254   */\n      0x4e487b7100000000000000000000000000000000000000000000000000000000\n        /* \"#utility.yul\":13174:13175   */\n      0x00\n        /* \"#utility.yul\":13167:13255   */\n      mstore\n        /* \"#utility.yul\":13274:13278   */\n      0x12\n        /* \"#utility.yul\":13271:13272   */\n      0x04\n        /* \"#utility.yul\":13264:13279   */\n      mstore\n        /* \"#utility.yul\":13298:13302   */\n      0x24\n        /* \"#utility.yul\":13295:13296   */\n      0x00\n        /* \"#utility.yul\":13288:13303   */\n      revert\n        /* \"#utility.yul\":13315:13495   */\n    tag_58:\n        /* \"#utility.yul\":13363:13440   */\n      0x4e487b7100000000000000000000000000000000000000000000000000000000\n        /* \"#utility.yul\":13360:13361   */\n      0x00\n        /* \"#utility.yul\":13353:13441   */\n      mstore\n        /* \"#utility.yul\":13460:13464   */\n      0x32\n        /* \"#utility.yul\":13457:13458   */\n      0x04\n        /* \"#utility.yul\":13450:13465   */\n      mstore\n        /* \"#utility.yul\":13484:13488   */\n      0x24\n        /* \"#utility.yul\":13481:13482   */\n      0x00\n        /* \"#utility.yul\":13474:13489   */\n      revert\n        /* \"#utility.yul\":13501:13681   */\n    tag_251:\n        /* \"#utility.yul\":13549:13626   */\n      0x4e487b7100000000000000000000000000000000000000000000000000000000\n        /* \"#utility.yul\":13546:13547   */\n      0x00\n        /* \"#utility.yul\":13539:13627   */\n      mstore\n        /* \"#utility.yul\":13646:13650   */\n      0x41\n        /* \"#utility.yul\":13643:13644   */\n      0x04\n        /* \"#utility.yul\":13636:13651   */\n      mstore\n        /* \"#utility.yul\":13670:13674   */\n      0x24\n        /* \"#utility.yul\":13667:13668   */\n      0x00\n        /* \"#utility.yul\":13660:13675   */\n      revert\n        /* \"#utility.yul\":13687:13804   */\n    tag_126:\n        /* \"#utility.yul\":13796:13797   */\n      0x00\n        /* \"#utility.yul\":13793:13794   */\n      dup1\n        /* \"#utility.yul\":13786:13798   */\n      revert\n        /* \"#utility.yul\":13810:13927   */\n    tag_112:\n        /* \"#utility.yul\":13919:13920   */\n      0x00\n        /* \"#utility.yul\":13916:13917   */\n      dup1\n        /* \"#utility.yul\":13909:13921   */\n      revert\n        /* \"#utility.yul\":13933:14050   */\n    tag_153:\n        /* \"#utility.yul\":14042:14043   */\n      0x00\n        /* \"#utility.yul\":14039:14040   */\n      dup1\n        /* \"#utility.yul\":14032:14044   */\n      revert\n        /* \"#utility.yul\":14056:14173   */\n    tag_137:\n        /* \"#utility.yul\":14165:14166   */\n      0x00\n        /* \"#utility.yul\":14162:14163   */\n      dup1\n        /* \"#utility.yul\":14155:14167   */\n      revert\n        /* \"#utility.yul\":14179:14281   */\n    tag_280:\n        /* \"#utility.yul\":14220:14226   */\n      0x00\n        /* \"#utility.yul\":14271:14273   */\n      0x1f\n        /* \"#utility.yul\":14267:14274   */\n      not\n        /* \"#utility.yul\":14262:14264   */\n      0x1f\n        /* \"#utility.yul\":14255:14260   */\n      dup4\n        /* \"#utility.yul\":14251:14265   */\n      add\n        /* \"#utility.yul\":14247:14275   */\n      and\n        /* \"#utility.yul\":14237:14275   */\n      swap1\n      pop\n        /* \"#utility.yul\":14179:14281   */\n      swap2\n      swap1\n      pop\n      jump\t// out\n        /* \"#utility.yul\":14287:14453   */\n    tag_188:\n        /* \"#utility.yul\":14427:14445   */\n      0x526f6c6c20696e2070726f677265737300000000000000000000000000000000\n        /* \"#utility.yul\":14423:14424   */\n      0x00\n        /* \"#utility.yul\":14415:14421   */\n      dup3\n        /* \"#utility.yul\":14411:14425   */\n      add\n        /* \"#utility.yul\":14404:14446   */\n      mstore\n        /* \"#utility.yul\":14287:14453   */\n      pop\n      jump\t// out\n        /* \"#utility.yul\":14459:14624   */\n    tag_193:\n        /* \"#utility.yul\":14599:14616   */\n      0x44696365206e6f7420726f6c6c65640000000000000000000000000000000000\n        /* \"#utility.yul\":14595:14596   */\n      0x00\n        /* \"#utility.yul\":14587:14593   */\n      dup3\n        /* \"#utility.yul\":14583:14597   */\n      add\n        /* \"#utility.yul\":14576:14617   */\n      mstore\n        /* \"#utility.yul\":14459:14624   */\n      pop\n      jump\t// out\n        /* \"#utility.yul\":14630:14794   */\n    tag_198:\n        /* \"#utility.yul\":14770:14786   */\n      0x416c726561647920726f6c6c6564000000000000000000000000000000000000\n        /* \"#utility.yul\":14766:14767   */\n      0x00\n        /* \"#utility.yul\":14758:14764   */\n      dup3\n        /* \"#utility.yul\":14754:14768   */\n      add\n        /* \"#utility.yul\":14747:14787   */\n      mstore\n        /* \"#utility.yul\":14630:14794   */\n      pop\n      jump\t// out\n        /* \"#utility.yul\":14800:14922   */\n    tag_121:\n        /* \"#utility.yul\":14873:14897   */\n      tag_306\n        /* \"#utility.yul\":14891:14896   */\n      dup2\n        /* \"#utility.yul\":14873:14897   */\n      tag_161\n      jump\t// in\n    tag_306:\n        /* \"#utility.yul\":14866:14871   */\n      dup2\n        /* \"#utility.yul\":14863:14898   */\n      eq\n        /* \"#utility.yul\":14853:14916   */\n      tag_307\n      jumpi\n        /* \"#utility.yul\":14912:14913   */\n      0x00\n        /* \"#utility.yul\":14909:14910   */\n      dup1\n        /* \"#utility.yul\":14902:14914   */\n      revert\n        /* \"#utility.yul\":14853:14916   */\n    tag_307:\n        /* \"#utility.yul\":14800:14922   */\n      pop\n      jump\t// out\n        /* \"#utility.yul\":14928:15050   */\n    tag_130:\n        /* \"#utility.yul\":15001:15025   */\n      tag_309\n        /* \"#utility.yul\":15019:15024   */\n      dup2\n        /* \"#utility.yul\":15001:15025   */\n      tag_206\n      jump\t// in\n    tag_309:\n        /* \"#utility.yul\":14994:14999   */\n      dup2\n        /* \"#utility.yul\":14991:15026   */\n      eq\n        /* \"#utility.yul\":14981:15044   */\n      tag_310\n      jumpi\n        /* \"#utility.yul\":15040:15041   */\n      0x00\n        /* \"#utility.yul\":15037:15038   */\n      dup1\n        /* \"#utility.yul\":15030:15042   */\n      revert\n        /* \"#utility.yul\":14981:15044   */\n    tag_310:\n        /* \"#utility.yul\":14928:15050   */\n      pop\n      jump\t// out\n\n    auxdata: 0xa26469706673582212208b349647dee6a6b0907b4c01b473126474ad87d72864a82ef5f5c06b29f7a57064736f6c63430008070033\n}\n",
				"bytecode": {
					"linkReferences": {},
					"object": "60a0604052732ca8e0c643bde4c2e08ab1fa0da3401adad7734d600160006101000a81548173ffffffffffffffffffffffffffffffffffffffff021916908373ffffffffffffffffffffffffffffffffffffffff1602179055507f79d3d8832d904592c0bf9818b621522c988bb8b0c05cdc3b15aea1b6e8db0c1560001b600255619c40600360006101000a81548163ffffffff021916908363ffffffff16021790555060038060046101000a81548161ffff021916908361ffff1602179055506001600360066101000a81548163ffffffff021916908363ffffffff160217905550348015620000ef57600080fd5b50604051620015b2380380620015b283398181016040528101906200011591906200025a565b600160009054906101000a900473ffffffffffffffffffffffffffffffffffffffff168073ffffffffffffffffffffffffffffffffffffffff1660808173ffffffffffffffffffffffffffffffffffffffff1660601b8152505050600160009054906101000a900473ffffffffffffffffffffffffffffffffffffffff166000806101000a81548173ffffffffffffffffffffffffffffffffffffffff021916908373ffffffffffffffffffffffffffffffffffffffff160217905550336003600a6101000a81548173ffffffffffffffffffffffffffffffffffffffff021916908373ffffffffffffffffffffffffffffffffffffffff16021790555080600060146101000a81548167ffffffffffffffff021916908367ffffffffffffffff16021790555050620002bf565b6000815190506200025481620002a5565b92915050565b600060208284031215620002735762000272620002a0565b5b6000620002838482850162000243565b91505092915050565b600067ffffffffffffffff82169050919050565b600080fd5b620002b0816200028c565b8114620002bc57600080fd5b50565b60805160601c6112cd620002e5600039600081816101ed015261024101526112cd6000f3fe608060405234801561001057600080fd5b506004361061007d5760003560e01c80634aa66b281161005b5780634aa66b28146100ec578063646f2a161461011c578063cfb096511461014c578063e8ace5d71461017c5761007d565b806315c6aee2146100825780631fe543e3146100b2578063302bcc57146100ce575b600080fd5b61009c60048036038101906100979190610b5c565b6101ac565b6040516100a99190610d69565b60405180910390f35b6100cc60048036038101906100c79190610bb6565b6101eb565b005b6100d66102ab565b6040516100e39190610e82565b60405180910390f35b61010660048036038101906101019190610b5c565b6102b8565b6040516101139190610e9d565b60405180910390f35b61013660048036038101906101319190610b2f565b6103bb565b6040516101439190610e9d565b60405180910390f35b61016660048036038101906101619190610b2f565b610511565b6040516101739190610dad565b60405180910390f35b61019660048036038101906101919190610b2f565b610604565b6040516101a39190610e82565b60405180910390f35b600481815481106101bc57600080fd5b906000526020600020016000915054906101000a900473ffffffffffffffffffffffffffffffffffffffff1681565b7f000000000000000000000000000000000000000000000000000000000000000073ffffffffffffffffffffffffffffffffffffffff163373ffffffffffffffffffffffffffffffffffffffff161461029d57337f00000000000000000000000000000000000000000000000000000000000000006040517f1cf993f4000000000000000000000000000000000000000000000000000000008152600401610294929190610d84565b60405180910390fd5b6102a78282610970565b5050565b6000600480549050905090565b600080604051806102800160405280600160ff168152602001600260ff168152602001600360ff168152602001600460ff168152602001600560ff168152602001600660ff168152602001600760ff168152602001600860ff168152602001600960ff168152602001600a60ff168152602001600b60ff168152602001600c60ff168152602001600d60ff168152602001600e60ff168152602001600f60ff168152602001601060ff168152602001601160ff168152602001601260ff168152602001601360ff168152602001601460ff1681525090508060018461039d9190610fa9565b601481106103ae576103ad61116b565b5b6020020151915050919050565b600080600660008473ffffffffffffffffffffffffffffffffffffffff1673ffffffffffffffffffffffffffffffffffffffff16815260200190815260200160002054141561043f576040517f08c379a000000000000000000000000000000000000000000000000000000000815260040161043690610e42565b60405180910390fd5b602a600660008473ffffffffffffffffffffffffffffffffffffffff1673ffffffffffffffffffffffffffffffffffffffff1681526020019081526020016000205414156104c2576040517f08c379a00000000000000000000000000000000000000000000000000000000081526004016104b990610e22565b60405180910390fd5b61050a600660008473ffffffffffffffffffffffffffffffffffffffff1673ffffffffffffffffffffffffffffffffffffffff168152602001908152602001600020546102b8565b9050919050565b60606004829080600181540180825580915050600190039060005260206000200160009091909190916101000a81548173ffffffffffffffffffffffffffffffffffffffff021916908373ffffffffffffffffffffffffffffffffffffffff16021790555060048054806020026020016040519081016040528092919081815260200182805480156105f857602002820191906000526020600020905b8160009054906101000a900473ffffffffffffffffffffffffffffffffffffffff1673ffffffffffffffffffffffffffffffffffffffff16815260200190600101908083116105ae575b50505050509050919050565b60006003600a9054906101000a900473ffffffffffffffffffffffffffffffffffffffff1673ffffffffffffffffffffffffffffffffffffffff163373ffffffffffffffffffffffffffffffffffffffff161461066057600080fd5b600061066a6102ab565b905060005b81811015610969578373ffffffffffffffffffffffffffffffffffffffff16600482815481106106a2576106a161116b565b5b9060005260206000200160009054906101000a900473ffffffffffffffffffffffffffffffffffffffff1673ffffffffffffffffffffffffffffffffffffffff1614156106ee57610969565b6106f784610511565b506000600660008673ffffffffffffffffffffffffffffffffffffffff1673ffffffffffffffffffffffffffffffffffffffff168152602001908152602001600020541461077a576040517f08c379a000000000000000000000000000000000000000000000000000000000815260040161077190610e62565b60405180910390fd5b60008054906101000a900473ffffffffffffffffffffffffffffffffffffffff1673ffffffffffffffffffffffffffffffffffffffff16635d3b1d30600254600060149054906101000a900467ffffffffffffffff16600360049054906101000a900461ffff16600360009054906101000a900463ffffffff16600360069054906101000a900463ffffffff166040518663ffffffff1660e01b8152600401610827959493929190610dcf565b602060405180830381600087803b15801561084157600080fd5b505af1158015610855573d6000803e3d6000fd5b505050506040513d601f19601f820116820180604052508101906108799190610b89565b9250836005600085815260200190815260200160002060006101000a81548173ffffffffffffffffffffffffffffffffffffffff021916908373ffffffffffffffffffffffffffffffffffffffff160217905550602a600660008673ffffffffffffffffffffffffffffffffffffffff1673ffffffffffffffffffffffffffffffffffffffff168152602001908152602001600020819055508373ffffffffffffffffffffffffffffffffffffffff16837f3e7fdeab84c01ce5308321caa0b460e1c4ec3c7099223d79634d9a71d99932e360405160405180910390a3808061096190611093565b91505061066f565b5050919050565b6000600160148360008151811061098a5761098961116b565b5b602002602001015161099c91906110dc565b6109a69190610f53565b905080600660006005600087815260200190815260200160002060009054906101000a900473ffffffffffffffffffffffffffffffffffffffff1673ffffffffffffffffffffffffffffffffffffffff1673ffffffffffffffffffffffffffffffffffffffff1681526020019081526020016000208190555080837f54d97c1f7e5abad75bd421455cd4dd296852a52e1ea721f2cdb66d06fa2082a960405160405180910390a3505050565b6000610a65610a6084610edd565b610eb8565b90508083825260208201905082856020860282011115610a8857610a876111ce565b5b60005b85811015610ab85781610a9e8882610b05565b845260208401935060208301925050600181019050610a8b565b5050509392505050565b600081359050610ad181611269565b92915050565b600082601f830112610aec57610aeb6111c9565b5b8135610afc848260208601610a52565b91505092915050565b600081359050610b1481611280565b92915050565b600081519050610b2981611280565b92915050565b600060208284031215610b4557610b446111d8565b5b6000610b5384828501610ac2565b91505092915050565b600060208284031215610b7257610b716111d8565b5b6000610b8084828501610b05565b91505092915050565b600060208284031215610b9f57610b9e6111d8565b5b6000610bad84828501610b1a565b91505092915050565b60008060408385031215610bcd57610bcc6111d8565b5b6000610bdb85828601610b05565b925050602083013567ffffffffffffffff811115610bfc57610bfb6111d3565b5b610c0885828601610ad7565b9150509250929050565b6000610c1e8383610c2a565b60208301905092915050565b610c3381610fdd565b82525050565b610c4281610fdd565b82525050565b6000610c5382610f19565b610c5d8185610f31565b9350610c6883610f09565b8060005b83811015610c99578151610c808882610c12565b9750610c8b83610f24565b925050600181019050610c6c565b5085935050505092915050565b610caf81610fef565b82525050565b6000610cc2601083610f42565b9150610ccd826111ee565b602082019050919050565b6000610ce5600f83610f42565b9150610cf082611217565b602082019050919050565b6000610d08600e83610f42565b9150610d1382611240565b602082019050919050565b610d2781610ff9565b82525050565b610d3681611027565b82525050565b610d4581611031565b82525050565b610d5481611041565b82525050565b610d6381611055565b82525050565b6000602082019050610d7e6000830184610c39565b92915050565b6000604082019050610d996000830185610c39565b610da66020830184610c39565b9392505050565b60006020820190508181036000830152610dc78184610c48565b905092915050565b600060a082019050610de46000830188610ca6565b610df16020830187610d4b565b610dfe6040830186610d1e565b610e0b6060830185610d3c565b610e186080830184610d3c565b9695505050505050565b60006020820190508181036000830152610e3b81610cb5565b9050919050565b60006020820190508181036000830152610e5b81610cd8565b9050919050565b60006020820190508181036000830152610e7b81610cfb565b9050919050565b6000602082019050610e976000830184610d2d565b92915050565b6000602082019050610eb26000830184610d5a565b92915050565b6000610ec2610ed3565b9050610ece8282611062565b919050565b6000604051905090565b600067ffffffffffffffff821115610ef857610ef761119a565b5b602082029050602081019050919050565b6000819050602082019050919050565b600081519050919050565b6000602082019050919050565b600082825260208201905092915050565b600082825260208201905092915050565b6000610f5e82611027565b9150610f6983611027565b9250827fffffffffffffffffffffffffffffffffffffffffffffffffffffffffffffffff03821115610f9e57610f9d61110d565b5b828201905092915050565b6000610fb482611027565b9150610fbf83611027565b925082821015610fd257610fd161110d565b5b828203905092915050565b6000610fe882611007565b9050919050565b6000819050919050565b600061ffff82169050919050565b600073ffffffffffffffffffffffffffffffffffffffff82169050919050565b6000819050919050565b600063ffffffff82169050919050565b600067ffffffffffffffff82169050919050565b600060ff82169050919050565b61106b826111dd565b810181811067ffffffffffffffff8211171561108a5761108961119a565b5b80604052505050565b600061109e82611027565b91507fffffffffffffffffffffffffffffffffffffffffffffffffffffffffffffffff8214156110d1576110d061110d565b5b600182019050919050565b60006110e782611027565b91506110f283611027565b9250826111025761110161113c565b5b828206905092915050565b7f4e487b7100000000000000000000000000000000000000000000000000000000600052601160045260246000fd5b7f4e487b7100000000000000000000000000000000000000000000000000000000600052601260045260246000fd5b7f4e487b7100000000000000000000000000000000000000000000000000000000600052603260045260246000fd5b7f4e487b7100000000000000000000000000000000000000000000000000000000600052604160045260246000fd5b600080fd5b600080fd5b600080fd5b600080fd5b6000601f19601f8301169050919050565b7f526f6c6c20696e2070726f677265737300000000000000000000000000000000600082015250565b7f44696365206e6f7420726f6c6c65640000000000000000000000000000000000600082015250565b7f416c726561647920726f6c6c6564000000000000000000000000000000000000600082015250565b61127281610fdd565b811461127d57600080fd5b50565b61128981611027565b811461129457600080fd5b5056fea26469706673582212208b349647dee6a6b0907b4c01b473126474ad87d72864a82ef5f5c06b29f7a57064736f6c63430008070033",
					"opcodes": "PUSH1 0xA0 PUSH1 0x40 MSTORE PUSH20 0x2CA8E0C643BDE4C2E08AB1FA0DA3401ADAD7734D PUSH1 0x1 PUSH1 0x0 PUSH2 0x100 EXP DUP2 SLOAD DUP2 PUSH20 0xFFFFFFFFFFFFFFFFFFFFFFFFFFFFFFFFFFFFFFFF MUL NOT AND SWAP1 DUP4 PUSH20 0xFFFFFFFFFFFFFFFFFFFFFFFFFFFFFFFFFFFFFFFF AND MUL OR SWAP1 SSTORE POP PUSH32 0x79D3D8832D904592C0BF9818B621522C988BB8B0C05CDC3B15AEA1B6E8DB0C15 PUSH1 0x0 SHL PUSH1 0x2 SSTORE PUSH2 0x9C40 PUSH1 0x3 PUSH1 0x0 PUSH2 0x100 EXP DUP2 SLOAD DUP2 PUSH4 0xFFFFFFFF MUL NOT AND SWAP1 DUP4 PUSH4 0xFFFFFFFF AND MUL OR SWAP1 SSTORE POP PUSH1 0x3 DUP1 PUSH1 0x4 PUSH2 0x100 EXP DUP2 SLOAD DUP2 PUSH2 0xFFFF MUL NOT AND SWAP1 DUP4 PUSH2 0xFFFF AND MUL OR SWAP1 SSTORE POP PUSH1 0x1 PUSH1 0x3 PUSH1 0x6 PUSH2 0x100 EXP DUP2 SLOAD DUP2 PUSH4 0xFFFFFFFF MUL NOT AND SWAP1 DUP4 PUSH4 0xFFFFFFFF AND MUL OR SWAP1 SSTORE POP CALLVALUE DUP1 ISZERO PUSH3 0xEF JUMPI PUSH1 0x0 DUP1 REVERT JUMPDEST POP PUSH1 0x40 MLOAD PUSH3 0x15B2 CODESIZE SUB DUP1 PUSH3 0x15B2 DUP4 CODECOPY DUP2 DUP2 ADD PUSH1 0x40 MSTORE DUP2 ADD SWAP1 PUSH3 0x115 SWAP2 SWAP1 PUSH3 0x25A JUMP JUMPDEST PUSH1 0x1 PUSH1 0x0 SWAP1 SLOAD SWAP1 PUSH2 0x100 EXP SWAP1 DIV PUSH20 0xFFFFFFFFFFFFFFFFFFFFFFFFFFFFFFFFFFFFFFFF AND DUP1 PUSH20 0xFFFFFFFFFFFFFFFFFFFFFFFFFFFFFFFFFFFFFFFF AND PUSH1 0x80 DUP2 PUSH20 0xFFFFFFFFFFFFFFFFFFFFFFFFFFFFFFFFFFFFFFFF AND PUSH1 0x60 SHL DUP2 MSTORE POP POP POP PUSH1 0x1 PUSH1 0x0 SWAP1 SLOAD SWAP1 PUSH2 0x100 EXP SWAP1 DIV PUSH20 0xFFFFFFFFFFFFFFFFFFFFFFFFFFFFFFFFFFFFFFFF AND PUSH1 0x0 DUP1 PUSH2 0x100 EXP DUP2 SLOAD DUP2 PUSH20 0xFFFFFFFFFFFFFFFFFFFFFFFFFFFFFFFFFFFFFFFF MUL NOT AND SWAP1 DUP4 PUSH20 0xFFFFFFFFFFFFFFFFFFFFFFFFFFFFFFFFFFFFFFFF AND MUL OR SWAP1 SSTORE POP CALLER PUSH1 0x3 PUSH1 0xA PUSH2 0x100 EXP DUP2 SLOAD DUP2 PUSH20 0xFFFFFFFFFFFFFFFFFFFFFFFFFFFFFFFFFFFFFFFF MUL NOT AND SWAP1 DUP4 PUSH20 0xFFFFFFFFFFFFFFFFFFFFFFFFFFFFFFFFFFFFFFFF AND MUL OR SWAP1 SSTORE POP DUP1 PUSH1 0x0 PUSH1 0x14 PUSH2 0x100 EXP DUP2 SLOAD DUP2 PUSH8 0xFFFFFFFFFFFFFFFF MUL NOT AND SWAP1 DUP4 PUSH8 0xFFFFFFFFFFFFFFFF AND MUL OR SWAP1 SSTORE POP POP PUSH3 0x2BF JUMP JUMPDEST PUSH1 0x0 DUP2 MLOAD SWAP1 POP PUSH3 0x254 DUP2 PUSH3 0x2A5 JUMP JUMPDEST SWAP3 SWAP2 POP POP JUMP JUMPDEST PUSH1 0x0 PUSH1 0x20 DUP3 DUP5 SUB SLT ISZERO PUSH3 0x273 JUMPI PUSH3 0x272 PUSH3 0x2A0 JUMP JUMPDEST JUMPDEST PUSH1 0x0 PUSH3 0x283 DUP5 DUP3 DUP6 ADD PUSH3 0x243 JUMP JUMPDEST SWAP2 POP POP SWAP3 SWAP2 POP POP JUMP JUMPDEST PUSH1 0x0 PUSH8 0xFFFFFFFFFFFFFFFF DUP3 AND SWAP1 POP SWAP2 SWAP1 POP JUMP JUMPDEST PUSH1 0x0 DUP1 REVERT JUMPDEST PUSH3 0x2B0 DUP2 PUSH3 0x28C JUMP JUMPDEST DUP2 EQ PUSH3 0x2BC JUMPI PUSH1 0x0 DUP1 REVERT JUMPDEST POP JUMP JUMPDEST PUSH1 0x80 MLOAD PUSH1 0x60 SHR PUSH2 0x12CD PUSH3 0x2E5 PUSH1 0x0 CODECOPY PUSH1 0x0 DUP2 DUP2 PUSH2 0x1ED ADD MSTORE PUSH2 0x241 ADD MSTORE PUSH2 0x12CD PUSH1 0x0 RETURN INVALID PUSH1 0x80 PUSH1 0x40 MSTORE CALLVALUE DUP1 ISZERO PUSH2 0x10 JUMPI PUSH1 0x0 DUP1 REVERT JUMPDEST POP PUSH1 0x4 CALLDATASIZE LT PUSH2 0x7D JUMPI PUSH1 0x0 CALLDATALOAD PUSH1 0xE0 SHR DUP1 PUSH4 0x4AA66B28 GT PUSH2 0x5B JUMPI DUP1 PUSH4 0x4AA66B28 EQ PUSH2 0xEC JUMPI DUP1 PUSH4 0x646F2A16 EQ PUSH2 0x11C JUMPI DUP1 PUSH4 0xCFB09651 EQ PUSH2 0x14C JUMPI DUP1 PUSH4 0xE8ACE5D7 EQ PUSH2 0x17C JUMPI PUSH2 0x7D JUMP JUMPDEST DUP1 PUSH4 0x15C6AEE2 EQ PUSH2 0x82 JUMPI DUP1 PUSH4 0x1FE543E3 EQ PUSH2 0xB2 JUMPI DUP1 PUSH4 0x302BCC57 EQ PUSH2 0xCE JUMPI JUMPDEST PUSH1 0x0 DUP1 REVERT JUMPDEST PUSH2 0x9C PUSH1 0x4 DUP1 CALLDATASIZE SUB DUP2 ADD SWAP1 PUSH2 0x97 SWAP2 SWAP1 PUSH2 0xB5C JUMP JUMPDEST PUSH2 0x1AC JUMP JUMPDEST PUSH1 0x40 MLOAD PUSH2 0xA9 SWAP2 SWAP1 PUSH2 0xD69 JUMP JUMPDEST PUSH1 0x40 MLOAD DUP1 SWAP2 SUB SWAP1 RETURN JUMPDEST PUSH2 0xCC PUSH1 0x4 DUP1 CALLDATASIZE SUB DUP2 ADD SWAP1 PUSH2 0xC7 SWAP2 SWAP1 PUSH2 0xBB6 JUMP JUMPDEST PUSH2 0x1EB JUMP JUMPDEST STOP JUMPDEST PUSH2 0xD6 PUSH2 0x2AB JUMP JUMPDEST PUSH1 0x40 MLOAD PUSH2 0xE3 SWAP2 SWAP1 PUSH2 0xE82 JUMP JUMPDEST PUSH1 0x40 MLOAD DUP1 SWAP2 SUB SWAP1 RETURN JUMPDEST PUSH2 0x106 PUSH1 0x4 DUP1 CALLDATASIZE SUB DUP2 ADD SWAP1 PUSH2 0x101 SWAP2 SWAP1 PUSH2 0xB5C JUMP JUMPDEST PUSH2 0x2B8 JUMP JUMPDEST PUSH1 0x40 MLOAD PUSH2 0x113 SWAP2 SWAP1 PUSH2 0xE9D JUMP JUMPDEST PUSH1 0x40 MLOAD DUP1 SWAP2 SUB SWAP1 RETURN JUMPDEST PUSH2 0x136 PUSH1 0x4 DUP1 CALLDATASIZE SUB DUP2 ADD SWAP1 PUSH2 0x131 SWAP2 SWAP1 PUSH2 0xB2F JUMP JUMPDEST PUSH2 0x3BB JUMP JUMPDEST PUSH1 0x40 MLOAD PUSH2 0x143 SWAP2 SWAP1 PUSH2 0xE9D JUMP JUMPDEST PUSH1 0x40 MLOAD DUP1 SWAP2 SUB SWAP1 RETURN JUMPDEST PUSH2 0x166 PUSH1 0x4 DUP1 CALLDATASIZE SUB DUP2 ADD SWAP1 PUSH2 0x161 SWAP2 SWAP1 PUSH2 0xB2F JUMP JUMPDEST PUSH2 0x511 JUMP JUMPDEST PUSH1 0x40 MLOAD PUSH2 0x173 SWAP2 SWAP1 PUSH2 0xDAD JUMP JUMPDEST PUSH1 0x40 MLOAD DUP1 SWAP2 SUB SWAP1 RETURN JUMPDEST PUSH2 0x196 PUSH1 0x4 DUP1 CALLDATASIZE SUB DUP2 ADD SWAP1 PUSH2 0x191 SWAP2 SWAP1 PUSH2 0xB2F JUMP JUMPDEST PUSH2 0x604 JUMP JUMPDEST PUSH1 0x40 MLOAD PUSH2 0x1A3 SWAP2 SWAP1 PUSH2 0xE82 JUMP JUMPDEST PUSH1 0x40 MLOAD DUP1 SWAP2 SUB SWAP1 RETURN JUMPDEST PUSH1 0x4 DUP2 DUP2 SLOAD DUP2 LT PUSH2 0x1BC JUMPI PUSH1 0x0 DUP1 REVERT JUMPDEST SWAP1 PUSH1 0x0 MSTORE PUSH1 0x20 PUSH1 0x0 KECCAK256 ADD PUSH1 0x0 SWAP2 POP SLOAD SWAP1 PUSH2 0x100 EXP SWAP1 DIV PUSH20 0xFFFFFFFFFFFFFFFFFFFFFFFFFFFFFFFFFFFFFFFF AND DUP2 JUMP JUMPDEST PUSH32 0x0 PUSH20 0xFFFFFFFFFFFFFFFFFFFFFFFFFFFFFFFFFFFFFFFF AND CALLER PUSH20 0xFFFFFFFFFFFFFFFFFFFFFFFFFFFFFFFFFFFFFFFF AND EQ PUSH2 0x29D JUMPI CALLER PUSH32 0x0 PUSH1 0x40 MLOAD PUSH32 0x1CF993F400000000000000000000000000000000000000000000000000000000 DUP2 MSTORE PUSH1 0x4 ADD PUSH2 0x294 SWAP3 SWAP2 SWAP1 PUSH2 0xD84 JUMP JUMPDEST PUSH1 0x40 MLOAD DUP1 SWAP2 SUB SWAP1 REVERT JUMPDEST PUSH2 0x2A7 DUP3 DUP3 PUSH2 0x970 JUMP JUMPDEST POP POP JUMP JUMPDEST PUSH1 0x0 PUSH1 0x4 DUP1 SLOAD SWAP1 POP SWAP1 POP SWAP1 JUMP JUMPDEST PUSH1 0x0 DUP1 PUSH1 0x40 MLOAD DUP1 PUSH2 0x280 ADD PUSH1 0x40 MSTORE DUP1 PUSH1 0x1 PUSH1 0xFF AND DUP2 MSTORE PUSH1 0x20 ADD PUSH1 0x2 PUSH1 0xFF AND DUP2 MSTORE PUSH1 0x20 ADD PUSH1 0x3 PUSH1 0xFF AND DUP2 MSTORE PUSH1 0x20 ADD PUSH1 0x4 PUSH1 0xFF AND DUP2 MSTORE PUSH1 0x20 ADD PUSH1 0x5 PUSH1 0xFF AND DUP2 MSTORE PUSH1 0x20 ADD PUSH1 0x6 PUSH1 0xFF AND DUP2 MSTORE PUSH1 0x20 ADD PUSH1 0x7 PUSH1 0xFF AND DUP2 MSTORE PUSH1 0x20 ADD PUSH1 0x8 PUSH1 0xFF AND DUP2 MSTORE PUSH1 0x20 ADD PUSH1 0x9 PUSH1 0xFF AND DUP2 MSTORE PUSH1 0x20 ADD PUSH1 0xA PUSH1 0xFF AND DUP2 MSTORE PUSH1 0x20 ADD PUSH1 0xB PUSH1 0xFF AND DUP2 MSTORE PUSH1 0x20 ADD PUSH1 0xC PUSH1 0xFF AND DUP2 MSTORE PUSH1 0x20 ADD PUSH1 0xD PUSH1 0xFF AND DUP2 MSTORE PUSH1 0x20 ADD PUSH1 0xE PUSH1 0xFF AND DUP2 MSTORE PUSH1 0x20 ADD PUSH1 0xF PUSH1 0xFF AND DUP2 MSTORE PUSH1 0x20 ADD PUSH1 0x10 PUSH1 0xFF AND DUP2 MSTORE PUSH1 0x20 ADD PUSH1 0x11 PUSH1 0xFF AND DUP2 MSTORE PUSH1 0x20 ADD PUSH1 0x12 PUSH1 0xFF AND DUP2 MSTORE PUSH1 0x20 ADD PUSH1 0x13 PUSH1 0xFF AND DUP2 MSTORE PUSH1 0x20 ADD PUSH1 0x14 PUSH1 0xFF AND DUP2 MSTORE POP SWAP1 POP DUP1 PUSH1 0x1 DUP5 PUSH2 0x39D SWAP2 SWAP1 PUSH2 0xFA9 JUMP JUMPDEST PUSH1 0x14 DUP2 LT PUSH2 0x3AE JUMPI PUSH2 0x3AD PUSH2 0x116B JUMP JUMPDEST JUMPDEST PUSH1 0x20 MUL ADD MLOAD SWAP2 POP POP SWAP2 SWAP1 POP JUMP JUMPDEST PUSH1 0x0 DUP1 PUSH1 0x6 PUSH1 0x0 DUP5 PUSH20 0xFFFFFFFFFFFFFFFFFFFFFFFFFFFFFFFFFFFFFFFF AND PUSH20 0xFFFFFFFFFFFFFFFFFFFFFFFFFFFFFFFFFFFFFFFF AND DUP2 MSTORE PUSH1 0x20 ADD SWAP1 DUP2 MSTORE PUSH1 0x20 ADD PUSH1 0x0 KECCAK256 SLOAD EQ ISZERO PUSH2 0x43F JUMPI PUSH1 0x40 MLOAD PUSH32 0x8C379A000000000000000000000000000000000000000000000000000000000 DUP2 MSTORE PUSH1 0x4 ADD PUSH2 0x436 SWAP1 PUSH2 0xE42 JUMP JUMPDEST PUSH1 0x40 MLOAD DUP1 SWAP2 SUB SWAP1 REVERT JUMPDEST PUSH1 0x2A PUSH1 0x6 PUSH1 0x0 DUP5 PUSH20 0xFFFFFFFFFFFFFFFFFFFFFFFFFFFFFFFFFFFFFFFF AND PUSH20 0xFFFFFFFFFFFFFFFFFFFFFFFFFFFFFFFFFFFFFFFF AND DUP2 MSTORE PUSH1 0x20 ADD SWAP1 DUP2 MSTORE PUSH1 0x20 ADD PUSH1 0x0 KECCAK256 SLOAD EQ ISZERO PUSH2 0x4C2 JUMPI PUSH1 0x40 MLOAD PUSH32 0x8C379A000000000000000000000000000000000000000000000000000000000 DUP2 MSTORE PUSH1 0x4 ADD PUSH2 0x4B9 SWAP1 PUSH2 0xE22 JUMP JUMPDEST PUSH1 0x40 MLOAD DUP1 SWAP2 SUB SWAP1 REVERT JUMPDEST PUSH2 0x50A PUSH1 0x6 PUSH1 0x0 DUP5 PUSH20 0xFFFFFFFFFFFFFFFFFFFFFFFFFFFFFFFFFFFFFFFF AND PUSH20 0xFFFFFFFFFFFFFFFFFFFFFFFFFFFFFFFFFFFFFFFF AND DUP2 MSTORE PUSH1 0x20 ADD SWAP1 DUP2 MSTORE PUSH1 0x20 ADD PUSH1 0x0 KECCAK256 SLOAD PUSH2 0x2B8 JUMP JUMPDEST SWAP1 POP SWAP2 SWAP1 POP JUMP JUMPDEST PUSH1 0x60 PUSH1 0x4 DUP3 SWAP1 DUP1 PUSH1 0x1 DUP2 SLOAD ADD DUP1 DUP3 SSTORE DUP1 SWAP2 POP POP PUSH1 0x1 SWAP1 SUB SWAP1 PUSH1 0x0 MSTORE PUSH1 0x20 PUSH1 0x0 KECCAK256 ADD PUSH1 0x0 SWAP1 SWAP2 SWAP1 SWAP2 SWAP1 SWAP2 PUSH2 0x100 EXP DUP2 SLOAD DUP2 PUSH20 0xFFFFFFFFFFFFFFFFFFFFFFFFFFFFFFFFFFFFFFFF MUL NOT AND SWAP1 DUP4 PUSH20 0xFFFFFFFFFFFFFFFFFFFFFFFFFFFFFFFFFFFFFFFF AND MUL OR SWAP1 SSTORE POP PUSH1 0x4 DUP1 SLOAD DUP1 PUSH1 0x20 MUL PUSH1 0x20 ADD PUSH1 0x40 MLOAD SWAP1 DUP2 ADD PUSH1 0x40 MSTORE DUP1 SWAP3 SWAP2 SWAP1 DUP2 DUP2 MSTORE PUSH1 0x20 ADD DUP3 DUP1 SLOAD DUP1 ISZERO PUSH2 0x5F8 JUMPI PUSH1 0x20 MUL DUP3 ADD SWAP2 SWAP1 PUSH1 0x0 MSTORE PUSH1 0x20 PUSH1 0x0 KECCAK256 SWAP1 JUMPDEST DUP2 PUSH1 0x0 SWAP1 SLOAD SWAP1 PUSH2 0x100 EXP SWAP1 DIV PUSH20 0xFFFFFFFFFFFFFFFFFFFFFFFFFFFFFFFFFFFFFFFF AND PUSH20 0xFFFFFFFFFFFFFFFFFFFFFFFFFFFFFFFFFFFFFFFF AND DUP2 MSTORE PUSH1 0x20 ADD SWAP1 PUSH1 0x1 ADD SWAP1 DUP1 DUP4 GT PUSH2 0x5AE JUMPI JUMPDEST POP POP POP POP POP SWAP1 POP SWAP2 SWAP1 POP JUMP JUMPDEST PUSH1 0x0 PUSH1 0x3 PUSH1 0xA SWAP1 SLOAD SWAP1 PUSH2 0x100 EXP SWAP1 DIV PUSH20 0xFFFFFFFFFFFFFFFFFFFFFFFFFFFFFFFFFFFFFFFF AND PUSH20 0xFFFFFFFFFFFFFFFFFFFFFFFFFFFFFFFFFFFFFFFF AND CALLER PUSH20 0xFFFFFFFFFFFFFFFFFFFFFFFFFFFFFFFFFFFFFFFF AND EQ PUSH2 0x660 JUMPI PUSH1 0x0 DUP1 REVERT JUMPDEST PUSH1 0x0 PUSH2 0x66A PUSH2 0x2AB JUMP JUMPDEST SWAP1 POP PUSH1 0x0 JUMPDEST DUP2 DUP2 LT ISZERO PUSH2 0x969 JUMPI DUP4 PUSH20 0xFFFFFFFFFFFFFFFFFFFFFFFFFFFFFFFFFFFFFFFF AND PUSH1 0x4 DUP3 DUP2 SLOAD DUP2 LT PUSH2 0x6A2 JUMPI PUSH2 0x6A1 PUSH2 0x116B JUMP JUMPDEST JUMPDEST SWAP1 PUSH1 0x0 MSTORE PUSH1 0x20 PUSH1 0x0 KECCAK256 ADD PUSH1 0x0 SWAP1 SLOAD SWAP1 PUSH2 0x100 EXP SWAP1 DIV PUSH20 0xFFFFFFFFFFFFFFFFFFFFFFFFFFFFFFFFFFFFFFFF AND PUSH20 0xFFFFFFFFFFFFFFFFFFFFFFFFFFFFFFFFFFFFFFFF AND EQ ISZERO PUSH2 0x6EE JUMPI PUSH2 0x969 JUMP JUMPDEST PUSH2 0x6F7 DUP5 PUSH2 0x511 JUMP JUMPDEST POP PUSH1 0x0 PUSH1 0x6 PUSH1 0x0 DUP7 PUSH20 0xFFFFFFFFFFFFFFFFFFFFFFFFFFFFFFFFFFFFFFFF AND PUSH20 0xFFFFFFFFFFFFFFFFFFFFFFFFFFFFFFFFFFFFFFFF AND DUP2 MSTORE PUSH1 0x20 ADD SWAP1 DUP2 MSTORE PUSH1 0x20 ADD PUSH1 0x0 KECCAK256 SLOAD EQ PUSH2 0x77A JUMPI PUSH1 0x40 MLOAD PUSH32 0x8C379A000000000000000000000000000000000000000000000000000000000 DUP2 MSTORE PUSH1 0x4 ADD PUSH2 0x771 SWAP1 PUSH2 0xE62 JUMP JUMPDEST PUSH1 0x40 MLOAD DUP1 SWAP2 SUB SWAP1 REVERT JUMPDEST PUSH1 0x0 DUP1 SLOAD SWAP1 PUSH2 0x100 EXP SWAP1 DIV PUSH20 0xFFFFFFFFFFFFFFFFFFFFFFFFFFFFFFFFFFFFFFFF AND PUSH20 0xFFFFFFFFFFFFFFFFFFFFFFFFFFFFFFFFFFFFFFFF AND PUSH4 0x5D3B1D30 PUSH1 0x2 SLOAD PUSH1 0x0 PUSH1 0x14 SWAP1 SLOAD SWAP1 PUSH2 0x100 EXP SWAP1 DIV PUSH8 0xFFFFFFFFFFFFFFFF AND PUSH1 0x3 PUSH1 0x4 SWAP1 SLOAD SWAP1 PUSH2 0x100 EXP SWAP1 DIV PUSH2 0xFFFF AND PUSH1 0x3 PUSH1 0x0 SWAP1 SLOAD SWAP1 PUSH2 0x100 EXP SWAP1 DIV PUSH4 0xFFFFFFFF AND PUSH1 0x3 PUSH1 0x6 SWAP1 SLOAD SWAP1 PUSH2 0x100 EXP SWAP1 DIV PUSH4 0xFFFFFFFF AND PUSH1 0x40 MLOAD DUP7 PUSH4 0xFFFFFFFF AND PUSH1 0xE0 SHL DUP2 MSTORE PUSH1 0x4 ADD PUSH2 0x827 SWAP6 SWAP5 SWAP4 SWAP3 SWAP2 SWAP1 PUSH2 0xDCF JUMP JUMPDEST PUSH1 0x20 PUSH1 0x40 MLOAD DUP1 DUP4 SUB DUP2 PUSH1 0x0 DUP8 DUP1 EXTCODESIZE ISZERO DUP1 ISZERO PUSH2 0x841 JUMPI PUSH1 0x0 DUP1 REVERT JUMPDEST POP GAS CALL ISZERO DUP1 ISZERO PUSH2 0x855 JUMPI RETURNDATASIZE PUSH1 0x0 DUP1 RETURNDATACOPY RETURNDATASIZE PUSH1 0x0 REVERT JUMPDEST POP POP POP POP PUSH1 0x40 MLOAD RETURNDATASIZE PUSH1 0x1F NOT PUSH1 0x1F DUP3 ADD AND DUP3 ADD DUP1 PUSH1 0x40 MSTORE POP DUP2 ADD SWAP1 PUSH2 0x879 SWAP2 SWAP1 PUSH2 0xB89 JUMP JUMPDEST SWAP3 POP DUP4 PUSH1 0x5 PUSH1 0x0 DUP6 DUP2 MSTORE PUSH1 0x20 ADD SWAP1 DUP2 MSTORE PUSH1 0x20 ADD PUSH1 0x0 KECCAK256 PUSH1 0x0 PUSH2 0x100 EXP DUP2 SLOAD DUP2 PUSH20 0xFFFFFFFFFFFFFFFFFFFFFFFFFFFFFFFFFFFFFFFF MUL NOT AND SWAP1 DUP4 PUSH20 0xFFFFFFFFFFFFFFFFFFFFFFFFFFFFFFFFFFFFFFFF AND MUL OR SWAP1 SSTORE POP PUSH1 0x2A PUSH1 0x6 PUSH1 0x0 DUP7 PUSH20 0xFFFFFFFFFFFFFFFFFFFFFFFFFFFFFFFFFFFFFFFF AND PUSH20 0xFFFFFFFFFFFFFFFFFFFFFFFFFFFFFFFFFFFFFFFF AND DUP2 MSTORE PUSH1 0x20 ADD SWAP1 DUP2 MSTORE PUSH1 0x20 ADD PUSH1 0x0 KECCAK256 DUP2 SWAP1 SSTORE POP DUP4 PUSH20 0xFFFFFFFFFFFFFFFFFFFFFFFFFFFFFFFFFFFFFFFF AND DUP4 PUSH32 0x3E7FDEAB84C01CE5308321CAA0B460E1C4EC3C7099223D79634D9A71D99932E3 PUSH1 0x40 MLOAD PUSH1 0x40 MLOAD DUP1 SWAP2 SUB SWAP1 LOG3 DUP1 DUP1 PUSH2 0x961 SWAP1 PUSH2 0x1093 JUMP JUMPDEST SWAP2 POP POP PUSH2 0x66F JUMP JUMPDEST POP POP SWAP2 SWAP1 POP JUMP JUMPDEST PUSH1 0x0 PUSH1 0x1 PUSH1 0x14 DUP4 PUSH1 0x0 DUP2 MLOAD DUP2 LT PUSH2 0x98A JUMPI PUSH2 0x989 PUSH2 0x116B JUMP JUMPDEST JUMPDEST PUSH1 0x20 MUL PUSH1 0x20 ADD ADD MLOAD PUSH2 0x99C SWAP2 SWAP1 PUSH2 0x10DC JUMP JUMPDEST PUSH2 0x9A6 SWAP2 SWAP1 PUSH2 0xF53 JUMP JUMPDEST SWAP1 POP DUP1 PUSH1 0x6 PUSH1 0x0 PUSH1 0x5 PUSH1 0x0 DUP8 DUP2 MSTORE PUSH1 0x20 ADD SWAP1 DUP2 MSTORE PUSH1 0x20 ADD PUSH1 0x0 KECCAK256 PUSH1 0x0 SWAP1 SLOAD SWAP1 PUSH2 0x100 EXP SWAP1 DIV PUSH20 0xFFFFFFFFFFFFFFFFFFFFFFFFFFFFFFFFFFFFFFFF AND PUSH20 0xFFFFFFFFFFFFFFFFFFFFFFFFFFFFFFFFFFFFFFFF AND PUSH20 0xFFFFFFFFFFFFFFFFFFFFFFFFFFFFFFFFFFFFFFFF AND DUP2 MSTORE PUSH1 0x20 ADD SWAP1 DUP2 MSTORE PUSH1 0x20 ADD PUSH1 0x0 KECCAK256 DUP2 SWAP1 SSTORE POP DUP1 DUP4 PUSH32 0x54D97C1F7E5ABAD75BD421455CD4DD296852A52E1EA721F2CDB66D06FA2082A9 PUSH1 0x40 MLOAD PUSH1 0x40 MLOAD DUP1 SWAP2 SUB SWAP1 LOG3 POP POP POP JUMP JUMPDEST PUSH1 0x0 PUSH2 0xA65 PUSH2 0xA60 DUP5 PUSH2 0xEDD JUMP JUMPDEST PUSH2 0xEB8 JUMP JUMPDEST SWAP1 POP DUP1 DUP4 DUP3 MSTORE PUSH1 0x20 DUP3 ADD SWAP1 POP DUP3 DUP6 PUSH1 0x20 DUP7 MUL DUP3 ADD GT ISZERO PUSH2 0xA88 JUMPI PUSH2 0xA87 PUSH2 0x11CE JUMP JUMPDEST JUMPDEST PUSH1 0x0 JUMPDEST DUP6 DUP2 LT ISZERO PUSH2 0xAB8 JUMPI DUP2 PUSH2 0xA9E DUP9 DUP3 PUSH2 0xB05 JUMP JUMPDEST DUP5 MSTORE PUSH1 0x20 DUP5 ADD SWAP4 POP PUSH1 0x20 DUP4 ADD SWAP3 POP POP PUSH1 0x1 DUP2 ADD SWAP1 POP PUSH2 0xA8B JUMP JUMPDEST POP POP POP SWAP4 SWAP3 POP POP POP JUMP JUMPDEST PUSH1 0x0 DUP2 CALLDATALOAD SWAP1 POP PUSH2 0xAD1 DUP2 PUSH2 0x1269 JUMP JUMPDEST SWAP3 SWAP2 POP POP JUMP JUMPDEST PUSH1 0x0 DUP3 PUSH1 0x1F DUP4 ADD SLT PUSH2 0xAEC JUMPI PUSH2 0xAEB PUSH2 0x11C9 JUMP JUMPDEST JUMPDEST DUP2 CALLDATALOAD PUSH2 0xAFC DUP5 DUP3 PUSH1 0x20 DUP7 ADD PUSH2 0xA52 JUMP JUMPDEST SWAP2 POP POP SWAP3 SWAP2 POP POP JUMP JUMPDEST PUSH1 0x0 DUP2 CALLDATALOAD SWAP1 POP PUSH2 0xB14 DUP2 PUSH2 0x1280 JUMP JUMPDEST SWAP3 SWAP2 POP POP JUMP JUMPDEST PUSH1 0x0 DUP2 MLOAD SWAP1 POP PUSH2 0xB29 DUP2 PUSH2 0x1280 JUMP JUMPDEST SWAP3 SWAP2 POP POP JUMP JUMPDEST PUSH1 0x0 PUSH1 0x20 DUP3 DUP5 SUB SLT ISZERO PUSH2 0xB45 JUMPI PUSH2 0xB44 PUSH2 0x11D8 JUMP JUMPDEST JUMPDEST PUSH1 0x0 PUSH2 0xB53 DUP5 DUP3 DUP6 ADD PUSH2 0xAC2 JUMP JUMPDEST SWAP2 POP POP SWAP3 SWAP2 POP POP JUMP JUMPDEST PUSH1 0x0 PUSH1 0x20 DUP3 DUP5 SUB SLT ISZERO PUSH2 0xB72 JUMPI PUSH2 0xB71 PUSH2 0x11D8 JUMP JUMPDEST JUMPDEST PUSH1 0x0 PUSH2 0xB80 DUP5 DUP3 DUP6 ADD PUSH2 0xB05 JUMP JUMPDEST SWAP2 POP POP SWAP3 SWAP2 POP POP JUMP JUMPDEST PUSH1 0x0 PUSH1 0x20 DUP3 DUP5 SUB SLT ISZERO PUSH2 0xB9F JUMPI PUSH2 0xB9E PUSH2 0x11D8 JUMP JUMPDEST JUMPDEST PUSH1 0x0 PUSH2 0xBAD DUP5 DUP3 DUP6 ADD PUSH2 0xB1A JUMP JUMPDEST SWAP2 POP POP SWAP3 SWAP2 POP POP JUMP JUMPDEST PUSH1 0x0 DUP1 PUSH1 0x40 DUP4 DUP6 SUB SLT ISZERO PUSH2 0xBCD JUMPI PUSH2 0xBCC PUSH2 0x11D8 JUMP JUMPDEST JUMPDEST PUSH1 0x0 PUSH2 0xBDB DUP6 DUP3 DUP7 ADD PUSH2 0xB05 JUMP JUMPDEST SWAP3 POP POP PUSH1 0x20 DUP4 ADD CALLDATALOAD PUSH8 0xFFFFFFFFFFFFFFFF DUP2 GT ISZERO PUSH2 0xBFC JUMPI PUSH2 0xBFB PUSH2 0x11D3 JUMP JUMPDEST JUMPDEST PUSH2 0xC08 DUP6 DUP3 DUP7 ADD PUSH2 0xAD7 JUMP JUMPDEST SWAP2 POP POP SWAP3 POP SWAP3 SWAP1 POP JUMP JUMPDEST PUSH1 0x0 PUSH2 0xC1E DUP4 DUP4 PUSH2 0xC2A JUMP JUMPDEST PUSH1 0x20 DUP4 ADD SWAP1 POP SWAP3 SWAP2 POP POP JUMP JUMPDEST PUSH2 0xC33 DUP2 PUSH2 0xFDD JUMP JUMPDEST DUP3 MSTORE POP POP JUMP JUMPDEST PUSH2 0xC42 DUP2 PUSH2 0xFDD JUMP JUMPDEST DUP3 MSTORE POP POP JUMP JUMPDEST PUSH1 0x0 PUSH2 0xC53 DUP3 PUSH2 0xF19 JUMP JUMPDEST PUSH2 0xC5D DUP2 DUP6 PUSH2 0xF31 JUMP JUMPDEST SWAP4 POP PUSH2 0xC68 DUP4 PUSH2 0xF09 JUMP JUMPDEST DUP1 PUSH1 0x0 JUMPDEST DUP4 DUP2 LT ISZERO PUSH2 0xC99 JUMPI DUP2 MLOAD PUSH2 0xC80 DUP9 DUP3 PUSH2 0xC12 JUMP JUMPDEST SWAP8 POP PUSH2 0xC8B DUP4 PUSH2 0xF24 JUMP JUMPDEST SWAP3 POP POP PUSH1 0x1 DUP2 ADD SWAP1 POP PUSH2 0xC6C JUMP JUMPDEST POP DUP6 SWAP4 POP POP POP POP SWAP3 SWAP2 POP POP JUMP JUMPDEST PUSH2 0xCAF DUP2 PUSH2 0xFEF JUMP JUMPDEST DUP3 MSTORE POP POP JUMP JUMPDEST PUSH1 0x0 PUSH2 0xCC2 PUSH1 0x10 DUP4 PUSH2 0xF42 JUMP JUMPDEST SWAP2 POP PUSH2 0xCCD DUP3 PUSH2 0x11EE JUMP JUMPDEST PUSH1 0x20 DUP3 ADD SWAP1 POP SWAP2 SWAP1 POP JUMP JUMPDEST PUSH1 0x0 PUSH2 0xCE5 PUSH1 0xF DUP4 PUSH2 0xF42 JUMP JUMPDEST SWAP2 POP PUSH2 0xCF0 DUP3 PUSH2 0x1217 JUMP JUMPDEST PUSH1 0x20 DUP3 ADD SWAP1 POP SWAP2 SWAP1 POP JUMP JUMPDEST PUSH1 0x0 PUSH2 0xD08 PUSH1 0xE DUP4 PUSH2 0xF42 JUMP JUMPDEST SWAP2 POP PUSH2 0xD13 DUP3 PUSH2 0x1240 JUMP JUMPDEST PUSH1 0x20 DUP3 ADD SWAP1 POP SWAP2 SWAP1 POP JUMP JUMPDEST PUSH2 0xD27 DUP2 PUSH2 0xFF9 JUMP JUMPDEST DUP3 MSTORE POP POP JUMP JUMPDEST PUSH2 0xD36 DUP2 PUSH2 0x1027 JUMP JUMPDEST DUP3 MSTORE POP POP JUMP JUMPDEST PUSH2 0xD45 DUP2 PUSH2 0x1031 JUMP JUMPDEST DUP3 MSTORE POP POP JUMP JUMPDEST PUSH2 0xD54 DUP2 PUSH2 0x1041 JUMP JUMPDEST DUP3 MSTORE POP POP JUMP JUMPDEST PUSH2 0xD63 DUP2 PUSH2 0x1055 JUMP JUMPDEST DUP3 MSTORE POP POP JUMP JUMPDEST PUSH1 0x0 PUSH1 0x20 DUP3 ADD SWAP1 POP PUSH2 0xD7E PUSH1 0x0 DUP4 ADD DUP5 PUSH2 0xC39 JUMP JUMPDEST SWAP3 SWAP2 POP POP JUMP JUMPDEST PUSH1 0x0 PUSH1 0x40 DUP3 ADD SWAP1 POP PUSH2 0xD99 PUSH1 0x0 DUP4 ADD DUP6 PUSH2 0xC39 JUMP JUMPDEST PUSH2 0xDA6 PUSH1 0x20 DUP4 ADD DUP5 PUSH2 0xC39 JUMP JUMPDEST SWAP4 SWAP3 POP POP POP JUMP JUMPDEST PUSH1 0x0 PUSH1 0x20 DUP3 ADD SWAP1 POP DUP2 DUP2 SUB PUSH1 0x0 DUP4 ADD MSTORE PUSH2 0xDC7 DUP2 DUP5 PUSH2 0xC48 JUMP JUMPDEST SWAP1 POP SWAP3 SWAP2 POP POP JUMP JUMPDEST PUSH1 0x0 PUSH1 0xA0 DUP3 ADD SWAP1 POP PUSH2 0xDE4 PUSH1 0x0 DUP4 ADD DUP9 PUSH2 0xCA6 JUMP JUMPDEST PUSH2 0xDF1 PUSH1 0x20 DUP4 ADD DUP8 PUSH2 0xD4B JUMP JUMPDEST PUSH2 0xDFE PUSH1 0x40 DUP4 ADD DUP7 PUSH2 0xD1E JUMP JUMPDEST PUSH2 0xE0B PUSH1 0x60 DUP4 ADD DUP6 PUSH2 0xD3C JUMP JUMPDEST PUSH2 0xE18 PUSH1 0x80 DUP4 ADD DUP5 PUSH2 0xD3C JUMP JUMPDEST SWAP7 SWAP6 POP POP POP POP POP POP JUMP JUMPDEST PUSH1 0x0 PUSH1 0x20 DUP3 ADD SWAP1 POP DUP2 DUP2 SUB PUSH1 0x0 DUP4 ADD MSTORE PUSH2 0xE3B DUP2 PUSH2 0xCB5 JUMP JUMPDEST SWAP1 POP SWAP2 SWAP1 POP JUMP JUMPDEST PUSH1 0x0 PUSH1 0x20 DUP3 ADD SWAP1 POP DUP2 DUP2 SUB PUSH1 0x0 DUP4 ADD MSTORE PUSH2 0xE5B DUP2 PUSH2 0xCD8 JUMP JUMPDEST SWAP1 POP SWAP2 SWAP1 POP JUMP JUMPDEST PUSH1 0x0 PUSH1 0x20 DUP3 ADD SWAP1 POP DUP2 DUP2 SUB PUSH1 0x0 DUP4 ADD MSTORE PUSH2 0xE7B DUP2 PUSH2 0xCFB JUMP JUMPDEST SWAP1 POP SWAP2 SWAP1 POP JUMP JUMPDEST PUSH1 0x0 PUSH1 0x20 DUP3 ADD SWAP1 POP PUSH2 0xE97 PUSH1 0x0 DUP4 ADD DUP5 PUSH2 0xD2D JUMP JUMPDEST SWAP3 SWAP2 POP POP JUMP JUMPDEST PUSH1 0x0 PUSH1 0x20 DUP3 ADD SWAP1 POP PUSH2 0xEB2 PUSH1 0x0 DUP4 ADD DUP5 PUSH2 0xD5A JUMP JUMPDEST SWAP3 SWAP2 POP POP JUMP JUMPDEST PUSH1 0x0 PUSH2 0xEC2 PUSH2 0xED3 JUMP JUMPDEST SWAP1 POP PUSH2 0xECE DUP3 DUP3 PUSH2 0x1062 JUMP JUMPDEST SWAP2 SWAP1 POP JUMP JUMPDEST PUSH1 0x0 PUSH1 0x40 MLOAD SWAP1 POP SWAP1 JUMP JUMPDEST PUSH1 0x0 PUSH8 0xFFFFFFFFFFFFFFFF DUP3 GT ISZERO PUSH2 0xEF8 JUMPI PUSH2 0xEF7 PUSH2 0x119A JUMP JUMPDEST JUMPDEST PUSH1 0x20 DUP3 MUL SWAP1 POP PUSH1 0x20 DUP2 ADD SWAP1 POP SWAP2 SWAP1 POP JUMP JUMPDEST PUSH1 0x0 DUP2 SWAP1 POP PUSH1 0x20 DUP3 ADD SWAP1 POP SWAP2 SWAP1 POP JUMP JUMPDEST PUSH1 0x0 DUP2 MLOAD SWAP1 POP SWAP2 SWAP1 POP JUMP JUMPDEST PUSH1 0x0 PUSH1 0x20 DUP3 ADD SWAP1 POP SWAP2 SWAP1 POP JUMP JUMPDEST PUSH1 0x0 DUP3 DUP3 MSTORE PUSH1 0x20 DUP3 ADD SWAP1 POP SWAP3 SWAP2 POP POP JUMP JUMPDEST PUSH1 0x0 DUP3 DUP3 MSTORE PUSH1 0x20 DUP3 ADD SWAP1 POP SWAP3 SWAP2 POP POP JUMP JUMPDEST PUSH1 0x0 PUSH2 0xF5E DUP3 PUSH2 0x1027 JUMP JUMPDEST SWAP2 POP PUSH2 0xF69 DUP4 PUSH2 0x1027 JUMP JUMPDEST SWAP3 POP DUP3 PUSH32 0xFFFFFFFFFFFFFFFFFFFFFFFFFFFFFFFFFFFFFFFFFFFFFFFFFFFFFFFFFFFFFFFF SUB DUP3 GT ISZERO PUSH2 0xF9E JUMPI PUSH2 0xF9D PUSH2 0x110D JUMP JUMPDEST JUMPDEST DUP3 DUP3 ADD SWAP1 POP SWAP3 SWAP2 POP POP JUMP JUMPDEST PUSH1 0x0 PUSH2 0xFB4 DUP3 PUSH2 0x1027 JUMP JUMPDEST SWAP2 POP PUSH2 0xFBF DUP4 PUSH2 0x1027 JUMP JUMPDEST SWAP3 POP DUP3 DUP3 LT ISZERO PUSH2 0xFD2 JUMPI PUSH2 0xFD1 PUSH2 0x110D JUMP JUMPDEST JUMPDEST DUP3 DUP3 SUB SWAP1 POP SWAP3 SWAP2 POP POP JUMP JUMPDEST PUSH1 0x0 PUSH2 0xFE8 DUP3 PUSH2 0x1007 JUMP JUMPDEST SWAP1 POP SWAP2 SWAP1 POP JUMP JUMPDEST PUSH1 0x0 DUP2 SWAP1 POP SWAP2 SWAP1 POP JUMP JUMPDEST PUSH1 0x0 PUSH2 0xFFFF DUP3 AND SWAP1 POP SWAP2 SWAP1 POP JUMP JUMPDEST PUSH1 0x0 PUSH20 0xFFFFFFFFFFFFFFFFFFFFFFFFFFFFFFFFFFFFFFFF DUP3 AND SWAP1 POP SWAP2 SWAP1 POP JUMP JUMPDEST PUSH1 0x0 DUP2 SWAP1 POP SWAP2 SWAP1 POP JUMP JUMPDEST PUSH1 0x0 PUSH4 0xFFFFFFFF DUP3 AND SWAP1 POP SWAP2 SWAP1 POP JUMP JUMPDEST PUSH1 0x0 PUSH8 0xFFFFFFFFFFFFFFFF DUP3 AND SWAP1 POP SWAP2 SWAP1 POP JUMP JUMPDEST PUSH1 0x0 PUSH1 0xFF DUP3 AND SWAP1 POP SWAP2 SWAP1 POP JUMP JUMPDEST PUSH2 0x106B DUP3 PUSH2 0x11DD JUMP JUMPDEST DUP2 ADD DUP2 DUP2 LT PUSH8 0xFFFFFFFFFFFFFFFF DUP3 GT OR ISZERO PUSH2 0x108A JUMPI PUSH2 0x1089 PUSH2 0x119A JUMP JUMPDEST JUMPDEST DUP1 PUSH1 0x40 MSTORE POP POP POP JUMP JUMPDEST PUSH1 0x0 PUSH2 0x109E DUP3 PUSH2 0x1027 JUMP JUMPDEST SWAP2 POP PUSH32 0xFFFFFFFFFFFFFFFFFFFFFFFFFFFFFFFFFFFFFFFFFFFFFFFFFFFFFFFFFFFFFFFF DUP3 EQ ISZERO PUSH2 0x10D1 JUMPI PUSH2 0x10D0 PUSH2 0x110D JUMP JUMPDEST JUMPDEST PUSH1 0x1 DUP3 ADD SWAP1 POP SWAP2 SWAP1 POP JUMP JUMPDEST PUSH1 0x0 PUSH2 0x10E7 DUP3 PUSH2 0x1027 JUMP JUMPDEST SWAP2 POP PUSH2 0x10F2 DUP4 PUSH2 0x1027 JUMP JUMPDEST SWAP3 POP DUP3 PUSH2 0x1102 JUMPI PUSH2 0x1101 PUSH2 0x113C JUMP JUMPDEST JUMPDEST DUP3 DUP3 MOD SWAP1 POP SWAP3 SWAP2 POP POP JUMP JUMPDEST PUSH32 0x4E487B7100000000000000000000000000000000000000000000000000000000 PUSH1 0x0 MSTORE PUSH1 0x11 PUSH1 0x4 MSTORE PUSH1 0x24 PUSH1 0x0 REVERT JUMPDEST PUSH32 0x4E487B7100000000000000000000000000000000000000000000000000000000 PUSH1 0x0 MSTORE PUSH1 0x12 PUSH1 0x4 MSTORE PUSH1 0x24 PUSH1 0x0 REVERT JUMPDEST PUSH32 0x4E487B7100000000000000000000000000000000000000000000000000000000 PUSH1 0x0 MSTORE PUSH1 0x32 PUSH1 0x4 MSTORE PUSH1 0x24 PUSH1 0x0 REVERT JUMPDEST PUSH32 0x4E487B7100000000000000000000000000000000000000000000000000000000 PUSH1 0x0 MSTORE PUSH1 0x41 PUSH1 0x4 MSTORE PUSH1 0x24 PUSH1 0x0 REVERT JUMPDEST PUSH1 0x0 DUP1 REVERT JUMPDEST PUSH1 0x0 DUP1 REVERT JUMPDEST PUSH1 0x0 DUP1 REVERT JUMPDEST PUSH1 0x0 DUP1 REVERT JUMPDEST PUSH1 0x0 PUSH1 0x1F NOT PUSH1 0x1F DUP4 ADD AND SWAP1 POP SWAP2 SWAP1 POP JUMP JUMPDEST PUSH32 0x526F6C6C20696E2070726F677265737300000000000000000000000000000000 PUSH1 0x0 DUP3 ADD MSTORE POP JUMP JUMPDEST PUSH32 0x44696365206E6F7420726F6C6C65640000000000000000000000000000000000 PUSH1 0x0 DUP3 ADD MSTORE POP JUMP JUMPDEST PUSH32 0x416C726561647920726F6C6C6564000000000000000000000000000000000000 PUSH1 0x0 DUP3 ADD MSTORE POP JUMP JUMPDEST PUSH2 0x1272 DUP2 PUSH2 0xFDD JUMP JUMPDEST DUP2 EQ PUSH2 0x127D JUMPI PUSH1 0x0 DUP1 REVERT JUMPDEST POP JUMP JUMPDEST PUSH2 0x1289 DUP2 PUSH2 0x1027 JUMP JUMPDEST DUP2 EQ PUSH2 0x1294 JUMPI PUSH1 0x0 DUP1 REVERT JUMPDEST POP JUMP INVALID LOG2 PUSH5 0x6970667358 0x22 SLT KECCAK256 DUP12 CALLVALUE SWAP7 SELFBALANCE 0xDE 0xE6 0xA6 0xB0 SWAP1 PUSH28 0x4C01B473126474AD87D72864A82EF5F5C06B29F7A57064736F6C6343 STOP ADDMOD SMOD STOP CALLER "
				},
				"gasEstimates": {
					"creation": {
						"codeDepositCost": "962600",
						"executionCost": "infinite",
						"totalCost": "infinite"
					},
					"external": {
						"collectBonus(address)": "infinite",
						"createPlayer(address)": "infinite",
						"getBonus(uint256)": "infinite",
						"playerAddresses(uint256)": "4957",
						"playerCount()": "2490",
						"rawFulfillRandomWords(uint256,uint256[])": "infinite",
						"storePlayer(address)": "infinite"
					},
					"internal": {
						"fulfillRandomWords(uint256,uint256[] memory)": "infinite"
					}
				},
				"methodIdentifiers": {
					"collectBonus(address)": "646f2a16",
					"createPlayer(address)": "e8ace5d7",
					"getBonus(uint256)": "4aa66b28",
					"playerAddresses(uint256)": "15c6aee2",
					"playerCount()": "302bcc57",
					"rawFulfillRandomWords(uint256,uint256[])": "1fe543e3",
					"storePlayer(address)": "cfb09651"
				}
			},
			"storageLayout": {
				"storage": [
					{
						"astId": 12,
						"contract": "contracts/Favors.sol:Favors",
						"label": "COORDINATOR",
						"offset": 0,
						"slot": "0",
						"type": "t_contract(VRFCoordinatorV2Interface)460"
					},
					{
						"astId": 14,
						"contract": "contracts/Favors.sol:Favors",
						"label": "s_subscriptionId",
						"offset": 20,
						"slot": "0",
						"type": "t_uint64"
					},
					{
						"astId": 17,
						"contract": "contracts/Favors.sol:Favors",
						"label": "vrfCoordinator",
						"offset": 0,
						"slot": "1",
						"type": "t_address"
					},
					{
						"astId": 20,
						"contract": "contracts/Favors.sol:Favors",
						"label": "s_keyHash",
						"offset": 0,
						"slot": "2",
						"type": "t_bytes32"
					},
					{
						"astId": 23,
						"contract": "contracts/Favors.sol:Favors",
						"label": "callbackGasLimit",
						"offset": 0,
						"slot": "3",
						"type": "t_uint32"
					},
					{
						"astId": 26,
						"contract": "contracts/Favors.sol:Favors",
						"label": "requestConfirmations",
						"offset": 4,
						"slot": "3",
						"type": "t_uint16"
					},
					{
						"astId": 29,
						"contract": "contracts/Favors.sol:Favors",
						"label": "numWords",
						"offset": 6,
						"slot": "3",
						"type": "t_uint32"
					},
					{
						"astId": 31,
						"contract": "contracts/Favors.sol:Favors",
						"label": "s_owner",
						"offset": 10,
						"slot": "3",
						"type": "t_address"
					},
					{
						"astId": 34,
						"contract": "contracts/Favors.sol:Favors",
						"label": "playerAddresses",
						"offset": 0,
						"slot": "4",
						"type": "t_array(t_address)dyn_storage"
					},
					{
						"astId": 64,
						"contract": "contracts/Favors.sol:Favors",
						"label": "s_rollers",
						"offset": 0,
						"slot": "5",
						"type": "t_mapping(t_uint256,t_address)"
					},
					{
						"astId": 68,
						"contract": "contracts/Favors.sol:Favors",
						"label": "s_results",
						"offset": 0,
						"slot": "6",
						"type": "t_mapping(t_address,t_uint256)"
					}
				],
				"types": {
					"t_address": {
						"encoding": "inplace",
						"label": "address",
						"numberOfBytes": "20"
					},
					"t_array(t_address)dyn_storage": {
						"base": "t_address",
						"encoding": "dynamic_array",
						"label": "address[]",
						"numberOfBytes": "32"
					},
					"t_bytes32": {
						"encoding": "inplace",
						"label": "bytes32",
						"numberOfBytes": "32"
					},
					"t_contract(VRFCoordinatorV2Interface)460": {
						"encoding": "inplace",
						"label": "contract VRFCoordinatorV2Interface",
						"numberOfBytes": "20"
					},
					"t_mapping(t_address,t_uint256)": {
						"encoding": "mapping",
						"key": "t_address",
						"label": "mapping(address => uint256)",
						"numberOfBytes": "32",
						"value": "t_uint256"
					},
					"t_mapping(t_uint256,t_address)": {
						"encoding": "mapping",
						"key": "t_uint256",
						"label": "mapping(uint256 => address)",
						"numberOfBytes": "32",
						"value": "t_address"
					},
					"t_uint16": {
						"encoding": "inplace",
						"label": "uint16",
						"numberOfBytes": "2"
					},
					"t_uint256": {
						"encoding": "inplace",
						"label": "uint256",
						"numberOfBytes": "32"
					},
					"t_uint32": {
						"encoding": "inplace",
						"label": "uint32",
						"numberOfBytes": "4"
					},
					"t_uint64": {
						"encoding": "inplace",
						"label": "uint64",
						"numberOfBytes": "8"
					}
				}
			},
			"userdoc": {
				"kind": "user",
				"methods": {
					"collectBonus(address)": {
						"notice": "Get the favor assigned to the player once the address has rolled"
					},
					"constructor": {
						"notice": "Constructor inherits VRFConsumerBaseV2"
					},
					"createPlayer(address)": {
						"notice": "Requests randomness"
					},
					"getBonus(uint256)": {
						"notice": "get a random one time bonus from the id"
					}
				},
				"notice": "Request testnet LINK and ETH here: https://faucets.chain.link/ Find information on LINK Token Contracts and get the latest ETH and LINK faucets here: https://docs.chain.link/docs/link-token-contracts/",
				"version": 1
			}
		}
	}
}